{
  "abi": [
    {
      "type": "constructor",
      "inputs": [
        {
          "name": "_carbonCreditToken",
          "type": "address",
          "internalType": "address"
        },
        {
          "name": "_rewardDistributor",
          "type": "address",
          "internalType": "address"
        },
        {
          "name": "_usdcToken",
          "type": "address",
          "internalType": "address"
        },
        {
          "name": "_initialAdmin",
          "type": "address",
          "internalType": "address"
        },
        {
          "name": "_initialExchangeRate",
          "type": "uint256",
          "internalType": "uint256"
        },
        {
          "name": "_initialProtocolFee",
          "type": "uint256",
          "internalType": "uint256"
        },
        {
          "name": "_initialRewardDistributorPercentage",
          "type": "uint256",
          "internalType": "uint256"
        }
      ],
      "stateMutability": "nonpayable"
    },
    {
      "type": "function",
      "name": "DEFAULT_ADMIN_ROLE",
      "inputs": [],
      "outputs": [
        {
          "name": "",
          "type": "bytes32",
          "internalType": "bytes32"
        }
      ],
      "stateMutability": "view"
    },
    {
      "type": "function",
      "name": "EXCHANGE_MANAGER_ROLE",
      "inputs": [],
      "outputs": [
        {
          "name": "",
          "type": "bytes32",
          "internalType": "bytes32"
        }
      ],
      "stateMutability": "view"
    },
    {
      "type": "function",
      "name": "PAUSER_ROLE",
      "inputs": [],
      "outputs": [
        {
          "name": "",
          "type": "bytes32",
          "internalType": "bytes32"
        }
      ],
      "stateMutability": "view"
    },
    {
      "type": "function",
      "name": "RATE_SETTER_ROLE",
      "inputs": [],
      "outputs": [
        {
          "name": "",
          "type": "bytes32",
          "internalType": "bytes32"
        }
      ],
      "stateMutability": "view"
    },
    {
      "type": "function",
      "name": "REWARD_DEPOSITOR_ROLE",
      "inputs": [],
      "outputs": [
        {
          "name": "",
          "type": "bytes32",
          "internalType": "bytes32"
        }
      ],
      "stateMutability": "view"
    },
    {
      "type": "function",
      "name": "UPGRADER_ROLE",
      "inputs": [],
      "outputs": [
        {
          "name": "",
          "type": "bytes32",
          "internalType": "bytes32"
        }
      ],
      "stateMutability": "view"
    },
    {
      "type": "function",
      "name": "UPGRADE_INTERFACE_VERSION",
      "inputs": [],
      "outputs": [
        {
          "name": "",
          "type": "string",
          "internalType": "string"
        }
      ],
      "stateMutability": "view"
    },
    {
      "type": "function",
      "name": "carbonCreditToken",
      "inputs": [],
      "outputs": [
        {
          "name": "",
          "type": "address",
          "internalType": "contract ICarbonCreditToken"
        }
      ],
      "stateMutability": "view"
    },
    {
      "type": "function",
      "name": "exchangeCreditsForUSDC",
      "inputs": [
        {
          "name": "creditAmount",
          "type": "uint256",
          "internalType": "uint256"
        }
      ],
      "outputs": [],
      "stateMutability": "nonpayable"
    },
    {
      "type": "function",
      "name": "exchangeEnabled",
      "inputs": [],
      "outputs": [
        {
          "name": "",
          "type": "bool",
          "internalType": "bool"
        }
      ],
      "stateMutability": "view"
    },
    {
      "type": "function",
      "name": "exchangeRate",
      "inputs": [],
      "outputs": [
        {
          "name": "",
          "type": "uint256",
          "internalType": "uint256"
        }
      ],
      "stateMutability": "view"
    },
    {
      "type": "function",
      "name": "getRoleAdmin",
      "inputs": [
        {
          "name": "role",
          "type": "bytes32",
          "internalType": "bytes32"
        }
      ],
      "outputs": [
        {
          "name": "",
          "type": "bytes32",
          "internalType": "bytes32"
        }
      ],
      "stateMutability": "view"
    },
    {
      "type": "function",
      "name": "grantRole",
      "inputs": [
        {
          "name": "role",
          "type": "bytes32",
          "internalType": "bytes32"
        },
        {
          "name": "account",
          "type": "address",
          "internalType": "address"
        }
      ],
      "outputs": [],
      "stateMutability": "nonpayable"
    },
    {
      "type": "function",
      "name": "hasRole",
      "inputs": [
        {
          "name": "role",
          "type": "bytes32",
          "internalType": "bytes32"
        },
        {
          "name": "account",
          "type": "address",
          "internalType": "address"
        }
      ],
      "outputs": [
        {
          "name": "",
          "type": "bool",
          "internalType": "bool"
        }
      ],
      "stateMutability": "view"
    },
    {
      "type": "function",
      "name": "pause",
      "inputs": [],
      "outputs": [],
      "stateMutability": "nonpayable"
    },
    {
      "type": "function",
      "name": "paused",
      "inputs": [],
      "outputs": [
        {
          "name": "",
          "type": "bool",
          "internalType": "bool"
        }
      ],
      "stateMutability": "view"
    },
    {
      "type": "function",
      "name": "protocolFeePercentage",
      "inputs": [],
      "outputs": [
        {
          "name": "",
          "type": "uint256",
          "internalType": "uint256"
        }
      ],
      "stateMutability": "view"
    },
    {
      "type": "function",
      "name": "proxiableUUID",
      "inputs": [],
      "outputs": [
        {
          "name": "",
          "type": "bytes32",
          "internalType": "bytes32"
        }
      ],
      "stateMutability": "view"
    },
    {
      "type": "function",
      "name": "renounceRole",
      "inputs": [
        {
          "name": "role",
          "type": "bytes32",
          "internalType": "bytes32"
        },
        {
          "name": "callerConfirmation",
          "type": "address",
          "internalType": "address"
        }
      ],
      "outputs": [],
      "stateMutability": "nonpayable"
    },
    {
      "type": "function",
      "name": "revokeRole",
      "inputs": [
        {
          "name": "role",
          "type": "bytes32",
          "internalType": "bytes32"
        },
        {
          "name": "account",
          "type": "address",
          "internalType": "address"
        }
      ],
      "outputs": [],
      "stateMutability": "nonpayable"
    },
    {
      "type": "function",
      "name": "rewardDistributor",
      "inputs": [],
      "outputs": [
        {
          "name": "",
          "type": "address",
          "internalType": "contract IRewardDistributor"
        }
      ],
      "stateMutability": "view"
    },
    {
      "type": "function",
      "name": "rewardDistributorPercentage",
      "inputs": [],
      "outputs": [
        {
          "name": "",
          "type": "uint256",
          "internalType": "uint256"
        }
      ],
      "stateMutability": "view"
    },
    {
      "type": "function",
      "name": "setExchangeEnabled",
      "inputs": [
        {
          "name": "_enabled",
          "type": "bool",
          "internalType": "bool"
        }
      ],
      "outputs": [],
      "stateMutability": "nonpayable"
    },
    {
      "type": "function",
      "name": "setExchangeRate",
      "inputs": [
        {
          "name": "_newRate",
          "type": "uint256",
          "internalType": "uint256"
        }
      ],
      "outputs": [],
      "stateMutability": "nonpayable"
    },
    {
      "type": "function",
      "name": "setProtocolFee",
      "inputs": [
        {
          "name": "_newFeePercentage",
          "type": "uint256",
          "internalType": "uint256"
        }
      ],
      "outputs": [],
      "stateMutability": "nonpayable"
    },
    {
      "type": "function",
      "name": "setRewardDistributorPercentage",
      "inputs": [
        {
          "name": "_newPercentage",
          "type": "uint256",
          "internalType": "uint256"
        }
      ],
      "outputs": [],
      "stateMutability": "nonpayable"
    },
    {
      "type": "function",
      "name": "setUSDCToken",
      "inputs": [
        {
          "name": "_newUsdcToken",
          "type": "address",
          "internalType": "address"
        }
      ],
      "outputs": [],
      "stateMutability": "nonpayable"
    },
    {
      "type": "function",
      "name": "supportsInterface",
      "inputs": [
        {
          "name": "interfaceId",
          "type": "bytes4",
          "internalType": "bytes4"
        }
      ],
      "outputs": [
        {
          "name": "",
          "type": "bool",
          "internalType": "bool"
        }
      ],
      "stateMutability": "view"
    },
    {
      "type": "function",
      "name": "totalCreditsExchanged",
      "inputs": [],
      "outputs": [
        {
          "name": "",
          "type": "uint256",
          "internalType": "uint256"
        }
      ],
      "stateMutability": "view"
    },
    {
      "type": "function",
      "name": "totalProtocolFees",
      "inputs": [],
      "outputs": [
        {
          "name": "",
          "type": "uint256",
          "internalType": "uint256"
        }
      ],
      "stateMutability": "view"
    },
    {
      "type": "function",
      "name": "totalRewardsFunded",
      "inputs": [],
      "outputs": [
        {
          "name": "",
          "type": "uint256",
          "internalType": "uint256"
        }
      ],
      "stateMutability": "view"
    },
    {
      "type": "function",
      "name": "totalUsdcCollected",
      "inputs": [],
      "outputs": [
        {
          "name": "",
          "type": "uint256",
          "internalType": "uint256"
        }
      ],
      "stateMutability": "view"
    },
    {
      "type": "function",
      "name": "unpause",
      "inputs": [],
      "outputs": [],
      "stateMutability": "nonpayable"
    },
    {
      "type": "function",
      "name": "upgradeToAndCall",
      "inputs": [
        {
          "name": "newImplementation",
          "type": "address",
          "internalType": "address"
        },
        {
          "name": "data",
          "type": "bytes",
          "internalType": "bytes"
        }
      ],
      "outputs": [],
      "stateMutability": "payable"
    },
    {
      "type": "function",
      "name": "usdcToken",
      "inputs": [],
      "outputs": [
        {
          "name": "",
          "type": "address",
          "internalType": "contract IERC20"
        }
      ],
      "stateMutability": "view"
    },
    {
      "type": "event",
      "name": "CreditsExchanged",
      "inputs": [
        {
          "name": "user",
          "type": "address",
          "indexed": true,
          "internalType": "address"
        },
        {
          "name": "creditAmount",
          "type": "uint256",
          "indexed": false,
          "internalType": "uint256"
        },
        {
          "name": "usdcAmount",
          "type": "uint256",
          "indexed": false,
          "internalType": "uint256"
        },
        {
          "name": "feeAmount",
          "type": "uint256",
          "indexed": false,
          "internalType": "uint256"
        }
      ],
      "anonymous": false
    },
    {
      "type": "event",
      "name": "ExchangeRateSet",
      "inputs": [
        {
          "name": "oldRate",
          "type": "uint256",
          "indexed": false,
          "internalType": "uint256"
        },
        {
          "name": "newRate",
          "type": "uint256",
          "indexed": false,
          "internalType": "uint256"
        }
      ],
      "anonymous": false
    },
    {
      "type": "event",
      "name": "ExchangeStatusChanged",
      "inputs": [
        {
          "name": "enabled",
          "type": "bool",
          "indexed": false,
          "internalType": "bool"
        }
      ],
      "anonymous": false
    },
    {
      "type": "event",
      "name": "Paused",
      "inputs": [
        {
          "name": "account",
          "type": "address",
          "indexed": false,
          "internalType": "address"
        }
      ],
      "anonymous": false
    },
    {
      "type": "event",
      "name": "ProtocolFeeSet",
      "inputs": [
        {
          "name": "oldFee",
          "type": "uint256",
          "indexed": false,
          "internalType": "uint256"
        },
        {
          "name": "newFee",
          "type": "uint256",
          "indexed": false,
          "internalType": "uint256"
        }
      ],
      "anonymous": false
    },
    {
      "type": "event",
      "name": "RewardDistributorPercentageSet",
      "inputs": [
        {
          "name": "oldPercentage",
          "type": "uint256",
          "indexed": false,
          "internalType": "uint256"
        },
        {
          "name": "newPercentage",
          "type": "uint256",
          "indexed": false,
          "internalType": "uint256"
        }
      ],
      "anonymous": false
    },
    {
      "type": "event",
      "name": "RewardsPoolFunded",
      "inputs": [
        {
          "name": "amount",
          "type": "uint256",
          "indexed": false,
          "internalType": "uint256"
        }
      ],
      "anonymous": false
    },
    {
      "type": "event",
      "name": "RoleAdminChanged",
      "inputs": [
        {
          "name": "role",
          "type": "bytes32",
          "indexed": true,
          "internalType": "bytes32"
        },
        {
          "name": "previousAdminRole",
          "type": "bytes32",
          "indexed": true,
          "internalType": "bytes32"
        },
        {
          "name": "newAdminRole",
          "type": "bytes32",
          "indexed": true,
          "internalType": "bytes32"
        }
      ],
      "anonymous": false
    },
    {
      "type": "event",
      "name": "RoleGranted",
      "inputs": [
        {
          "name": "role",
          "type": "bytes32",
          "indexed": true,
          "internalType": "bytes32"
        },
        {
          "name": "account",
          "type": "address",
          "indexed": true,
          "internalType": "address"
        },
        {
          "name": "sender",
          "type": "address",
          "indexed": true,
          "internalType": "address"
        }
      ],
      "anonymous": false
    },
    {
      "type": "event",
      "name": "RoleRevoked",
      "inputs": [
        {
          "name": "role",
          "type": "bytes32",
          "indexed": true,
          "internalType": "bytes32"
        },
        {
          "name": "account",
          "type": "address",
          "indexed": true,
          "internalType": "address"
        },
        {
          "name": "sender",
          "type": "address",
          "indexed": true,
          "internalType": "address"
        }
      ],
      "anonymous": false
    },
    {
      "type": "event",
      "name": "USDCTokenSet",
      "inputs": [
        {
          "name": "tokenAddress",
          "type": "address",
          "indexed": true,
          "internalType": "address"
        }
      ],
      "anonymous": false
    },
    {
      "type": "event",
      "name": "Unpaused",
      "inputs": [
        {
          "name": "account",
          "type": "address",
          "indexed": false,
          "internalType": "address"
        }
      ],
      "anonymous": false
    },
    {
      "type": "event",
      "name": "Upgraded",
      "inputs": [
        {
          "name": "implementation",
          "type": "address",
          "indexed": true,
          "internalType": "address"
        }
      ],
      "anonymous": false
    },
    {
      "type": "error",
      "name": "AccessControlBadConfirmation",
      "inputs": []
    },
    {
      "type": "error",
      "name": "AccessControlUnauthorizedAccount",
      "inputs": [
        {
          "name": "account",
          "type": "address",
          "internalType": "address"
        },
        {
          "name": "neededRole",
          "type": "bytes32",
          "internalType": "bytes32"
        }
      ]
    },
    {
      "type": "error",
      "name": "AddressEmptyCode",
      "inputs": [
        {
          "name": "target",
          "type": "address",
          "internalType": "address"
        }
      ]
    },
    {
      "type": "error",
      "name": "ERC1967InvalidImplementation",
      "inputs": [
        {
          "name": "implementation",
          "type": "address",
          "internalType": "address"
        }
      ]
    },
    {
      "type": "error",
      "name": "ERC1967NonPayable",
      "inputs": []
    },
    {
      "type": "error",
      "name": "EnforcedPause",
      "inputs": []
    },
    {
      "type": "error",
      "name": "ExchangeDisabled",
      "inputs": []
    },
    {
      "type": "error",
      "name": "ExpectedPause",
      "inputs": []
    },
    {
      "type": "error",
      "name": "FailedCall",
      "inputs": []
    },
    {
      "type": "error",
      "name": "InsufficientUSDCLiquidity",
      "inputs": []
    },
    {
      "type": "error",
      "name": "InvalidAmount",
      "inputs": [
        {
          "name": "amount",
          "type": "uint256",
          "internalType": "uint256"
        }
      ]
    },
    {
      "type": "error",
      "name": "InvalidExchangeRate",
      "inputs": []
    },
    {
      "type": "error",
      "name": "InvalidTokenAddress",
      "inputs": []
    },
    {
      "type": "error",
      "name": "ReentrancyGuardReentrantCall",
      "inputs": []
    },
    {
      "type": "error",
      "name": "SafeERC20FailedOperation",
      "inputs": [
        {
          "name": "token",
          "type": "address",
          "internalType": "address"
        }
      ]
    },
    {
      "type": "error",
      "name": "UUPSUnauthorizedCallContext",
      "inputs": []
    },
    {
      "type": "error",
      "name": "UUPSUnsupportedProxiableUUID",
      "inputs": [
        {
          "name": "slot",
          "type": "bytes32",
          "internalType": "bytes32"
        }
      ]
    },
    {
      "type": "error",
      "name": "ZeroAddress",
      "inputs": []
    }
  ],
  "bytecode": {
    "object": "0x60a060405230608052348015610013575f80fd5b5060405161254338038061254383398101604081905261003291610437565b60016002556001600160a01b03871661005e5760405163d92e233d60e01b815260040160405180910390fd5b6001600160a01b0386166100855760405163d92e233d60e01b815260040160405180910390fd5b6001600160a01b0385166100ac5760405163d92e233d60e01b815260040160405180910390fd5b6001600160a01b0384166100d35760405163d92e233d60e01b815260040160405180910390fd5b825f036100f35760405163a2ec3a5560e01b815260040160405180910390fd5b620f4240821061011e57604051633728b83d60e01b8152600481018390526024015b60405180910390fd5b620f424081111561014557604051633728b83d60e01b815260048101829052602401610115565b600380546001600160a01b03808a166001600160a01b031992831617909255600480548984169083161790556005805492881692909116919091179055600683905560078290556008819055600d805460ff191660011790556101a85f85610373565b506101d37f65d7a28e3265b37a6474929f336521b332c1681b933f6cb9f3376673440d862a85610373565b506101fe7f189ab7a9244df0848122154315af71fe140f3db0fe014031783b0946b8c9d2e385610373565b506102297f71cf91ec47860248170f85b42d74f92cb733e7fa0012c4ada3d85e11b64cb19485610373565b506102547fe9eb2d474dbf4ad0af01dbc745ec0e55d70ca9366fe9b52307997e913bad905c85610373565b50604080515f8152602081018590527ffdc7afada07c13f476d01041c5b7881beb960152c06d6d1df57fca179f221d69910160405180910390a1604080515f8152602081018490527ffa4067f2d0249edb7594284cabb394f2ec0e4f6168dbd1e3a63f861b67f1188f910160405180910390a1604080515f8152602081018390527f79244c8eddd5ce3ce30d4b8f75e87df3e8c0c969c83f4d31f1f1bfd9d6a5bbd8910160405180910390a16040516001600160a01b038616907f9317e3e59b11620f482b4bb292374da6e5cb9e7ef23cf3f121cacca9a5428f78905f90a2604051600181527feab0d9428381d359574de45e478b84410e5df2d47189ef99fe052d4b0b570aa49060200160405180910390a1505050505050506104a5565b5f828152602081815260408083206001600160a01b038516845290915281205460ff16610413575f838152602081815260408083206001600160a01b03861684529091529020805460ff191660011790556103cb3390565b6001600160a01b0316826001600160a01b0316847f2f8788117e7eff1d82e926ec794901d17c78024a50270940304540a733656f0d60405160405180910390a4506001610416565b505f5b92915050565b80516001600160a01b0381168114610432575f80fd5b919050565b5f805f805f805f60e0888a03121561044d575f80fd5b6104568861041c565b96506104646020890161041c565b95506104726040890161041c565b94506104806060890161041c565b608089015160a08a015160c0909a0151989b979a509598909795969095945092505050565b6080516120786104cb5f395f81816115a0015281816115c9015261180701526120785ff3fe608060405260043610610229575f3560e01c8063787dce3d11610131578063b9160c30116100ac578063e63ab1e91161007c578063f534375211610062578063f5343752146106a8578063f72c0d8b146106c1578063fd48a1e6146106f4575f80fd5b8063e63ab1e914610660578063f526e39a14610693575f80fd5b8063b9160c30146105da578063bf4ace4e1461060d578063d547741f14610622578063db068e0e14610641575f80fd5b806391d1485411610101578063a217fddf116100e7578063a217fddf14610546578063acc2166a14610559578063ad3cb1cc14610585575f80fd5b806391d14854146104d85780639452409614610527575f80fd5b8063787dce3d1461045d5780638456cb591461047c5780638d77ca57146104905780638e50e509146104c3575f80fd5b806336568abe116101c15780634f1ef28611610191578063591c6f2511610177578063591c6f25146104055780635c975abb1461041a57806366dea35814610431575f80fd5b80634f1ef286146103de57806352d1902d146103f1575f80fd5b806336568abe146103815780633ba0b9a9146103a05780633f4ba83a146103b5578063445ec389146103c9575f80fd5b80631d6e53bf116101fc5780631d6e53bf146102f6578063233c5cff14610315578063248a9ca3146103345780632f2ff15d14610362575f80fd5b806301ffc9a71461022d5780630f5a9d011461026157806311eac855146102825780631d31d298146102d3575b5f80fd5b348015610238575f80fd5b5061024c610247366004611cd2565b610727565b60405190151581526020015b60405180910390f35b34801561026c575f80fd5b5061028061027b366004611d32565b6107bf565b005b34801561028d575f80fd5b506005546102ae9073ffffffffffffffffffffffffffffffffffffffff1681565b60405173ffffffffffffffffffffffffffffffffffffffff9091168152602001610258565b3480156102de575f80fd5b506102e860085481565b604051908152602001610258565b348015610301575f80fd5b50610280610310366004611d4d565b6108fa565b348015610320575f80fd5b5061028061032f366004611d4d565b6109b0565b34801561033f575f80fd5b506102e861034e366004611d4d565b5f9081526020819052604090206001015490565b34801561036d575f80fd5b5061028061037c366004611d64565b610f0d565b34801561038c575f80fd5b5061028061039b366004611d64565b610f37565b3480156103ab575f80fd5b506102e860065481565b3480156103c0575f80fd5b50610280610f95565b3480156103d4575f80fd5b506102e8600a5481565b6102806103ec366004611dbf565b610fc7565b3480156103fc575f80fd5b506102e8610fe6565b348015610410575f80fd5b506102e8600c5481565b348015610425575f80fd5b5060015460ff1661024c565b34801561043c575f80fd5b506003546102ae9073ffffffffffffffffffffffffffffffffffffffff1681565b348015610468575f80fd5b50610280610477366004611d4d565b611014565b348015610487575f80fd5b506102806110bb565b34801561049b575f80fd5b506102e87f2b3b34d8f2cbfb9866f3463c0bc43f6d821c949e95f5ca06701a7756b45ebc8e81565b3480156104ce575f80fd5b506102e860075481565b3480156104e3575f80fd5b5061024c6104f2366004611d64565b5f9182526020828152604080842073ffffffffffffffffffffffffffffffffffffffff93909316845291905290205460ff1690565b348015610532575f80fd5b50610280610541366004611ecf565b6110ed565b348015610551575f80fd5b506102e85f81565b348015610564575f80fd5b506004546102ae9073ffffffffffffffffffffffffffffffffffffffff1681565b348015610590575f80fd5b506105cd6040518060400160405280600581526020017f352e302e3000000000000000000000000000000000000000000000000000000081525081565b6040516102589190611eea565b3480156105e5575f80fd5b506102e87f71cf91ec47860248170f85b42d74f92cb733e7fa0012c4ada3d85e11b64cb19481565b348015610618575f80fd5b506102e860095481565b34801561062d575f80fd5b5061028061063c366004611d64565b61117d565b34801561064c575f80fd5b5061028061065b366004611d4d565b6111a1565b34801561066b575f80fd5b506102e87f65d7a28e3265b37a6474929f336521b332c1681b933f6cb9f3376673440d862a81565b34801561069e575f80fd5b506102e8600b5481565b3480156106b3575f80fd5b50600d5461024c9060ff1681565b3480156106cc575f80fd5b506102e87f189ab7a9244df0848122154315af71fe140f3db0fe014031783b0946b8c9d2e381565b3480156106ff575f80fd5b506102e87fe9eb2d474dbf4ad0af01dbc745ec0e55d70ca9366fe9b52307997e913bad905c81565b5f7fffffffff0000000000000000000000000000000000000000000000000000000082167f7965db0b0000000000000000000000000000000000000000000000000000000014806107b957507f01ffc9a7000000000000000000000000000000000000000000000000000000007fffffffff000000000000000000000000000000000000000000000000000000008316145b92915050565b7fe9eb2d474dbf4ad0af01dbc745ec0e55d70ca9366fe9b52307997e913bad905c6107e981611242565b73ffffffffffffffffffffffffffffffffffffffff8216610836576040517fd92e233d00000000000000000000000000000000000000000000000000000000815260040160405180910390fd5b60055473ffffffffffffffffffffffffffffffffffffffff9081169083160361088b576040517f1eb00b0600000000000000000000000000000000000000000000000000000000815260040160405180910390fd5b600580547fffffffffffffffffffffffff00000000000000000000000000000000000000001673ffffffffffffffffffffffffffffffffffffffff84169081179091556040517f9317e3e59b11620f482b4bb292374da6e5cb9e7ef23cf3f121cacca9a5428f78905f90a25050565b7fe9eb2d474dbf4ad0af01dbc745ec0e55d70ca9366fe9b52307997e913bad905c61092481611242565b620f4240821115610969576040517f3728b83d000000000000000000000000000000000000000000000000000000008152600481018390526024015b60405180910390fd5b600880549083905560408051828152602081018590527f79244c8eddd5ce3ce30d4b8f75e87df3e8c0c969c83f4d31f1f1bfd9d6a5bbd891015b60405180910390a1505050565b6109b861124c565b6109c061128d565b600d5460ff166109fc576040517fa6b490cd00000000000000000000000000000000000000000000000000000000815260040160405180910390fd5b805f03610a38576040517f3728b83d00000000000000000000000000000000000000000000000000000000815260048101829052602401610960565b5f6103e860065483610a4a9190611f6a565b610a549190611f81565b90505f620f424060075483610a699190611f6a565b610a739190611f81565b90505f610a808284611fb9565b90505f620f424060085484610a959190611f6a565b610a9f9190611f81565b90505f60035f9054906101000a900473ffffffffffffffffffffffffffffffffffffffff1673ffffffffffffffffffffffffffffffffffffffff1663803db96d6040518163ffffffff1660e01b8152600401602060405180830381865afa158015610b0c573d5f803e3d5ffd5b505050506040513d601f19601f82011682018060405250810190610b309190611fcc565b905073ffffffffffffffffffffffffffffffffffffffff8116610b7f576040517fd92e233d00000000000000000000000000000000000000000000000000000000815260040160405180910390fd5b6003546040517f23b872dd00000000000000000000000000000000000000000000000000000000815233600482015273ffffffffffffffffffffffffffffffffffffffff838116602483015260448201899052909116906323b872dd906064016020604051808303815f875af1158015610bfb573d5f803e3d5ffd5b505050506040513d601f19601f82011682018060405250810190610c1f9190611fe7565b508215610d12576005546040517f70a08231000000000000000000000000000000000000000000000000000000008152306004820152849173ffffffffffffffffffffffffffffffffffffffff16906370a0823190602401602060405180830381865afa158015610c92573d5f803e3d5ffd5b505050506040513d601f19601f82011682018060405250810190610cb69190612002565b1015610cee576040517f4743a67100000000000000000000000000000000000000000000000000000000815260040160405180910390fd5b600554610d129073ffffffffffffffffffffffffffffffffffffffff1633856112cc565b8115610e72576005546040517f70a08231000000000000000000000000000000000000000000000000000000008152306004820152839173ffffffffffffffffffffffffffffffffffffffff16906370a0823190602401602060405180830381865afa158015610d84573d5f803e3d5ffd5b505050506040513d601f19601f82011682018060405250810190610da89190612002565b5050600480546040517f8bdf67f200000000000000000000000000000000000000000000000000000000815291820184905273ffffffffffffffffffffffffffffffffffffffff1690638bdf67f2906024015f604051808303815f87803b158015610e11575f80fd5b505af1925050508015610e22575060015b15610e5b576040518281527f74ff97027ea986e5dfc1f76839aa0d006c8a1d13e27cecfe74415260a88b605b9060200160405180910390a15b81600c5f828254610e6c9190612019565b90915550505b8560095f828254610e839190612019565b9250508190555084600a5f828254610e9b9190612019565b9250508190555083600b5f828254610eb39190612019565b9091555050604080518781526020810185905290810185905233907fd533c252d5058db6b69c09227df283defe7130f4e5410acc185ed9516227426a9060600160405180910390a25050505050610f0a6001600255565b50565b5f82815260208190526040902060010154610f2781611242565b610f318383611359565b50505050565b73ffffffffffffffffffffffffffffffffffffffff81163314610f86576040517f6697b23200000000000000000000000000000000000000000000000000000000815260040160405180910390fd5b610f908282611452565b505050565b7f65d7a28e3265b37a6474929f336521b332c1681b933f6cb9f3376673440d862a610fbf81611242565b610f0a61150b565b610fcf611588565b610fd88261168c565b610fe282826116b6565b5050565b5f610fef6117ef565b507f360894a13ba1a3210667c828492db98dca3e2076cc3735a920a3ca505d382bbc90565b7fe9eb2d474dbf4ad0af01dbc745ec0e55d70ca9366fe9b52307997e913bad905c61103e81611242565b620f4240821061107d576040517f3728b83d00000000000000000000000000000000000000000000000000000000815260048101839052602401610960565b600780549083905560408051828152602081018590527ffa4067f2d0249edb7594284cabb394f2ec0e4f6168dbd1e3a63f861b67f1188f91016109a3565b7f65d7a28e3265b37a6474929f336521b332c1681b933f6cb9f3376673440d862a6110e581611242565b610f0a61185e565b7fe9eb2d474dbf4ad0af01dbc745ec0e55d70ca9366fe9b52307997e913bad905c61111781611242565b600d80547fffffffffffffffffffffffffffffffffffffffffffffffffffffffffffffff00168315159081179091556040519081527feab0d9428381d359574de45e478b84410e5df2d47189ef99fe052d4b0b570aa49060200160405180910390a15050565b5f8281526020819052604090206001015461119781611242565b610f318383611452565b7f71cf91ec47860248170f85b42d74f92cb733e7fa0012c4ada3d85e11b64cb1946111cb81611242565b815f03611204576040517fa2ec3a5500000000000000000000000000000000000000000000000000000000815260040160405180910390fd5b600680549083905560408051828152602081018590527ffdc7afada07c13f476d01041c5b7881beb960152c06d6d1df57fca179f221d6991016109a3565b610f0a81336118b7565b6002805403611287576040517f3ee5aeb500000000000000000000000000000000000000000000000000000000815260040160405180910390fd5b60028055565b60015460ff16156112ca576040517fd93c066500000000000000000000000000000000000000000000000000000000815260040160405180910390fd5b565b6040805173ffffffffffffffffffffffffffffffffffffffff8416602482015260448082018490528251808303909101815260649091019091526020810180517bffffffffffffffffffffffffffffffffffffffffffffffffffffffff167fa9059cbb00000000000000000000000000000000000000000000000000000000179052610f9090849061193c565b5f8281526020818152604080832073ffffffffffffffffffffffffffffffffffffffff8516845290915281205460ff1661144b575f8381526020818152604080832073ffffffffffffffffffffffffffffffffffffffff86168452909152902080547fffffffffffffffffffffffffffffffffffffffffffffffffffffffffffffff001660011790556113e93390565b73ffffffffffffffffffffffffffffffffffffffff168273ffffffffffffffffffffffffffffffffffffffff16847f2f8788117e7eff1d82e926ec794901d17c78024a50270940304540a733656f0d60405160405180910390a45060016107b9565b505f6107b9565b5f8281526020818152604080832073ffffffffffffffffffffffffffffffffffffffff8516845290915281205460ff161561144b575f8381526020818152604080832073ffffffffffffffffffffffffffffffffffffffff8616808552925280832080547fffffffffffffffffffffffffffffffffffffffffffffffffffffffffffffff0016905551339286917ff6391f5c32d9c69d2a47ea670b442974b53935d1edc7fd64eb21e047a839171b9190a45060016107b9565b6115136119db565b600180547fffffffffffffffffffffffffffffffffffffffffffffffffffffffffffffff001690557f5db9ee0a495bf2e6ff9c91a7834c1ba4fdd244a5e8aa4e537bd38aeae4b073aa335b60405173ffffffffffffffffffffffffffffffffffffffff909116815260200160405180910390a1565b3073ffffffffffffffffffffffffffffffffffffffff7f000000000000000000000000000000000000000000000000000000000000000016148061165557507f000000000000000000000000000000000000000000000000000000000000000073ffffffffffffffffffffffffffffffffffffffff1661163c7f360894a13ba1a3210667c828492db98dca3e2076cc3735a920a3ca505d382bbc5473ffffffffffffffffffffffffffffffffffffffff1690565b73ffffffffffffffffffffffffffffffffffffffff1614155b156112ca576040517fe07c8dba00000000000000000000000000000000000000000000000000000000815260040160405180910390fd5b7f189ab7a9244df0848122154315af71fe140f3db0fe014031783b0946b8c9d2e3610fe281611242565b8173ffffffffffffffffffffffffffffffffffffffff166352d1902d6040518163ffffffff1660e01b8152600401602060405180830381865afa92505050801561173b575060408051601f3d9081017fffffffffffffffffffffffffffffffffffffffffffffffffffffffffffffffe016820190925261173891810190612002565b60015b611789576040517f4c9c8ce300000000000000000000000000000000000000000000000000000000815273ffffffffffffffffffffffffffffffffffffffff83166004820152602401610960565b7f360894a13ba1a3210667c828492db98dca3e2076cc3735a920a3ca505d382bbc81146117e5576040517faa1d49a400000000000000000000000000000000000000000000000000000000815260048101829052602401610960565b610f908383611a17565b3073ffffffffffffffffffffffffffffffffffffffff7f000000000000000000000000000000000000000000000000000000000000000016146112ca576040517fe07c8dba00000000000000000000000000000000000000000000000000000000815260040160405180910390fd5b61186661128d565b600180547fffffffffffffffffffffffffffffffffffffffffffffffffffffffffffffff0016811790557f62e78cea01bee320cd4e420270b5ea74000d11b0c9f74754ebdbfc544b05a2583361155e565b5f8281526020818152604080832073ffffffffffffffffffffffffffffffffffffffff8516845290915290205460ff16610fe2576040517fe2517d3f00000000000000000000000000000000000000000000000000000000815273ffffffffffffffffffffffffffffffffffffffff8216600482015260248101839052604401610960565b5f8060205f8451602086015f885af18061195b576040513d5f823e3d81fd5b50505f513d9150811561197257806001141561198c565b73ffffffffffffffffffffffffffffffffffffffff84163b155b15610f31576040517f5274afe700000000000000000000000000000000000000000000000000000000815273ffffffffffffffffffffffffffffffffffffffff85166004820152602401610960565b60015460ff166112ca576040517f8dfc202b00000000000000000000000000000000000000000000000000000000815260040160405180910390fd5b611a2082611a79565b60405173ffffffffffffffffffffffffffffffffffffffff8316907fbc7cd75a20ee27fd9adebab32041f755214dbc6bffa90cc0225b39da2e5c2d3b905f90a2805115611a7157610f908282611b47565b610fe2611bc6565b8073ffffffffffffffffffffffffffffffffffffffff163b5f03611ae1576040517f4c9c8ce300000000000000000000000000000000000000000000000000000000815273ffffffffffffffffffffffffffffffffffffffff82166004820152602401610960565b7f360894a13ba1a3210667c828492db98dca3e2076cc3735a920a3ca505d382bbc80547fffffffffffffffffffffffff00000000000000000000000000000000000000001673ffffffffffffffffffffffffffffffffffffffff92909216919091179055565b60605f808473ffffffffffffffffffffffffffffffffffffffff1684604051611b70919061202c565b5f60405180830381855af49150503d805f8114611ba8576040519150601f19603f3d011682016040523d82523d5f602084013e611bad565b606091505b5091509150611bbd858383611bfe565b95945050505050565b34156112ca576040517fb398979f00000000000000000000000000000000000000000000000000000000815260040160405180910390fd5b606082611c1357611c0e82611c90565b611c89565b8151158015611c37575073ffffffffffffffffffffffffffffffffffffffff84163b155b15611c86576040517f9996b31500000000000000000000000000000000000000000000000000000000815273ffffffffffffffffffffffffffffffffffffffff85166004820152602401610960565b50805b9392505050565b805115611ca05780518082602001fd5b6040517fd6bda27500000000000000000000000000000000000000000000000000000000815260040160405180910390fd5b5f60208284031215611ce2575f80fd5b81357fffffffff0000000000000000000000000000000000000000000000000000000081168114611c89575f80fd5b73ffffffffffffffffffffffffffffffffffffffff81168114610f0a575f80fd5b5f60208284031215611d42575f80fd5b8135611c8981611d11565b5f60208284031215611d5d575f80fd5b5035919050565b5f8060408385031215611d75575f80fd5b823591506020830135611d8781611d11565b809150509250929050565b7f4e487b71000000000000000000000000000000000000000000000000000000005f52604160045260245ffd5b5f8060408385031215611dd0575f80fd5b8235611ddb81611d11565b9150602083013567ffffffffffffffff811115611df6575f80fd5b8301601f81018513611e06575f80fd5b803567ffffffffffffffff811115611e2057611e20611d92565b6040517fffffffffffffffffffffffffffffffffffffffffffffffffffffffffffffffe0603f7fffffffffffffffffffffffffffffffffffffffffffffffffffffffffffffffe0601f8501160116810181811067ffffffffffffffff82111715611e8c57611e8c611d92565b604052818152828201602001871015611ea3575f80fd5b816020840160208301375f602083830101528093505050509250929050565b8015158114610f0a575f80fd5b5f60208284031215611edf575f80fd5b8135611c8981611ec2565b602081525f82518060208401528060208501604085015e5f6040828501015260407fffffffffffffffffffffffffffffffffffffffffffffffffffffffffffffffe0601f83011684010191505092915050565b7f4e487b71000000000000000000000000000000000000000000000000000000005f52601160045260245ffd5b80820281158282048414176107b9576107b9611f3d565b5f82611fb4577f4e487b71000000000000000000000000000000000000000000000000000000005f52601260045260245ffd5b500490565b818103818111156107b9576107b9611f3d565b5f60208284031215611fdc575f80fd5b8151611c8981611d11565b5f60208284031215611ff7575f80fd5b8151611c8981611ec2565b5f60208284031215612012575f80fd5b5051919050565b808201808211156107b9576107b9611f3d565b5f82518060208501845e5f92019182525091905056fea2646970667358221220303dfde60e0004254681beee0d6e83b1937771140cb7c17e858f2d8107345a2d64736f6c634300081a0033",
    "linkReferences": {}
  },
  "methodIdentifiers": {
    "DEFAULT_ADMIN_ROLE()": "a217fddf",
    "EXCHANGE_MANAGER_ROLE()": "fd48a1e6",
    "PAUSER_ROLE()": "e63ab1e9",
    "RATE_SETTER_ROLE()": "b9160c30",
    "REWARD_DEPOSITOR_ROLE()": "8d77ca57",
    "UPGRADER_ROLE()": "f72c0d8b",
    "UPGRADE_INTERFACE_VERSION()": "ad3cb1cc",
    "carbonCreditToken()": "66dea358",
    "exchangeCreditsForUSDC(uint256)": "233c5cff",
    "exchangeEnabled()": "f5343752",
    "exchangeRate()": "3ba0b9a9",
    "getRoleAdmin(bytes32)": "248a9ca3",
    "grantRole(bytes32,address)": "2f2ff15d",
    "hasRole(bytes32,address)": "91d14854",
    "pause()": "8456cb59",
    "paused()": "5c975abb",
    "protocolFeePercentage()": "8e50e509",
    "proxiableUUID()": "52d1902d",
    "renounceRole(bytes32,address)": "36568abe",
    "revokeRole(bytes32,address)": "d547741f",
    "rewardDistributor()": "acc2166a",
    "rewardDistributorPercentage()": "1d31d298",
    "setExchangeEnabled(bool)": "94524096",
    "setExchangeRate(uint256)": "db068e0e",
    "setProtocolFee(uint256)": "787dce3d",
    "setRewardDistributorPercentage(uint256)": "1d6e53bf",
    "setUSDCToken(address)": "0f5a9d01",
    "supportsInterface(bytes4)": "01ffc9a7",
    "totalCreditsExchanged()": "bf4ace4e",
    "totalProtocolFees()": "f526e39a",
    "totalRewardsFunded()": "591c6f25",
    "totalUsdcCollected()": "445ec389",
    "unpause()": "3f4ba83a",
    "upgradeToAndCall(address,bytes)": "4f1ef286",
    "usdcToken()": "11eac855"
  },
  "id": 47
}