{
  "abi": [
    {
      "type": "constructor",
      "inputs": [
        {
          "name": "name",
          "type": "string",
          "internalType": "string"
        },
        {
          "name": "symbol",
          "type": "string",
          "internalType": "string"
        },
        {
          "name": "_initialAdmin",
          "type": "address",
          "internalType": "address"
        },
        {
          "name": "_protocolTreasury",
          "type": "address",
          "internalType": "address"
        }
      ],
      "stateMutability": "nonpayable"
    },
    {
      "type": "function",
      "name": "DEFAULT_ADMIN_ROLE",
      "inputs": [],
      "outputs": [
        {
          "name": "",
          "type": "bytes32",
          "internalType": "bytes32"
        }
      ],
      "stateMutability": "view"
    },
    {
      "type": "function",
      "name": "MINTER_ROLE",
      "inputs": [],
      "outputs": [
        {
          "name": "",
          "type": "bytes32",
          "internalType": "bytes32"
        }
      ],
      "stateMutability": "view"
    },
    {
      "type": "function",
      "name": "PAUSER_ROLE",
      "inputs": [],
      "outputs": [
        {
          "name": "",
          "type": "bytes32",
          "internalType": "bytes32"
        }
      ],
      "stateMutability": "view"
    },
    {
      "type": "function",
      "name": "TREASURY_MANAGER_ROLE",
      "inputs": [],
      "outputs": [
        {
          "name": "",
          "type": "bytes32",
          "internalType": "bytes32"
        }
      ],
      "stateMutability": "view"
    },
    {
      "type": "function",
      "name": "UPGRADER_ROLE",
      "inputs": [],
      "outputs": [
        {
          "name": "",
          "type": "bytes32",
          "internalType": "bytes32"
        }
      ],
      "stateMutability": "view"
    },
    {
      "type": "function",
      "name": "UPGRADE_INTERFACE_VERSION",
      "inputs": [],
      "outputs": [
        {
          "name": "",
          "type": "string",
          "internalType": "string"
        }
      ],
      "stateMutability": "view"
    },
    {
      "type": "function",
      "name": "allowance",
      "inputs": [
        {
          "name": "owner",
          "type": "address",
          "internalType": "address"
        },
        {
          "name": "spender",
          "type": "address",
          "internalType": "address"
        }
      ],
      "outputs": [
        {
          "name": "",
          "type": "uint256",
          "internalType": "uint256"
        }
      ],
      "stateMutability": "view"
    },
    {
      "type": "function",
      "name": "approve",
      "inputs": [
        {
          "name": "spender",
          "type": "address",
          "internalType": "address"
        },
        {
          "name": "value",
          "type": "uint256",
          "internalType": "uint256"
        }
      ],
      "outputs": [
        {
          "name": "",
          "type": "bool",
          "internalType": "bool"
        }
      ],
      "stateMutability": "nonpayable"
    },
    {
      "type": "function",
      "name": "balanceOf",
      "inputs": [
        {
          "name": "account",
          "type": "address",
          "internalType": "address"
        }
      ],
      "outputs": [
        {
          "name": "",
          "type": "uint256",
          "internalType": "uint256"
        }
      ],
      "stateMutability": "view"
    },
    {
      "type": "function",
      "name": "burn",
      "inputs": [
        {
          "name": "value",
          "type": "uint256",
          "internalType": "uint256"
        }
      ],
      "outputs": [],
      "stateMutability": "nonpayable"
    },
    {
      "type": "function",
      "name": "burnFrom",
      "inputs": [
        {
          "name": "account",
          "type": "address",
          "internalType": "address"
        },
        {
          "name": "value",
          "type": "uint256",
          "internalType": "uint256"
        }
      ],
      "outputs": [],
      "stateMutability": "nonpayable"
    },
    {
      "type": "function",
      "name": "decimals",
      "inputs": [],
      "outputs": [
        {
          "name": "",
          "type": "uint8",
          "internalType": "uint8"
        }
      ],
      "stateMutability": "pure"
    },
    {
      "type": "function",
      "name": "getRoleAdmin",
      "inputs": [
        {
          "name": "role",
          "type": "bytes32",
          "internalType": "bytes32"
        }
      ],
      "outputs": [
        {
          "name": "",
          "type": "bytes32",
          "internalType": "bytes32"
        }
      ],
      "stateMutability": "view"
    },
    {
      "type": "function",
      "name": "grantRole",
      "inputs": [
        {
          "name": "role",
          "type": "bytes32",
          "internalType": "bytes32"
        },
        {
          "name": "account",
          "type": "address",
          "internalType": "address"
        }
      ],
      "outputs": [],
      "stateMutability": "nonpayable"
    },
    {
      "type": "function",
      "name": "hasRole",
      "inputs": [
        {
          "name": "role",
          "type": "bytes32",
          "internalType": "bytes32"
        },
        {
          "name": "account",
          "type": "address",
          "internalType": "address"
        }
      ],
      "outputs": [
        {
          "name": "",
          "type": "bool",
          "internalType": "bool"
        }
      ],
      "stateMutability": "view"
    },
    {
      "type": "function",
      "name": "mintToTreasury",
      "inputs": [
        {
          "name": "amount",
          "type": "uint256",
          "internalType": "uint256"
        }
      ],
      "outputs": [],
      "stateMutability": "nonpayable"
    },
    {
      "type": "function",
      "name": "name",
      "inputs": [],
      "outputs": [
        {
          "name": "",
          "type": "string",
          "internalType": "string"
        }
      ],
      "stateMutability": "view"
    },
    {
      "type": "function",
      "name": "pause",
      "inputs": [],
      "outputs": [],
      "stateMutability": "nonpayable"
    },
    {
      "type": "function",
      "name": "paused",
      "inputs": [],
      "outputs": [
        {
          "name": "",
          "type": "bool",
          "internalType": "bool"
        }
      ],
      "stateMutability": "view"
    },
    {
      "type": "function",
      "name": "protocolTreasury",
      "inputs": [],
      "outputs": [
        {
          "name": "",
          "type": "address",
          "internalType": "address"
        }
      ],
      "stateMutability": "view"
    },
    {
      "type": "function",
      "name": "proxiableUUID",
      "inputs": [],
      "outputs": [
        {
          "name": "",
          "type": "bytes32",
          "internalType": "bytes32"
        }
      ],
      "stateMutability": "view"
    },
    {
      "type": "function",
      "name": "renounceRole",
      "inputs": [
        {
          "name": "role",
          "type": "bytes32",
          "internalType": "bytes32"
        },
        {
          "name": "callerConfirmation",
          "type": "address",
          "internalType": "address"
        }
      ],
      "outputs": [],
      "stateMutability": "nonpayable"
    },
    {
      "type": "function",
      "name": "retireFromTreasury",
      "inputs": [
        {
          "name": "amount",
          "type": "uint256",
          "internalType": "uint256"
        },
        {
          "name": "reason",
          "type": "string",
          "internalType": "string"
        }
      ],
      "outputs": [],
      "stateMutability": "nonpayable"
    },
    {
      "type": "function",
      "name": "revokeRole",
      "inputs": [
        {
          "name": "role",
          "type": "bytes32",
          "internalType": "bytes32"
        },
        {
          "name": "account",
          "type": "address",
          "internalType": "address"
        }
      ],
      "outputs": [],
      "stateMutability": "nonpayable"
    },
    {
      "type": "function",
      "name": "setProtocolTreasury",
      "inputs": [
        {
          "name": "_newTreasury",
          "type": "address",
          "internalType": "address"
        }
      ],
      "outputs": [],
      "stateMutability": "nonpayable"
    },
    {
      "type": "function",
      "name": "supportsInterface",
      "inputs": [
        {
          "name": "interfaceId",
          "type": "bytes4",
          "internalType": "bytes4"
        }
      ],
      "outputs": [
        {
          "name": "",
          "type": "bool",
          "internalType": "bool"
        }
      ],
      "stateMutability": "view"
    },
    {
      "type": "function",
      "name": "symbol",
      "inputs": [],
      "outputs": [
        {
          "name": "",
          "type": "string",
          "internalType": "string"
        }
      ],
      "stateMutability": "view"
    },
    {
      "type": "function",
      "name": "totalSupply",
      "inputs": [],
      "outputs": [
        {
          "name": "",
          "type": "uint256",
          "internalType": "uint256"
        }
      ],
      "stateMutability": "view"
    },
    {
      "type": "function",
      "name": "transfer",
      "inputs": [
        {
          "name": "to",
          "type": "address",
          "internalType": "address"
        },
        {
          "name": "value",
          "type": "uint256",
          "internalType": "uint256"
        }
      ],
      "outputs": [
        {
          "name": "",
          "type": "bool",
          "internalType": "bool"
        }
      ],
      "stateMutability": "nonpayable"
    },
    {
      "type": "function",
      "name": "transferFrom",
      "inputs": [
        {
          "name": "from",
          "type": "address",
          "internalType": "address"
        },
        {
          "name": "to",
          "type": "address",
          "internalType": "address"
        },
        {
          "name": "value",
          "type": "uint256",
          "internalType": "uint256"
        }
      ],
      "outputs": [
        {
          "name": "",
          "type": "bool",
          "internalType": "bool"
        }
      ],
      "stateMutability": "nonpayable"
    },
    {
      "type": "function",
      "name": "transferFromTreasury",
      "inputs": [
        {
          "name": "to",
          "type": "address",
          "internalType": "address"
        },
        {
          "name": "amount",
          "type": "uint256",
          "internalType": "uint256"
        }
      ],
      "outputs": [],
      "stateMutability": "nonpayable"
    },
    {
      "type": "function",
      "name": "unpause",
      "inputs": [],
      "outputs": [],
      "stateMutability": "nonpayable"
    },
    {
      "type": "function",
      "name": "upgradeToAndCall",
      "inputs": [
        {
          "name": "newImplementation",
          "type": "address",
          "internalType": "address"
        },
        {
          "name": "data",
          "type": "bytes",
          "internalType": "bytes"
        }
      ],
      "outputs": [],
      "stateMutability": "payable"
    },
    {
      "type": "event",
      "name": "Approval",
      "inputs": [
        {
          "name": "owner",
          "type": "address",
          "indexed": true,
          "internalType": "address"
        },
        {
          "name": "spender",
          "type": "address",
          "indexed": true,
          "internalType": "address"
        },
        {
          "name": "value",
          "type": "uint256",
          "indexed": false,
          "internalType": "uint256"
        }
      ],
      "anonymous": false
    },
    {
      "type": "event",
      "name": "Paused",
      "inputs": [
        {
          "name": "account",
          "type": "address",
          "indexed": false,
          "internalType": "address"
        }
      ],
      "anonymous": false
    },
    {
      "type": "event",
      "name": "ProtocolTreasuryChanged",
      "inputs": [
        {
          "name": "newTreasury",
          "type": "address",
          "indexed": true,
          "internalType": "address"
        }
      ],
      "anonymous": false
    },
    {
      "type": "event",
      "name": "RoleAdminChanged",
      "inputs": [
        {
          "name": "role",
          "type": "bytes32",
          "indexed": true,
          "internalType": "bytes32"
        },
        {
          "name": "previousAdminRole",
          "type": "bytes32",
          "indexed": true,
          "internalType": "bytes32"
        },
        {
          "name": "newAdminRole",
          "type": "bytes32",
          "indexed": true,
          "internalType": "bytes32"
        }
      ],
      "anonymous": false
    },
    {
      "type": "event",
      "name": "RoleGranted",
      "inputs": [
        {
          "name": "role",
          "type": "bytes32",
          "indexed": true,
          "internalType": "bytes32"
        },
        {
          "name": "account",
          "type": "address",
          "indexed": true,
          "internalType": "address"
        },
        {
          "name": "sender",
          "type": "address",
          "indexed": true,
          "internalType": "address"
        }
      ],
      "anonymous": false
    },
    {
      "type": "event",
      "name": "RoleRevoked",
      "inputs": [
        {
          "name": "role",
          "type": "bytes32",
          "indexed": true,
          "internalType": "bytes32"
        },
        {
          "name": "account",
          "type": "address",
          "indexed": true,
          "internalType": "address"
        },
        {
          "name": "sender",
          "type": "address",
          "indexed": true,
          "internalType": "address"
        }
      ],
      "anonymous": false
    },
    {
      "type": "event",
      "name": "Transfer",
      "inputs": [
        {
          "name": "from",
          "type": "address",
          "indexed": true,
          "internalType": "address"
        },
        {
          "name": "to",
          "type": "address",
          "indexed": true,
          "internalType": "address"
        },
        {
          "name": "value",
          "type": "uint256",
          "indexed": false,
          "internalType": "uint256"
        }
      ],
      "anonymous": false
    },
    {
      "type": "event",
      "name": "TreasuryRetirement",
      "inputs": [
        {
          "name": "amount",
          "type": "uint256",
          "indexed": false,
          "internalType": "uint256"
        },
        {
          "name": "reason",
          "type": "string",
          "indexed": false,
          "internalType": "string"
        }
      ],
      "anonymous": false
    },
    {
      "type": "event",
      "name": "TreasuryTransfer",
      "inputs": [
        {
          "name": "to",
          "type": "address",
          "indexed": true,
          "internalType": "address"
        },
        {
          "name": "amount",
          "type": "uint256",
          "indexed": false,
          "internalType": "uint256"
        }
      ],
      "anonymous": false
    },
    {
      "type": "event",
      "name": "Unpaused",
      "inputs": [
        {
          "name": "account",
          "type": "address",
          "indexed": false,
          "internalType": "address"
        }
      ],
      "anonymous": false
    },
    {
      "type": "event",
      "name": "Upgraded",
      "inputs": [
        {
          "name": "implementation",
          "type": "address",
          "indexed": true,
          "internalType": "address"
        }
      ],
      "anonymous": false
    },
    {
      "type": "error",
      "name": "AccessControlBadConfirmation",
      "inputs": []
    },
    {
      "type": "error",
      "name": "AccessControlUnauthorizedAccount",
      "inputs": [
        {
          "name": "account",
          "type": "address",
          "internalType": "address"
        },
        {
          "name": "neededRole",
          "type": "bytes32",
          "internalType": "bytes32"
        }
      ]
    },
    {
      "type": "error",
      "name": "AddressEmptyCode",
      "inputs": [
        {
          "name": "target",
          "type": "address",
          "internalType": "address"
        }
      ]
    },
    {
      "type": "error",
      "name": "CallerNotMinter",
      "inputs": []
    },
    {
      "type": "error",
      "name": "CallerNotTreasuryManager",
      "inputs": []
    },
    {
      "type": "error",
      "name": "ERC1967InvalidImplementation",
      "inputs": [
        {
          "name": "implementation",
          "type": "address",
          "internalType": "address"
        }
      ]
    },
    {
      "type": "error",
      "name": "ERC1967NonPayable",
      "inputs": []
    },
    {
      "type": "error",
      "name": "ERC20InsufficientAllowance",
      "inputs": [
        {
          "name": "spender",
          "type": "address",
          "internalType": "address"
        },
        {
          "name": "allowance",
          "type": "uint256",
          "internalType": "uint256"
        },
        {
          "name": "needed",
          "type": "uint256",
          "internalType": "uint256"
        }
      ]
    },
    {
      "type": "error",
      "name": "ERC20InsufficientBalance",
      "inputs": [
        {
          "name": "sender",
          "type": "address",
          "internalType": "address"
        },
        {
          "name": "balance",
          "type": "uint256",
          "internalType": "uint256"
        },
        {
          "name": "needed",
          "type": "uint256",
          "internalType": "uint256"
        }
      ]
    },
    {
      "type": "error",
      "name": "ERC20InvalidApprover",
      "inputs": [
        {
          "name": "approver",
          "type": "address",
          "internalType": "address"
        }
      ]
    },
    {
      "type": "error",
      "name": "ERC20InvalidReceiver",
      "inputs": [
        {
          "name": "receiver",
          "type": "address",
          "internalType": "address"
        }
      ]
    },
    {
      "type": "error",
      "name": "ERC20InvalidSender",
      "inputs": [
        {
          "name": "sender",
          "type": "address",
          "internalType": "address"
        }
      ]
    },
    {
      "type": "error",
      "name": "ERC20InvalidSpender",
      "inputs": [
        {
          "name": "spender",
          "type": "address",
          "internalType": "address"
        }
      ]
    },
    {
      "type": "error",
      "name": "EnforcedPause",
      "inputs": []
    },
    {
      "type": "error",
      "name": "ExpectedPause",
      "inputs": []
    },
    {
      "type": "error",
      "name": "FailedCall",
      "inputs": []
    },
    {
      "type": "error",
      "name": "InvalidAmount",
      "inputs": [
        {
          "name": "amount",
          "type": "uint256",
          "internalType": "uint256"
        }
      ]
    },
    {
      "type": "error",
      "name": "UUPSUnauthorizedCallContext",
      "inputs": []
    },
    {
      "type": "error",
      "name": "UUPSUnsupportedProxiableUUID",
      "inputs": [
        {
          "name": "slot",
          "type": "bytes32",
          "internalType": "bytes32"
        }
      ]
    },
    {
      "type": "error",
      "name": "ZeroAddress",
      "inputs": []
    }
  ],
  "bytecode": {
    "object": "0x60a060405230608052348015610013575f80fd5b506040516122b93803806122b9833981016040819052610032916102e6565b8383600361004083826103ef565b50600461004d82826103ef565b5050506001600160a01b0382166100775760405163d92e233d60e01b815260040160405180910390fd5b6001600160a01b03811661009e5760405163d92e233d60e01b815260040160405180910390fd5b6100a85f83610181565b506100d37f65d7a28e3265b37a6474929f336521b332c1681b933f6cb9f3376673440d862a83610181565b506100fe7f189ab7a9244df0848122154315af71fe140f3db0fe014031783b0946b8c9d2e383610181565b506101297fede9dcdb0ce99dc7cec9c7be9246ad08b37853683ad91569c187b647ddf5e21c83610181565b5060068054610100600160a81b0319166101006001600160a01b038416908102919091179091556040517f48919a8bb9d5ad92fa352adb62046eaabb006b67ba2fcf7566ed0879ab5a27c3905f90a2505050506104a9565b5f8281526005602090815260408083206001600160a01b038516845290915281205460ff16610225575f8381526005602090815260408083206001600160a01b03861684529091529020805460ff191660011790556101dd3390565b6001600160a01b0316826001600160a01b0316847f2f8788117e7eff1d82e926ec794901d17c78024a50270940304540a733656f0d60405160405180910390a4506001610228565b505f5b92915050565b634e487b7160e01b5f52604160045260245ffd5b5f82601f830112610251575f80fd5b81516001600160401b0381111561026a5761026a61022e565b604051601f8201601f19908116603f011681016001600160401b03811182821017156102985761029861022e565b6040528181528382016020018510156102af575f80fd5b8160208501602083015e5f918101602001919091529392505050565b80516001600160a01b03811681146102e1575f80fd5b919050565b5f805f80608085870312156102f9575f80fd5b84516001600160401b0381111561030e575f80fd5b61031a87828801610242565b602087015190955090506001600160401b03811115610337575f80fd5b61034387828801610242565b935050610352604086016102cb565b9150610360606086016102cb565b905092959194509250565b600181811c9082168061037f57607f821691505b60208210810361039d57634e487b7160e01b5f52602260045260245ffd5b50919050565b601f8211156103ea57805f5260205f20601f840160051c810160208510156103c85750805b601f840160051c820191505b818110156103e7575f81556001016103d4565b50505b505050565b81516001600160401b038111156104085761040861022e565b61041c81610416845461036b565b846103a3565b6020601f82116001811461044e575f83156104375750848201515b5f19600385901b1c1916600184901b1784556103e7565b5f84815260208120601f198516915b8281101561047d578785015182556020948501946001909201910161045d565b508482101561049a57868401515f19600387901b60f8161c191681555b50505050600190811b01905550565b608051611dea6104cf5f395f81816111090152818161113201526113220152611dea5ff3fe6080604052600436106101f5575f3560e01c806370a0823111610117578063a9059cbb116100ac578063dd62ed3e1161007c578063ebdf690f11610062578063ebdf690f1461063f578063f72c0d8b14610672578063fd99b922146106a5575f80fd5b8063dd62ed3e146105c8578063e63ab1e91461060c575f80fd5b8063a9059cbb1461050f578063ad3cb1cc1461052e578063d539139314610576578063d547741f146105a9575f80fd5b806391d14854116100e757806391d148541461048557806395d89b41146104c9578063a217fddf146104dd578063a65948a3146104f0575f80fd5b806370a08231146103e257806379cc679014610416578063803db96d146104355780638456cb5914610471575f80fd5b8063313ce5671161018d57806348a490fb1161015d57806348a490fb146103855780634f1ef286146103a457806352d1902d146103b75780635c975abb146103cb575f80fd5b8063313ce5671461031857806336568abe146103335780633f4ba83a1461035257806342966c6814610366575f80fd5b806318160ddd116101c857806318160ddd1461028e57806323b872dd146102ac578063248a9ca3146102cb5780632f2ff15d146102f9575f80fd5b806301ffc9a7146101f957806306fdde031461022d578063095ea7b31461024e5780630c5a61f81461026d575b5f80fd5b348015610204575f80fd5b50610218610213366004611975565b6106c4565b60405190151581526020015b60405180910390f35b348015610238575f80fd5b5061024161075c565b60405161022491906119b4565b348015610259575f80fd5b50610218610268366004611a22565b6107ec565b348015610278575f80fd5b5061028c610287366004611a4a565b610803565b005b348015610299575f80fd5b506002545b604051908152602001610224565b3480156102b7575f80fd5b506102186102c6366004611a63565b6108b6565b3480156102d6575f80fd5b5061029e6102e5366004611a9d565b5f9081526005602052604090206001015490565b348015610304575f80fd5b5061028c610313366004611ab4565b6108db565b348015610323575f80fd5b5060405160038152602001610224565b34801561033e575f80fd5b5061028c61034d366004611ab4565b610905565b34801561035d575f80fd5b5061028c610956565b348015610371575f80fd5b5061028c610380366004611a9d565b61098b565b348015610390575f80fd5b5061028c61039f366004611a22565b610995565b61028c6103b2366004611b0b565b610ae1565b3480156103c2575f80fd5b5061029e610b00565b3480156103d6575f80fd5b5060065460ff16610218565b3480156103ed575f80fd5b5061029e6103fc366004611a4a565b6001600160a01b03165f9081526020819052604090205490565b348015610421575f80fd5b5061028c610430366004611a22565b610b2e565b348015610440575f80fd5b506006546104599061010090046001600160a01b031681565b6040516001600160a01b039091168152602001610224565b34801561047c575f80fd5b5061028c610b43565b348015610490575f80fd5b5061021861049f366004611ab4565b5f9182526005602090815260408084206001600160a01b0393909316845291905290205460ff1690565b3480156104d4575f80fd5b50610241610b75565b3480156104e8575f80fd5b5061029e5f81565b3480156104fb575f80fd5b5061028c61050a366004611a9d565b610b84565b34801561051a575f80fd5b50610218610529366004611a22565b610c07565b348015610539575f80fd5b506102416040518060400160405280600581526020017f352e302e3000000000000000000000000000000000000000000000000000000081525081565b348015610581575f80fd5b5061029e7f9f2df0fed2c77648de5860a4cc508cd0818c85b8b8a1ab4ceeef8d981c8956a681565b3480156105b4575f80fd5b5061028c6105c3366004611ab4565b610c14565b3480156105d3575f80fd5b5061029e6105e2366004611c0c565b6001600160a01b039182165f90815260016020908152604080832093909416825291909152205490565b348015610617575f80fd5b5061029e7f65d7a28e3265b37a6474929f336521b332c1681b933f6cb9f3376673440d862a81565b34801561064a575f80fd5b5061029e7fede9dcdb0ce99dc7cec9c7be9246ad08b37853683ad91569c187b647ddf5e21c81565b34801561067d575f80fd5b5061029e7f189ab7a9244df0848122154315af71fe140f3db0fe014031783b0946b8c9d2e381565b3480156106b0575f80fd5b5061028c6106bf366004611c34565b610c38565b5f7fffffffff0000000000000000000000000000000000000000000000000000000082167f7965db0b00000000000000000000000000000000000000000000000000000000148061075657507f01ffc9a7000000000000000000000000000000000000000000000000000000007fffffffff000000000000000000000000000000000000000000000000000000008316145b92915050565b60606003805461076b90611cab565b80601f016020809104026020016040519081016040528092919081815260200182805461079790611cab565b80156107e25780601f106107b9576101008083540402835291602001916107e2565b820191905f5260205f20905b8154815290600101906020018083116107c557829003601f168201915b5050505050905090565b5f336107f9818585610d42565b5060019392505050565b5f61080d81610d4f565b6001600160a01b03821661084d576040517fd92e233d00000000000000000000000000000000000000000000000000000000815260040160405180910390fd5b600680547fffffffffffffffffffffff0000000000000000000000000000000000000000ff166101006001600160a01b038516908102919091179091556040517f48919a8bb9d5ad92fa352adb62046eaabb006b67ba2fcf7566ed0879ab5a27c3905f90a25050565b5f336108c3858285610d59565b6108ce858585610e07565b60019150505b9392505050565b5f828152600560205260409020600101546108f581610d4f565b6108ff8383610e96565b50505050565b6001600160a01b0381163314610947576040517f6697b23200000000000000000000000000000000000000000000000000000000815260040160405180910390fd5b6109518282610f5f565b505050565b7f65d7a28e3265b37a6474929f336521b332c1681b933f6cb9f3376673440d862a61098081610d4f565b610988611002565b50565b6109883382611072565b61099d6110bf565b6109c77fede9dcdb0ce99dc7cec9c7be9246ad08b37853683ad91569c187b647ddf5e21c3361049f565b6109fd576040517f9a03048300000000000000000000000000000000000000000000000000000000815260040160405180910390fd5b6001600160a01b038216610a3d576040517fd92e233d00000000000000000000000000000000000000000000000000000000815260040160405180910390fd5b805f03610a7e576040517f3728b83d000000000000000000000000000000000000000000000000000000008152600481018290526024015b60405180910390fd5b600654610a9a9061010090046001600160a01b03168383610e07565b816001600160a01b03167f0e0155fc4999bbb125969d44fd6a09db6b8682e20c096fe64f43c010ec14e1be82604051610ad591815260200190565b60405180910390a25050565b610ae96110fe565b610af2826111ce565b610afc82826111f8565b5050565b5f610b09611317565b507f360894a13ba1a3210667c828492db98dca3e2076cc3735a920a3ca505d382bbc90565b610b39823383610d59565b610afc8282611072565b7f65d7a28e3265b37a6474929f336521b332c1681b933f6cb9f3376673440d862a610b6d81610d4f565b610988611379565b60606004805461076b90611cab565b610b8c6110bf565b610bb67f9f2df0fed2c77648de5860a4cc508cd0818c85b8b8a1ab4ceeef8d981c8956a63361049f565b610bec576040517f5eee367a00000000000000000000000000000000000000000000000000000000815260040160405180910390fd5b6006546109889061010090046001600160a01b0316826113d4565b5f336107f9818585610e07565b5f82815260056020526040902060010154610c2e81610d4f565b6108ff8383610f5f565b610c406110bf565b610c6a7fede9dcdb0ce99dc7cec9c7be9246ad08b37853683ad91569c187b647ddf5e21c3361049f565b610ca0576040517f9a03048300000000000000000000000000000000000000000000000000000000815260040160405180910390fd5b825f03610cdc576040517f3728b83d00000000000000000000000000000000000000000000000000000000815260048101849052602401610a75565b600654610cf89061010090046001600160a01b03163085610e07565b610d023084611072565b7f74866c3dadb39b6f358b192f40eca4a6ffef6e13b51dceb59b483ed56a01731d838383604051610d3593929190611cfc565b60405180910390a1505050565b6109518383836001611421565b6109888133611525565b6001600160a01b038381165f908152600160209081526040808320938616835292905220547fffffffffffffffffffffffffffffffffffffffffffffffffffffffffffffffff8110156108ff5781811015610df9576040517ffb8f41b20000000000000000000000000000000000000000000000000000000081526001600160a01b03841660048201526024810182905260448101839052606401610a75565b6108ff84848484035f611421565b6001600160a01b038316610e49576040517f96c6fd1e0000000000000000000000000000000000000000000000000000000081525f6004820152602401610a75565b6001600160a01b038216610e8b576040517fec442f050000000000000000000000000000000000000000000000000000000081525f6004820152602401610a75565b610951838383611592565b5f8281526005602090815260408083206001600160a01b038516845290915281205460ff16610f58575f8381526005602090815260408083206001600160a01b0386168452909152902080547fffffffffffffffffffffffffffffffffffffffffffffffffffffffffffffff00166001179055610f103390565b6001600160a01b0316826001600160a01b0316847f2f8788117e7eff1d82e926ec794901d17c78024a50270940304540a733656f0d60405160405180910390a4506001610756565b505f610756565b5f8281526005602090815260408083206001600160a01b038516845290915281205460ff1615610f58575f8381526005602090815260408083206001600160a01b038616808552925280832080547fffffffffffffffffffffffffffffffffffffffffffffffffffffffffffffff0016905551339286917ff6391f5c32d9c69d2a47ea670b442974b53935d1edc7fd64eb21e047a839171b9190a4506001610756565b61100a61159d565b600680547fffffffffffffffffffffffffffffffffffffffffffffffffffffffffffffff001690557f5db9ee0a495bf2e6ff9c91a7834c1ba4fdd244a5e8aa4e537bd38aeae4b073aa335b6040516001600160a01b03909116815260200160405180910390a1565b6001600160a01b0382166110b4576040517f96c6fd1e0000000000000000000000000000000000000000000000000000000081525f6004820152602401610a75565b610afc825f83611592565b60065460ff16156110fc576040517fd93c066500000000000000000000000000000000000000000000000000000000815260040160405180910390fd5b565b306001600160a01b037f000000000000000000000000000000000000000000000000000000000000000016148061119757507f00000000000000000000000000000000000000000000000000000000000000006001600160a01b031661118b7f360894a13ba1a3210667c828492db98dca3e2076cc3735a920a3ca505d382bbc546001600160a01b031690565b6001600160a01b031614155b156110fc576040517fe07c8dba00000000000000000000000000000000000000000000000000000000815260040160405180910390fd5b7f189ab7a9244df0848122154315af71fe140f3db0fe014031783b0946b8c9d2e3610afc81610d4f565b816001600160a01b03166352d1902d6040518163ffffffff1660e01b8152600401602060405180830381865afa925050508015611270575060408051601f3d9081017fffffffffffffffffffffffffffffffffffffffffffffffffffffffffffffffe016820190925261126d91810190611d4f565b60015b6112b1576040517f4c9c8ce30000000000000000000000000000000000000000000000000000000081526001600160a01b0383166004820152602401610a75565b7f360894a13ba1a3210667c828492db98dca3e2076cc3735a920a3ca505d382bbc811461130d576040517faa1d49a400000000000000000000000000000000000000000000000000000000815260048101829052602401610a75565b61095183836115d9565b306001600160a01b037f000000000000000000000000000000000000000000000000000000000000000016146110fc576040517fe07c8dba00000000000000000000000000000000000000000000000000000000815260040160405180910390fd5b6113816110bf565b600680547fffffffffffffffffffffffffffffffffffffffffffffffffffffffffffffff001660011790557f62e78cea01bee320cd4e420270b5ea74000d11b0c9f74754ebdbfc544b05a2586110553390565b6001600160a01b038216611416576040517fec442f050000000000000000000000000000000000000000000000000000000081525f6004820152602401610a75565b610afc5f8383611592565b6001600160a01b038416611463576040517fe602df050000000000000000000000000000000000000000000000000000000081525f6004820152602401610a75565b6001600160a01b0383166114a5576040517f94280d620000000000000000000000000000000000000000000000000000000081525f6004820152602401610a75565b6001600160a01b038085165f90815260016020908152604080832093871683529290522082905580156108ff57826001600160a01b0316846001600160a01b03167f8c5be1e5ebec7d5bd14f71427d1e84f3dd0314c0f7b2291e5b200ac8c7c3b9258460405161151791815260200190565b60405180910390a350505050565b5f8281526005602090815260408083206001600160a01b038516845290915290205460ff16610afc576040517fe2517d3f0000000000000000000000000000000000000000000000000000000081526001600160a01b038216600482015260248101839052604401610a75565b61095183838361162e565b60065460ff166110fc576040517f8dfc202b00000000000000000000000000000000000000000000000000000000815260040160405180910390fd5b6115e28261176d565b6040516001600160a01b038316907fbc7cd75a20ee27fd9adebab32041f755214dbc6bffa90cc0225b39da2e5c2d3b905f90a2805115611626576109518282611814565b610afc611886565b6001600160a01b038316611658578060025f82825461164d9190611d66565b909155506116e19050565b6001600160a01b0383165f90815260208190526040902054818110156116c3576040517fe450d38c0000000000000000000000000000000000000000000000000000000081526001600160a01b03851660048201526024810182905260448101839052606401610a75565b6001600160a01b0384165f9081526020819052604090209082900390555b6001600160a01b0382166116fd5760028054829003905561171b565b6001600160a01b0382165f9081526020819052604090208054820190555b816001600160a01b0316836001600160a01b03167fddf252ad1be2c89b69c2b068fc378daa952ba7f163c4a11628f55a4df523b3ef8360405161176091815260200190565b60405180910390a3505050565b806001600160a01b03163b5f036117bb576040517f4c9c8ce30000000000000000000000000000000000000000000000000000000081526001600160a01b0382166004820152602401610a75565b7f360894a13ba1a3210667c828492db98dca3e2076cc3735a920a3ca505d382bbc80547fffffffffffffffffffffffff0000000000000000000000000000000000000000166001600160a01b0392909216919091179055565b60605f80846001600160a01b0316846040516118309190611d9e565b5f60405180830381855af49150503d805f8114611868576040519150601f19603f3d011682016040523d82523d5f602084013e61186d565b606091505b509150915061187d8583836118be565b95945050505050565b34156110fc576040517fb398979f00000000000000000000000000000000000000000000000000000000815260040160405180910390fd5b6060826118d3576118ce82611933565b6108d4565b81511580156118ea57506001600160a01b0384163b155b1561192c576040517f9996b3150000000000000000000000000000000000000000000000000000000081526001600160a01b0385166004820152602401610a75565b50806108d4565b8051156119435780518082602001fd5b6040517fd6bda27500000000000000000000000000000000000000000000000000000000815260040160405180910390fd5b5f60208284031215611985575f80fd5b81357fffffffff00000000000000000000000000000000000000000000000000000000811681146108d4575f80fd5b602081525f82518060208401528060208501604085015e5f6040828501015260407fffffffffffffffffffffffffffffffffffffffffffffffffffffffffffffffe0601f83011684010191505092915050565b80356001600160a01b0381168114611a1d575f80fd5b919050565b5f8060408385031215611a33575f80fd5b611a3c83611a07565b946020939093013593505050565b5f60208284031215611a5a575f80fd5b6108d482611a07565b5f805f60608486031215611a75575f80fd5b611a7e84611a07565b9250611a8c60208501611a07565b929592945050506040919091013590565b5f60208284031215611aad575f80fd5b5035919050565b5f8060408385031215611ac5575f80fd5b82359150611ad560208401611a07565b90509250929050565b7f4e487b71000000000000000000000000000000000000000000000000000000005f52604160045260245ffd5b5f8060408385031215611b1c575f80fd5b611b2583611a07565b9150602083013567ffffffffffffffff811115611b40575f80fd5b8301601f81018513611b50575f80fd5b803567ffffffffffffffff811115611b6a57611b6a611ade565b6040517fffffffffffffffffffffffffffffffffffffffffffffffffffffffffffffffe0603f7fffffffffffffffffffffffffffffffffffffffffffffffffffffffffffffffe0601f8501160116810181811067ffffffffffffffff82111715611bd657611bd6611ade565b604052818152828201602001871015611bed575f80fd5b816020840160208301375f602083830101528093505050509250929050565b5f8060408385031215611c1d575f80fd5b611c2683611a07565b9150611ad560208401611a07565b5f805f60408486031215611c46575f80fd5b83359250602084013567ffffffffffffffff811115611c63575f80fd5b8401601f81018613611c73575f80fd5b803567ffffffffffffffff811115611c89575f80fd5b866020828401011115611c9a575f80fd5b939660209190910195509293505050565b600181811c90821680611cbf57607f821691505b602082108103611cf6577f4e487b71000000000000000000000000000000000000000000000000000000005f52602260045260245ffd5b50919050565b83815260406020820152816040820152818360608301375f818301606090810191909152601f9092017fffffffffffffffffffffffffffffffffffffffffffffffffffffffffffffffe016010192915050565b5f60208284031215611d5f575f80fd5b5051919050565b80820180821115610756577f4e487b71000000000000000000000000000000000000000000000000000000005f52601160045260245ffd5b5f82518060208501845e5f92019182525091905056fea26469706673582212206b06850aeb30c83c9ec068c88c1032f96570d8ac9b40acedbe1defa13398904b64736f6c634300081a0033",
    "linkReferences": {}
  },
  "methodIdentifiers": {
    "DEFAULT_ADMIN_ROLE()": "a217fddf",
    "MINTER_ROLE()": "d5391393",
    "PAUSER_ROLE()": "e63ab1e9",
    "TREASURY_MANAGER_ROLE()": "ebdf690f",
    "UPGRADER_ROLE()": "f72c0d8b",
    "UPGRADE_INTERFACE_VERSION()": "ad3cb1cc",
    "allowance(address,address)": "dd62ed3e",
    "approve(address,uint256)": "095ea7b3",
    "balanceOf(address)": "70a08231",
    "burn(uint256)": "42966c68",
    "burnFrom(address,uint256)": "79cc6790",
    "decimals()": "313ce567",
    "getRoleAdmin(bytes32)": "248a9ca3",
    "grantRole(bytes32,address)": "2f2ff15d",
    "hasRole(bytes32,address)": "91d14854",
    "mintToTreasury(uint256)": "a65948a3",
    "name()": "06fdde03",
    "pause()": "8456cb59",
    "paused()": "5c975abb",
    "protocolTreasury()": "803db96d",
    "proxiableUUID()": "52d1902d",
    "renounceRole(bytes32,address)": "36568abe",
    "retireFromTreasury(uint256,string)": "fd99b922",
    "revokeRole(bytes32,address)": "d547741f",
    "setProtocolTreasury(address)": "0c5a61f8",
    "supportsInterface(bytes4)": "01ffc9a7",
    "symbol()": "95d89b41",
    "totalSupply()": "18160ddd",
    "transfer(address,uint256)": "a9059cbb",
    "transferFrom(address,address,uint256)": "23b872dd",
    "transferFromTreasury(address,uint256)": "48a490fb",
    "unpause()": "3f4ba83a",
    "upgradeToAndCall(address,bytes)": "4f1ef286"
  },
  "id": 52
}