{
  "abi": [
    {
      "type": "function",
      "name": "BASIS_POINTS_DENOMINATOR",
      "inputs": [],
      "outputs": [
        {
          "name": "",
          "type": "uint16",
          "internalType": "uint16"
        }
      ],
      "stateMutability": "view"
    },
    {
      "type": "function",
      "name": "BURNER_ROLE",
      "inputs": [],
      "outputs": [
        {
          "name": "",
          "type": "bytes32",
          "internalType": "bytes32"
        }
      ],
      "stateMutability": "view"
    },
    {
      "type": "function",
      "name": "CAPITAL_RAISING_FEE_FIRST_TIME_BPS",
      "inputs": [],
      "outputs": [
        {
          "name": "",
          "type": "uint16",
          "internalType": "uint16"
        }
      ],
      "stateMutability": "view"
    },
    {
      "type": "function",
      "name": "CAPITAL_RAISING_FEE_REPEAT_BPS",
      "inputs": [],
      "outputs": [
        {
          "name": "",
          "type": "uint16",
          "internalType": "uint16"
        }
      ],
      "stateMutability": "view"
    },
    {
      "type": "function",
      "name": "CARBON_TREASURY_SHARE_BPS",
      "inputs": [],
      "outputs": [
        {
          "name": "",
          "type": "uint16",
          "internalType": "uint16"
        }
      ],
      "stateMutability": "view"
    },
    {
      "type": "function",
      "name": "DEFAULT_ADMIN_ROLE",
      "inputs": [],
      "outputs": [
        {
          "name": "",
          "type": "bytes32",
          "internalType": "bytes32"
        }
      ],
      "stateMutability": "view"
    },
    {
      "type": "function",
      "name": "DEPOSIT_FUNDER_ROLE",
      "inputs": [],
      "outputs": [
        {
          "name": "",
          "type": "bytes32",
          "internalType": "bytes32"
        }
      ],
      "stateMutability": "view"
    },
    {
      "type": "function",
      "name": "DEVELOPER_DEPOSIT_BPS",
      "inputs": [],
      "outputs": [
        {
          "name": "",
          "type": "uint16",
          "internalType": "uint16"
        }
      ],
      "stateMutability": "view"
    },
    {
      "type": "function",
      "name": "DEV_ESCROW_ROLE",
      "inputs": [],
      "outputs": [
        {
          "name": "",
          "type": "bytes32",
          "internalType": "bytes32"
        }
      ],
      "stateMutability": "view"
    },
    {
      "type": "function",
      "name": "FUNDING_DEADLINE_2_MONTHS",
      "inputs": [],
      "outputs": [
        {
          "name": "",
          "type": "uint32",
          "internalType": "uint32"
        }
      ],
      "stateMutability": "view"
    },
    {
      "type": "function",
      "name": "FUNDING_DEADLINE_30_DAYS",
      "inputs": [],
      "outputs": [
        {
          "name": "",
          "type": "uint32",
          "internalType": "uint32"
        }
      ],
      "stateMutability": "view"
    },
    {
      "type": "function",
      "name": "FUNDING_DEADLINE_3_MONTHS",
      "inputs": [],
      "outputs": [
        {
          "name": "",
          "type": "uint32",
          "internalType": "uint32"
        }
      ],
      "stateMutability": "view"
    },
    {
      "type": "function",
      "name": "FUNDING_DEADLINE_6_MONTHS",
      "inputs": [],
      "outputs": [
        {
          "name": "",
          "type": "uint32",
          "internalType": "uint32"
        }
      ],
      "stateMutability": "view"
    },
    {
      "type": "function",
      "name": "HIGH_VALUE_THRESHOLD",
      "inputs": [],
      "outputs": [
        {
          "name": "",
          "type": "uint256",
          "internalType": "uint256"
        }
      ],
      "stateMutability": "view"
    },
    {
      "type": "function",
      "name": "KYC_ADMIN_ROLE",
      "inputs": [],
      "outputs": [
        {
          "name": "",
          "type": "bytes32",
          "internalType": "bytes32"
        }
      ],
      "stateMutability": "view"
    },
    {
      "type": "function",
      "name": "MGMT_FEE_AUM_TIER1_BPS",
      "inputs": [],
      "outputs": [
        {
          "name": "",
          "type": "uint16",
          "internalType": "uint16"
        }
      ],
      "stateMutability": "view"
    },
    {
      "type": "function",
      "name": "MGMT_FEE_AUM_TIER1_THRESHOLD",
      "inputs": [],
      "outputs": [
        {
          "name": "",
          "type": "uint256",
          "internalType": "uint256"
        }
      ],
      "stateMutability": "view"
    },
    {
      "type": "function",
      "name": "MGMT_FEE_AUM_TIER2_BPS",
      "inputs": [],
      "outputs": [
        {
          "name": "",
          "type": "uint16",
          "internalType": "uint16"
        }
      ],
      "stateMutability": "view"
    },
    {
      "type": "function",
      "name": "MINTER_ROLE",
      "inputs": [],
      "outputs": [
        {
          "name": "",
          "type": "bytes32",
          "internalType": "bytes32"
        }
      ],
      "stateMutability": "view"
    },
    {
      "type": "function",
      "name": "PAUSER_ROLE",
      "inputs": [],
      "outputs": [
        {
          "name": "",
          "type": "bytes32",
          "internalType": "bytes32"
        }
      ],
      "stateMutability": "view"
    },
    {
      "type": "function",
      "name": "PROJECT_HANDLER_ROLE",
      "inputs": [],
      "outputs": [
        {
          "name": "",
          "type": "bytes32",
          "internalType": "bytes32"
        }
      ],
      "stateMutability": "view"
    },
    {
      "type": "function",
      "name": "PROJECT_STATE_ACTIVE",
      "inputs": [],
      "outputs": [
        {
          "name": "",
          "type": "uint8",
          "internalType": "uint8"
        }
      ],
      "stateMutability": "view"
    },
    {
      "type": "function",
      "name": "PROJECT_STATE_CANCELLED",
      "inputs": [],
      "outputs": [
        {
          "name": "",
          "type": "uint8",
          "internalType": "uint8"
        }
      ],
      "stateMutability": "view"
    },
    {
      "type": "function",
      "name": "PROJECT_STATE_COMPLETED",
      "inputs": [],
      "outputs": [
        {
          "name": "",
          "type": "uint8",
          "internalType": "uint8"
        }
      ],
      "stateMutability": "view"
    },
    {
      "type": "function",
      "name": "PROJECT_STATE_DEFAULTED",
      "inputs": [],
      "outputs": [
        {
          "name": "",
          "type": "uint8",
          "internalType": "uint8"
        }
      ],
      "stateMutability": "view"
    },
    {
      "type": "function",
      "name": "PROJECT_STATE_FUNDED",
      "inputs": [],
      "outputs": [
        {
          "name": "",
          "type": "uint8",
          "internalType": "uint8"
        }
      ],
      "stateMutability": "view"
    },
    {
      "type": "function",
      "name": "PROJECT_STATE_FUNDING_OPEN",
      "inputs": [],
      "outputs": [
        {
          "name": "",
          "type": "uint8",
          "internalType": "uint8"
        }
      ],
      "stateMutability": "view"
    },
    {
      "type": "function",
      "name": "PROJECT_STATE_PENDING_DEPOSIT",
      "inputs": [],
      "outputs": [
        {
          "name": "",
          "type": "uint8",
          "internalType": "uint8"
        }
      ],
      "stateMutability": "view"
    },
    {
      "type": "function",
      "name": "PROTOCOL_TREASURY_SHARE_BPS",
      "inputs": [],
      "outputs": [
        {
          "name": "",
          "type": "uint16",
          "internalType": "uint16"
        }
      ],
      "stateMutability": "view"
    },
    {
      "type": "function",
      "name": "RELEASER_ROLE",
      "inputs": [],
      "outputs": [
        {
          "name": "",
          "type": "bytes32",
          "internalType": "bytes32"
        }
      ],
      "stateMutability": "view"
    },
    {
      "type": "function",
      "name": "REPAYMENT_HANDLER_ROLE",
      "inputs": [],
      "outputs": [
        {
          "name": "",
          "type": "bytes32",
          "internalType": "bytes32"
        }
      ],
      "stateMutability": "view"
    },
    {
      "type": "function",
      "name": "REPAYMENT_ROUTER_ROLE",
      "inputs": [],
      "outputs": [
        {
          "name": "",
          "type": "bytes32",
          "internalType": "bytes32"
        }
      ],
      "stateMutability": "view"
    },
    {
      "type": "function",
      "name": "RISK_ORACLE_ROLE",
      "inputs": [],
      "outputs": [
        {
          "name": "",
          "type": "bytes32",
          "internalType": "bytes32"
        }
      ],
      "stateMutability": "view"
    },
    {
      "type": "function",
      "name": "SECONDS_PER_YEAR",
      "inputs": [],
      "outputs": [
        {
          "name": "",
          "type": "uint256",
          "internalType": "uint256"
        }
      ],
      "stateMutability": "view"
    },
    {
      "type": "function",
      "name": "SLASHER_ROLE",
      "inputs": [],
      "outputs": [
        {
          "name": "",
          "type": "bytes32",
          "internalType": "bytes32"
        }
      ],
      "stateMutability": "view"
    },
    {
      "type": "function",
      "name": "TX_FEE_TIER1_BPS",
      "inputs": [],
      "outputs": [
        {
          "name": "",
          "type": "uint16",
          "internalType": "uint16"
        }
      ],
      "stateMutability": "view"
    },
    {
      "type": "function",
      "name": "TX_FEE_TIER1_THRESHOLD",
      "inputs": [],
      "outputs": [
        {
          "name": "",
          "type": "uint256",
          "internalType": "uint256"
        }
      ],
      "stateMutability": "view"
    },
    {
      "type": "function",
      "name": "TX_FEE_TIER2_BPS",
      "inputs": [],
      "outputs": [
        {
          "name": "",
          "type": "uint16",
          "internalType": "uint16"
        }
      ],
      "stateMutability": "view"
    },
    {
      "type": "function",
      "name": "TX_FEE_TIER2_THRESHOLD",
      "inputs": [],
      "outputs": [
        {
          "name": "",
          "type": "uint256",
          "internalType": "uint256"
        }
      ],
      "stateMutability": "view"
    },
    {
      "type": "function",
      "name": "TX_FEE_TIER3_BPS",
      "inputs": [],
      "outputs": [
        {
          "name": "",
          "type": "uint16",
          "internalType": "uint16"
        }
      ],
      "stateMutability": "view"
    },
    {
      "type": "function",
      "name": "UPGRADER_ROLE",
      "inputs": [],
      "outputs": [
        {
          "name": "",
          "type": "bytes32",
          "internalType": "bytes32"
        }
      ],
      "stateMutability": "view"
    },
    {
      "type": "function",
      "name": "USDC_DECIMALS",
      "inputs": [],
      "outputs": [
        {
          "name": "",
          "type": "uint8",
          "internalType": "uint8"
        }
      ],
      "stateMutability": "view"
    },
    {
      "type": "function",
      "name": "USDC_UNIT",
      "inputs": [],
      "outputs": [
        {
          "name": "",
          "type": "uint256",
          "internalType": "uint256"
        }
      ],
      "stateMutability": "view"
    }
  ],
  "bytecode": {
    "object": "0x61083e610034600b8282823980515f1a607314602857634e487b7160e01b5f525f60045260245ffd5b305f52607381538281f3fe73000000000000000000000000000000000000000030146080604052600436106102e3575f3560e01c8063ac28af2411610192578063e4f02023116100e8578063ecd133511161009e578063f91dce1a11610079578063f91dce1a146105ea578063ff2f4e4a146105f4578063ff62f87c14610540575f80fd5b8063ecd13351146105b3578063f03dcb6e146105bb578063f72c0d8b146105c3575f80fd5b8063e63ab1e9116100ce578063e63ab1e914610577578063e6a69ab81461059e578063ec7e202c146105a9575f80fd5b8063e4f0202314610549578063e5bcaf8814610570575f80fd5b8063cfa498a311610148578063d539139311610123578063d5391393146104f2578063dc655e3c14610519578063e271458014610540575f80fd5b8063cfa498a3146104ba578063d130c6cf146104c3578063d2a618de146104cb575f80fd5b8063c1419def11610178578063c1419def14610424578063ca7b64bb146104aa578063cd9b2384146104b2575f80fd5b8063ac28af241461047b578063ad7cc16f146104a2575f80fd5b80634af28676116102475780637eb1aaa0116101fd578063a217fddf116101d8578063a217fddf14610445578063a3f8754b1461044c578063ab3fbf5a14610473575f80fd5b80637eb1aaa01461042c5780637ee3b3b21461043457806396fe905e1461043c575f80fd5b806366072cfe1161022d57806366072cfe146104125780636eb635431461041c57806375de91f614610424575f80fd5b80634af28676146103e35780635095af64146103eb575f80fd5b806329964ac31161029c5780632b587880116102825780632b587880146103cb578063308a05ee146103d357806345e27d07146103db575f80fd5b806329964ac3146103a85780632a5c1105146103c3575f80fd5b80631b347333116102cc5780631b3473331461034057806324765d081461035a578063282c51f314610381575f80fd5b806302d7fd92146102e75780630967fa9214610321575b5f80fd5b61030e7f811427a0fa4932aef534bba16bc34e9b7b2d7d2a79c475fca1765f6cc1faebea81565b6040519081526020015b60405180910390f35b61032b624f1a0081565b60405163ffffffff9091168152602001610318565b610348600481565b60405160ff9091168152602001610318565b61030e7f3f57c52536792344d29a07b54000a77b3ed100d4e466b7a4fda1fc52c2bdee6281565b61030e7f3c11d16cbaffd01df69ce1c404f6340ee057498f5f00246190ea54220576a84881565b6103b0609681565b60405161ffff9091168152602001610318565b610348600581565b61030e61061b565b6103b0604b81565b61030e610636565b61030e61064f565b61030e7f12b42e8a160f6064dc959c6f251e3af0750ad213dbecf573b4710d67d6c28e3981565b61032b62ed4e0081565b6103b0606481565b610348600681565b6103b0601481565b61030e61065b565b6103b0611f4081565b61030e5f81565b61030e7f02509c39826ef4d4fc9a6478dd388f892df655e831b495ea37e26344d4c48aca81565b6103b0603281565b61030e7f88f3509f0e42391f2d94ebfb2a37cbd0782b1b8f73715330017f4663290b811781565b610348600381565b61030e610674565b6103b0602381565b6103b061271081565b610348600181565b61030e7f51a687be621618bb42f5dcbb17ee3798544ce951156fd30a67d800a241b4801981565b61030e7f9f2df0fed2c77648de5860a4cc508cd0818c85b8b8a1ab4ceeef8d981c8956a681565b61030e7fc78f9bcb4e7702881693fc003818cea41b963ca2641dc5446bfdd14affd4afcb81565b6103b06107d081565b61030e7fc1959c1680e978dd9c68669ea488ae9b3e8f764684bd2da104ac2d5b5f57006381565b6103485f81565b61030e7f65d7a28e3265b37a6474929f336521b332c1681b933f6cb9f3376673440d862a81565b61030e6301e1338081565b61032b62278d0081565b610348600281565b6103b060c881565b61030e7f189ab7a9244df0848122154315af71fe140f3db0fe014031783b0946b8c9d2e381565b61032b6276a70081565b61030e7f42847befda217a8205614b97eeba0062d90a739902cf3467520ceec14471153981565b6106276006600a6107dc565b610633906127106107f1565b81565b6106426006600a6107dc565b61063390620186a06107f1565b6106336006600a6107dc565b6106676006600a6107dc565b61063390620f42406107f1565b6106806006600a6107dc565b6106339061c3506107f1565b7f4e487b71000000000000000000000000000000000000000000000000000000005f52601160045260245ffd5b6001815b60018411156106f4578085048111156106d8576106d861068c565b60018416156106e657908102905b60019390931c9280026106bd565b935093915050565b5f8261070a575060016107d6565b8161071657505f6107d6565b816001811461072c576002811461073657610752565b60019150506107d6565b60ff8411156107475761074761068c565b50506001821b6107d6565b5060208310610133831016604e8410600b8410161715610775575081810a6107d6565b6107a07fffffffffffffffffffffffffffffffffffffffffffffffffffffffffffffffff84846106b9565b807fffffffffffffffffffffffffffffffffffffffffffffffffffffffffffffffff048211156107d2576107d261068c565b0290505b92915050565b5f6107ea60ff8416836106fc565b9392505050565b80820281158282048414176107d6576107d661068c56fea264697066735822122014693bd0e884f3651aae2cade4bb1bfac876e54a2e88ce17b1dcbbe14052689f64736f6c634300081a0033",
    "linkReferences": {}
  },
  "methodIdentifiers": {
    "BASIS_POINTS_DENOMINATOR()": "cfa498a3",
    "BURNER_ROLE()": "282c51f3",
    "CAPITAL_RAISING_FEE_FIRST_TIME_BPS()": "f03dcb6e",
    "CAPITAL_RAISING_FEE_REPEAT_BPS()": "29964ac3",
    "CARBON_TREASURY_SHARE_BPS()": "e2714580",
    "DEFAULT_ADMIN_ROLE()": "a217fddf",
    "DEPOSIT_FUNDER_ROLE()": "e4f02023",
    "DEVELOPER_DEPOSIT_BPS()": "ff62f87c",
    "DEV_ESCROW_ROLE()": "dc655e3c",
    "FUNDING_DEADLINE_2_MONTHS()": "0967fa92",
    "FUNDING_DEADLINE_30_DAYS()": "ec7e202c",
    "FUNDING_DEADLINE_3_MONTHS()": "f91dce1a",
    "FUNDING_DEADLINE_6_MONTHS()": "66072cfe",
    "HIGH_VALUE_THRESHOLD()": "ca7b64bb",
    "KYC_ADMIN_ROLE()": "02d7fd92",
    "MGMT_FEE_AUM_TIER1_BPS()": "6eb63543",
    "MGMT_FEE_AUM_TIER1_THRESHOLD()": "7ee3b3b2",
    "MGMT_FEE_AUM_TIER2_BPS()": "308a05ee",
    "MINTER_ROLE()": "d5391393",
    "PAUSER_ROLE()": "e63ab1e9",
    "PROJECT_HANDLER_ROLE()": "ff2f4e4a",
    "PROJECT_STATE_ACTIVE()": "ad7cc16f",
    "PROJECT_STATE_CANCELLED()": "75de91f6",
    "PROJECT_STATE_COMPLETED()": "1b347333",
    "PROJECT_STATE_DEFAULTED()": "2a5c1105",
    "PROJECT_STATE_FUNDED()": "ecd13351",
    "PROJECT_STATE_FUNDING_OPEN()": "d130c6cf",
    "PROJECT_STATE_PENDING_DEPOSIT()": "e5bcaf88",
    "PROTOCOL_TREASURY_SHARE_BPS()": "96fe905e",
    "RELEASER_ROLE()": "ac28af24",
    "REPAYMENT_HANDLER_ROLE()": "d2a618de",
    "REPAYMENT_ROUTER_ROLE()": "24765d08",
    "RISK_ORACLE_ROLE()": "a3f8754b",
    "SECONDS_PER_YEAR()": "e6a69ab8",
    "SLASHER_ROLE()": "5095af64",
    "TX_FEE_TIER1_BPS()": "ab3fbf5a",
    "TX_FEE_TIER1_THRESHOLD()": "2b587880",
    "TX_FEE_TIER2_BPS()": "cd9b2384",
    "TX_FEE_TIER2_THRESHOLD()": "45e27d07",
    "TX_FEE_TIER3_BPS()": "7eb1aaa0",
    "UPGRADER_ROLE()": "f72c0d8b",
    "USDC_DECIMALS()": "c1419def",
    "USDC_UNIT()": "4af28676"
  },
  "id": 89
}