{
  "abi": [
    {
      "type": "function",
      "name": "BASIS_POINTS_DENOMINATOR",
      "inputs": [],
      "outputs": [
        {
          "name": "",
          "type": "uint16",
          "internalType": "uint16"
        }
      ],
      "stateMutability": "view"
    },
    {
      "type": "function",
      "name": "BURNER_ROLE",
      "inputs": [],
      "outputs": [
        {
          "name": "",
          "type": "bytes32",
          "internalType": "bytes32"
        }
      ],
      "stateMutability": "view"
    },
    {
      "type": "function",
      "name": "CAPITAL_RAISING_FEE_FIRST_TIME_BPS",
      "inputs": [],
      "outputs": [
        {
          "name": "",
          "type": "uint16",
          "internalType": "uint16"
        }
      ],
      "stateMutability": "view"
    },
    {
      "type": "function",
      "name": "CAPITAL_RAISING_FEE_REPEAT_BPS",
      "inputs": [],
      "outputs": [
        {
          "name": "",
          "type": "uint16",
          "internalType": "uint16"
        }
      ],
      "stateMutability": "view"
    },
    {
      "type": "function",
      "name": "CARBON_TREASURY_SHARE_BPS",
      "inputs": [],
      "outputs": [
        {
          "name": "",
          "type": "uint16",
          "internalType": "uint16"
        }
      ],
      "stateMutability": "view"
    },
    {
      "type": "function",
      "name": "DEFAULT_ADMIN_ROLE",
      "inputs": [],
      "outputs": [
        {
          "name": "",
          "type": "bytes32",
          "internalType": "bytes32"
        }
      ],
      "stateMutability": "view"
    },
    {
      "type": "function",
      "name": "DEPOSIT_FUNDER_ROLE",
      "inputs": [],
      "outputs": [
        {
          "name": "",
          "type": "bytes32",
          "internalType": "bytes32"
        }
      ],
      "stateMutability": "view"
    },
    {
      "type": "function",
      "name": "DEVELOPER_DEPOSIT_BPS",
      "inputs": [],
      "outputs": [
        {
          "name": "",
          "type": "uint16",
          "internalType": "uint16"
        }
      ],
      "stateMutability": "view"
    },
    {
      "type": "function",
      "name": "DEV_ESCROW_ROLE",
      "inputs": [],
      "outputs": [
        {
          "name": "",
          "type": "bytes32",
          "internalType": "bytes32"
        }
      ],
      "stateMutability": "view"
    },
    {
      "type": "function",
      "name": "HIGH_VALUE_THRESHOLD",
      "inputs": [],
      "outputs": [
        {
          "name": "",
          "type": "uint256",
          "internalType": "uint256"
        }
      ],
      "stateMutability": "view"
    },
    {
      "type": "function",
      "name": "KYC_ADMIN_ROLE",
      "inputs": [],
      "outputs": [
        {
          "name": "",
          "type": "bytes32",
          "internalType": "bytes32"
        }
      ],
      "stateMutability": "view"
    },
    {
      "type": "function",
      "name": "MGMT_FEE_AUM_TIER1_BPS",
      "inputs": [],
      "outputs": [
        {
          "name": "",
          "type": "uint16",
          "internalType": "uint16"
        }
      ],
      "stateMutability": "view"
    },
    {
      "type": "function",
      "name": "MGMT_FEE_AUM_TIER1_THRESHOLD",
      "inputs": [],
      "outputs": [
        {
          "name": "",
          "type": "uint256",
          "internalType": "uint256"
        }
      ],
      "stateMutability": "view"
    },
    {
      "type": "function",
      "name": "MGMT_FEE_AUM_TIER2_BPS",
      "inputs": [],
      "outputs": [
        {
          "name": "",
          "type": "uint16",
          "internalType": "uint16"
        }
      ],
      "stateMutability": "view"
    },
    {
      "type": "function",
      "name": "MINTER_ROLE",
      "inputs": [],
      "outputs": [
        {
          "name": "",
          "type": "bytes32",
          "internalType": "bytes32"
        }
      ],
      "stateMutability": "view"
    },
    {
      "type": "function",
      "name": "PAUSER_ROLE",
      "inputs": [],
      "outputs": [
        {
          "name": "",
          "type": "bytes32",
          "internalType": "bytes32"
        }
      ],
      "stateMutability": "view"
    },
    {
      "type": "function",
      "name": "PROJECT_HANDLER_ROLE",
      "inputs": [],
      "outputs": [
        {
          "name": "",
          "type": "bytes32",
          "internalType": "bytes32"
        }
      ],
      "stateMutability": "view"
    },
    {
      "type": "function",
      "name": "PROTOCOL_TREASURY_SHARE_BPS",
      "inputs": [],
      "outputs": [
        {
          "name": "",
          "type": "uint16",
          "internalType": "uint16"
        }
      ],
      "stateMutability": "view"
    },
    {
      "type": "function",
      "name": "RELEASER_ROLE",
      "inputs": [],
      "outputs": [
        {
          "name": "",
          "type": "bytes32",
          "internalType": "bytes32"
        }
      ],
      "stateMutability": "view"
    },
    {
      "type": "function",
      "name": "REPAYMENT_HANDLER_ROLE",
      "inputs": [],
      "outputs": [
        {
          "name": "",
          "type": "bytes32",
          "internalType": "bytes32"
        }
      ],
      "stateMutability": "view"
    },
    {
      "type": "function",
      "name": "REPAYMENT_ROUTER_ROLE",
      "inputs": [],
      "outputs": [
        {
          "name": "",
          "type": "bytes32",
          "internalType": "bytes32"
        }
      ],
      "stateMutability": "view"
    },
    {
      "type": "function",
      "name": "RISK_ORACLE_ROLE",
      "inputs": [],
      "outputs": [
        {
          "name": "",
          "type": "bytes32",
          "internalType": "bytes32"
        }
      ],
      "stateMutability": "view"
    },
    {
      "type": "function",
      "name": "SECONDS_PER_YEAR",
      "inputs": [],
      "outputs": [
        {
          "name": "",
          "type": "uint256",
          "internalType": "uint256"
        }
      ],
      "stateMutability": "view"
    },
    {
      "type": "function",
      "name": "SLASHER_ROLE",
      "inputs": [],
      "outputs": [
        {
          "name": "",
          "type": "bytes32",
          "internalType": "bytes32"
        }
      ],
      "stateMutability": "view"
    },
    {
      "type": "function",
      "name": "TX_FEE_TIER1_BPS",
      "inputs": [],
      "outputs": [
        {
          "name": "",
          "type": "uint16",
          "internalType": "uint16"
        }
      ],
      "stateMutability": "view"
    },
    {
      "type": "function",
      "name": "TX_FEE_TIER1_THRESHOLD",
      "inputs": [],
      "outputs": [
        {
          "name": "",
          "type": "uint256",
          "internalType": "uint256"
        }
      ],
      "stateMutability": "view"
    },
    {
      "type": "function",
      "name": "TX_FEE_TIER2_BPS",
      "inputs": [],
      "outputs": [
        {
          "name": "",
          "type": "uint16",
          "internalType": "uint16"
        }
      ],
      "stateMutability": "view"
    },
    {
      "type": "function",
      "name": "TX_FEE_TIER2_THRESHOLD",
      "inputs": [],
      "outputs": [
        {
          "name": "",
          "type": "uint256",
          "internalType": "uint256"
        }
      ],
      "stateMutability": "view"
    },
    {
      "type": "function",
      "name": "TX_FEE_TIER3_BPS",
      "inputs": [],
      "outputs": [
        {
          "name": "",
          "type": "uint16",
          "internalType": "uint16"
        }
      ],
      "stateMutability": "view"
    },
    {
      "type": "function",
      "name": "UPGRADER_ROLE",
      "inputs": [],
      "outputs": [
        {
          "name": "",
          "type": "bytes32",
          "internalType": "bytes32"
        }
      ],
      "stateMutability": "view"
    },
    {
      "type": "function",
      "name": "USDC_DECIMALS",
      "inputs": [],
      "outputs": [
        {
          "name": "",
          "type": "uint8",
          "internalType": "uint8"
        }
      ],
      "stateMutability": "view"
    },
    {
      "type": "function",
      "name": "USDC_UNIT",
      "inputs": [],
      "outputs": [
        {
          "name": "",
          "type": "uint256",
          "internalType": "uint256"
        }
      ],
      "stateMutability": "view"
    }
  ],
  "bytecode": {
    "object": "0x6106e1610034600b8282823980515f1a607314602857634e487b7160e01b5f525f60045260245ffd5b305f52607381538281f3fe73000000000000000000000000000000000000000030146080604052600436106101f2575f3560e01c8063ac28af2411610114578063e2714580116100a9578063f03dcb6e11610079578063f03dcb6e14610468578063f72c0d8b14610470578063ff2f4e4a14610497578063ff62f87c14610406575f80fd5b8063e271458014610406578063e4f020231461040f578063e63ab1e914610436578063e6a69ab81461045d575f80fd5b8063cfa498a3116100e4578063cfa498a314610388578063d2a618de14610391578063d5391393146103b8578063dc655e3c146103df575f80fd5b8063ac28af2414610337578063c1419def1461035e578063ca7b64bb14610378578063cd9b238414610380575f80fd5b80635095af641161018a57806396fe905e1161015a57806396fe905e146102f8578063a217fddf14610301578063a3f8754b14610308578063ab3fbf5a1461032f575f80fd5b80635095af64146102b95780636eb63543146102e05780637eb1aaa0146102e85780637ee3b3b2146102f0575f80fd5b80632b587880116101c55780632b58788014610299578063308a05ee146102a157806345e27d07146102a95780634af28676146102b1575f80fd5b806302d7fd92146101f657806324765d0814610230578063282c51f31461025757806329964ac31461027e575b5f80fd5b61021d7f811427a0fa4932aef534bba16bc34e9b7b2d7d2a79c475fca1765f6cc1faebea81565b6040519081526020015b60405180910390f35b61021d7f3f57c52536792344d29a07b54000a77b3ed100d4e466b7a4fda1fc52c2bdee6281565b61021d7f3c11d16cbaffd01df69ce1c404f6340ee057498f5f00246190ea54220576a84881565b610286609681565b60405161ffff9091168152602001610227565b61021d6104be565b610286604b81565b61021d6104d9565b61021d6104f2565b61021d7f12b42e8a160f6064dc959c6f251e3af0750ad213dbecf573b4710d67d6c28e3981565b610286606481565b610286601481565b61021d6104fe565b610286611f4081565b61021d5f81565b61021d7f02509c39826ef4d4fc9a6478dd388f892df655e831b495ea37e26344d4c48aca81565b610286603281565b61021d7f88f3509f0e42391f2d94ebfb2a37cbd0782b1b8f73715330017f4663290b811781565b610366600681565b60405160ff9091168152602001610227565b61021d610517565b610286602381565b61028661271081565b61021d7f51a687be621618bb42f5dcbb17ee3798544ce951156fd30a67d800a241b4801981565b61021d7f9f2df0fed2c77648de5860a4cc508cd0818c85b8b8a1ab4ceeef8d981c8956a681565b61021d7fc78f9bcb4e7702881693fc003818cea41b963ca2641dc5446bfdd14affd4afcb81565b6102866107d081565b61021d7fc1959c1680e978dd9c68669ea488ae9b3e8f764684bd2da104ac2d5b5f57006381565b61021d7f65d7a28e3265b37a6474929f336521b332c1681b933f6cb9f3376673440d862a81565b61021d6301e1338081565b61028660c881565b61021d7f189ab7a9244df0848122154315af71fe140f3db0fe014031783b0946b8c9d2e381565b61021d7f42847befda217a8205614b97eeba0062d90a739902cf3467520ceec14471153981565b6104ca6006600a61067f565b6104d690612710610694565b81565b6104e56006600a61067f565b6104d690620186a0610694565b6104d66006600a61067f565b61050a6006600a61067f565b6104d690620f4240610694565b6105236006600a61067f565b6104d69061c350610694565b7f4e487b71000000000000000000000000000000000000000000000000000000005f52601160045260245ffd5b6001815b60018411156105975780850481111561057b5761057b61052f565b600184161561058957908102905b60019390931c928002610560565b935093915050565b5f826105ad57506001610679565b816105b957505f610679565b81600181146105cf57600281146105d9576105f5565b6001915050610679565b60ff8411156105ea576105ea61052f565b50506001821b610679565b5060208310610133831016604e8410600b8410161715610618575081810a610679565b6106437fffffffffffffffffffffffffffffffffffffffffffffffffffffffffffffffff848461055c565b807fffffffffffffffffffffffffffffffffffffffffffffffffffffffffffffffff048211156106755761067561052f565b0290505b92915050565b5f61068d60ff84168361059f565b9392505050565b80820281158282048414176106795761067961052f56fea26469706673582212208e3c06d5b7aa5ea4dbaab39502b40a06b0a72bb038d0aa0b1346e3ef68c9480864736f6c634300081a0033",
    "linkReferences": {}
  },
  "methodIdentifiers": {
    "BASIS_POINTS_DENOMINATOR()": "cfa498a3",
    "BURNER_ROLE()": "282c51f3",
    "CAPITAL_RAISING_FEE_FIRST_TIME_BPS()": "f03dcb6e",
    "CAPITAL_RAISING_FEE_REPEAT_BPS()": "29964ac3",
    "CARBON_TREASURY_SHARE_BPS()": "e2714580",
    "DEFAULT_ADMIN_ROLE()": "a217fddf",
    "DEPOSIT_FUNDER_ROLE()": "e4f02023",
    "DEVELOPER_DEPOSIT_BPS()": "ff62f87c",
    "DEV_ESCROW_ROLE()": "dc655e3c",
    "HIGH_VALUE_THRESHOLD()": "ca7b64bb",
    "KYC_ADMIN_ROLE()": "02d7fd92",
    "MGMT_FEE_AUM_TIER1_BPS()": "6eb63543",
    "MGMT_FEE_AUM_TIER1_THRESHOLD()": "7ee3b3b2",
    "MGMT_FEE_AUM_TIER2_BPS()": "308a05ee",
    "MINTER_ROLE()": "d5391393",
    "PAUSER_ROLE()": "e63ab1e9",
    "PROJECT_HANDLER_ROLE()": "ff2f4e4a",
    "PROTOCOL_TREASURY_SHARE_BPS()": "96fe905e",
    "RELEASER_ROLE()": "ac28af24",
    "REPAYMENT_HANDLER_ROLE()": "d2a618de",
    "REPAYMENT_ROUTER_ROLE()": "24765d08",
    "RISK_ORACLE_ROLE()": "a3f8754b",
    "SECONDS_PER_YEAR()": "e6a69ab8",
    "SLASHER_ROLE()": "5095af64",
    "TX_FEE_TIER1_BPS()": "ab3fbf5a",
    "TX_FEE_TIER1_THRESHOLD()": "2b587880",
    "TX_FEE_TIER2_BPS()": "cd9b2384",
    "TX_FEE_TIER2_THRESHOLD()": "45e27d07",
    "TX_FEE_TIER3_BPS()": "7eb1aaa0",
    "UPGRADER_ROLE()": "f72c0d8b",
    "USDC_DECIMALS()": "c1419def",
    "USDC_UNIT()": "4af28676"
  },
  "id": 89
}