{
  "abi": [
    {
      "type": "function",
      "name": "DEFAULT_ADMIN_ROLE",
      "inputs": [],
      "outputs": [
        {
          "name": "",
          "type": "bytes32",
          "internalType": "bytes32"
        }
      ],
      "stateMutability": "view"
    },
    {
      "type": "function",
      "name": "developer",
      "inputs": [],
      "outputs": [
        {
          "name": "",
          "type": "address",
          "internalType": "address"
        }
      ],
      "stateMutability": "view"
    },
    {
      "type": "function",
      "name": "fundEscrow",
      "inputs": [
        {
          "name": "amount",
          "type": "uint256",
          "internalType": "uint256"
        }
      ],
      "outputs": [],
      "stateMutability": "nonpayable"
    },
    {
      "type": "function",
      "name": "fundingSource",
      "inputs": [],
      "outputs": [
        {
          "name": "",
          "type": "address",
          "internalType": "address"
        }
      ],
      "stateMutability": "view"
    },
    {
      "type": "function",
      "name": "getDeveloper",
      "inputs": [],
      "outputs": [
        {
          "name": "",
          "type": "address",
          "internalType": "address"
        }
      ],
      "stateMutability": "view"
    },
    {
      "type": "function",
      "name": "getFundingSource",
      "inputs": [],
      "outputs": [
        {
          "name": "",
          "type": "address",
          "internalType": "address"
        }
      ],
      "stateMutability": "view"
    },
    {
      "type": "function",
      "name": "getRoleAdmin",
      "inputs": [
        {
          "name": "role",
          "type": "bytes32",
          "internalType": "bytes32"
        }
      ],
      "outputs": [
        {
          "name": "",
          "type": "bytes32",
          "internalType": "bytes32"
        }
      ],
      "stateMutability": "view"
    },
    {
      "type": "function",
      "name": "getRoleMember",
      "inputs": [
        {
          "name": "role",
          "type": "bytes32",
          "internalType": "bytes32"
        },
        {
          "name": "index",
          "type": "uint256",
          "internalType": "uint256"
        }
      ],
      "outputs": [
        {
          "name": "",
          "type": "address",
          "internalType": "address"
        }
      ],
      "stateMutability": "view"
    },
    {
      "type": "function",
      "name": "getRoleMemberCount",
      "inputs": [
        {
          "name": "role",
          "type": "bytes32",
          "internalType": "bytes32"
        }
      ],
      "outputs": [
        {
          "name": "",
          "type": "uint256",
          "internalType": "uint256"
        }
      ],
      "stateMutability": "view"
    },
    {
      "type": "function",
      "name": "getRoleMembers",
      "inputs": [
        {
          "name": "role",
          "type": "bytes32",
          "internalType": "bytes32"
        }
      ],
      "outputs": [
        {
          "name": "",
          "type": "address[]",
          "internalType": "address[]"
        }
      ],
      "stateMutability": "view"
    },
    {
      "type": "function",
      "name": "getTotalAllocated",
      "inputs": [],
      "outputs": [
        {
          "name": "",
          "type": "uint256",
          "internalType": "uint256"
        }
      ],
      "stateMutability": "view"
    },
    {
      "type": "function",
      "name": "getTotalWithdrawn",
      "inputs": [],
      "outputs": [
        {
          "name": "",
          "type": "uint256",
          "internalType": "uint256"
        }
      ],
      "stateMutability": "view"
    },
    {
      "type": "function",
      "name": "grantRole",
      "inputs": [
        {
          "name": "role",
          "type": "bytes32",
          "internalType": "bytes32"
        },
        {
          "name": "account",
          "type": "address",
          "internalType": "address"
        }
      ],
      "outputs": [],
      "stateMutability": "nonpayable"
    },
    {
      "type": "function",
      "name": "hasRole",
      "inputs": [
        {
          "name": "role",
          "type": "bytes32",
          "internalType": "bytes32"
        },
        {
          "name": "account",
          "type": "address",
          "internalType": "address"
        }
      ],
      "outputs": [
        {
          "name": "",
          "type": "bool",
          "internalType": "bool"
        }
      ],
      "stateMutability": "view"
    },
    {
      "type": "function",
      "name": "initialize",
      "inputs": [
        {
          "name": "_usdcToken",
          "type": "address",
          "internalType": "address"
        },
        {
          "name": "_developer",
          "type": "address",
          "internalType": "address"
        },
        {
          "name": "_fundingSource",
          "type": "address",
          "internalType": "address"
        },
        {
          "name": "_totalAllocated",
          "type": "uint256",
          "internalType": "uint256"
        },
        {
          "name": "_pauser",
          "type": "address",
          "internalType": "address"
        }
      ],
      "outputs": [],
      "stateMutability": "nonpayable"
    },
    {
      "type": "function",
      "name": "notifyFundingComplete",
      "inputs": [
        {
          "name": "amount",
          "type": "uint256",
          "internalType": "uint256"
        }
      ],
      "outputs": [],
      "stateMutability": "nonpayable"
    },
    {
      "type": "function",
      "name": "pause",
      "inputs": [],
      "outputs": [],
      "stateMutability": "nonpayable"
    },
    {
      "type": "function",
      "name": "paused",
      "inputs": [],
      "outputs": [
        {
          "name": "",
          "type": "bool",
          "internalType": "bool"
        }
      ],
      "stateMutability": "view"
    },
    {
      "type": "function",
      "name": "renounceRole",
      "inputs": [
        {
          "name": "role",
          "type": "bytes32",
          "internalType": "bytes32"
        },
        {
          "name": "callerConfirmation",
          "type": "address",
          "internalType": "address"
        }
      ],
      "outputs": [],
      "stateMutability": "nonpayable"
    },
    {
      "type": "function",
      "name": "revokeRole",
      "inputs": [
        {
          "name": "role",
          "type": "bytes32",
          "internalType": "bytes32"
        },
        {
          "name": "account",
          "type": "address",
          "internalType": "address"
        }
      ],
      "outputs": [],
      "stateMutability": "nonpayable"
    },
    {
      "type": "function",
      "name": "supportsInterface",
      "inputs": [
        {
          "name": "interfaceId",
          "type": "bytes4",
          "internalType": "bytes4"
        }
      ],
      "outputs": [
        {
          "name": "",
          "type": "bool",
          "internalType": "bool"
        }
      ],
      "stateMutability": "view"
    },
    {
      "type": "function",
      "name": "totalAllocated",
      "inputs": [],
      "outputs": [
        {
          "name": "",
          "type": "uint256",
          "internalType": "uint256"
        }
      ],
      "stateMutability": "view"
    },
    {
      "type": "function",
      "name": "totalWithdrawn",
      "inputs": [],
      "outputs": [
        {
          "name": "",
          "type": "uint256",
          "internalType": "uint256"
        }
      ],
      "stateMutability": "view"
    },
    {
      "type": "function",
      "name": "unpause",
      "inputs": [],
      "outputs": [],
      "stateMutability": "nonpayable"
    },
    {
      "type": "function",
      "name": "usdcToken",
      "inputs": [],
      "outputs": [
        {
          "name": "",
          "type": "address",
          "internalType": "contract IERC20"
        }
      ],
      "stateMutability": "view"
    },
    {
      "type": "event",
      "name": "EscrowFunded",
      "inputs": [
        {
          "name": "fundingSource",
          "type": "address",
          "indexed": true,
          "internalType": "address"
        },
        {
          "name": "amount",
          "type": "uint256",
          "indexed": false,
          "internalType": "uint256"
        }
      ],
      "anonymous": false
    },
    {
      "type": "event",
      "name": "FundingComplete",
      "inputs": [
        {
          "name": "developer",
          "type": "address",
          "indexed": true,
          "internalType": "address"
        },
        {
          "name": "amount",
          "type": "uint256",
          "indexed": false,
          "internalType": "uint256"
        }
      ],
      "anonymous": false
    },
    {
      "type": "event",
      "name": "Initialized",
      "inputs": [
        {
          "name": "version",
          "type": "uint64",
          "indexed": false,
          "internalType": "uint64"
        }
      ],
      "anonymous": false
    },
    {
      "type": "event",
      "name": "Paused",
      "inputs": [
        {
          "name": "account",
          "type": "address",
          "indexed": false,
          "internalType": "address"
        }
      ],
      "anonymous": false
    },
    {
      "type": "event",
      "name": "RoleAdminChanged",
      "inputs": [
        {
          "name": "role",
          "type": "bytes32",
          "indexed": true,
          "internalType": "bytes32"
        },
        {
          "name": "previousAdminRole",
          "type": "bytes32",
          "indexed": true,
          "internalType": "bytes32"
        },
        {
          "name": "newAdminRole",
          "type": "bytes32",
          "indexed": true,
          "internalType": "bytes32"
        }
      ],
      "anonymous": false
    },
    {
      "type": "event",
      "name": "RoleGranted",
      "inputs": [
        {
          "name": "role",
          "type": "bytes32",
          "indexed": true,
          "internalType": "bytes32"
        },
        {
          "name": "account",
          "type": "address",
          "indexed": true,
          "internalType": "address"
        },
        {
          "name": "sender",
          "type": "address",
          "indexed": true,
          "internalType": "address"
        }
      ],
      "anonymous": false
    },
    {
      "type": "event",
      "name": "RoleRevoked",
      "inputs": [
        {
          "name": "role",
          "type": "bytes32",
          "indexed": true,
          "internalType": "bytes32"
        },
        {
          "name": "account",
          "type": "address",
          "indexed": true,
          "internalType": "address"
        },
        {
          "name": "sender",
          "type": "address",
          "indexed": true,
          "internalType": "address"
        }
      ],
      "anonymous": false
    },
    {
      "type": "event",
      "name": "Unpaused",
      "inputs": [
        {
          "name": "account",
          "type": "address",
          "indexed": false,
          "internalType": "address"
        }
      ],
      "anonymous": false
    },
    {
      "type": "error",
      "name": "AccessControlBadConfirmation",
      "inputs": []
    },
    {
      "type": "error",
      "name": "AccessControlUnauthorizedAccount",
      "inputs": [
        {
          "name": "account",
          "type": "address",
          "internalType": "address"
        },
        {
          "name": "neededRole",
          "type": "bytes32",
          "internalType": "bytes32"
        }
      ]
    },
    {
      "type": "error",
      "name": "AmountCannotBeZero",
      "inputs": []
    },
    {
      "type": "error",
      "name": "EnforcedPause",
      "inputs": []
    },
    {
      "type": "error",
      "name": "ExpectedPause",
      "inputs": []
    },
    {
      "type": "error",
      "name": "InvalidInitialization",
      "inputs": []
    },
    {
      "type": "error",
      "name": "NotInitializing",
      "inputs": []
    },
    {
      "type": "error",
      "name": "ReentrancyGuardReentrantCall",
      "inputs": []
    },
    {
      "type": "error",
      "name": "ZeroAddressNotAllowed",
      "inputs": []
    }
  ],
  "bytecode": {
    "object": "0x6080604052348015600e575f80fd5b506001600355611332806100215f395ff3fe608060405234801561000f575f80fd5b506004361061019a575f3560e01c80638456cb59116100e8578063a3246ad311610093578063ca15c8731161006e578063ca15c8731461039f578063ca4b208b146103b2578063d547741f146103d2578063dd92ffe5146103e5575f80fd5b8063a3246ad31461034c578063a9fe5c301461036c578063c9c31af51461038c575f80fd5b806391d14854116100c357806391d14854146102e45780639fc9c91b14610327578063a217fddf14610345575f80fd5b80638456cb59146102c157806389404a79146102c95780639010d07c146102d1575f80fd5b806345f7f249116101485780635c975abb116101235780635c975abb146102905780637a4440721461029b57806382299a5c146102b9575f80fd5b806345f7f2491461026b5780634b31971314610274578063530b97a41461027d575f80fd5b80632f2ff15d116101785780632f2ff15d1461023b57806336568abe146102505780633f4ba83a14610263575f80fd5b806301ffc9a71461019e57806311eac855146101c6578063248a9ca31461020b575b5f80fd5b6101b16101ac3660046110f0565b6103f8565b60405190151581526020015b60405180910390f35b6004546101e69073ffffffffffffffffffffffffffffffffffffffff1681565b60405173ffffffffffffffffffffffffffffffffffffffff90911681526020016101bd565b61022d61021936600461112f565b5f9081526020819052604090206001015490565b6040519081526020016101bd565b61024e61024936600461116e565b610408565b005b61024e61025e36600461116e565b610432565b61024e610490565b61022d60075481565b61022d60085481565b61024e61028b366004611198565b6104c5565b60025460ff166101b1565b60055473ffffffffffffffffffffffffffffffffffffffff166101e6565b60075461022d565b61024e6107b1565b60085461022d565b6101e66102df3660046111f2565b6107e3565b6101b16102f236600461116e565b5f9182526020828152604080842073ffffffffffffffffffffffffffffffffffffffff93909316845291905290205460ff1690565b60065473ffffffffffffffffffffffffffffffffffffffff166101e6565b61022d5f81565b61035f61035a36600461112f565b610801565b6040516101bd9190611212565b6006546101e69073ffffffffffffffffffffffffffffffffffffffff1681565b61024e61039a36600461112f565b61081a565b61022d6103ad36600461112f565b6108c7565b6005546101e69073ffffffffffffffffffffffffffffffffffffffff1681565b61024e6103e036600461116e565b6108dd565b61024e6103f336600461112f565b610901565b5f61040282610997565b92915050565b5f82815260208190526040902060010154610422816109ec565b61042c83836109f6565b50505050565b73ffffffffffffffffffffffffffffffffffffffff81163314610481576040517f6697b23200000000000000000000000000000000000000000000000000000000815260040160405180910390fd5b61048b8282610a29565b505050565b7f65d7a28e3265b37a6474929f336521b332c1681b933f6cb9f3376673440d862a6104ba816109ec565b6104c2610a54565b50565b5f6104ce610ad1565b805490915060ff68010000000000000000820416159067ffffffffffffffff165f811580156104fa5750825b90505f8267ffffffffffffffff1660011480156105165750303b155b905081158015610524575080155b1561055b576040517ff92ee8a900000000000000000000000000000000000000000000000000000000815260040160405180910390fd5b84547fffffffffffffffffffffffffffffffffffffffffffffffff000000000000000016600117855583156105bc5784547fffffffffffffffffffffffffffffffffffffffffffffff00ffffffffffffffff16680100000000000000001785555b73ffffffffffffffffffffffffffffffffffffffff8a1615806105f3575073ffffffffffffffffffffffffffffffffffffffff8916155b80610612575073ffffffffffffffffffffffffffffffffffffffff8816155b80610631575073ffffffffffffffffffffffffffffffffffffffff8616155b15610668576040517f8579befe00000000000000000000000000000000000000000000000000000000815260040160405180910390fd5b865f036106a1576040517fd11b25af00000000000000000000000000000000000000000000000000000000815260040160405180910390fd5b6004805473ffffffffffffffffffffffffffffffffffffffff808d167fffffffffffffffffffffffff000000000000000000000000000000000000000092831617909255600580548c841690831617905560068054928b169290911691909117905560078790555f600881905561071890896109f6565b506107437f65d7a28e3265b37a6474929f336521b332c1681b933f6cb9f3376673440d862a876109f6565b5083156107a55784547fffffffffffffffffffffffffffffffffffffffffffffff00ffffffffffffffff168555604051600181527fc7f505b2f371ae2175ee4913f4499e1f2633a7b5936321eed1cdaeb6115181d29060200160405180910390a15b50505050505050505050565b7f65d7a28e3265b37a6474929f336521b332c1681b933f6cb9f3376673440d862a6107db816109ec565b6104c2610af9565b5f8281526001602052604081206107fa9083610b54565b9392505050565b5f81815260016020526040902060609061040290610b5f565b610822610b6b565b61082a610bae565b5f610834816109ec565b815f0361086d576040517fd11b25af00000000000000000000000000000000000000000000000000000000815260040160405180910390fd5b60065460405183815273ffffffffffffffffffffffffffffffffffffffff909116907f511c3b325f63024e6754176648b89f4bab878b1712366d9bf3729c501dcbad799060200160405180910390a2506104c26001600355565b5f81815260016020526040812061040290610bed565b5f828152602081905260409020600101546108f7816109ec565b61042c8383610a29565b5f61090b816109ec565b815f03610944576040517fd11b25af00000000000000000000000000000000000000000000000000000000815260040160405180910390fd5b60055460405183815273ffffffffffffffffffffffffffffffffffffffff909116907f24c1cbf30dd45000d1a070a2096f31b038ededb5c5c5628fa880d66a76491b9b9060200160405180910390a25050565b5f7fffffffff0000000000000000000000000000000000000000000000000000000082167f5a05180f000000000000000000000000000000000000000000000000000000001480610402575061040282610bf6565b6104c28133610c8c565b5f80610a028484610d19565b905080156107fa575f848152600160205260409020610a219084610e12565b509392505050565b5f80610a358484610e33565b905080156107fa575f848152600160205260409020610a219084610eec565b610a5c610f0d565b600280547fffffffffffffffffffffffffffffffffffffffffffffffffffffffffffffff001690557f5db9ee0a495bf2e6ff9c91a7834c1ba4fdd244a5e8aa4e537bd38aeae4b073aa335b60405173ffffffffffffffffffffffffffffffffffffffff909116815260200160405180910390a1565b5f807ff0c57e16840df040f15088dc2f81fe391c3923bec73e23a9662efc9c229c6a00610402565b610b01610bae565b600280547fffffffffffffffffffffffffffffffffffffffffffffffffffffffffffffff001660011790557f62e78cea01bee320cd4e420270b5ea74000d11b0c9f74754ebdbfc544b05a258610aa73390565b5f6107fa8383610f49565b60605f6107fa83610f6f565b600260035403610ba7576040517f3ee5aeb500000000000000000000000000000000000000000000000000000000815260040160405180910390fd5b6002600355565b60025460ff1615610beb576040517fd93c066500000000000000000000000000000000000000000000000000000000815260040160405180910390fd5b565b5f610402825490565b5f7fffffffff0000000000000000000000000000000000000000000000000000000082167f7965db0b00000000000000000000000000000000000000000000000000000000148061040257507f01ffc9a7000000000000000000000000000000000000000000000000000000007fffffffff00000000000000000000000000000000000000000000000000000000831614610402565b5f8281526020818152604080832073ffffffffffffffffffffffffffffffffffffffff8516845290915290205460ff16610d15576040517fe2517d3f00000000000000000000000000000000000000000000000000000000815273ffffffffffffffffffffffffffffffffffffffff821660048201526024810183905260440160405180910390fd5b5050565b5f8281526020818152604080832073ffffffffffffffffffffffffffffffffffffffff8516845290915281205460ff16610e0b575f8381526020818152604080832073ffffffffffffffffffffffffffffffffffffffff86168452909152902080547fffffffffffffffffffffffffffffffffffffffffffffffffffffffffffffff00166001179055610da93390565b73ffffffffffffffffffffffffffffffffffffffff168273ffffffffffffffffffffffffffffffffffffffff16847f2f8788117e7eff1d82e926ec794901d17c78024a50270940304540a733656f0d60405160405180910390a4506001610402565b505f610402565b5f6107fa8373ffffffffffffffffffffffffffffffffffffffff8416610fc8565b5f8281526020818152604080832073ffffffffffffffffffffffffffffffffffffffff8516845290915281205460ff1615610e0b575f8381526020818152604080832073ffffffffffffffffffffffffffffffffffffffff8616808552925280832080547fffffffffffffffffffffffffffffffffffffffffffffffffffffffffffffff0016905551339286917ff6391f5c32d9c69d2a47ea670b442974b53935d1edc7fd64eb21e047a839171b9190a4506001610402565b5f6107fa8373ffffffffffffffffffffffffffffffffffffffff841661100d565b60025460ff16610beb576040517f8dfc202b00000000000000000000000000000000000000000000000000000000815260040160405180910390fd5b5f825f018281548110610f5e57610f5e61126a565b905f5260205f200154905092915050565b6060815f01805480602002602001604051908101604052809291908181526020018280548015610fbc57602002820191905f5260205f20905b815481526020019060010190808311610fa8575b50505050509050919050565b5f818152600183016020526040812054610e0b57508154600181810184555f848152602080822090930184905584548482528286019093526040902091909155610402565b5f81815260018301602052604081205480156110e7575f61102f600183611297565b85549091505f9061104290600190611297565b90508082146110a1575f865f0182815481106110605761106061126a565b905f5260205f200154905080875f0184815481106110805761108061126a565b5f918252602080832090910192909255918252600188019052604090208390555b85548690806110b2576110b26112cf565b600190038181905f5260205f20015f90559055856001015f8681526020019081526020015f205f905560019350505050610402565b5f915050610402565b5f60208284031215611100575f80fd5b81357fffffffff00000000000000000000000000000000000000000000000000000000811681146107fa575f80fd5b5f6020828403121561113f575f80fd5b5035919050565b803573ffffffffffffffffffffffffffffffffffffffff81168114611169575f80fd5b919050565b5f806040838503121561117f575f80fd5b8235915061118f60208401611146565b90509250929050565b5f805f805f60a086880312156111ac575f80fd5b6111b586611146565b94506111c360208701611146565b93506111d160408701611146565b9250606086013591506111e660808701611146565b90509295509295909350565b5f8060408385031215611203575f80fd5b50508035926020909101359150565b602080825282518282018190525f918401906040840190835b8181101561125f57835173ffffffffffffffffffffffffffffffffffffffff1683526020938401939092019160010161122b565b509095945050505050565b7f4e487b71000000000000000000000000000000000000000000000000000000005f52603260045260245ffd5b81810381811115610402577f4e487b71000000000000000000000000000000000000000000000000000000005f52601160045260245ffd5b7f4e487b71000000000000000000000000000000000000000000000000000000005f52603160045260245ffdfea2646970667358221220814046cffa17c6dbd78b70f72db251c8bd93df6cb1a08b045eebb83e1b0c89e364736f6c634300081a0033",
    "linkReferences": {}
  },
  "methodIdentifiers": {
    "DEFAULT_ADMIN_ROLE()": "a217fddf",
    "developer()": "ca4b208b",
    "fundEscrow(uint256)": "c9c31af5",
    "fundingSource()": "a9fe5c30",
    "getDeveloper()": "7a444072",
    "getFundingSource()": "9fc9c91b",
    "getRoleAdmin(bytes32)": "248a9ca3",
    "getRoleMember(bytes32,uint256)": "9010d07c",
    "getRoleMemberCount(bytes32)": "ca15c873",
    "getRoleMembers(bytes32)": "a3246ad3",
    "getTotalAllocated()": "82299a5c",
    "getTotalWithdrawn()": "89404a79",
    "grantRole(bytes32,address)": "2f2ff15d",
    "hasRole(bytes32,address)": "91d14854",
    "initialize(address,address,address,uint256,address)": "530b97a4",
    "notifyFundingComplete(uint256)": "dd92ffe5",
    "pause()": "8456cb59",
    "paused()": "5c975abb",
    "renounceRole(bytes32,address)": "36568abe",
    "revokeRole(bytes32,address)": "d547741f",
    "supportsInterface(bytes4)": "01ffc9a7",
    "totalAllocated()": "45f7f249",
    "totalWithdrawn()": "4b319713",
    "unpause()": "3f4ba83a",
    "usdcToken()": "11eac855"
  },
  "id": 91
}