{
  "abi": [
    {
      "type": "constructor",
      "inputs": [
        {
          "name": "_usdcToken",
          "type": "address",
          "internalType": "address"
        }
      ],
      "stateMutability": "nonpayable"
    },
    {
      "type": "function",
      "name": "DEFAULT_ADMIN_ROLE",
      "inputs": [],
      "outputs": [
        {
          "name": "",
          "type": "bytes32",
          "internalType": "bytes32"
        }
      ],
      "stateMutability": "view"
    },
    {
      "type": "function",
      "name": "depositAmount",
      "inputs": [
        {
          "name": "",
          "type": "uint256",
          "internalType": "uint256"
        }
      ],
      "outputs": [
        {
          "name": "",
          "type": "uint256",
          "internalType": "uint256"
        }
      ],
      "stateMutability": "view"
    },
    {
      "type": "function",
      "name": "depositSettled",
      "inputs": [
        {
          "name": "",
          "type": "uint256",
          "internalType": "uint256"
        }
      ],
      "outputs": [
        {
          "name": "",
          "type": "bool",
          "internalType": "bool"
        }
      ],
      "stateMutability": "view"
    },
    {
      "type": "function",
      "name": "fundDeposit",
      "inputs": [
        {
          "name": "projectId",
          "type": "uint256",
          "internalType": "uint256"
        },
        {
          "name": "developer",
          "type": "address",
          "internalType": "address"
        },
        {
          "name": "amount",
          "type": "uint256",
          "internalType": "uint256"
        }
      ],
      "outputs": [],
      "stateMutability": "nonpayable"
    },
    {
      "type": "function",
      "name": "getDepositAmount",
      "inputs": [
        {
          "name": "projectId",
          "type": "uint256",
          "internalType": "uint256"
        }
      ],
      "outputs": [
        {
          "name": "",
          "type": "uint256",
          "internalType": "uint256"
        }
      ],
      "stateMutability": "view"
    },
    {
      "type": "function",
      "name": "getProjectDeveloper",
      "inputs": [
        {
          "name": "projectId",
          "type": "uint256",
          "internalType": "uint256"
        }
      ],
      "outputs": [
        {
          "name": "",
          "type": "address",
          "internalType": "address"
        }
      ],
      "stateMutability": "view"
    },
    {
      "type": "function",
      "name": "getRoleAdmin",
      "inputs": [
        {
          "name": "role",
          "type": "bytes32",
          "internalType": "bytes32"
        }
      ],
      "outputs": [
        {
          "name": "",
          "type": "bytes32",
          "internalType": "bytes32"
        }
      ],
      "stateMutability": "view"
    },
    {
      "type": "function",
      "name": "getRoleMember",
      "inputs": [
        {
          "name": "role",
          "type": "bytes32",
          "internalType": "bytes32"
        },
        {
          "name": "index",
          "type": "uint256",
          "internalType": "uint256"
        }
      ],
      "outputs": [
        {
          "name": "",
          "type": "address",
          "internalType": "address"
        }
      ],
      "stateMutability": "view"
    },
    {
      "type": "function",
      "name": "getRoleMemberCount",
      "inputs": [
        {
          "name": "role",
          "type": "bytes32",
          "internalType": "bytes32"
        }
      ],
      "outputs": [
        {
          "name": "",
          "type": "uint256",
          "internalType": "uint256"
        }
      ],
      "stateMutability": "view"
    },
    {
      "type": "function",
      "name": "getRoleMembers",
      "inputs": [
        {
          "name": "role",
          "type": "bytes32",
          "internalType": "bytes32"
        }
      ],
      "outputs": [
        {
          "name": "",
          "type": "address[]",
          "internalType": "address[]"
        }
      ],
      "stateMutability": "view"
    },
    {
      "type": "function",
      "name": "grantRole",
      "inputs": [
        {
          "name": "role",
          "type": "bytes32",
          "internalType": "bytes32"
        },
        {
          "name": "account",
          "type": "address",
          "internalType": "address"
        }
      ],
      "outputs": [],
      "stateMutability": "nonpayable"
    },
    {
      "type": "function",
      "name": "hasRole",
      "inputs": [
        {
          "name": "role",
          "type": "bytes32",
          "internalType": "bytes32"
        },
        {
          "name": "account",
          "type": "address",
          "internalType": "address"
        }
      ],
      "outputs": [
        {
          "name": "",
          "type": "bool",
          "internalType": "bool"
        }
      ],
      "stateMutability": "view"
    },
    {
      "type": "function",
      "name": "isDepositSettled",
      "inputs": [
        {
          "name": "projectId",
          "type": "uint256",
          "internalType": "uint256"
        }
      ],
      "outputs": [
        {
          "name": "",
          "type": "bool",
          "internalType": "bool"
        }
      ],
      "stateMutability": "view"
    },
    {
      "type": "function",
      "name": "pause",
      "inputs": [],
      "outputs": [],
      "stateMutability": "nonpayable"
    },
    {
      "type": "function",
      "name": "paused",
      "inputs": [],
      "outputs": [
        {
          "name": "",
          "type": "bool",
          "internalType": "bool"
        }
      ],
      "stateMutability": "view"
    },
    {
      "type": "function",
      "name": "projectDeveloper",
      "inputs": [
        {
          "name": "",
          "type": "uint256",
          "internalType": "uint256"
        }
      ],
      "outputs": [
        {
          "name": "",
          "type": "address",
          "internalType": "address"
        }
      ],
      "stateMutability": "view"
    },
    {
      "type": "function",
      "name": "releaseDeposit",
      "inputs": [
        {
          "name": "projectId",
          "type": "uint256",
          "internalType": "uint256"
        }
      ],
      "outputs": [],
      "stateMutability": "nonpayable"
    },
    {
      "type": "function",
      "name": "renounceRole",
      "inputs": [
        {
          "name": "role",
          "type": "bytes32",
          "internalType": "bytes32"
        },
        {
          "name": "callerConfirmation",
          "type": "address",
          "internalType": "address"
        }
      ],
      "outputs": [],
      "stateMutability": "nonpayable"
    },
    {
      "type": "function",
      "name": "revokeRole",
      "inputs": [
        {
          "name": "role",
          "type": "bytes32",
          "internalType": "bytes32"
        },
        {
          "name": "account",
          "type": "address",
          "internalType": "address"
        }
      ],
      "outputs": [],
      "stateMutability": "nonpayable"
    },
    {
      "type": "function",
      "name": "setRoleAdminExternally",
      "inputs": [
        {
          "name": "role",
          "type": "bytes32",
          "internalType": "bytes32"
        },
        {
          "name": "adminRole",
          "type": "bytes32",
          "internalType": "bytes32"
        }
      ],
      "outputs": [],
      "stateMutability": "nonpayable"
    },
    {
      "type": "function",
      "name": "slashDeposit",
      "inputs": [
        {
          "name": "projectId",
          "type": "uint256",
          "internalType": "uint256"
        },
        {
          "name": "feeRecipient",
          "type": "address",
          "internalType": "address"
        }
      ],
      "outputs": [],
      "stateMutability": "nonpayable"
    },
    {
      "type": "function",
      "name": "supportsInterface",
      "inputs": [
        {
          "name": "interfaceId",
          "type": "bytes4",
          "internalType": "bytes4"
        }
      ],
      "outputs": [
        {
          "name": "",
          "type": "bool",
          "internalType": "bool"
        }
      ],
      "stateMutability": "view"
    },
    {
      "type": "function",
      "name": "transferDepositToProject",
      "inputs": [
        {
          "name": "projectId",
          "type": "uint256",
          "internalType": "uint256"
        }
      ],
      "outputs": [
        {
          "name": "",
          "type": "uint256",
          "internalType": "uint256"
        }
      ],
      "stateMutability": "nonpayable"
    },
    {
      "type": "function",
      "name": "unpause",
      "inputs": [],
      "outputs": [],
      "stateMutability": "nonpayable"
    },
    {
      "type": "function",
      "name": "usdcToken",
      "inputs": [],
      "outputs": [
        {
          "name": "",
          "type": "address",
          "internalType": "contract IERC20"
        }
      ],
      "stateMutability": "view"
    },
    {
      "type": "event",
      "name": "DepositFunded",
      "inputs": [
        {
          "name": "projectId",
          "type": "uint256",
          "indexed": true,
          "internalType": "uint256"
        },
        {
          "name": "developer",
          "type": "address",
          "indexed": true,
          "internalType": "address"
        },
        {
          "name": "amount",
          "type": "uint256",
          "indexed": false,
          "internalType": "uint256"
        }
      ],
      "anonymous": false
    },
    {
      "type": "event",
      "name": "DepositReleased",
      "inputs": [
        {
          "name": "projectId",
          "type": "uint256",
          "indexed": true,
          "internalType": "uint256"
        },
        {
          "name": "developer",
          "type": "address",
          "indexed": true,
          "internalType": "address"
        },
        {
          "name": "amount",
          "type": "uint256",
          "indexed": false,
          "internalType": "uint256"
        }
      ],
      "anonymous": false
    },
    {
      "type": "event",
      "name": "DepositSlashed",
      "inputs": [
        {
          "name": "projectId",
          "type": "uint256",
          "indexed": true,
          "internalType": "uint256"
        },
        {
          "name": "developer",
          "type": "address",
          "indexed": true,
          "internalType": "address"
        },
        {
          "name": "amount",
          "type": "uint256",
          "indexed": false,
          "internalType": "uint256"
        },
        {
          "name": "recipient",
          "type": "address",
          "indexed": false,
          "internalType": "address"
        }
      ],
      "anonymous": false
    },
    {
      "type": "event",
      "name": "Paused",
      "inputs": [
        {
          "name": "account",
          "type": "address",
          "indexed": false,
          "internalType": "address"
        }
      ],
      "anonymous": false
    },
    {
      "type": "event",
      "name": "RoleAdminChanged",
      "inputs": [
        {
          "name": "role",
          "type": "bytes32",
          "indexed": true,
          "internalType": "bytes32"
        },
        {
          "name": "previousAdminRole",
          "type": "bytes32",
          "indexed": true,
          "internalType": "bytes32"
        },
        {
          "name": "newAdminRole",
          "type": "bytes32",
          "indexed": true,
          "internalType": "bytes32"
        }
      ],
      "anonymous": false
    },
    {
      "type": "event",
      "name": "RoleGranted",
      "inputs": [
        {
          "name": "role",
          "type": "bytes32",
          "indexed": true,
          "internalType": "bytes32"
        },
        {
          "name": "account",
          "type": "address",
          "indexed": true,
          "internalType": "address"
        },
        {
          "name": "sender",
          "type": "address",
          "indexed": true,
          "internalType": "address"
        }
      ],
      "anonymous": false
    },
    {
      "type": "event",
      "name": "RoleRevoked",
      "inputs": [
        {
          "name": "role",
          "type": "bytes32",
          "indexed": true,
          "internalType": "bytes32"
        },
        {
          "name": "account",
          "type": "address",
          "indexed": true,
          "internalType": "address"
        },
        {
          "name": "sender",
          "type": "address",
          "indexed": true,
          "internalType": "address"
        }
      ],
      "anonymous": false
    },
    {
      "type": "event",
      "name": "Unpaused",
      "inputs": [
        {
          "name": "account",
          "type": "address",
          "indexed": false,
          "internalType": "address"
        }
      ],
      "anonymous": false
    },
    {
      "type": "error",
      "name": "AccessControlBadConfirmation",
      "inputs": []
    },
    {
      "type": "error",
      "name": "AccessControlUnauthorizedAccount",
      "inputs": [
        {
          "name": "account",
          "type": "address",
          "internalType": "address"
        },
        {
          "name": "neededRole",
          "type": "bytes32",
          "internalType": "bytes32"
        }
      ]
    },
    {
      "type": "error",
      "name": "AmountCannotBeZero",
      "inputs": []
    },
    {
      "type": "error",
      "name": "DepositAlreadyExists",
      "inputs": [
        {
          "name": "projectId",
          "type": "uint256",
          "internalType": "uint256"
        }
      ]
    },
    {
      "type": "error",
      "name": "DepositAlreadyReleased",
      "inputs": [
        {
          "name": "projectId",
          "type": "uint256",
          "internalType": "uint256"
        }
      ]
    },
    {
      "type": "error",
      "name": "DepositNotFound",
      "inputs": [
        {
          "name": "projectId",
          "type": "uint256",
          "internalType": "uint256"
        }
      ]
    },
    {
      "type": "error",
      "name": "EnforcedPause",
      "inputs": []
    },
    {
      "type": "error",
      "name": "ExpectedPause",
      "inputs": []
    },
    {
      "type": "error",
      "name": "ReentrancyGuardReentrantCall",
      "inputs": []
    },
    {
      "type": "error",
      "name": "SafeERC20FailedOperation",
      "inputs": [
        {
          "name": "token",
          "type": "address",
          "internalType": "address"
        }
      ]
    },
    {
      "type": "error",
      "name": "ZeroAddressNotAllowed",
      "inputs": []
    }
  ],
  "bytecode": {
    "object": "0x60a060405234801561000f575f80fd5b50604051611b79380380611b7983398101604081905261002e9161022c565b60016003556001600160a01b03811661005a576040516342bcdf7f60e11b815260040160405180910390fd5b6001600160a01b038116608052336100725f826100fb565b5061009d7f65d7a28e3265b37a6474929f336521b332c1681b933f6cb9f3376673440d862a826100fb565b506100c87f88f3509f0e42391f2d94ebfb2a37cbd0782b1b8f73715330017f4663290b8117826100fb565b506100f37f12b42e8a160f6064dc959c6f251e3af0750ad213dbecf573b4710d67d6c28e39826100fb565b505050610252565b5f806101078484610131565b90508015610128575f84815260016020526040902061012690846101d8565b505b90505b92915050565b5f828152602081815260408083206001600160a01b038516845290915281205460ff166101d1575f838152602081815260408083206001600160a01b03861684529091529020805460ff191660011790556101893390565b6001600160a01b0316826001600160a01b0316847f2f8788117e7eff1d82e926ec794901d17c78024a50270940304540a733656f0d60405160405180910390a450600161012b565b505f61012b565b5f610128836001600160a01b0384165f8181526001830160205260408120546101d157508154600181810184555f84815260208082209093018490558454848252828601909352604090209190915561012b565b5f6020828403121561023c575f80fd5b81516001600160a01b0381168114610128575f80fd5b6080516118f36102865f395f81816102250152818161066a0152818161092001528181610b620152610d7301526118f35ff3fe608060405234801561000f575f80fd5b506004361061019a575f3560e01c80637077a778116100e8578063a0f109c511610093578063aedd89361161006e578063aedd893614610409578063ca15c8731461042b578063cfbef4191461043e578063d547741f14610460575f80fd5b8063a0f109c5146103cf578063a217fddf146103e2578063a3246ad3146103e9575f80fd5b806388a40391116100c357806388a40391146103665780639010d07c1461037957806391d148541461038c575f80fd5b80637077a7781461032c5780638456cb591461033f57806387f8ab2614610347575f80fd5b80632f2ff15d116101485780633f4ba83a116101235780633f4ba83a146103065780634283271c1461030e5780635c975abb14610321575f80fd5b80632f2ff15d146102bf57806336568abe146102d4578063378de45b146102e7575f80fd5b80631b6337ed116101785780631b6337ed14610247578063248a9ca31461027c5780632d3bc857146102ac575f80fd5b806301ffc9a71461019e5780630484df2c146101c657806311eac85514610220575b5f80fd5b6101b16101ac3660046116dd565b610473565b60405190151581526020015b60405180910390f35b6101fb6101d436600461171c565b5f9081526005602052604090205473ffffffffffffffffffffffffffffffffffffffff1690565b60405173ffffffffffffffffffffffffffffffffffffffff90911681526020016101bd565b6101fb7f000000000000000000000000000000000000000000000000000000000000000081565b6101fb61025536600461171c565b60056020525f908152604090205473ffffffffffffffffffffffffffffffffffffffff1681565b61029e61028a36600461171c565b5f9081526020819052604090206001015490565b6040519081526020016101bd565b61029e6102ba36600461171c565b61053d565b6102d26102cd366004611756565b6106f5565b005b6102d26102e2366004611756565b61071e565b61029e6102f536600461171c565b5f9081526004602052604090205490565b6102d2610777565b6102d261031c366004611756565b6107ac565b60025460ff166101b1565b6102d261033a366004611780565b6109ac565b6102d2610be6565b61029e61035536600461171c565b60046020525f908152604090205481565b6102d26103743660046117b3565b610c18565b6101fb6103873660046117b3565b610c2c565b6101b161039a366004611756565b5f9182526020828152604080842073ffffffffffffffffffffffffffffffffffffffff93909316845291905290205460ff1690565b6102d26103dd36600461171c565b610c4c565b61029e5f81565b6103fc6103f736600461171c565b610df8565b6040516101bd91906117d3565b6101b161041736600461171c565b5f9081526006602052604090205460ff1690565b61029e61043936600461171c565b610e11565b6101b161044c36600461171c565b60066020525f908152604090205460ff1681565b6102d261046e366004611756565b610e27565b5f7f8456cb591a934d53f6ccc6332123a165a1f3562907bf11330d847a29ca49eb897f3f4ba83af89dc9793996d9e56b8abe6dc88cd97c9c2bb23027806e9c1ffd54dc7fbb1d6363e20e842acf5a1fd64aa91f08697f8f559b94a3032a0414b5d5b4bf557f44e29c9d000000000000000000000000000000000000000000000000000000007fffffffff0000000000000000000000000000000000000000000000000000000086160161052b57506001949350505050565b61053485610e51565b95945050505050565b5f610546610ea6565b61054e610ee9565b7f88f3509f0e42391f2d94ebfb2a37cbd0782b1b8f73715330017f4663290b811761057881610f28565b5f838152600460209081526040808320546005909252822054909173ffffffffffffffffffffffffffffffffffffffff909116908290036105ed576040517fac2ded58000000000000000000000000000000000000000000000000000000008152600481018690526024015b60405180910390fd5b5f8581526006602052604090205460ff1615610638576040517fce9c4460000000000000000000000000000000000000000000000000000000008152600481018690526024016105e4565b5f858152600660205260409020805460ff1916600117905561069173ffffffffffffffffffffffffffffffffffffffff7f0000000000000000000000000000000000000000000000000000000000000000168284610f32565b8073ffffffffffffffffffffffffffffffffffffffff16857f27fd7b405d3b1cef830760908e4041d6c33a3e8fee51f248c99462d0d5550885846040516106da91815260200190565b60405180910390a3509150506106f06001600355565b919050565b5f8281526020819052604090206001015461070f81610f28565b6107198383610fb3565b505050565b73ffffffffffffffffffffffffffffffffffffffff8116331461076d576040517f6697b23200000000000000000000000000000000000000000000000000000000815260040160405180910390fd5b6107198282610fd7565b7f65d7a28e3265b37a6474929f336521b332c1681b933f6cb9f3376673440d862a6107a181610f28565b6107a961100a565b50565b6107b4610ea6565b6107bc610ee9565b7f12b42e8a160f6064dc959c6f251e3af0750ad213dbecf573b4710d67d6c28e396107e681610f28565b73ffffffffffffffffffffffffffffffffffffffff8216610833576040517f8579befe00000000000000000000000000000000000000000000000000000000815260040160405180910390fd5b5f838152600460209081526040808320546005909252822054909173ffffffffffffffffffffffffffffffffffffffff909116908290036108a3576040517fac2ded58000000000000000000000000000000000000000000000000000000008152600481018690526024016105e4565b5f8581526006602052604090205460ff16156108ee576040517fce9c4460000000000000000000000000000000000000000000000000000000008152600481018690526024016105e4565b5f858152600660205260409020805460ff1916600117905561094773ffffffffffffffffffffffffffffffffffffffff7f0000000000000000000000000000000000000000000000000000000000000000168584610f32565b6040805183815273ffffffffffffffffffffffffffffffffffffffff868116602083015283169187917fac44cf14f3140ff97d584b409eb75a87924d48933c1ff1132c518666204e43dd910160405180910390a35050506109a86001600355565b5050565b6109b4610ea6565b6109bc610ee9565b7fc1959c1680e978dd9c68669ea488ae9b3e8f764684bd2da104ac2d5b5f5700636109e681610f28565b73ffffffffffffffffffffffffffffffffffffffff8316610a33576040517f8579befe00000000000000000000000000000000000000000000000000000000815260040160405180910390fd5b815f03610a6c576040517fd11b25af00000000000000000000000000000000000000000000000000000000815260040160405180910390fd5b5f8481526004602052604090205415610ab4576040517fd41b73c8000000000000000000000000000000000000000000000000000000008152600481018590526024016105e4565b5f8481526006602052604090205460ff1615610aff576040517fce9c4460000000000000000000000000000000000000000000000000000000008152600481018590526024016105e4565b5f8481526004602090815260408083208590556005909152902080547fffffffffffffffffffffffff00000000000000000000000000000000000000001673ffffffffffffffffffffffffffffffffffffffff85811691909117909155610b8a907f000000000000000000000000000000000000000000000000000000000000000016843085611069565b8273ffffffffffffffffffffffffffffffffffffffff16847fdfaa8c912b5509c72ecaf1be942e001eb4a21e6f8f1fd3676d006d6d9f8e608484604051610bd391815260200190565b60405180910390a3506107196001600355565b7f65d7a28e3265b37a6474929f336521b332c1681b933f6cb9f3376673440d862a610c1081610f28565b6107a96110af565b5f610c2281610f28565b61071983836110ec565b5f828152600160205260408120610c439083611136565b90505b92915050565b610c54610ea6565b610c5c610ee9565b7f88f3509f0e42391f2d94ebfb2a37cbd0782b1b8f73715330017f4663290b8117610c8681610f28565b5f828152600460209081526040808320546005909252822054909173ffffffffffffffffffffffffffffffffffffffff90911690829003610cf6576040517fac2ded58000000000000000000000000000000000000000000000000000000008152600481018590526024016105e4565b5f8481526006602052604090205460ff1615610d41576040517fce9c4460000000000000000000000000000000000000000000000000000000008152600481018590526024016105e4565b5f848152600660205260409020805460ff19166001179055610d9a73ffffffffffffffffffffffffffffffffffffffff7f0000000000000000000000000000000000000000000000000000000000000000168284610f32565b8073ffffffffffffffffffffffffffffffffffffffff16847f27fd7b405d3b1cef830760908e4041d6c33a3e8fee51f248c99462d0d555088584604051610de391815260200190565b60405180910390a35050506107a96001600355565b5f818152600160205260409020606090610c4690611141565b5f818152600160205260408120610c4690611154565b5f82815260208190526040902060010154610e4181610f28565b610e4b8383610fd7565b50505050565b5f7fffffffff0000000000000000000000000000000000000000000000000000000082167f5a05180f000000000000000000000000000000000000000000000000000000001480610c465750610c468261115d565b600260035403610ee2576040517f3ee5aeb500000000000000000000000000000000000000000000000000000000815260040160405180910390fd5b6002600355565b60025460ff1615610f26576040517fd93c066500000000000000000000000000000000000000000000000000000000815260040160405180910390fd5b565b6107a981336111f3565b60405173ffffffffffffffffffffffffffffffffffffffff83811660248301526044820183905261071991859182169063a9059cbb906064015b604051602081830303815290604052915060e01b6020820180517bffffffffffffffffffffffffffffffffffffffffffffffffffffffff8381831617835250505050611278565b5f82815260208190526040902060010154610fcd81610f28565b610e4b8383611317565b5f80610fe38484611342565b90508015610c43575f84815260016020526040902061100290846113e4565b509392505050565b611012611405565b6002805460ff191690557f5db9ee0a495bf2e6ff9c91a7834c1ba4fdd244a5e8aa4e537bd38aeae4b073aa335b60405173ffffffffffffffffffffffffffffffffffffffff909116815260200160405180910390a1565b60405173ffffffffffffffffffffffffffffffffffffffff8481166024830152838116604483015260648201839052610e4b9186918216906323b872dd90608401610f6c565b6110b7610ee9565b6002805460ff191660011790557f62e78cea01bee320cd4e420270b5ea74000d11b0c9f74754ebdbfc544b05a25861103f3390565b5f82815260208190526040808220600101805490849055905190918391839186917fbd79b86ffe0ab8e8776151514217cd7cacd52c909f66475c3af44e129f0b00ff9190a4505050565b5f610c438383611441565b60605f61114d83611467565b9392505050565b5f610c46825490565b5f7fffffffff0000000000000000000000000000000000000000000000000000000082167f7965db0b000000000000000000000000000000000000000000000000000000001480610c4657507f01ffc9a7000000000000000000000000000000000000000000000000000000007fffffffff00000000000000000000000000000000000000000000000000000000831614610c46565b5f8281526020818152604080832073ffffffffffffffffffffffffffffffffffffffff8516845290915290205460ff166109a8576040517fe2517d3f00000000000000000000000000000000000000000000000000000000815273ffffffffffffffffffffffffffffffffffffffff82166004820152602481018390526044016105e4565b5f8060205f8451602086015f885af180611297576040513d5f823e3d81fd5b50505f513d915081156112ae5780600114156112c8565b73ffffffffffffffffffffffffffffffffffffffff84163b155b15610e4b576040517f5274afe700000000000000000000000000000000000000000000000000000000815273ffffffffffffffffffffffffffffffffffffffff851660048201526024016105e4565b5f8061132384846114c0565b90508015610c43575f8481526001602052604090206110029084611594565b5f8281526020818152604080832073ffffffffffffffffffffffffffffffffffffffff8516845290915281205460ff16156113dd575f8381526020818152604080832073ffffffffffffffffffffffffffffffffffffffff86168085529252808320805460ff1916905551339286917ff6391f5c32d9c69d2a47ea670b442974b53935d1edc7fd64eb21e047a839171b9190a4506001610c46565b505f610c46565b5f610c438373ffffffffffffffffffffffffffffffffffffffff84166115b5565b60025460ff16610f26576040517f8dfc202b00000000000000000000000000000000000000000000000000000000815260040160405180910390fd5b5f825f0182815481106114565761145661182b565b905f5260205f200154905092915050565b6060815f018054806020026020016040519081016040528092919081815260200182805480156114b457602002820191905f5260205f20905b8154815260200190600101908083116114a0575b50505050509050919050565b5f8281526020818152604080832073ffffffffffffffffffffffffffffffffffffffff8516845290915281205460ff166113dd575f8381526020818152604080832073ffffffffffffffffffffffffffffffffffffffff861684529091529020805460ff191660011790556115323390565b73ffffffffffffffffffffffffffffffffffffffff168273ffffffffffffffffffffffffffffffffffffffff16847f2f8788117e7eff1d82e926ec794901d17c78024a50270940304540a733656f0d60405160405180910390a4506001610c46565b5f610c438373ffffffffffffffffffffffffffffffffffffffff8416611698565b5f818152600183016020526040812054801561168f575f6115d7600183611858565b85549091505f906115ea90600190611858565b9050808214611649575f865f0182815481106116085761160861182b565b905f5260205f200154905080875f0184815481106116285761162861182b565b5f918252602080832090910192909255918252600188019052604090208390555b855486908061165a5761165a611890565b600190038181905f5260205f20015f90559055856001015f8681526020019081526020015f205f905560019350505050610c46565b5f915050610c46565b5f8181526001830160205260408120546113dd57508154600181810184555f848152602080822090930184905584548482528286019093526040902091909155610c46565b5f602082840312156116ed575f80fd5b81357fffffffff0000000000000000000000000000000000000000000000000000000081168114610c43575f80fd5b5f6020828403121561172c575f80fd5b5035919050565b803573ffffffffffffffffffffffffffffffffffffffff811681146106f0575f80fd5b5f8060408385031215611767575f80fd5b8235915061177760208401611733565b90509250929050565b5f805f60608486031215611792575f80fd5b833592506117a260208501611733565b929592945050506040919091013590565b5f80604083850312156117c4575f80fd5b50508035926020909101359150565b602080825282518282018190525f918401906040840190835b8181101561182057835173ffffffffffffffffffffffffffffffffffffffff168352602093840193909201916001016117ec565b509095945050505050565b7f4e487b71000000000000000000000000000000000000000000000000000000005f52603260045260245ffd5b81810381811115610c46577f4e487b71000000000000000000000000000000000000000000000000000000005f52601160045260245ffd5b7f4e487b71000000000000000000000000000000000000000000000000000000005f52603160045260245ffdfea26469706673582212203530b273444dab958af2989c8ed2dea81ce0f1bb12d74fba956893befa41952264736f6c634300081a0033",
    "linkReferences": {}
  },
  "methodIdentifiers": {
    "DEFAULT_ADMIN_ROLE()": "a217fddf",
    "depositAmount(uint256)": "87f8ab26",
    "depositSettled(uint256)": "cfbef419",
    "fundDeposit(uint256,address,uint256)": "7077a778",
    "getDepositAmount(uint256)": "378de45b",
    "getProjectDeveloper(uint256)": "0484df2c",
    "getRoleAdmin(bytes32)": "248a9ca3",
    "getRoleMember(bytes32,uint256)": "9010d07c",
    "getRoleMemberCount(bytes32)": "ca15c873",
    "getRoleMembers(bytes32)": "a3246ad3",
    "grantRole(bytes32,address)": "2f2ff15d",
    "hasRole(bytes32,address)": "91d14854",
    "isDepositSettled(uint256)": "aedd8936",
    "pause()": "8456cb59",
    "paused()": "5c975abb",
    "projectDeveloper(uint256)": "1b6337ed",
    "releaseDeposit(uint256)": "a0f109c5",
    "renounceRole(bytes32,address)": "36568abe",
    "revokeRole(bytes32,address)": "d547741f",
    "setRoleAdminExternally(bytes32,bytes32)": "88a40391",
    "slashDeposit(uint256,address)": "4283271c",
    "supportsInterface(bytes4)": "01ffc9a7",
    "transferDepositToProject(uint256)": "2d3bc857",
    "unpause()": "3f4ba83a",
    "usdcToken()": "11eac855"
  },
  "id": 92
}