{
  "abi": [
    {
      "type": "function",
      "name": "DEFAULT_ADMIN_ROLE",
      "inputs": [],
      "outputs": [
        {
          "name": "",
          "type": "bytes32",
          "internalType": "bytes32"
        }
      ],
      "stateMutability": "view"
    },
    {
      "type": "function",
      "name": "UPGRADE_INTERFACE_VERSION",
      "inputs": [],
      "outputs": [
        {
          "name": "",
          "type": "string",
          "internalType": "string"
        }
      ],
      "stateMutability": "view"
    },
    {
      "type": "function",
      "name": "developerInfo",
      "inputs": [
        {
          "name": "",
          "type": "address",
          "internalType": "address"
        }
      ],
      "outputs": [
        {
          "name": "kycDataHash",
          "type": "bytes32",
          "internalType": "bytes32"
        },
        {
          "name": "isVerified",
          "type": "bool",
          "internalType": "bool"
        },
        {
          "name": "timesFunded",
          "type": "uint32",
          "internalType": "uint32"
        }
      ],
      "stateMutability": "view"
    },
    {
      "type": "function",
      "name": "getDeveloperInfo",
      "inputs": [
        {
          "name": "developer",
          "type": "address",
          "internalType": "address"
        }
      ],
      "outputs": [
        {
          "name": "",
          "type": "tuple",
          "internalType": "struct IDeveloperRegistry.DevInfo",
          "components": [
            {
              "name": "kycDataHash",
              "type": "bytes32",
              "internalType": "bytes32"
            },
            {
              "name": "isVerified",
              "type": "bool",
              "internalType": "bool"
            },
            {
              "name": "timesFunded",
              "type": "uint32",
              "internalType": "uint32"
            }
          ]
        }
      ],
      "stateMutability": "view"
    },
    {
      "type": "function",
      "name": "getKycDataLocation",
      "inputs": [
        {
          "name": "developer",
          "type": "address",
          "internalType": "address"
        }
      ],
      "outputs": [
        {
          "name": "",
          "type": "string",
          "internalType": "string"
        }
      ],
      "stateMutability": "view"
    },
    {
      "type": "function",
      "name": "getRoleAdmin",
      "inputs": [
        {
          "name": "role",
          "type": "bytes32",
          "internalType": "bytes32"
        }
      ],
      "outputs": [
        {
          "name": "",
          "type": "bytes32",
          "internalType": "bytes32"
        }
      ],
      "stateMutability": "view"
    },
    {
      "type": "function",
      "name": "getRoleMember",
      "inputs": [
        {
          "name": "role",
          "type": "bytes32",
          "internalType": "bytes32"
        },
        {
          "name": "index",
          "type": "uint256",
          "internalType": "uint256"
        }
      ],
      "outputs": [
        {
          "name": "",
          "type": "address",
          "internalType": "address"
        }
      ],
      "stateMutability": "view"
    },
    {
      "type": "function",
      "name": "getRoleMemberCount",
      "inputs": [
        {
          "name": "role",
          "type": "bytes32",
          "internalType": "bytes32"
        }
      ],
      "outputs": [
        {
          "name": "",
          "type": "uint256",
          "internalType": "uint256"
        }
      ],
      "stateMutability": "view"
    },
    {
      "type": "function",
      "name": "getRoleMembers",
      "inputs": [
        {
          "name": "role",
          "type": "bytes32",
          "internalType": "bytes32"
        }
      ],
      "outputs": [
        {
          "name": "",
          "type": "address[]",
          "internalType": "address[]"
        }
      ],
      "stateMutability": "view"
    },
    {
      "type": "function",
      "name": "getTimesFunded",
      "inputs": [
        {
          "name": "developer",
          "type": "address",
          "internalType": "address"
        }
      ],
      "outputs": [
        {
          "name": "",
          "type": "uint32",
          "internalType": "uint32"
        }
      ],
      "stateMutability": "view"
    },
    {
      "type": "function",
      "name": "grantRole",
      "inputs": [
        {
          "name": "role",
          "type": "bytes32",
          "internalType": "bytes32"
        },
        {
          "name": "account",
          "type": "address",
          "internalType": "address"
        }
      ],
      "outputs": [],
      "stateMutability": "nonpayable"
    },
    {
      "type": "function",
      "name": "hasRole",
      "inputs": [
        {
          "name": "role",
          "type": "bytes32",
          "internalType": "bytes32"
        },
        {
          "name": "account",
          "type": "address",
          "internalType": "address"
        }
      ],
      "outputs": [
        {
          "name": "",
          "type": "bool",
          "internalType": "bool"
        }
      ],
      "stateMutability": "view"
    },
    {
      "type": "function",
      "name": "incrementFundedCounter",
      "inputs": [
        {
          "name": "developer",
          "type": "address",
          "internalType": "address"
        }
      ],
      "outputs": [],
      "stateMutability": "nonpayable"
    },
    {
      "type": "function",
      "name": "initialize",
      "inputs": [
        {
          "name": "_admin",
          "type": "address",
          "internalType": "address"
        }
      ],
      "outputs": [],
      "stateMutability": "nonpayable"
    },
    {
      "type": "function",
      "name": "isVerified",
      "inputs": [
        {
          "name": "developer",
          "type": "address",
          "internalType": "address"
        }
      ],
      "outputs": [
        {
          "name": "",
          "type": "bool",
          "internalType": "bool"
        }
      ],
      "stateMutability": "view"
    },
    {
      "type": "function",
      "name": "pause",
      "inputs": [],
      "outputs": [],
      "stateMutability": "nonpayable"
    },
    {
      "type": "function",
      "name": "paused",
      "inputs": [],
      "outputs": [
        {
          "name": "",
          "type": "bool",
          "internalType": "bool"
        }
      ],
      "stateMutability": "view"
    },
    {
      "type": "function",
      "name": "proxiableUUID",
      "inputs": [],
      "outputs": [
        {
          "name": "",
          "type": "bytes32",
          "internalType": "bytes32"
        }
      ],
      "stateMutability": "view"
    },
    {
      "type": "function",
      "name": "renounceRole",
      "inputs": [
        {
          "name": "role",
          "type": "bytes32",
          "internalType": "bytes32"
        },
        {
          "name": "callerConfirmation",
          "type": "address",
          "internalType": "address"
        }
      ],
      "outputs": [],
      "stateMutability": "nonpayable"
    },
    {
      "type": "function",
      "name": "revokeRole",
      "inputs": [
        {
          "name": "role",
          "type": "bytes32",
          "internalType": "bytes32"
        },
        {
          "name": "account",
          "type": "address",
          "internalType": "address"
        }
      ],
      "outputs": [],
      "stateMutability": "nonpayable"
    },
    {
      "type": "function",
      "name": "setVerifiedStatus",
      "inputs": [
        {
          "name": "developer",
          "type": "address",
          "internalType": "address"
        },
        {
          "name": "verified",
          "type": "bool",
          "internalType": "bool"
        }
      ],
      "outputs": [],
      "stateMutability": "nonpayable"
    },
    {
      "type": "function",
      "name": "submitKYC",
      "inputs": [
        {
          "name": "developer",
          "type": "address",
          "internalType": "address"
        },
        {
          "name": "kycHash",
          "type": "bytes32",
          "internalType": "bytes32"
        },
        {
          "name": "kycDataLocation",
          "type": "string",
          "internalType": "string"
        }
      ],
      "outputs": [],
      "stateMutability": "nonpayable"
    },
    {
      "type": "function",
      "name": "supportsInterface",
      "inputs": [
        {
          "name": "interfaceId",
          "type": "bytes4",
          "internalType": "bytes4"
        }
      ],
      "outputs": [
        {
          "name": "",
          "type": "bool",
          "internalType": "bool"
        }
      ],
      "stateMutability": "view"
    },
    {
      "type": "function",
      "name": "unpause",
      "inputs": [],
      "outputs": [],
      "stateMutability": "nonpayable"
    },
    {
      "type": "function",
      "name": "upgradeToAndCall",
      "inputs": [
        {
          "name": "newImplementation",
          "type": "address",
          "internalType": "address"
        },
        {
          "name": "data",
          "type": "bytes",
          "internalType": "bytes"
        }
      ],
      "outputs": [],
      "stateMutability": "payable"
    },
    {
      "type": "event",
      "name": "DeveloperFundedCounterIncremented",
      "inputs": [
        {
          "name": "developer",
          "type": "address",
          "indexed": true,
          "internalType": "address"
        },
        {
          "name": "newCount",
          "type": "uint32",
          "indexed": false,
          "internalType": "uint32"
        }
      ],
      "anonymous": false
    },
    {
      "type": "event",
      "name": "Initialized",
      "inputs": [
        {
          "name": "version",
          "type": "uint64",
          "indexed": false,
          "internalType": "uint64"
        }
      ],
      "anonymous": false
    },
    {
      "type": "event",
      "name": "KYCStatusChanged",
      "inputs": [
        {
          "name": "developer",
          "type": "address",
          "indexed": true,
          "internalType": "address"
        },
        {
          "name": "isVerified",
          "type": "bool",
          "indexed": false,
          "internalType": "bool"
        }
      ],
      "anonymous": false
    },
    {
      "type": "event",
      "name": "KYCSubmitted",
      "inputs": [
        {
          "name": "developer",
          "type": "address",
          "indexed": true,
          "internalType": "address"
        },
        {
          "name": "kycHash",
          "type": "bytes32",
          "indexed": false,
          "internalType": "bytes32"
        }
      ],
      "anonymous": false
    },
    {
      "type": "event",
      "name": "Paused",
      "inputs": [
        {
          "name": "account",
          "type": "address",
          "indexed": false,
          "internalType": "address"
        }
      ],
      "anonymous": false
    },
    {
      "type": "event",
      "name": "RoleAdminChanged",
      "inputs": [
        {
          "name": "role",
          "type": "bytes32",
          "indexed": true,
          "internalType": "bytes32"
        },
        {
          "name": "previousAdminRole",
          "type": "bytes32",
          "indexed": true,
          "internalType": "bytes32"
        },
        {
          "name": "newAdminRole",
          "type": "bytes32",
          "indexed": true,
          "internalType": "bytes32"
        }
      ],
      "anonymous": false
    },
    {
      "type": "event",
      "name": "RoleGranted",
      "inputs": [
        {
          "name": "role",
          "type": "bytes32",
          "indexed": true,
          "internalType": "bytes32"
        },
        {
          "name": "account",
          "type": "address",
          "indexed": true,
          "internalType": "address"
        },
        {
          "name": "sender",
          "type": "address",
          "indexed": true,
          "internalType": "address"
        }
      ],
      "anonymous": false
    },
    {
      "type": "event",
      "name": "RoleRevoked",
      "inputs": [
        {
          "name": "role",
          "type": "bytes32",
          "indexed": true,
          "internalType": "bytes32"
        },
        {
          "name": "account",
          "type": "address",
          "indexed": true,
          "internalType": "address"
        },
        {
          "name": "sender",
          "type": "address",
          "indexed": true,
          "internalType": "address"
        }
      ],
      "anonymous": false
    },
    {
      "type": "event",
      "name": "Unpaused",
      "inputs": [
        {
          "name": "account",
          "type": "address",
          "indexed": false,
          "internalType": "address"
        }
      ],
      "anonymous": false
    },
    {
      "type": "event",
      "name": "Upgraded",
      "inputs": [
        {
          "name": "implementation",
          "type": "address",
          "indexed": true,
          "internalType": "address"
        }
      ],
      "anonymous": false
    },
    {
      "type": "error",
      "name": "AccessControlBadConfirmation",
      "inputs": []
    },
    {
      "type": "error",
      "name": "AccessControlUnauthorizedAccount",
      "inputs": [
        {
          "name": "account",
          "type": "address",
          "internalType": "address"
        },
        {
          "name": "neededRole",
          "type": "bytes32",
          "internalType": "bytes32"
        }
      ]
    },
    {
      "type": "error",
      "name": "AddressEmptyCode",
      "inputs": [
        {
          "name": "target",
          "type": "address",
          "internalType": "address"
        }
      ]
    },
    {
      "type": "error",
      "name": "ERC1967InvalidImplementation",
      "inputs": [
        {
          "name": "implementation",
          "type": "address",
          "internalType": "address"
        }
      ]
    },
    {
      "type": "error",
      "name": "ERC1967NonPayable",
      "inputs": []
    },
    {
      "type": "error",
      "name": "EnforcedPause",
      "inputs": []
    },
    {
      "type": "error",
      "name": "ExpectedPause",
      "inputs": []
    },
    {
      "type": "error",
      "name": "FailedCall",
      "inputs": []
    },
    {
      "type": "error",
      "name": "InvalidInitialization",
      "inputs": []
    },
    {
      "type": "error",
      "name": "NotInitializing",
      "inputs": []
    },
    {
      "type": "error",
      "name": "StringCannotBeEmpty",
      "inputs": []
    },
    {
      "type": "error",
      "name": "UUPSUnauthorizedCallContext",
      "inputs": []
    },
    {
      "type": "error",
      "name": "UUPSUnsupportedProxiableUUID",
      "inputs": [
        {
          "name": "slot",
          "type": "bytes32",
          "internalType": "bytes32"
        }
      ]
    },
    {
      "type": "error",
      "name": "ZeroAddressNotAllowed",
      "inputs": []
    }
  ],
  "bytecode": {
    "object": "0x60a0604052306080523480156012575f80fd5b506080516122b46100395f395f81816111190152818161114201526113d201526122b45ff3fe60806040526004361061018e575f3560e01c80637b0fdb99116100dc578063a3246ad311610087578063c342102c11610062578063c342102c14610559578063c4d66de81461060b578063ca15c8731461062a578063d547741f14610649575f80fd5b8063a3246ad31461049e578063ad3cb1cc146104ca578063b9209e3314610512575f80fd5b806391d14854116100b757806391d148541461041d5780639962b5b51461046c578063a217fddf1461048b575f80fd5b80637b0fdb99146103a65780638456cb59146103c55780639010d07c146103d9575f80fd5b806336568abe1161013c5780634f1ef286116101175780634f1ef2861461036857806352d1902d1461037b5780635c975abb1461038f575f80fd5b806336568abe146102d15780633f4ba83a146102f05780634993b60a14610304575f80fd5b806326631bc51161016c57806326631bc51461026557806328c14745146102915780632f2ff15d146102b2575f80fd5b806301ffc9a7146101925780630d82321d146101c6578063248a9ca314610229575b5f80fd5b34801561019d575f80fd5b506101b16101ac366004611c73565b610668565b60405190151581526020015b60405180910390f35b3480156101d1575f80fd5b506102086101e0366004611cda565b60036020525f90815260409020805460019091015460ff811690610100900463ffffffff1683565b60408051938452911515602084015263ffffffff16908201526060016101bd565b348015610234575f80fd5b50610257610243366004611cf3565b5f9081526020819052604090206001015490565b6040519081526020016101bd565b348015610270575f80fd5b5061028461027f366004611cda565b610732565b6040516101bd9190611d0a565b34801561029c575f80fd5b506102b06102ab366004611d5d565b6107e8565b005b3480156102bd575f80fd5b506102b06102cc366004611d96565b6108f4565b3480156102dc575f80fd5b506102b06102eb366004611d96565b61091e565b3480156102fb575f80fd5b506102b061097c565b34801561030f575f80fd5b5061035361031e366004611cda565b73ffffffffffffffffffffffffffffffffffffffff165f90815260036020526040902060010154610100900463ffffffff1690565b60405163ffffffff90911681526020016101bd565b6102b0610376366004611ded565b6109b1565b348015610386575f80fd5b506102576109d0565b34801561039a575f80fd5b5060025460ff166101b1565b3480156103b1575f80fd5b506102b06103c0366004611eee565b6109fe565b3480156103d0575f80fd5b506102b0610b4b565b3480156103e4575f80fd5b506103f86103f3366004611f71565b610b7d565b60405173ffffffffffffffffffffffffffffffffffffffff90911681526020016101bd565b348015610428575f80fd5b506101b1610437366004611d96565b5f9182526020828152604080842073ffffffffffffffffffffffffffffffffffffffff93909316845291905290205460ff1690565b348015610477575f80fd5b506102b0610486366004611cda565b610b9d565b348015610496575f80fd5b506102575f81565b3480156104a9575f80fd5b506104bd6104b8366004611cf3565b610cfc565b6040516101bd9190611f91565b3480156104d5575f80fd5b506102846040518060400160405280600581526020017f352e302e3000000000000000000000000000000000000000000000000000000081525081565b34801561051d575f80fd5b506101b161052c366004611cda565b73ffffffffffffffffffffffffffffffffffffffff165f9081526003602052604090206001015460ff1690565b348015610564575f80fd5b506105e1610573366004611cda565b60408051606080820183525f808352602080840182905292840181905273ffffffffffffffffffffffffffffffffffffffff949094168452600382529282902082519384018352805484526001015460ff8116151591840191909152610100900463ffffffff169082015290565b60408051825181526020808401511515908201529181015163ffffffff16908201526060016101bd565b348015610616575f80fd5b506102b0610625366004611cda565b610d15565b348015610635575f80fd5b50610257610644366004611cf3565b610f4e565b348015610654575f80fd5b506102b0610663366004611d96565b610f64565b5f7f8456cb591a934d53f6ccc6332123a165a1f3562907bf11330d847a29ca49eb897f3f4ba83af89dc9793996d9e56b8abe6dc88cd97c9c2bb23027806e9c1ffd54dc7fbb1d6363e20e842acf5a1fd64aa91f08697f8f559b94a3032a0414b5d5b4bf557f44e29c9d000000000000000000000000000000000000000000000000000000007fffffffff0000000000000000000000000000000000000000000000000000000086160161072057506001949350505050565b61072985610f88565b95945050505050565b73ffffffffffffffffffffffffffffffffffffffff81165f90815260046020526040902080546060919061076590611fe9565b80601f016020809104026020016040519081016040528092919081815260200182805461079190611fe9565b80156107dc5780601f106107b3576101008083540402835291602001916107dc565b820191905f5260205f20905b8154815290600101906020018083116107bf57829003601f168201915b50505050509050919050565b7f811427a0fa4932aef534bba16bc34e9b7b2d7d2a79c475fca1765f6cc1faebea61081281610fdd565b61081a610fe7565b73ffffffffffffffffffffffffffffffffffffffff8316610867576040517f8579befe00000000000000000000000000000000000000000000000000000000815260040160405180910390fd5b73ffffffffffffffffffffffffffffffffffffffff83165f8181526003602090815260409182902060010180547fffffffffffffffffffffffffffffffffffffffffffffffffffffffffffffff001686151590811790915591519182527f3a620c3544f4661f38b303e51ff3c4cc552da5a80ec55d4e3875af78775e1a82910160405180910390a2505050565b5f8281526020819052604090206001015461090e81610fdd565b6109188383611026565b50505050565b73ffffffffffffffffffffffffffffffffffffffff8116331461096d576040517f6697b23200000000000000000000000000000000000000000000000000000000815260040160405180910390fd5b6109778282611059565b505050565b7f65d7a28e3265b37a6474929f336521b332c1681b933f6cb9f3376673440d862a6109a681610fdd565b6109ae611084565b50565b6109b9611101565b6109c282611205565b6109cc828261127c565b5050565b5f6109d96113ba565b507f360894a13ba1a3210667c828492db98dca3e2076cc3735a920a3ca505d382bbc90565b7f811427a0fa4932aef534bba16bc34e9b7b2d7d2a79c475fca1765f6cc1faebea610a2881610fdd565b610a30610fe7565b73ffffffffffffffffffffffffffffffffffffffff8516610a7d576040517f8579befe00000000000000000000000000000000000000000000000000000000815260040160405180910390fd5b5f829003610ab7576040517faabcb66800000000000000000000000000000000000000000000000000000000815260040160405180910390fd5b73ffffffffffffffffffffffffffffffffffffffff85165f90815260036020908152604080832087905560049091529020610af3838583612085565b508473ffffffffffffffffffffffffffffffffffffffff167f9c350cbd10f7d666123fb659f7ba90bd03021217f38d91b584cf8b93d87a618f85604051610b3c91815260200190565b60405180910390a25050505050565b7f65d7a28e3265b37a6474929f336521b332c1681b933f6cb9f3376673440d862a610b7581610fdd565b6109ae611429565b5f828152600160205260408120610b949083611484565b90505b92915050565b610ba5610fe7565b7f42847befda217a8205614b97eeba0062d90a739902cf3467520ceec144711539610bcf81610fdd565b73ffffffffffffffffffffffffffffffffffffffff8216610c1c576040517f8579befe00000000000000000000000000000000000000000000000000000000815260040160405180910390fd5b73ffffffffffffffffffffffffffffffffffffffff82165f908152600360205260408120600190810154610100900463ffffffff169190610c5e9083906121c8565b73ffffffffffffffffffffffffffffffffffffffff85165f8181526003602090815260409182902060010180547fffffffffffffffffffffffffffffffffffffffffffffffffffffff00000000ff1661010063ffffffff871690810291909117909155915191825292935090917f825ac20c02de165edff4a693974868bb4ef2327d19589cd1ce399b7d74e89a5c910160405180910390a250505050565b5f818152600160205260409020606090610b979061148f565b5f610d1e6114a2565b805490915060ff68010000000000000000820416159067ffffffffffffffff165f81158015610d4a5750825b90505f8267ffffffffffffffff166001148015610d665750303b155b905081158015610d74575080155b15610dab576040517ff92ee8a900000000000000000000000000000000000000000000000000000000815260040160405180910390fd5b84547fffffffffffffffffffffffffffffffffffffffffffffffff00000000000000001660011785558315610e0c5784547fffffffffffffffffffffffffffffffffffffffffffffff00ffffffffffffffff16680100000000000000001785555b73ffffffffffffffffffffffffffffffffffffffff8616610e59576040517f8579befe00000000000000000000000000000000000000000000000000000000815260040160405180910390fd5b610e635f87611026565b50610e8e7f65d7a28e3265b37a6474929f336521b332c1681b933f6cb9f3376673440d862a87611026565b50610eb97f189ab7a9244df0848122154315af71fe140f3db0fe014031783b0946b8c9d2e387611026565b50610ee47f811427a0fa4932aef534bba16bc34e9b7b2d7d2a79c475fca1765f6cc1faebea87611026565b508315610f465784547fffffffffffffffffffffffffffffffffffffffffffffff00ffffffffffffffff168555604051600181527fc7f505b2f371ae2175ee4913f4499e1f2633a7b5936321eed1cdaeb6115181d29060200160405180910390a15b505050505050565b5f818152600160205260408120610b97906114ca565b5f82815260208190526040902060010154610f7e81610fdd565b6109188383611059565b5f7fffffffff0000000000000000000000000000000000000000000000000000000082167f5a05180f000000000000000000000000000000000000000000000000000000001480610b975750610b97826114d3565b6109ae8133611569565b60025460ff1615611024576040517fd93c066500000000000000000000000000000000000000000000000000000000815260040160405180910390fd5b565b5f8061103284846115ee565b90508015610b94575f84815260016020526040902061105190846116e7565b509392505050565b5f806110658484611708565b90508015610b94575f84815260016020526040902061105190846117c1565b61108c6117e2565b600280547fffffffffffffffffffffffffffffffffffffffffffffffffffffffffffffff001690557f5db9ee0a495bf2e6ff9c91a7834c1ba4fdd244a5e8aa4e537bd38aeae4b073aa335b60405173ffffffffffffffffffffffffffffffffffffffff909116815260200160405180910390a1565b3073ffffffffffffffffffffffffffffffffffffffff7f00000000000000000000000000000000000000000000000000000000000000001614806111ce57507f000000000000000000000000000000000000000000000000000000000000000073ffffffffffffffffffffffffffffffffffffffff166111b57f360894a13ba1a3210667c828492db98dca3e2076cc3735a920a3ca505d382bbc5473ffffffffffffffffffffffffffffffffffffffff1690565b73ffffffffffffffffffffffffffffffffffffffff1614155b15611024576040517fe07c8dba00000000000000000000000000000000000000000000000000000000815260040160405180910390fd5b7f189ab7a9244df0848122154315af71fe140f3db0fe014031783b0946b8c9d2e361122f81610fdd565b73ffffffffffffffffffffffffffffffffffffffff82166109cc576040517f8579befe00000000000000000000000000000000000000000000000000000000815260040160405180910390fd5b8173ffffffffffffffffffffffffffffffffffffffff166352d1902d6040518163ffffffff1660e01b8152600401602060405180830381865afa925050508015611301575060408051601f3d9081017fffffffffffffffffffffffffffffffffffffffffffffffffffffffffffffffe01682019092526112fe918101906121e4565b60015b611354576040517f4c9c8ce300000000000000000000000000000000000000000000000000000000815273ffffffffffffffffffffffffffffffffffffffff831660048201526024015b60405180910390fd5b7f360894a13ba1a3210667c828492db98dca3e2076cc3735a920a3ca505d382bbc81146113b0576040517faa1d49a40000000000000000000000000000000000000000000000000000000081526004810182905260240161134b565b610977838361181e565b3073ffffffffffffffffffffffffffffffffffffffff7f00000000000000000000000000000000000000000000000000000000000000001614611024576040517fe07c8dba00000000000000000000000000000000000000000000000000000000815260040160405180910390fd5b611431610fe7565b600280547fffffffffffffffffffffffffffffffffffffffffffffffffffffffffffffff001660011790557f62e78cea01bee320cd4e420270b5ea74000d11b0c9f74754ebdbfc544b05a2586110d73390565b5f610b948383611880565b60605f61149b836118a6565b9392505050565b5f807ff0c57e16840df040f15088dc2f81fe391c3923bec73e23a9662efc9c229c6a00610b97565b5f610b97825490565b5f7fffffffff0000000000000000000000000000000000000000000000000000000082167f7965db0b000000000000000000000000000000000000000000000000000000001480610b9757507f01ffc9a7000000000000000000000000000000000000000000000000000000007fffffffff00000000000000000000000000000000000000000000000000000000831614610b97565b5f8281526020818152604080832073ffffffffffffffffffffffffffffffffffffffff8516845290915290205460ff166109cc576040517fe2517d3f00000000000000000000000000000000000000000000000000000000815273ffffffffffffffffffffffffffffffffffffffff821660048201526024810183905260440161134b565b5f8281526020818152604080832073ffffffffffffffffffffffffffffffffffffffff8516845290915281205460ff166116e0575f8381526020818152604080832073ffffffffffffffffffffffffffffffffffffffff86168452909152902080547fffffffffffffffffffffffffffffffffffffffffffffffffffffffffffffff0016600117905561167e3390565b73ffffffffffffffffffffffffffffffffffffffff168273ffffffffffffffffffffffffffffffffffffffff16847f2f8788117e7eff1d82e926ec794901d17c78024a50270940304540a733656f0d60405160405180910390a4506001610b97565b505f610b97565b5f610b948373ffffffffffffffffffffffffffffffffffffffff84166118fe565b5f8281526020818152604080832073ffffffffffffffffffffffffffffffffffffffff8516845290915281205460ff16156116e0575f8381526020818152604080832073ffffffffffffffffffffffffffffffffffffffff8616808552925280832080547fffffffffffffffffffffffffffffffffffffffffffffffffffffffffffffff0016905551339286917ff6391f5c32d9c69d2a47ea670b442974b53935d1edc7fd64eb21e047a839171b9190a4506001610b97565b5f610b948373ffffffffffffffffffffffffffffffffffffffff8416611943565b60025460ff16611024576040517f8dfc202b00000000000000000000000000000000000000000000000000000000815260040160405180910390fd5b61182782611a26565b60405173ffffffffffffffffffffffffffffffffffffffff8316907fbc7cd75a20ee27fd9adebab32041f755214dbc6bffa90cc0225b39da2e5c2d3b905f90a2805115611878576109778282611af4565b6109cc611b6a565b5f825f018281548110611895576118956121fb565b905f5260205f200154905092915050565b6060815f018054806020026020016040519081016040528092919081815260200182805480156107dc57602002820191905f5260205f20905b8154815260200190600101908083116118df5750505050509050919050565b5f8181526001830160205260408120546116e057508154600181810184555f848152602080822090930184905584548482528286019093526040902091909155610b97565b5f8181526001830160205260408120548015611a1d575f611965600183612228565b85549091505f9061197890600190612228565b90508082146119d7575f865f018281548110611996576119966121fb565b905f5260205f200154905080875f0184815481106119b6576119b66121fb565b5f918252602080832090910192909255918252600188019052604090208390555b85548690806119e8576119e861223b565b600190038181905f5260205f20015f90559055856001015f8681526020019081526020015f205f905560019350505050610b97565b5f915050610b97565b8073ffffffffffffffffffffffffffffffffffffffff163b5f03611a8e576040517f4c9c8ce300000000000000000000000000000000000000000000000000000000815273ffffffffffffffffffffffffffffffffffffffff8216600482015260240161134b565b7f360894a13ba1a3210667c828492db98dca3e2076cc3735a920a3ca505d382bbc80547fffffffffffffffffffffffff00000000000000000000000000000000000000001673ffffffffffffffffffffffffffffffffffffffff92909216919091179055565b60605f808473ffffffffffffffffffffffffffffffffffffffff1684604051611b1d9190612268565b5f60405180830381855af49150503d805f8114611b55576040519150601f19603f3d011682016040523d82523d5f602084013e611b5a565b606091505b5091509150610729858383611ba2565b3415611024576040517fb398979f00000000000000000000000000000000000000000000000000000000815260040160405180910390fd5b606082611bb757611bb282611c31565b61149b565b8151158015611bdb575073ffffffffffffffffffffffffffffffffffffffff84163b155b15611c2a576040517f9996b31500000000000000000000000000000000000000000000000000000000815273ffffffffffffffffffffffffffffffffffffffff8516600482015260240161134b565b5092915050565b805115611c415780518082602001fd5b6040517fd6bda27500000000000000000000000000000000000000000000000000000000815260040160405180910390fd5b5f60208284031215611c83575f80fd5b81357fffffffff0000000000000000000000000000000000000000000000000000000081168114610b94575f80fd5b803573ffffffffffffffffffffffffffffffffffffffff81168114611cd5575f80fd5b919050565b5f60208284031215611cea575f80fd5b610b9482611cb2565b5f60208284031215611d03575f80fd5b5035919050565b602081525f82518060208401528060208501604085015e5f6040828501015260407fffffffffffffffffffffffffffffffffffffffffffffffffffffffffffffffe0601f83011684010191505092915050565b5f8060408385031215611d6e575f80fd5b611d7783611cb2565b915060208301358015158114611d8b575f80fd5b809150509250929050565b5f8060408385031215611da7575f80fd5b82359150611db760208401611cb2565b90509250929050565b7f4e487b71000000000000000000000000000000000000000000000000000000005f52604160045260245ffd5b5f8060408385031215611dfe575f80fd5b611e0783611cb2565b9150602083013567ffffffffffffffff811115611e22575f80fd5b8301601f81018513611e32575f80fd5b803567ffffffffffffffff811115611e4c57611e4c611dc0565b6040517fffffffffffffffffffffffffffffffffffffffffffffffffffffffffffffffe0603f7fffffffffffffffffffffffffffffffffffffffffffffffffffffffffffffffe0601f8501160116810181811067ffffffffffffffff82111715611eb857611eb8611dc0565b604052818152828201602001871015611ecf575f80fd5b816020840160208301375f602083830101528093505050509250929050565b5f805f8060608587031215611f01575f80fd5b611f0a85611cb2565b935060208501359250604085013567ffffffffffffffff811115611f2c575f80fd5b8501601f81018713611f3c575f80fd5b803567ffffffffffffffff811115611f52575f80fd5b876020828401011115611f63575f80fd5b949793965060200194505050565b5f8060408385031215611f82575f80fd5b50508035926020909101359150565b602080825282518282018190525f918401906040840190835b81811015611fde57835173ffffffffffffffffffffffffffffffffffffffff16835260209384019390920191600101611faa565b509095945050505050565b600181811c90821680611ffd57607f821691505b602082108103612034577f4e487b71000000000000000000000000000000000000000000000000000000005f52602260045260245ffd5b50919050565b601f82111561097757805f5260205f20601f840160051c8101602085101561205f5750805b601f840160051c820191505b8181101561207e575f815560010161206b565b5050505050565b67ffffffffffffffff83111561209d5761209d611dc0565b6120b1836120ab8354611fe9565b8361203a565b5f601f841160018114612101575f85156120cb5750838201355b7fffffffffffffffffffffffffffffffffffffffffffffffffffffffffffffffff600387901b1c1916600186901b17835561207e565b5f838152602081207fffffffffffffffffffffffffffffffffffffffffffffffffffffffffffffffe08716915b8281101561214e578685013582556020948501946001909201910161212e565b5086821015612189577fffffffffffffffffffffffffffffffffffffffffffffffffffffffffffffffff60f88860031b161c19848701351681555b505060018560011b0183555050505050565b7f4e487b71000000000000000000000000000000000000000000000000000000005f52601160045260245ffd5b63ffffffff8181168382160190811115610b9757610b9761219b565b5f602082840312156121f4575f80fd5b5051919050565b7f4e487b71000000000000000000000000000000000000000000000000000000005f52603260045260245ffd5b81810381811115610b9757610b9761219b565b7f4e487b71000000000000000000000000000000000000000000000000000000005f52603160045260245ffd5b5f82518060208501845e5f92019182525091905056fea2646970667358221220f2c6e0b016d2d914542ade9b5c1b97b2b678461c74cfacd4ac91f7d4bec21ddd64736f6c634300081a0033",
    "linkReferences": {}
  },
  "methodIdentifiers": {
    "DEFAULT_ADMIN_ROLE()": "a217fddf",
    "UPGRADE_INTERFACE_VERSION()": "ad3cb1cc",
    "developerInfo(address)": "0d82321d",
    "getDeveloperInfo(address)": "c342102c",
    "getKycDataLocation(address)": "26631bc5",
    "getRoleAdmin(bytes32)": "248a9ca3",
    "getRoleMember(bytes32,uint256)": "9010d07c",
    "getRoleMemberCount(bytes32)": "ca15c873",
    "getRoleMembers(bytes32)": "a3246ad3",
    "getTimesFunded(address)": "4993b60a",
    "grantRole(bytes32,address)": "2f2ff15d",
    "hasRole(bytes32,address)": "91d14854",
    "incrementFundedCounter(address)": "9962b5b5",
    "initialize(address)": "c4d66de8",
    "isVerified(address)": "b9209e33",
    "pause()": "8456cb59",
    "paused()": "5c975abb",
    "proxiableUUID()": "52d1902d",
    "renounceRole(bytes32,address)": "36568abe",
    "revokeRole(bytes32,address)": "d547741f",
    "setVerifiedStatus(address,bool)": "28c14745",
    "submitKYC(address,bytes32,string)": "7b0fdb99",
    "supportsInterface(bytes4)": "01ffc9a7",
    "unpause()": "3f4ba83a",
    "upgradeToAndCall(address,bytes)": "4f1ef286"
  },
  "id": 106
}