{
  "abi": [
    {
      "type": "function",
      "name": "DEFAULT_ADMIN_ROLE",
      "inputs": [],
      "outputs": [
        {
          "name": "",
          "type": "bytes32",
          "internalType": "bytes32"
        }
      ],
      "stateMutability": "view"
    },
    {
      "type": "function",
      "name": "UPGRADE_INTERFACE_VERSION",
      "inputs": [],
      "outputs": [
        {
          "name": "",
          "type": "string",
          "internalType": "string"
        }
      ],
      "stateMutability": "view"
    },
    {
      "type": "function",
      "name": "accruedInterestPerShare_RAY",
      "inputs": [],
      "outputs": [
        {
          "name": "",
          "type": "uint256",
          "internalType": "uint256"
        }
      ],
      "stateMutability": "view"
    },
    {
      "type": "function",
      "name": "cancelFundingAfterDeadline",
      "inputs": [],
      "outputs": [],
      "stateMutability": "nonpayable"
    },
    {
      "type": "function",
      "name": "claimPrincipal",
      "inputs": [],
      "outputs": [],
      "stateMutability": "nonpayable"
    },
    {
      "type": "function",
      "name": "claimYield",
      "inputs": [],
      "outputs": [],
      "stateMutability": "nonpayable"
    },
    {
      "type": "function",
      "name": "claimablePrincipal",
      "inputs": [
        {
          "name": "investor",
          "type": "address",
          "internalType": "address"
        }
      ],
      "outputs": [
        {
          "name": "",
          "type": "uint256",
          "internalType": "uint256"
        }
      ],
      "stateMutability": "view"
    },
    {
      "type": "function",
      "name": "claimableYield",
      "inputs": [
        {
          "name": "investor",
          "type": "address",
          "internalType": "address"
        }
      ],
      "outputs": [
        {
          "name": "",
          "type": "uint256",
          "internalType": "uint256"
        }
      ],
      "stateMutability": "view"
    },
    {
      "type": "function",
      "name": "closeFundingManually",
      "inputs": [],
      "outputs": [],
      "stateMutability": "nonpayable"
    },
    {
      "type": "function",
      "name": "closeLoan",
      "inputs": [],
      "outputs": [],
      "stateMutability": "nonpayable"
    },
    {
      "type": "function",
      "name": "currentAprBps",
      "inputs": [],
      "outputs": [
        {
          "name": "",
          "type": "uint16",
          "internalType": "uint16"
        }
      ],
      "stateMutability": "view"
    },
    {
      "type": "function",
      "name": "depositEscrowAddress",
      "inputs": [],
      "outputs": [
        {
          "name": "",
          "type": "address",
          "internalType": "address"
        }
      ],
      "stateMutability": "view"
    },
    {
      "type": "function",
      "name": "devEscrow",
      "inputs": [],
      "outputs": [
        {
          "name": "",
          "type": "address",
          "internalType": "contract IDevEscrow"
        }
      ],
      "stateMutability": "view"
    },
    {
      "type": "function",
      "name": "developer",
      "inputs": [],
      "outputs": [
        {
          "name": "",
          "type": "address",
          "internalType": "address"
        }
      ],
      "stateMutability": "view"
    },
    {
      "type": "function",
      "name": "developerDeposit",
      "inputs": [],
      "outputs": [
        {
          "name": "",
          "type": "uint256",
          "internalType": "uint256"
        }
      ],
      "stateMutability": "view"
    },
    {
      "type": "function",
      "name": "fundingClosed",
      "inputs": [],
      "outputs": [
        {
          "name": "",
          "type": "bool",
          "internalType": "bool"
        }
      ],
      "stateMutability": "view"
    },
    {
      "type": "function",
      "name": "fundingDeadline",
      "inputs": [],
      "outputs": [
        {
          "name": "",
          "type": "uint32",
          "internalType": "uint32"
        }
      ],
      "stateMutability": "view"
    },
    {
      "type": "function",
      "name": "getAllInvestors",
      "inputs": [],
      "outputs": [
        {
          "name": "",
          "type": "address[]",
          "internalType": "address[]"
        }
      ],
      "stateMutability": "view"
    },
    {
      "type": "function",
      "name": "getCurrentAprBps",
      "inputs": [],
      "outputs": [
        {
          "name": "",
          "type": "uint16",
          "internalType": "uint16"
        }
      ],
      "stateMutability": "view"
    },
    {
      "type": "function",
      "name": "getInvestorDetails",
      "inputs": [
        {
          "name": "investor",
          "type": "address",
          "internalType": "address"
        }
      ],
      "outputs": [
        {
          "name": "shares",
          "type": "uint256",
          "internalType": "uint256"
        },
        {
          "name": "principalClaimed",
          "type": "uint256",
          "internalType": "uint256"
        },
        {
          "name": "interestClaimed",
          "type": "uint256",
          "internalType": "uint256"
        },
        {
          "name": "claimablePrincipalAmount",
          "type": "uint256",
          "internalType": "uint256"
        },
        {
          "name": "claimableInterestAmount",
          "type": "uint256",
          "internalType": "uint256"
        }
      ],
      "stateMutability": "view"
    },
    {
      "type": "function",
      "name": "getLoanAmount",
      "inputs": [],
      "outputs": [
        {
          "name": "",
          "type": "uint256",
          "internalType": "uint256"
        }
      ],
      "stateMutability": "view"
    },
    {
      "type": "function",
      "name": "getOutstandingPrincipal",
      "inputs": [
        {
          "name": "",
          "type": "uint256",
          "internalType": "uint256"
        },
        {
          "name": "",
          "type": "uint256",
          "internalType": "uint256"
        }
      ],
      "outputs": [
        {
          "name": "",
          "type": "uint256",
          "internalType": "uint256"
        }
      ],
      "stateMutability": "view"
    },
    {
      "type": "function",
      "name": "getPrincipalRepaid",
      "inputs": [],
      "outputs": [
        {
          "name": "",
          "type": "uint256",
          "internalType": "uint256"
        }
      ],
      "stateMutability": "view"
    },
    {
      "type": "function",
      "name": "getProjectSummary",
      "inputs": [],
      "outputs": [
        {
          "name": "state",
          "type": "uint8",
          "internalType": "uint8"
        },
        {
          "name": "fundingProgress",
          "type": "uint16",
          "internalType": "uint16"
        },
        {
          "name": "timeRemaining",
          "type": "uint256",
          "internalType": "uint256"
        },
        {
          "name": "totalReturn",
          "type": "uint256",
          "internalType": "uint256"
        }
      ],
      "stateMutability": "view"
    },
    {
      "type": "function",
      "name": "getRoleAdmin",
      "inputs": [
        {
          "name": "role",
          "type": "bytes32",
          "internalType": "bytes32"
        }
      ],
      "outputs": [
        {
          "name": "",
          "type": "bytes32",
          "internalType": "bytes32"
        }
      ],
      "stateMutability": "view"
    },
    {
      "type": "function",
      "name": "getRoleMember",
      "inputs": [
        {
          "name": "role",
          "type": "bytes32",
          "internalType": "bytes32"
        },
        {
          "name": "index",
          "type": "uint256",
          "internalType": "uint256"
        }
      ],
      "outputs": [
        {
          "name": "",
          "type": "address",
          "internalType": "address"
        }
      ],
      "stateMutability": "view"
    },
    {
      "type": "function",
      "name": "getRoleMemberCount",
      "inputs": [
        {
          "name": "role",
          "type": "bytes32",
          "internalType": "bytes32"
        }
      ],
      "outputs": [
        {
          "name": "",
          "type": "uint256",
          "internalType": "uint256"
        }
      ],
      "stateMutability": "view"
    },
    {
      "type": "function",
      "name": "getRoleMembers",
      "inputs": [
        {
          "name": "role",
          "type": "bytes32",
          "internalType": "bytes32"
        }
      ],
      "outputs": [
        {
          "name": "",
          "type": "address[]",
          "internalType": "address[]"
        }
      ],
      "stateMutability": "view"
    },
    {
      "type": "function",
      "name": "getTotalAssetsInvested",
      "inputs": [],
      "outputs": [
        {
          "name": "",
          "type": "uint256",
          "internalType": "uint256"
        }
      ],
      "stateMutability": "view"
    },
    {
      "type": "function",
      "name": "grantRole",
      "inputs": [
        {
          "name": "role",
          "type": "bytes32",
          "internalType": "bytes32"
        },
        {
          "name": "account",
          "type": "address",
          "internalType": "address"
        }
      ],
      "outputs": [],
      "stateMutability": "nonpayable"
    },
    {
      "type": "function",
      "name": "handleRepayment",
      "inputs": [
        {
          "name": "",
          "type": "uint256",
          "internalType": "uint256"
        },
        {
          "name": "_projectId",
          "type": "uint256",
          "internalType": "uint256"
        },
        {
          "name": "netAmountReceived",
          "type": "uint256",
          "internalType": "uint256"
        }
      ],
      "outputs": [
        {
          "name": "principalPaid",
          "type": "uint256",
          "internalType": "uint256"
        },
        {
          "name": "interestPaid",
          "type": "uint256",
          "internalType": "uint256"
        }
      ],
      "stateMutability": "nonpayable"
    },
    {
      "type": "function",
      "name": "hasRole",
      "inputs": [
        {
          "name": "role",
          "type": "bytes32",
          "internalType": "bytes32"
        },
        {
          "name": "account",
          "type": "address",
          "internalType": "address"
        }
      ],
      "outputs": [
        {
          "name": "",
          "type": "bool",
          "internalType": "bool"
        }
      ],
      "stateMutability": "view"
    },
    {
      "type": "function",
      "name": "initialize",
      "inputs": [
        {
          "name": "params",
          "type": "tuple",
          "internalType": "struct IProjectVault.InitParams",
          "components": [
            {
              "name": "admin",
              "type": "address",
              "internalType": "address"
            },
            {
              "name": "usdcToken",
              "type": "address",
              "internalType": "address"
            },
            {
              "name": "developer",
              "type": "address",
              "internalType": "address"
            },
            {
              "name": "devEscrow",
              "type": "address",
              "internalType": "address"
            },
            {
              "name": "repaymentRouter",
              "type": "address",
              "internalType": "address"
            },
            {
              "name": "projectId",
              "type": "uint256",
              "internalType": "uint256"
            },
            {
              "name": "financedAmount",
              "type": "uint256",
              "internalType": "uint256"
            },
            {
              "name": "developerDeposit",
              "type": "uint256",
              "internalType": "uint256"
            },
            {
              "name": "loanTenor",
              "type": "uint48",
              "internalType": "uint48"
            },
            {
              "name": "initialAprBps",
              "type": "uint16",
              "internalType": "uint16"
            },
            {
              "name": "depositEscrowAddress",
              "type": "address",
              "internalType": "address"
            },
            {
              "name": "riskOracleAdapter",
              "type": "address",
              "internalType": "address"
            },
            {
              "name": "fundingDeadline",
              "type": "uint32",
              "internalType": "uint32"
            }
          ]
        }
      ],
      "outputs": [],
      "stateMutability": "nonpayable"
    },
    {
      "type": "function",
      "name": "interestClaimedByInvestor",
      "inputs": [
        {
          "name": "",
          "type": "address",
          "internalType": "address"
        }
      ],
      "outputs": [
        {
          "name": "",
          "type": "uint256",
          "internalType": "uint256"
        }
      ],
      "stateMutability": "view"
    },
    {
      "type": "function",
      "name": "interestRepaid",
      "inputs": [],
      "outputs": [
        {
          "name": "",
          "type": "uint256",
          "internalType": "uint256"
        }
      ],
      "stateMutability": "view"
    },
    {
      "type": "function",
      "name": "invest",
      "inputs": [
        {
          "name": "amount",
          "type": "uint256",
          "internalType": "uint256"
        }
      ],
      "outputs": [],
      "stateMutability": "nonpayable"
    },
    {
      "type": "function",
      "name": "investorShares",
      "inputs": [
        {
          "name": "",
          "type": "address",
          "internalType": "address"
        }
      ],
      "outputs": [
        {
          "name": "",
          "type": "uint256",
          "internalType": "uint256"
        }
      ],
      "stateMutability": "view"
    },
    {
      "type": "function",
      "name": "investors",
      "inputs": [
        {
          "name": "",
          "type": "uint256",
          "internalType": "uint256"
        }
      ],
      "outputs": [
        {
          "name": "",
          "type": "address",
          "internalType": "address"
        }
      ],
      "stateMutability": "view"
    },
    {
      "type": "function",
      "name": "isFundingClosed",
      "inputs": [],
      "outputs": [
        {
          "name": "",
          "type": "bool",
          "internalType": "bool"
        }
      ],
      "stateMutability": "view"
    },
    {
      "type": "function",
      "name": "isInvestor",
      "inputs": [
        {
          "name": "",
          "type": "address",
          "internalType": "address"
        }
      ],
      "outputs": [
        {
          "name": "",
          "type": "bool",
          "internalType": "bool"
        }
      ],
      "stateMutability": "view"
    },
    {
      "type": "function",
      "name": "isLoanClosed",
      "inputs": [],
      "outputs": [
        {
          "name": "",
          "type": "bool",
          "internalType": "bool"
        }
      ],
      "stateMutability": "view"
    },
    {
      "type": "function",
      "name": "lastInterestAccrualTimestamp",
      "inputs": [],
      "outputs": [
        {
          "name": "",
          "type": "uint256",
          "internalType": "uint256"
        }
      ],
      "stateMutability": "view"
    },
    {
      "type": "function",
      "name": "loanAmount",
      "inputs": [],
      "outputs": [
        {
          "name": "",
          "type": "uint256",
          "internalType": "uint256"
        }
      ],
      "stateMutability": "view"
    },
    {
      "type": "function",
      "name": "loanClosed",
      "inputs": [],
      "outputs": [
        {
          "name": "",
          "type": "bool",
          "internalType": "bool"
        }
      ],
      "stateMutability": "view"
    },
    {
      "type": "function",
      "name": "loanStartTime",
      "inputs": [],
      "outputs": [
        {
          "name": "",
          "type": "uint64",
          "internalType": "uint64"
        }
      ],
      "stateMutability": "view"
    },
    {
      "type": "function",
      "name": "loanTenor",
      "inputs": [],
      "outputs": [
        {
          "name": "",
          "type": "uint48",
          "internalType": "uint48"
        }
      ],
      "stateMutability": "view"
    },
    {
      "type": "function",
      "name": "pause",
      "inputs": [],
      "outputs": [],
      "stateMutability": "nonpayable"
    },
    {
      "type": "function",
      "name": "paused",
      "inputs": [],
      "outputs": [
        {
          "name": "",
          "type": "bool",
          "internalType": "bool"
        }
      ],
      "stateMutability": "view"
    },
    {
      "type": "function",
      "name": "principalClaimedByInvestor",
      "inputs": [
        {
          "name": "",
          "type": "address",
          "internalType": "address"
        }
      ],
      "outputs": [
        {
          "name": "",
          "type": "uint256",
          "internalType": "uint256"
        }
      ],
      "stateMutability": "view"
    },
    {
      "type": "function",
      "name": "principalRepaid",
      "inputs": [],
      "outputs": [
        {
          "name": "",
          "type": "uint256",
          "internalType": "uint256"
        }
      ],
      "stateMutability": "view"
    },
    {
      "type": "function",
      "name": "projectId",
      "inputs": [],
      "outputs": [
        {
          "name": "",
          "type": "uint256",
          "internalType": "uint256"
        }
      ],
      "stateMutability": "view"
    },
    {
      "type": "function",
      "name": "projectState",
      "inputs": [],
      "outputs": [
        {
          "name": "",
          "type": "uint8",
          "internalType": "uint8"
        }
      ],
      "stateMutability": "view"
    },
    {
      "type": "function",
      "name": "proxiableUUID",
      "inputs": [],
      "outputs": [
        {
          "name": "",
          "type": "bytes32",
          "internalType": "bytes32"
        }
      ],
      "stateMutability": "view"
    },
    {
      "type": "function",
      "name": "redeem",
      "inputs": [],
      "outputs": [
        {
          "name": "principalAmount",
          "type": "uint256",
          "internalType": "uint256"
        },
        {
          "name": "yieldAmount",
          "type": "uint256",
          "internalType": "uint256"
        }
      ],
      "stateMutability": "nonpayable"
    },
    {
      "type": "function",
      "name": "renounceRole",
      "inputs": [
        {
          "name": "role",
          "type": "bytes32",
          "internalType": "bytes32"
        },
        {
          "name": "callerConfirmation",
          "type": "address",
          "internalType": "address"
        }
      ],
      "outputs": [],
      "stateMutability": "nonpayable"
    },
    {
      "type": "function",
      "name": "revokeRole",
      "inputs": [
        {
          "name": "role",
          "type": "bytes32",
          "internalType": "bytes32"
        },
        {
          "name": "account",
          "type": "address",
          "internalType": "address"
        }
      ],
      "outputs": [],
      "stateMutability": "nonpayable"
    },
    {
      "type": "function",
      "name": "supportsInterface",
      "inputs": [
        {
          "name": "interfaceId",
          "type": "bytes4",
          "internalType": "bytes4"
        }
      ],
      "outputs": [
        {
          "name": "",
          "type": "bool",
          "internalType": "bool"
        }
      ],
      "stateMutability": "view"
    },
    {
      "type": "function",
      "name": "totalAssetsInvested",
      "inputs": [],
      "outputs": [
        {
          "name": "",
          "type": "uint256",
          "internalType": "uint256"
        }
      ],
      "stateMutability": "view"
    },
    {
      "type": "function",
      "name": "totalDebt",
      "inputs": [],
      "outputs": [
        {
          "name": "",
          "type": "uint256",
          "internalType": "uint256"
        }
      ],
      "stateMutability": "view"
    },
    {
      "type": "function",
      "name": "totalShares",
      "inputs": [],
      "outputs": [
        {
          "name": "",
          "type": "uint256",
          "internalType": "uint256"
        }
      ],
      "stateMutability": "view"
    },
    {
      "type": "function",
      "name": "unpause",
      "inputs": [],
      "outputs": [],
      "stateMutability": "nonpayable"
    },
    {
      "type": "function",
      "name": "updateRiskParams",
      "inputs": [
        {
          "name": "newAprBps",
          "type": "uint16",
          "internalType": "uint16"
        }
      ],
      "outputs": [],
      "stateMutability": "nonpayable"
    },
    {
      "type": "function",
      "name": "upgradeToAndCall",
      "inputs": [
        {
          "name": "newImplementation",
          "type": "address",
          "internalType": "address"
        },
        {
          "name": "data",
          "type": "bytes",
          "internalType": "bytes"
        }
      ],
      "outputs": [],
      "stateMutability": "payable"
    },
    {
      "type": "function",
      "name": "usdcToken",
      "inputs": [],
      "outputs": [
        {
          "name": "",
          "type": "address",
          "internalType": "contract IERC20"
        }
      ],
      "stateMutability": "view"
    },
    {
      "type": "event",
      "name": "DepositTransferFailed",
      "inputs": [
        {
          "name": "projectId",
          "type": "uint256",
          "indexed": true,
          "internalType": "uint256"
        },
        {
          "name": "developer",
          "type": "address",
          "indexed": true,
          "internalType": "address"
        },
        {
          "name": "depositAmount",
          "type": "uint256",
          "indexed": false,
          "internalType": "uint256"
        }
      ],
      "anonymous": false
    },
    {
      "type": "event",
      "name": "FundingClosed",
      "inputs": [
        {
          "name": "projectId",
          "type": "uint256",
          "indexed": false,
          "internalType": "uint256"
        },
        {
          "name": "totalAssetsInvested",
          "type": "uint256",
          "indexed": false,
          "internalType": "uint256"
        }
      ],
      "anonymous": false
    },
    {
      "type": "event",
      "name": "Initialized",
      "inputs": [
        {
          "name": "version",
          "type": "uint64",
          "indexed": false,
          "internalType": "uint64"
        }
      ],
      "anonymous": false
    },
    {
      "type": "event",
      "name": "Invested",
      "inputs": [
        {
          "name": "investor",
          "type": "address",
          "indexed": true,
          "internalType": "address"
        },
        {
          "name": "amountInvested",
          "type": "uint256",
          "indexed": false,
          "internalType": "uint256"
        },
        {
          "name": "totalAssetsInvested",
          "type": "uint256",
          "indexed": false,
          "internalType": "uint256"
        }
      ],
      "anonymous": false
    },
    {
      "type": "event",
      "name": "LoanClosed",
      "inputs": [
        {
          "name": "projectId",
          "type": "uint256",
          "indexed": false,
          "internalType": "uint256"
        },
        {
          "name": "finalPrincipalRepaid",
          "type": "uint256",
          "indexed": false,
          "internalType": "uint256"
        },
        {
          "name": "finalInterestAccrued",
          "type": "uint256",
          "indexed": false,
          "internalType": "uint256"
        }
      ],
      "anonymous": false
    },
    {
      "type": "event",
      "name": "Paused",
      "inputs": [
        {
          "name": "account",
          "type": "address",
          "indexed": false,
          "internalType": "address"
        }
      ],
      "anonymous": false
    },
    {
      "type": "event",
      "name": "PrincipalClaimed",
      "inputs": [
        {
          "name": "investor",
          "type": "address",
          "indexed": true,
          "internalType": "address"
        },
        {
          "name": "amountClaimed",
          "type": "uint256",
          "indexed": false,
          "internalType": "uint256"
        }
      ],
      "anonymous": false
    },
    {
      "type": "event",
      "name": "ProjectCancelled",
      "inputs": [
        {
          "name": "projectId",
          "type": "uint256",
          "indexed": true,
          "internalType": "uint256"
        },
        {
          "name": "fundingDeadline",
          "type": "uint32",
          "indexed": false,
          "internalType": "uint32"
        }
      ],
      "anonymous": false
    },
    {
      "type": "event",
      "name": "RepaymentReceived",
      "inputs": [
        {
          "name": "projectId",
          "type": "uint256",
          "indexed": false,
          "internalType": "uint256"
        },
        {
          "name": "payer",
          "type": "address",
          "indexed": true,
          "internalType": "address"
        },
        {
          "name": "principalAmount",
          "type": "uint256",
          "indexed": false,
          "internalType": "uint256"
        },
        {
          "name": "interestAmount",
          "type": "uint256",
          "indexed": false,
          "internalType": "uint256"
        }
      ],
      "anonymous": false
    },
    {
      "type": "event",
      "name": "RiskParamsUpdated",
      "inputs": [
        {
          "name": "projectId",
          "type": "uint256",
          "indexed": false,
          "internalType": "uint256"
        },
        {
          "name": "newAprBps",
          "type": "uint16",
          "indexed": false,
          "internalType": "uint16"
        }
      ],
      "anonymous": false
    },
    {
      "type": "event",
      "name": "RoleAdminChanged",
      "inputs": [
        {
          "name": "role",
          "type": "bytes32",
          "indexed": true,
          "internalType": "bytes32"
        },
        {
          "name": "previousAdminRole",
          "type": "bytes32",
          "indexed": true,
          "internalType": "bytes32"
        },
        {
          "name": "newAdminRole",
          "type": "bytes32",
          "indexed": true,
          "internalType": "bytes32"
        }
      ],
      "anonymous": false
    },
    {
      "type": "event",
      "name": "RoleGranted",
      "inputs": [
        {
          "name": "role",
          "type": "bytes32",
          "indexed": true,
          "internalType": "bytes32"
        },
        {
          "name": "account",
          "type": "address",
          "indexed": true,
          "internalType": "address"
        },
        {
          "name": "sender",
          "type": "address",
          "indexed": true,
          "internalType": "address"
        }
      ],
      "anonymous": false
    },
    {
      "type": "event",
      "name": "RoleRevoked",
      "inputs": [
        {
          "name": "role",
          "type": "bytes32",
          "indexed": true,
          "internalType": "bytes32"
        },
        {
          "name": "account",
          "type": "address",
          "indexed": true,
          "internalType": "address"
        },
        {
          "name": "sender",
          "type": "address",
          "indexed": true,
          "internalType": "address"
        }
      ],
      "anonymous": false
    },
    {
      "type": "event",
      "name": "Unpaused",
      "inputs": [
        {
          "name": "account",
          "type": "address",
          "indexed": false,
          "internalType": "address"
        }
      ],
      "anonymous": false
    },
    {
      "type": "event",
      "name": "Upgraded",
      "inputs": [
        {
          "name": "implementation",
          "type": "address",
          "indexed": true,
          "internalType": "address"
        }
      ],
      "anonymous": false
    },
    {
      "type": "event",
      "name": "YieldClaimed",
      "inputs": [
        {
          "name": "investor",
          "type": "address",
          "indexed": true,
          "internalType": "address"
        },
        {
          "name": "amountClaimed",
          "type": "uint256",
          "indexed": false,
          "internalType": "uint256"
        }
      ],
      "anonymous": false
    },
    {
      "type": "error",
      "name": "AccessControlBadConfirmation",
      "inputs": []
    },
    {
      "type": "error",
      "name": "AccessControlUnauthorizedAccount",
      "inputs": [
        {
          "name": "account",
          "type": "address",
          "internalType": "address"
        },
        {
          "name": "neededRole",
          "type": "bytes32",
          "internalType": "bytes32"
        }
      ]
    },
    {
      "type": "error",
      "name": "AddressEmptyCode",
      "inputs": [
        {
          "name": "target",
          "type": "address",
          "internalType": "address"
        }
      ]
    },
    {
      "type": "error",
      "name": "AmountCannotBeZero",
      "inputs": []
    },
    {
      "type": "error",
      "name": "CannotInvestZero",
      "inputs": []
    },
    {
      "type": "error",
      "name": "DeadlinePassed",
      "inputs": []
    },
    {
      "type": "error",
      "name": "ERC1967InvalidImplementation",
      "inputs": [
        {
          "name": "implementation",
          "type": "address",
          "internalType": "address"
        }
      ]
    },
    {
      "type": "error",
      "name": "ERC1967NonPayable",
      "inputs": []
    },
    {
      "type": "error",
      "name": "EnforcedPause",
      "inputs": []
    },
    {
      "type": "error",
      "name": "ExpectedPause",
      "inputs": []
    },
    {
      "type": "error",
      "name": "FailedCall",
      "inputs": []
    },
    {
      "type": "error",
      "name": "FundingCapReached",
      "inputs": [
        {
          "name": "limit",
          "type": "uint256",
          "internalType": "uint256"
        }
      ]
    },
    {
      "type": "error",
      "name": "FundingClosed",
      "inputs": []
    },
    {
      "type": "error",
      "name": "InvalidInitialization",
      "inputs": []
    },
    {
      "type": "error",
      "name": "InvalidState",
      "inputs": [
        {
          "name": "reason",
          "type": "string",
          "internalType": "string"
        }
      ]
    },
    {
      "type": "error",
      "name": "InvalidValue",
      "inputs": [
        {
          "name": "reason",
          "type": "string",
          "internalType": "string"
        }
      ]
    },
    {
      "type": "error",
      "name": "InvestmentBelowMinimum",
      "inputs": [
        {
          "name": "minimum",
          "type": "uint256",
          "internalType": "uint256"
        }
      ]
    },
    {
      "type": "error",
      "name": "LoanAlreadyClosed",
      "inputs": []
    },
    {
      "type": "error",
      "name": "LoanNotClosed",
      "inputs": []
    },
    {
      "type": "error",
      "name": "NotAuthorized",
      "inputs": [
        {
          "name": "caller",
          "type": "address",
          "internalType": "address"
        },
        {
          "name": "role",
          "type": "bytes32",
          "internalType": "bytes32"
        }
      ]
    },
    {
      "type": "error",
      "name": "NotInitializing",
      "inputs": []
    },
    {
      "type": "error",
      "name": "NothingToClaim",
      "inputs": []
    },
    {
      "type": "error",
      "name": "PRBMath_MulDivSigned_InputTooSmall",
      "inputs": []
    },
    {
      "type": "error",
      "name": "PRBMath_MulDivSigned_Overflow",
      "inputs": [
        {
          "name": "x",
          "type": "int256",
          "internalType": "int256"
        },
        {
          "name": "y",
          "type": "int256",
          "internalType": "int256"
        }
      ]
    },
    {
      "type": "error",
      "name": "PRBMath_MulDiv_Overflow",
      "inputs": [
        {
          "name": "x",
          "type": "uint256",
          "internalType": "uint256"
        },
        {
          "name": "y",
          "type": "uint256",
          "internalType": "uint256"
        },
        {
          "name": "denominator",
          "type": "uint256",
          "internalType": "uint256"
        }
      ]
    },
    {
      "type": "error",
      "name": "ReentrancyGuardReentrantCall",
      "inputs": []
    },
    {
      "type": "error",
      "name": "SafeERC20FailedOperation",
      "inputs": [
        {
          "name": "token",
          "type": "address",
          "internalType": "address"
        }
      ]
    },
    {
      "type": "error",
      "name": "UUPSUnauthorizedCallContext",
      "inputs": []
    },
    {
      "type": "error",
      "name": "UUPSUnsupportedProxiableUUID",
      "inputs": [
        {
          "name": "slot",
          "type": "bytes32",
          "internalType": "bytes32"
        }
      ]
    },
    {
      "type": "error",
      "name": "ZeroAddressNotAllowed",
      "inputs": []
    }
  ],
  "bytecode": {
    "object": "0x60a0604052306080523480156012575f80fd5b506001600355608051614bc261003e5f395f8181612d8f01528181612db80152612fca0152614bc25ff3fe6080604052600436106103b3575f3560e01c8063790b1556116101e9578063b6cbc5f011610108578063d84065f91161009d578063f4b01b181161006d578063f4b01b1814610ba0578063fc7b9c1814610bb4578063fdd2d57714610bc8578063ffaa626914610bdf575f80fd5b8063d84065f914610af2578063da7806e614610b0f578063e755926014610b3a578063efab1e5014610b59575f80fd5b8063cee2a9cf116100d8578063cee2a9cf14610a66578063d0a2f2c414610a94578063d3690b6a14610aa8578063d547741f14610ad3575f80fd5b8063b6cbc5f0146109e9578063be040fb014610a14578063ca15c87314610a28578063ca4b208b14610a47575f80fd5b806399fb9f041161017e578063a217fddf1161014e578063a217fddf14610940578063a3246ad314610953578063a5ddc8641461097f578063ad3cb1cc14610994575f80fd5b806399fb9f04146108d05780639b9ee663146108e45780639d585f7f14610916578063a05f09861461092b575f80fd5b80638456cb59116101b95780638456cb5914610818578063850c4ca01461082c5780639010d07c1461086f57806391d148541461088e575f80fd5b8063790b15561461077f578063796b23bb146107ba5780637ba32ee3146107eb578063838dfaa4146107ff575f80fd5b80633a98ef39116102d55780634f1ef2861161026a5780635ae4cbf01161023a5780635ae4cbf01461070b5780635c975abb1461072057806368a1885514610737578063748807ab1461074c575f80fd5b80634f1ef286146106bb5780634fd6403c146106ce5780635204b10a146106e357806352d1902d146106f7575f80fd5b8063406cf229116102a5578063406cf2291461062a578063417cd4b61461063e57806346a2c87f14610673578063496179ac14610687575f80fd5b80633a98ef39146105cd5780633f4ba83a146105e25780633fafa127146105f65780633feb5f2b1461060b575f80fd5b8063248a9ca31161034b5780632e6ec85e1161031b5780632e6ec85e146105515780632f2ff15d146105705780633180afec1461058f57806336568abe146105ae575f80fd5b8063248a9ca3146104d05780632a2b3a20146104fe5780632afcf480146105135780632d6af4d514610532575f80fd5b80631916f16f116103865780631916f16f1461046e5780631940fe31146104825780632116da5b146104a3578063232fa733146104bc575f80fd5b806301ffc9a7146103b757806303e89a8c146103eb5780630ce77ca31461042257806311eac8551461044f575b5f80fd5b3480156103c2575f80fd5b506103d66103d136600461434f565b610bf6565b60405190151581526020015b60405180910390f35b3480156103f6575f80fd5b5060065461040a906001600160a01b031681565b6040516001600160a01b0390911681526020016103e2565b34801561042d575f80fd5b5061044161043c3660046143a9565b610c06565b6040519081526020016103e2565b34801561045a575f80fd5b5060045461040a906001600160a01b031681565b348015610479575f80fd5b50601154610441565b34801561048d575f80fd5b506104a161049c3660046143c2565b610c96565b005b3480156104ae575f80fd5b50600b546103d69060ff1681565b3480156104c7575f80fd5b506104a1610d8e565b3480156104db575f80fd5b506104416104ea3660046143e3565b5f9081526020819052604090206001015490565b348015610509575f80fd5b5061044160125481565b34801561051e575f80fd5b506104a161052d3660046143e3565b610ec3565b34801561053d575f80fd5b5061044161054c3660046143fa565b61118d565b34801561055c575f80fd5b506104a161056b36600461441a565b6111b9565b34801561057b575f80fd5b506104a161058a366004614434565b61165e565b34801561059a575f80fd5b506104416105a93660046143a9565b611688565b3480156105b9575f80fd5b506104a16105c8366004614434565b611705565b3480156105d8575f80fd5b5061044160155481565b3480156105ed575f80fd5b506104a1611756565b348015610601575f80fd5b5061044160075481565b348015610616575f80fd5b5061040a6106253660046143e3565b611788565b348015610635575f80fd5b506104a16117b0565b348015610649575f80fd5b5060095461065c9065ffffffffffff1681565b60405165ffffffffffff90911681526020016103e2565b34801561067e575f80fd5b506104a1611889565b348015610692575f80fd5b506106a66106a136600461445e565b611ab4565b604080519283526020830191909152016103e2565b6104a16106c93660046144e1565b611ce5565b3480156106d9575f80fd5b50610441600a5481565b3480156106ee575f80fd5b50600a54610441565b348015610702575f80fd5b50610441611d04565b348015610716575f80fd5b50610441600c5481565b34801561072b575f80fd5b5060025460ff166103d6565b348015610742575f80fd5b5061044160185481565b348015610757575f80fd5b50600e5461076d90640100000000900460ff1681565b60405160ff90911681526020016103e2565b34801561078a575f80fd5b50610793611d33565b6040805160ff909516855261ffff90931660208501529183015260608201526080016103e2565b3480156107c5575f80fd5b50600e546107d69063ffffffff1681565b60405163ffffffff90911681526020016103e2565b3480156107f6575f80fd5b506104a1611da1565b34801561080a575f80fd5b506013546103d69060ff1681565b348015610823575f80fd5b506104a1611e62565b348015610837575f80fd5b50600954610856906601000000000000900467ffffffffffffffff1681565b60405167ffffffffffffffff90911681526020016103e2565b34801561087a575f80fd5b5061040a6108893660046143fa565b611e94565b348015610899575f80fd5b506103d66108a8366004614434565b5f918252602082815260408084206001600160a01b0393909316845291905290205460ff1690565b3480156108db575f80fd5b506104a1611eab565b3480156108ef575f80fd5b50600b5461090390610100900461ffff1681565b60405161ffff90911681526020016103e2565b348015610921575f80fd5b5061044160085481565b348015610936575f80fd5b5061044160115481565b34801561094b575f80fd5b506104415f81565b34801561095e575f80fd5b5061097261096d3660046143e3565b611f02565b6040516103e2919061458a565b34801561098a575f80fd5b50610441600d5481565b34801561099f575f80fd5b506109dc6040518060400160405280600581526020017f352e302e3000000000000000000000000000000000000000000000000000000081525081565b6040516103e29190614603565b3480156109f4575f80fd5b50610441610a033660046143a9565b60166020525f908152604090205481565b348015610a1f575f80fd5b506106a6611f1b565b348015610a33575f80fd5b50610441610a423660046143e3565b612084565b348015610a52575f80fd5b5060055461040a906001600160a01b031681565b348015610a71575f80fd5b506103d6610a803660046143a9565b60106020525f908152604090205460ff1681565b348015610a9f575f80fd5b5061097261209a565b348015610ab3575f80fd5b50610441610ac23660046143a9565b60146020525f908152604090205481565b348015610ade575f80fd5b506104a1610aed366004614434565b6120fa565b348015610afd575f80fd5b50600b54610100900461ffff16610903565b348015610b1a575f80fd5b50610441610b293660046143a9565b60176020525f908152604090205481565b348015610b45575f80fd5b5060195461040a906001600160a01b031681565b348015610b64575f80fd5b50610b78610b733660046143a9565b61211e565b604080519586526020860194909452928401919091526060830152608082015260a0016103e2565b348015610bab575f80fd5b50600854610441565b348015610bbf575f80fd5b5061044161216c565b348015610bd3575f80fd5b5060135460ff166103d6565b348015610bea575f80fd5b50600b5460ff166103d6565b5f610c00826122ea565b92915050565b5f6015545f03610c1757505f919050565b6001600160a01b0382165f9081526014602052604081205490819003610c3f57505f92915050565b5f60155482601154610c519190614642565b610c5b9190614686565b6001600160a01b0385165f90815260166020526040902054909150808211610c83575f610c8d565b610c8d81836146be565b95945050505050565b7f02509c39826ef4d4fc9a6478dd388f892df655e831b495ea37e26344d4c48aca610cc08161233f565b610cc8612349565b60135460ff1615610d05576040517fda902c5c00000000000000000000000000000000000000000000000000000000815260040160405180910390fd5b610d0d612386565b50600b805461ffff8416610100027fffffffffffffffffffffffffffffffffffffffffffffffffffffffffff0000ff9091161790556007546040517fdcfd3c456c7f42d94d236adab85854a7074ef2c12fcf2d907729a9c87220154291610d8291859091825261ffff16602082015260400190565b60405180910390a15050565b335f9081527fad3228b676f7d3cd4284a5443f17f1962b36e491b30a40b2405849e597ba5fb5602052604090205460ff16158015610dfa5750335f9081527f419147074a8a0b83722181d4e0e5dc044f3b2854438503867308dada50203372602052604090205460ff16155b15610e3e576040517fa4e1a97e0000000000000000000000000000000000000000000000000000000081523360048201525f60248201526044015b60405180910390fd5b60135460ff1615610e7b576040517fda902c5c00000000000000000000000000000000000000000000000000000000815260040160405180910390fd5b600a546011541015610eb9576040517f5563445200000000000000000000000000000000000000000000000000000000815260040160405180910390fd5b610ec161248c565b565b610ecb612520565b610ed3612349565b600b5460ff1615610f10576040517ff3e84c4c00000000000000000000000000000000000000000000000000000000815260040160405180910390fd5b805f03610f49576040517f8ff9ef0b00000000000000000000000000000000000000000000000000000000815260040160405180910390fd5b610f556006600a6147ea565b610f6090600a614642565b811015610fb357610f736006600a6147ea565b610f7e90600a614642565b6040517fbec095db000000000000000000000000000000000000000000000000000000008152600401610e3591815260200190565b600a545f610fc183836147f8565b9050600854811115611005576008546040517fa97a18a5000000000000000000000000000000000000000000000000000000008152600401610e3591815260200190565b600a819055335f90815260146020526040812080548592906110289084906147f8565b925050819055508260155f82825461104091906147f8565b9091555050335f9081526010602052604090205460ff166110cf57335f818152601060205260408120805460ff19166001908117909155600f805491820181559091527f8d1108e10bcb7c27dddfc02ed9d693a074039d026cf4ea4240b40f7d581ac8020180547fffffffffffffffffffffffff00000000000000000000000000000000000000001690911790555b600e5463ffffffff16421115611111576040517f70f65caa00000000000000000000000000000000000000000000000000000000815260040160405180910390fd5b600454611129906001600160a01b0316333086612563565b600854810361113a5761113a6125df565b600a5460405133917f9e9d071824fd57d062ca63fd8b786d8da48a6807eebbcb2d83f9e8d21398e28c9161117691878252602082015260400190565b60405180910390a2505061118a6001600355565b50565b600b545f9060ff166111a25750600854610c00565b6011546008546111b291906146be565b9392505050565b5f6111c2612ae3565b805490915060ff68010000000000000000820416159067ffffffffffffffff165f811580156111ee5750825b90505f8267ffffffffffffffff16600114801561120a5750303b155b905081158015611218575080155b1561124f576040517ff92ee8a900000000000000000000000000000000000000000000000000000000815260040160405180910390fd5b84547fffffffffffffffffffffffffffffffffffffffffffffffff000000000000000016600117855583156112b05784547fffffffffffffffffffffffffffffffffffffffffffffff00ffffffffffffffff16680100000000000000001785555b6113176112c060208801886143a9565b6112d06040890160208a016143a9565b6112e060608a0160408b016143a9565b6112f060808b0160608c016143a9565b61130060a08c0160808d016143a9565b6113126101608d016101408e016143a9565b612b0b565b8560c001355f03611354576040517fd11b25af00000000000000000000000000000000000000000000000000000000815260040160405180910390fd5b61136460408701602088016143a9565b600480547fffffffffffffffffffffffff0000000000000000000000000000000000000000166001600160a01b03929092169190911790556113ac60608701604088016143a9565b600580547fffffffffffffffffffffffff0000000000000000000000000000000000000000166001600160a01b03929092169190911790556113f460808701606088016143a9565b600680547fffffffffffffffffffffffff0000000000000000000000000000000000000000166001600160a01b039290921691909117905560a086013560075560c086013560085560e08601356018556114566101208701610100880161480b565b600980547fffffffffffffffffffffffffffffffffffffffffffffffffffff0000000000001665ffffffffffff9290921691909117905561149f610140870161012088016143c2565b600b805461ffff92909216610100027fffffffffffffffffffffffffffffffffffffffffffffffffffffffffff0000ff9092169190911790556114ea610160870161014088016143a9565b601980547fffffffffffffffffffffffff0000000000000000000000000000000000000000166001600160a01b039290921691909117905561156961153260208801886143a9565b61154260a0890160808a016143a9565b61155260808a0160608b016143a9565b6115646101808b016101608c016143a9565b612ba7565b5f600a8190556015819055600b805460ff1990811690915560138054909116905560118190556012819055600c556115a96101a087016101808801614830565b6115b99063ffffffff16426147f8565b600e80547fffffffffffffffffffffffffffffffffffffffffffffffffffffff00000000001663ffffffff929092169190911764010000000017905583156116565784547fffffffffffffffffffffffffffffffffffffffffffffff00ffffffffffffffff168555604051600181527fc7f505b2f371ae2175ee4913f4499e1f2633a7b5936321eed1cdaeb6115181d29060200160405180910390a15b505050505050565b5f828152602081905260409020600101546116788161233f565b6116828383612ca3565b50505050565b5f6015545f0361169957505f919050565b6001600160a01b0382165f90815260146020526040812054908190036116c157505f92915050565b5f601554826012546116d39190614642565b6116dd9190614686565b6001600160a01b0385165f90815260176020526040902054909150808211610c83575f610c8d565b6001600160a01b0381163314611747576040517f6697b23200000000000000000000000000000000000000000000000000000000815260040160405180910390fd5b6117518282612cd6565b505050565b7f65d7a28e3265b37a6474929f336521b332c1681b933f6cb9f3376673440d862a6117808161233f565b61118a612d01565b600f8181548110611797575f80fd5b5f918252602090912001546001600160a01b0316905081565b6117b8612520565b6117c0612349565b6117c8612386565b505f6117d333611688565b9050805f0361180e576040517f969bf72800000000000000000000000000000000000000000000000000000000815260040160405180910390fd5b335f908152601760205260408120805483929061182c9084906147f8565b9091555050600454611848906001600160a01b03163383612d53565b60405181815233907fc04825ba3f383b602255d2a13065a68e325c65c9e0ed5d031ea2b06f641873af906020015b60405180910390a250610ec16001600355565b611891612520565b611899612349565b600b5460ff16156118d6576040517ff3e84c4c00000000000000000000000000000000000000000000000000000000815260040160405180910390fd5b600e5463ffffffff164211611947576040517f8c3685b800000000000000000000000000000000000000000000000000000000815260206004820152601460248201527f446561646c696e65206e6f7420726561636865640000000000000000000000006044820152606401610e35565b600a545f036119b2576040517f8c3685b800000000000000000000000000000000000000000000000000000000815260206004820152601860248201527f4e6f20696e766573746d656e747320746f2072657475726e00000000000000006044820152606401610e35565b600e80547fffffffffffffffffffffffffffffffffffffffffffffffffffffff00ffffffff166406000000001790555f5b600f54811015611a60575f600f8281548110611a0157611a01614853565b5f9182526020808320909101546001600160a01b031680835260149091526040909120549091508015611a56576001600160a01b038083165f90815260146020526040812055600454611a5691168383612d53565b50506001016119e3565b505f600a819055601555600754600e5460405163ffffffff90911681527fdd5770a22999232b885aad0c62b1ccc11d763beec2c86124f4e7241ec946b9bf9060200160405180910390a2610ec16001600355565b5f80611abe612520565b611ac6612349565b7f51a687be621618bb42f5dcbb17ee3798544ce951156fd30a67d800a241b48019611af08161233f565b6007548514611b5b576040517f432f5b4a00000000000000000000000000000000000000000000000000000000815260206004820152601360248201527f50726f6a656374204944206d69736d61746368000000000000000000000000006044820152606401610e35565b60135460ff1615611b98576040517fda902c5c00000000000000000000000000000000000000000000000000000000815260040160405180910390fd5b835f03611baa575f8092509250611cd2565b611bb2612386565b505f601154600a54611bc491906146be565b90505f6b033b2e3c9fd0803ce8000000601554600c54611be49190614642565b611bee9190614686565b90505f8190505f6012548211611c04575f611c11565b601254611c1190836146be565b9050808810611c3a57945084611c2781896146be565b965083871115611c35578396505b611c41565b8795505f96505b8560125f828254611c5291906147f8565b925050819055508660115f828254611c6a91906147f8565b9091555050600a5460115410611c8857600a54601155611c8861248c565b6007546040805191825260208201899052810187905233907f9b4568b7aa4f12be9ecabfae89e1d1885c23877819acceb5b1f25738ffd9f75e9060600160405180910390a2505050505b50611cdd6001600355565b935093915050565b611ced612d84565b611cf682612e54565b611d008282612ebe565b5050565b5f611d0d612fbf565b507f360894a13ba1a3210667c828492db98dca3e2076cc3735a920a3ca505d382bbc5b90565b5f805f80600e60049054906101000a900460ff169350600854600a54612710611d5c9190614642565b611d669190614686565b600e549093504263ffffffff90911611611d80575f611d94565b600e54611d9490429063ffffffff166146be565b9150601254905090919293565b611da9612520565b611db1612349565b5f611dbb33610c06565b9050805f03611df6576040517f969bf72800000000000000000000000000000000000000000000000000000000815260040160405180910390fd5b335f9081526016602052604081208054839290611e149084906147f8565b9091555050600454611e30906001600160a01b03163383612d53565b60405181815233907f2e6100b89b43378c0aeb062f2df0cfaa63e4437abab6844b441f8e47cb31bec390602001611876565b7f65d7a28e3265b37a6474929f336521b332c1681b933f6cb9f3376673440d862a611e8c8161233f565b61118a613021565b5f8281526001602052604081206111b2908361305e565b5f611eb58161233f565b611ebd612349565b600b5460ff1615611efa576040517ff3e84c4c00000000000000000000000000000000000000000000000000000000815260040160405180910390fd5b61118a6125df565b5f818152600160205260409020606090610c0090613069565b5f80611f25612520565b611f2d612349565b611f35612386565b50611f3f33610c06565b9150611f4a33611688565b90505f611f5782846147f8565b9050805f03611f92576040517f969bf72800000000000000000000000000000000000000000000000000000000815260040160405180910390fd5b8215611fbc57335f9081526016602052604081208054859290611fb69084906147f8565b90915550505b8115611fe657335f9081526017602052604081208054849290611fe09084906147f8565b90915550505b600454611ffd906001600160a01b03163383612d53565b82156120395760405183815233907f2e6100b89b43378c0aeb062f2df0cfaa63e4437abab6844b441f8e47cb31bec39060200160405180910390a25b81156120755760405182815233907fc04825ba3f383b602255d2a13065a68e325c65c9e0ed5d031ea2b06f641873af9060200160405180910390a25b506120806001600355565b9091565b5f818152600160205260408120610c0090613075565b6060600f8054806020026020016040519081016040528092919081815260200182805480156120f057602002820191905f5260205f20905b81546001600160a01b031681526001909101906020018083116120d2575b5050505050905090565b5f828152602081905260409020600101546121148161233f565b6116828383612cd6565b6001600160a01b0381165f90815260146020908152604080832054601683528184205460179093529083205490928061215686610c06565b915061216186611688565b905091939590929450565b6013545f9060ff161561217e57505f90565b600b5460ff1661218d57505f90565b600d54600c54429067ffffffffffffffff8084169083161180156121b257505f601554115b15612276575f6121d16127105b600b54610100900461ffff169061307e565b90505f6121f1611d306121e48787614880565b67ffffffffffffffff1690565b90506301e133805f61220d612206611d308681565b8484613095565b90505f6122198261323f565b90505f61222a82633b9aca00614642565b90506122426b033b2e3c9fd0803ce8000000826146be565b6b033b2e3c9fd0803ce8000000612259838a614642565b6122639190614686565b61226d91906147f8565b96505050505050505b5f601154600a5461228791906146be565b90505f6b033b2e3c9fd0803ce8000000601554846122a59190614642565b6122af9190614686565b90505f8190505f60125482116122c5575f6122d2565b6012546122d290836146be565b90506122de81856147f8565b97505050505050505090565b5f7fffffffff0000000000000000000000000000000000000000000000000000000082167f5a05180f000000000000000000000000000000000000000000000000000000001480610c005750610c00826139b3565b61118a8133613a49565b60025460ff1615610ec1576040517fd93c066500000000000000000000000000000000000000000000000000000000815260040160405180910390fd5b600d545f904267ffffffffffffffff8083169082161115806123aa575060135460ff165b806123b85750600b5460ff16155b806123c35750601554155b156123d257600c549250505090565b5f6123de6127106121bf565b90505f6123f1611d306121e48686614880565b90506301e133805f612406612206611d308681565b90505f6124128261323f565b90505f61242382633b9aca00614642565b600c5490915061243f6b033b2e3c9fd0803ce8000000836146be565b6b033b2e3c9fd0803ce80000006124568484614642565b6124609190614686565b61246a91906147f8565b600c81905567ffffffffffffffff909816600d55509598975050505050505050565b60135460ff161561249957565b6013805460ff191660011790556124ae612386565b505f6b033b2e3c9fd0803ce8000000601554600c546124cd9190614642565b6124d79190614686565b600754601154604080519283526020830191909152810182905290915081907f4acb957de3799dd3d95bb7da6bcfbca6f5a33812d69ad37816ed87e79b6327d690606001610d82565b60026003540361255c576040517f3ee5aeb500000000000000000000000000000000000000000000000000000000815260040160405180910390fd5b6002600355565b6040516001600160a01b0384811660248301528381166044830152606482018390526116829186918216906323b872dd906084015b604051602081830303815290604052915060e01b6020820180517bffffffffffffffffffffffffffffffffffffffffffffffffffffffff8381831617835250505050613ab4565b600b5460ff16156125ec57565b600b805460ff191660011790556009805467ffffffffffffffff42811666010000000000009081027fffffffffffffffffffffffffffffffffffff0000000000000000ffffffffffff9093169290921792839055600e80546402000000007fffffffffffffffffffffffffffffffffffffffffffffffffffffff00ffffffff909116179055910416600d55600754600a546040517f352ce94da8e3109dc06c05ed84e8a0aaf9ce2c4329dfd10ad1190cf620048972926126b492908252602082015260400190565b60405180910390a1600a5415610ec157600554600a546004546126e5926001600160a01b0391821692911690612d53565b6019545f906001600160a01b0316156129e7576019546007546040517f2d3bc8570000000000000000000000000000000000000000000000000000000081526001600160a01b0390921691632d3bc857916127469160040190815260200190565b6020604051808303815f875af1925050508015612780575060408051601f3d908101601f1916820190925261277d918101906148a0565b60015b6128f15761278c6148b7565b806308c379a00361285457506127a06148cf565b806127ab5750612856565b6005546007546018546040519081526001600160a01b03909216917fc538a608f69fbfe24f023ca000ad9eef53d3bc0e808bb9e785fd5727f93445819060200160405180910390a361284e604051806060016040528060248152602001614b04602491396007546040518060400160405280600781526020017f526561736f6e3a0000000000000000000000000000000000000000000000000081525084613b39565b50612a0b565b505b3d80801561287f576040519150601f19603f3d011682016040523d82523d5f602084013e612884565b606091505b506005546007546018546040519081526001600160a01b03909216917fc538a608f69fbfe24f023ca000ad9eef53d3bc0e808bb9e785fd5727f93445819060200160405180910390a361284e604051806060016040528060398152602001614acb60399139600754613bb0565b6018548103612903576001915061284e565b6005546007546018546040519081526001600160a01b03909216917fc538a608f69fbfe24f023ca000ad9eef53d3bc0e808bb9e785fd5727f93445819060200160405180910390a361296f6040518060600160405280602d8152602001614b28602d9139600754613bb0565b61284e6040518060400160405280600981526020017f45787065637465643a00000000000000000000000000000000000000000000008152506018546040518060400160405280600981526020017f52656365697665643a000000000000000000000000000000000000000000000081525084613c23565b612a0b6040518060600160405280602a8152602001614a71602a9139600754613bb0565b5f81612a1957600a54612a29565b601854600a54612a2991906147f8565b6006546040517fdd92ffe5000000000000000000000000000000000000000000000000000000008152600481018390529192506001600160a01b03169063dd92ffe5906024015f604051808303815f87803b158015612a86575f80fd5b505af1925050508015612a97575060015b612abf57611d00604051806060016040528060388152602001614b5560389139600754613bb0565b611d00604051806060016040528060308152602001614a9b60309139600754613bb0565b5f807ff0c57e16840df040f15088dc2f81fe391c3923bec73e23a9662efc9c229c6a00610c00565b6001600160a01b0386161580612b2857506001600160a01b038516155b80612b3a57506001600160a01b038416155b80612b4c57506001600160a01b038316155b80612b5e57506001600160a01b038216155b80612b7057506001600160a01b038116155b15611656576040517f8579befe00000000000000000000000000000000000000000000000000000000815260040160405180910390fd5b612bb15f85612ca3565b50612bdc7f65d7a28e3265b37a6474929f336521b332c1681b933f6cb9f3376673440d862a85612ca3565b50612c077f189ab7a9244df0848122154315af71fe140f3db0fe014031783b0946b8c9d2e385612ca3565b50612c327f51a687be621618bb42f5dcbb17ee3798544ce951156fd30a67d800a241b4801984612ca3565b506001600160a01b03811615612c7257612c6c7f02509c39826ef4d4fc9a6478dd388f892df655e831b495ea37e26344d4c48aca82612ca3565b50611682565b612c9c7f02509c39826ef4d4fc9a6478dd388f892df655e831b495ea37e26344d4c48aca85612ca3565b5050505050565b5f80612caf8484613c9a565b905080156111b2575f848152600160205260409020612cce9084613d41565b509392505050565b5f80612ce28484613d55565b905080156111b2575f848152600160205260409020612cce9084613dd6565b612d09613dea565b6002805460ff191690557f5db9ee0a495bf2e6ff9c91a7834c1ba4fdd244a5e8aa4e537bd38aeae4b073aa335b6040516001600160a01b03909116815260200160405180910390a1565b6040516001600160a01b0383811660248301526044820183905261175191859182169063a9059cbb90606401612598565b306001600160a01b037f0000000000000000000000000000000000000000000000000000000000000000161480612e1d57507f00000000000000000000000000000000000000000000000000000000000000006001600160a01b0316612e117f360894a13ba1a3210667c828492db98dca3e2076cc3735a920a3ca505d382bbc546001600160a01b031690565b6001600160a01b031614155b15610ec1576040517fe07c8dba00000000000000000000000000000000000000000000000000000000815260040160405180910390fd5b7f189ab7a9244df0848122154315af71fe140f3db0fe014031783b0946b8c9d2e3612e7e8161233f565b6001600160a01b038216611d00576040517f8579befe00000000000000000000000000000000000000000000000000000000815260040160405180910390fd5b816001600160a01b03166352d1902d6040518163ffffffff1660e01b8152600401602060405180830381865afa925050508015612f18575060408051601f3d908101601f19168201909252612f15918101906148a0565b60015b612f59576040517f4c9c8ce30000000000000000000000000000000000000000000000000000000081526001600160a01b0383166004820152602401610e35565b7f360894a13ba1a3210667c828492db98dca3e2076cc3735a920a3ca505d382bbc8114612fb5576040517faa1d49a400000000000000000000000000000000000000000000000000000000815260048101829052602401610e35565b6117518383613e26565b306001600160a01b037f00000000000000000000000000000000000000000000000000000000000000001614610ec1576040517fe07c8dba00000000000000000000000000000000000000000000000000000000815260040160405180910390fd5b613029612349565b6002805460ff191660011790557f62e78cea01bee320cd4e420270b5ea74000d11b0c9f74754ebdbfc544b05a258612d363390565b5f6111b28383613e7b565b60605f6111b283613ea1565b5f610c00825490565b5f6111b2611d3084670de0b6b3a764000085613efa565b5f7f80000000000000000000000000000000000000000000000000000000000000008414806130e357507f800000000000000000000000000000000000000000000000000000000000000083145b8061310d57507f800000000000000000000000000000000000000000000000000000000000000082145b15613144576040517f96aa557200000000000000000000000000000000000000000000000000000000815260040160405180910390fd5b5f805f8087126131545786613158565b865f035b92505f8612613167578561316b565b855f035b91505f851261317a578461317e565b845f035b90505f61318c848484613efa565b90507f7fffffffffffffffffffffffffffffffffffffffffffffffffffffffffffffff8111156131f2576040517f1832b7bd0000000000000000000000000000000000000000000000000000000081526004810189905260248101889052604401610e35565b7fffffffffffffffffffffffffffffffffffffffffffffffffffffffffffffffff80891390808913908813818318811461322c5783613230565b835f035b9b9a5050505050505050505050565b7780000000000000000000000000000000000000000000000067ff00000000000000821615613360576780000000000000008216156132875768016a09e667f3bcc9090260401c5b6740000000000000008216156132a6576801306fe0a31b7152df0260401c5b6720000000000000008216156132c5576801172b83c7d517adce0260401c5b6710000000000000008216156132e45768010b5586cf9890f62a0260401c5b670800000000000000821615613303576801059b0d31585743ae0260401c5b67040000000000000082161561332257680102c9a3e778060ee70260401c5b6702000000000000008216156133415768010163da9fb33356d80260401c5b67010000000000000082161561336057680100b1afa5abcbed610260401c5b66ff00000000000082161561345f57668000000000000082161561338d5768010058c86da1c09ea20260401c5b66400000000000008216156133ab576801002c605e2e8cec500260401c5b66200000000000008216156133c957680100162f3904051fa10260401c5b66100000000000008216156133e7576801000b175effdc76ba0260401c5b660800000000000082161561340557680100058ba01fb9f96d0260401c5b66040000000000008216156134235768010002c5cc37da94920260401c5b6602000000000000821615613441576801000162e525ee05470260401c5b660100000000000082161561345f5768010000b17255775c040260401c5b65ff0000000000821615613555576580000000000082161561348a576801000058b91b5bc9ae0260401c5b654000000000008216156134a757680100002c5c89d5ec6d0260401c5b652000000000008216156134c45768010000162e43f4f8310260401c5b651000000000008216156134e157680100000b1721bcfc9a0260401c5b650800000000008216156134fe5768010000058b90cf1e6e0260401c5b6504000000000082161561351b576801000002c5c863b73f0260401c5b6502000000000082161561353857680100000162e430e5a20260401c5b65010000000000821615613555576801000000b1721835510260401c5b64ff000000008216156136425764800000000082161561357e57680100000058b90c0b490260401c5b64400000000082161561359a5768010000002c5c8601cc0260401c5b6420000000008216156135b6576801000000162e42fff00260401c5b6410000000008216156135d25768010000000b17217fbb0260401c5b6408000000008216156135ee576801000000058b90bfce0260401c5b64040000000082161561360a57680100000002c5c85fe30260401c5b6402000000008216156136265768010000000162e42ff10260401c5b64010000000082161561364257680100000000b17217f80260401c5b63ff0000008216156137265763800000008216156136695768010000000058b90bfc0260401c5b6340000000821615613684576801000000002c5c85fe0260401c5b632000000082161561369f57680100000000162e42ff0260401c5b63100000008216156136ba576801000000000b17217f0260401c5b63080000008216156136d557680100000000058b90c00260401c5b63040000008216156136f05768010000000002c5c8600260401c5b630200000082161561370b576801000000000162e4300260401c5b63010000008216156137265768010000000000b172180260401c5b62ff0000821615613801576280000082161561374b576801000000000058b90c0260401c5b6240000082161561376557680100000000002c5c860260401c5b6220000082161561377f5768010000000000162e430260401c5b6210000082161561379957680100000000000b17210260401c5b620800008216156137b35768010000000000058b910260401c5b620400008216156137cd576801000000000002c5c80260401c5b620200008216156137e757680100000000000162e40260401c5b62010000821615613801576801000000000000b1720260401c5b61ff008216156138d35761800082161561382457680100000000000058b90260401c5b61400082161561383d5768010000000000002c5d0260401c5b612000821615613856576801000000000000162e0260401c5b61100082161561386f5768010000000000000b170260401c5b610800821615613888576801000000000000058c0260401c5b6104008216156138a157680100000000000002c60260401c5b6102008216156138ba57680100000000000001630260401c5b6101008216156138d357680100000000000000b10260401c5b60ff82161561399c5760808216156138f457680100000000000000590260401c5b604082161561390c576801000000000000002c0260401c5b602082161561392457680100000000000000160260401c5b601082161561393c576801000000000000000b0260401c5b600882161561395457680100000000000000060260401c5b600482161561396c57680100000000000000030260401c5b600282161561398457680100000000000000010260401c5b600182161561399c57680100000000000000010260401c5b670de0b6b3a76400000260409190911c60bf031c90565b5f7fffffffff0000000000000000000000000000000000000000000000000000000082167f7965db0b000000000000000000000000000000000000000000000000000000001480610c0057507f01ffc9a7000000000000000000000000000000000000000000000000000000007fffffffff00000000000000000000000000000000000000000000000000000000831614610c00565b5f828152602081815260408083206001600160a01b038516845290915290205460ff16611d00576040517fe2517d3f0000000000000000000000000000000000000000000000000000000081526001600160a01b038216600482015260248101839052604401610e35565b5f8060205f8451602086015f885af180613ad3576040513d5f823e3d81fd5b50505f513d91508115613aea578060011415613af7565b6001600160a01b0384163b155b15611682576040517f5274afe70000000000000000000000000000000000000000000000000000000081526001600160a01b0385166004820152602401610e35565b61168284848484604051602401613b539493929190614987565b60408051601f198184030181529190526020810180517bffffffffffffffffffffffffffffffffffffffffffffffffffffffff167f5ab84e1f00000000000000000000000000000000000000000000000000000000179052614000565b611d008282604051602401613bc69291906149d0565b60408051601f198184030181529190526020810180517bffffffffffffffffffffffffffffffffffffffffffffffffffffffff167fb60e72cc00000000000000000000000000000000000000000000000000000000179052614000565b61168284848484604051602401613c3d94939291906149f1565b60408051601f198184030181529190526020810180517bffffffffffffffffffffffffffffffffffffffffffffffffffffffff167fc67ea9d100000000000000000000000000000000000000000000000000000000179052614000565b5f828152602081815260408083206001600160a01b038516845290915281205460ff16613d3a575f838152602081815260408083206001600160a01b03861684529091529020805460ff19166001179055613cf23390565b6001600160a01b0316826001600160a01b0316847f2f8788117e7eff1d82e926ec794901d17c78024a50270940304540a733656f0d60405160405180910390a4506001610c00565b505f610c00565b5f6111b2836001600160a01b038416614009565b5f828152602081815260408083206001600160a01b038516845290915281205460ff1615613d3a575f838152602081815260408083206001600160a01b0386168085529252808320805460ff1916905551339286917ff6391f5c32d9c69d2a47ea670b442974b53935d1edc7fd64eb21e047a839171b9190a4506001610c00565b5f6111b2836001600160a01b03841661404e565b60025460ff16610ec1576040517f8dfc202b00000000000000000000000000000000000000000000000000000000815260040160405180910390fd5b613e2f82614131565b6040516001600160a01b038316907fbc7cd75a20ee27fd9adebab32041f755214dbc6bffa90cc0225b39da2e5c2d3b905f90a2805115613e735761175182826141d8565b611d00614241565b5f825f018281548110613e9057613e90614853565b905f5260205f200154905092915050565b6060815f01805480602002602001604051908101604052809291908181526020018280548015613eee57602002820191905f5260205f20905b815481526020019060010190808311613eda575b50505050509050919050565b5f80807fffffffffffffffffffffffffffffffffffffffffffffffffffffffffffffffff858709858702925082811083820303915050805f03613f5057838281613f4657613f46614659565b04925050506111b2565b838110613f9a576040517f63a05778000000000000000000000000000000000000000000000000000000008152600481018790526024810186905260448101859052606401610e35565b5f84868809600260036001881981018916988990049182028318808302840302808302840302808302840302808302840302808302840302918202909203025f889003889004909101858311909403939093029303949094049190911702949350505050565b61118a81614279565b5f818152600183016020526040812054613d3a57508154600181810184555f848152602080822090930184905584548482528286019093526040902091909155610c00565b5f8181526001830160205260408120548015614128575f6140706001836146be565b85549091505f90614083906001906146be565b90508082146140e2575f865f0182815481106140a1576140a1614853565b905f5260205f200154905080875f0184815481106140c1576140c1614853565b5f918252602080832090910192909255918252600188019052604090208390555b85548690806140f3576140f3614a2d565b600190038181905f5260205f20015f90559055856001015f8681526020019081526020015f205f905560019350505050610c00565b5f915050610c00565b806001600160a01b03163b5f0361417f576040517f4c9c8ce30000000000000000000000000000000000000000000000000000000081526001600160a01b0382166004820152602401610e35565b7f360894a13ba1a3210667c828492db98dca3e2076cc3735a920a3ca505d382bbc80547fffffffffffffffffffffffff0000000000000000000000000000000000000000166001600160a01b0392909216919091179055565b60605f80846001600160a01b0316846040516141f49190614a5a565b5f60405180830381855af49150503d805f811461422c576040519150601f19603f3d011682016040523d82523d5f602084013e614231565b606091505b5091509150610c8d858383614298565b3415610ec1576040517fb398979f00000000000000000000000000000000000000000000000000000000815260040160405180910390fd5b5f6a636f6e736f6c652e6c6f6790505f80835160208501845afa505050565b6060826142ad576142a88261430d565b6111b2565b81511580156142c457506001600160a01b0384163b155b15614306576040517f9996b3150000000000000000000000000000000000000000000000000000000081526001600160a01b0385166004820152602401610e35565b50806111b2565b80511561431d5780518082602001fd5b6040517fd6bda27500000000000000000000000000000000000000000000000000000000815260040160405180910390fd5b5f6020828403121561435f575f80fd5b81357fffffffff00000000000000000000000000000000000000000000000000000000811681146111b2575f80fd5b80356001600160a01b03811681146143a4575f80fd5b919050565b5f602082840312156143b9575f80fd5b6111b28261438e565b5f602082840312156143d2575f80fd5b813561ffff811681146111b2575f80fd5b5f602082840312156143f3575f80fd5b5035919050565b5f806040838503121561440b575f80fd5b50508035926020909101359150565b5f6101a082840312801561442c575f80fd5b509092915050565b5f8060408385031215614445575f80fd5b823591506144556020840161438e565b90509250929050565b5f805f60608486031215614470575f80fd5b505081359360208301359350604090920135919050565b7f4e487b71000000000000000000000000000000000000000000000000000000005f52604160045260245ffd5b601f19601f830116810181811067ffffffffffffffff821117156144da576144da614487565b6040525050565b5f80604083850312156144f2575f80fd5b6144fb8361438e565b9150602083013567ffffffffffffffff811115614516575f80fd5b8301601f81018513614526575f80fd5b803567ffffffffffffffff81111561454057614540614487565b6040516145576020601f19601f85011601826144b4565b81815286602083850101111561456b575f80fd5b816020840160208301375f602083830101528093505050509250929050565b602080825282518282018190525f918401906040840190835b818110156145ca5783516001600160a01b03168352602093840193909201916001016145a3565b509095945050505050565b5f81518084528060208401602086015e5f602082860101526020601f19601f83011685010191505092915050565b602081525f6111b260208301846145d5565b7f4e487b71000000000000000000000000000000000000000000000000000000005f52601160045260245ffd5b8082028115828204841417610c0057610c00614615565b7f4e487b71000000000000000000000000000000000000000000000000000000005f52601260045260245ffd5b5f826146b9577f4e487b71000000000000000000000000000000000000000000000000000000005f52601260045260245ffd5b500490565b81810381811115610c0057610c00614615565b6001815b6001841115611cdd578085048111156146f0576146f0614615565b60018416156146fe57908102905b60019390931c9280026146d5565b5f8261471a57506001610c00565b8161472657505f610c00565b816001811461473c576002811461474657614762565b6001915050610c00565b60ff84111561475757614757614615565b50506001821b610c00565b5060208310610133831016604e8410600b8410161715614785575081810a610c00565b6147b07fffffffffffffffffffffffffffffffffffffffffffffffffffffffffffffffff84846146d1565b807fffffffffffffffffffffffffffffffffffffffffffffffffffffffffffffffff048211156147e2576147e2614615565b029392505050565b5f6111b260ff84168361470c565b80820180821115610c0057610c00614615565b5f6020828403121561481b575f80fd5b813565ffffffffffff811681146111b2575f80fd5b5f60208284031215614840575f80fd5b813563ffffffff811681146111b2575f80fd5b7f4e487b71000000000000000000000000000000000000000000000000000000005f52603260045260245ffd5b67ffffffffffffffff8281168282160390811115610c0057610c00614615565b5f602082840312156148b0575f80fd5b5051919050565b5f60033d1115611d305760045f803e505f5160e01c90565b5f60443d10156148dc5790565b6040517ffffffffffffffffffffffffffffffffffffffffffffffffffffffffffffffffc3d016004823e80513d602482011167ffffffffffffffff8211171561492457505090565b808201805167ffffffffffffffff811115614940575050505090565b7ffffffffffffffffffffffffffffffffffffffffffffffffffffffffffffffffc3d8501016020828401011115614978575050505090565b612cce602082850101856144b4565b608081525f61499960808301876145d5565b85602084015282810360408401526149b181866145d5565b905082810360608401526149c581856145d5565b979650505050505050565b604081525f6149e260408301856145d5565b90508260208301529392505050565b608081525f614a0360808301876145d5565b8560208401528281036040840152614a1b81866145d5565b91505082606083015295945050505050565b7f4e487b71000000000000000000000000000000000000000000000000000000005f52603160045260245ffd5b5f82518060208501845e5f92019182525091905056fe4e6f206465706f73697420657363726f7720616464726573732073657420666f722070726f6a6563743a457363726f77206e6f746966696564206f662066756e64696e6720636f6d706c65746520666f722070726f6a6563743a4465706f736974207472616e73666572206661696c656420666f722070726f6a6563742077697468206c6f772d6c6576656c206572726f723a4465706f736974207472616e73666572206661696c656420666f722070726f6a6563743a4465706f736974207472616e7366657220616d6f756e74206d69736d6174636820666f722070726f6a6563743a4661696c656420746f206e6f7469667920657363726f77206f662066756e64696e6720636f6d706c65746520666f722070726f6a6563743aa26469706673582212208b4cd34a0e30514761f51b2724a03d6ce01d5553cbc9a87d74d60bcde11e020464736f6c634300081a0033",
    "linkReferences": {}
  },
  "methodIdentifiers": {
    "DEFAULT_ADMIN_ROLE()": "a217fddf",
    "UPGRADE_INTERFACE_VERSION()": "ad3cb1cc",
    "accruedInterestPerShare_RAY()": "5ae4cbf0",
    "cancelFundingAfterDeadline()": "46a2c87f",
    "claimPrincipal()": "7ba32ee3",
    "claimYield()": "406cf229",
    "claimablePrincipal(address)": "0ce77ca3",
    "claimableYield(address)": "3180afec",
    "closeFundingManually()": "99fb9f04",
    "closeLoan()": "232fa733",
    "currentAprBps()": "9b9ee663",
    "depositEscrowAddress()": "e7559260",
    "devEscrow()": "03e89a8c",
    "developer()": "ca4b208b",
    "developerDeposit()": "68a18855",
    "fundingClosed()": "2116da5b",
    "fundingDeadline()": "796b23bb",
    "getAllInvestors()": "d0a2f2c4",
    "getCurrentAprBps()": "d84065f9",
    "getInvestorDetails(address)": "efab1e50",
    "getLoanAmount()": "f4b01b18",
    "getOutstandingPrincipal(uint256,uint256)": "2d6af4d5",
    "getPrincipalRepaid()": "1916f16f",
    "getProjectSummary()": "790b1556",
    "getRoleAdmin(bytes32)": "248a9ca3",
    "getRoleMember(bytes32,uint256)": "9010d07c",
    "getRoleMemberCount(bytes32)": "ca15c873",
    "getRoleMembers(bytes32)": "a3246ad3",
    "getTotalAssetsInvested()": "5204b10a",
    "grantRole(bytes32,address)": "2f2ff15d",
    "handleRepayment(uint256,uint256,uint256)": "496179ac",
    "hasRole(bytes32,address)": "91d14854",
    "initialize((address,address,address,address,address,uint256,uint256,uint256,uint48,uint16,address,address,uint32))": "2e6ec85e",
    "interestClaimedByInvestor(address)": "da7806e6",
    "interestRepaid()": "2a2b3a20",
    "invest(uint256)": "2afcf480",
    "investorShares(address)": "d3690b6a",
    "investors(uint256)": "3feb5f2b",
    "isFundingClosed()": "ffaa6269",
    "isInvestor(address)": "cee2a9cf",
    "isLoanClosed()": "fdd2d577",
    "lastInterestAccrualTimestamp()": "a5ddc864",
    "loanAmount()": "9d585f7f",
    "loanClosed()": "838dfaa4",
    "loanStartTime()": "850c4ca0",
    "loanTenor()": "417cd4b6",
    "pause()": "8456cb59",
    "paused()": "5c975abb",
    "principalClaimedByInvestor(address)": "b6cbc5f0",
    "principalRepaid()": "a05f0986",
    "projectId()": "3fafa127",
    "projectState()": "748807ab",
    "proxiableUUID()": "52d1902d",
    "redeem()": "be040fb0",
    "renounceRole(bytes32,address)": "36568abe",
    "revokeRole(bytes32,address)": "d547741f",
    "supportsInterface(bytes4)": "01ffc9a7",
    "totalAssetsInvested()": "4fd6403c",
    "totalDebt()": "fc7b9c18",
    "totalShares()": "3a98ef39",
    "unpause()": "3f4ba83a",
    "updateRiskParams(uint16)": "1940fe31",
    "upgradeToAndCall(address,bytes)": "4f1ef286",
    "usdcToken()": "11eac855"
  },
  "id": 110
}