{
  "abi": [
    {
      "type": "function",
      "name": "DEFAULT_ADMIN_ROLE",
      "inputs": [],
      "outputs": [
        {
          "name": "",
          "type": "bytes32",
          "internalType": "bytes32"
        }
      ],
      "stateMutability": "view"
    },
    {
      "type": "function",
      "name": "UPGRADE_INTERFACE_VERSION",
      "inputs": [],
      "outputs": [
        {
          "name": "",
          "type": "string",
          "internalType": "string"
        }
      ],
      "stateMutability": "view"
    },
    {
      "type": "function",
      "name": "accruedInterestPerShare_RAY",
      "inputs": [],
      "outputs": [
        {
          "name": "",
          "type": "uint256",
          "internalType": "uint256"
        }
      ],
      "stateMutability": "view"
    },
    {
      "type": "function",
      "name": "claimPrincipal",
      "inputs": [],
      "outputs": [],
      "stateMutability": "nonpayable"
    },
    {
      "type": "function",
      "name": "claimYield",
      "inputs": [],
      "outputs": [],
      "stateMutability": "nonpayable"
    },
    {
      "type": "function",
      "name": "claimablePrincipal",
      "inputs": [
        {
          "name": "investor",
          "type": "address",
          "internalType": "address"
        }
      ],
      "outputs": [
        {
          "name": "",
          "type": "uint256",
          "internalType": "uint256"
        }
      ],
      "stateMutability": "view"
    },
    {
      "type": "function",
      "name": "claimableYield",
      "inputs": [
        {
          "name": "investor",
          "type": "address",
          "internalType": "address"
        }
      ],
      "outputs": [
        {
          "name": "",
          "type": "uint256",
          "internalType": "uint256"
        }
      ],
      "stateMutability": "view"
    },
    {
      "type": "function",
      "name": "closeFundingManually",
      "inputs": [],
      "outputs": [],
      "stateMutability": "nonpayable"
    },
    {
      "type": "function",
      "name": "closeLoan",
      "inputs": [],
      "outputs": [],
      "stateMutability": "nonpayable"
    },
    {
      "type": "function",
      "name": "currentAprBps",
      "inputs": [],
      "outputs": [
        {
          "name": "",
          "type": "uint16",
          "internalType": "uint16"
        }
      ],
      "stateMutability": "view"
    },
    {
      "type": "function",
      "name": "depositEscrowAddress",
      "inputs": [],
      "outputs": [
        {
          "name": "",
          "type": "address",
          "internalType": "address"
        }
      ],
      "stateMutability": "view"
    },
    {
      "type": "function",
      "name": "devEscrow",
      "inputs": [],
      "outputs": [
        {
          "name": "",
          "type": "address",
          "internalType": "contract IDevEscrow"
        }
      ],
      "stateMutability": "view"
    },
    {
      "type": "function",
      "name": "developer",
      "inputs": [],
      "outputs": [
        {
          "name": "",
          "type": "address",
          "internalType": "address"
        }
      ],
      "stateMutability": "view"
    },
    {
      "type": "function",
      "name": "developerDeposit",
      "inputs": [],
      "outputs": [
        {
          "name": "",
          "type": "uint256",
          "internalType": "uint256"
        }
      ],
      "stateMutability": "view"
    },
    {
      "type": "function",
      "name": "fundingClosed",
      "inputs": [],
      "outputs": [
        {
          "name": "",
          "type": "bool",
          "internalType": "bool"
        }
      ],
      "stateMutability": "view"
    },
    {
      "type": "function",
      "name": "getCurrentAprBps",
      "inputs": [],
      "outputs": [
        {
          "name": "",
          "type": "uint16",
          "internalType": "uint16"
        }
      ],
      "stateMutability": "view"
    },
    {
      "type": "function",
      "name": "getLoanAmount",
      "inputs": [],
      "outputs": [
        {
          "name": "",
          "type": "uint256",
          "internalType": "uint256"
        }
      ],
      "stateMutability": "view"
    },
    {
      "type": "function",
      "name": "getOutstandingPrincipal",
      "inputs": [
        {
          "name": "",
          "type": "uint256",
          "internalType": "uint256"
        },
        {
          "name": "",
          "type": "uint256",
          "internalType": "uint256"
        }
      ],
      "outputs": [
        {
          "name": "",
          "type": "uint256",
          "internalType": "uint256"
        }
      ],
      "stateMutability": "view"
    },
    {
      "type": "function",
      "name": "getPrincipalRepaid",
      "inputs": [],
      "outputs": [
        {
          "name": "",
          "type": "uint256",
          "internalType": "uint256"
        }
      ],
      "stateMutability": "view"
    },
    {
      "type": "function",
      "name": "getRoleAdmin",
      "inputs": [
        {
          "name": "role",
          "type": "bytes32",
          "internalType": "bytes32"
        }
      ],
      "outputs": [
        {
          "name": "",
          "type": "bytes32",
          "internalType": "bytes32"
        }
      ],
      "stateMutability": "view"
    },
    {
      "type": "function",
      "name": "getRoleMember",
      "inputs": [
        {
          "name": "role",
          "type": "bytes32",
          "internalType": "bytes32"
        },
        {
          "name": "index",
          "type": "uint256",
          "internalType": "uint256"
        }
      ],
      "outputs": [
        {
          "name": "",
          "type": "address",
          "internalType": "address"
        }
      ],
      "stateMutability": "view"
    },
    {
      "type": "function",
      "name": "getRoleMemberCount",
      "inputs": [
        {
          "name": "role",
          "type": "bytes32",
          "internalType": "bytes32"
        }
      ],
      "outputs": [
        {
          "name": "",
          "type": "uint256",
          "internalType": "uint256"
        }
      ],
      "stateMutability": "view"
    },
    {
      "type": "function",
      "name": "getRoleMembers",
      "inputs": [
        {
          "name": "role",
          "type": "bytes32",
          "internalType": "bytes32"
        }
      ],
      "outputs": [
        {
          "name": "",
          "type": "address[]",
          "internalType": "address[]"
        }
      ],
      "stateMutability": "view"
    },
    {
      "type": "function",
      "name": "getTotalAssetsInvested",
      "inputs": [],
      "outputs": [
        {
          "name": "",
          "type": "uint256",
          "internalType": "uint256"
        }
      ],
      "stateMutability": "view"
    },
    {
      "type": "function",
      "name": "grantRole",
      "inputs": [
        {
          "name": "role",
          "type": "bytes32",
          "internalType": "bytes32"
        },
        {
          "name": "account",
          "type": "address",
          "internalType": "address"
        }
      ],
      "outputs": [],
      "stateMutability": "nonpayable"
    },
    {
      "type": "function",
      "name": "handleRepayment",
      "inputs": [
        {
          "name": "",
          "type": "uint256",
          "internalType": "uint256"
        },
        {
          "name": "_projectId",
          "type": "uint256",
          "internalType": "uint256"
        },
        {
          "name": "netAmountReceived",
          "type": "uint256",
          "internalType": "uint256"
        }
      ],
      "outputs": [
        {
          "name": "principalPaid",
          "type": "uint256",
          "internalType": "uint256"
        },
        {
          "name": "interestPaid",
          "type": "uint256",
          "internalType": "uint256"
        }
      ],
      "stateMutability": "nonpayable"
    },
    {
      "type": "function",
      "name": "hasRole",
      "inputs": [
        {
          "name": "role",
          "type": "bytes32",
          "internalType": "bytes32"
        },
        {
          "name": "account",
          "type": "address",
          "internalType": "address"
        }
      ],
      "outputs": [
        {
          "name": "",
          "type": "bool",
          "internalType": "bool"
        }
      ],
      "stateMutability": "view"
    },
    {
      "type": "function",
      "name": "initialize",
      "inputs": [
        {
          "name": "params",
          "type": "tuple",
          "internalType": "struct IProjectVault.InitParams",
          "components": [
            {
              "name": "admin",
              "type": "address",
              "internalType": "address"
            },
            {
              "name": "usdcToken",
              "type": "address",
              "internalType": "address"
            },
            {
              "name": "developer",
              "type": "address",
              "internalType": "address"
            },
            {
              "name": "devEscrow",
              "type": "address",
              "internalType": "address"
            },
            {
              "name": "repaymentRouter",
              "type": "address",
              "internalType": "address"
            },
            {
              "name": "projectId",
              "type": "uint256",
              "internalType": "uint256"
            },
            {
              "name": "financedAmount",
              "type": "uint256",
              "internalType": "uint256"
            },
            {
              "name": "developerDeposit",
              "type": "uint256",
              "internalType": "uint256"
            },
            {
              "name": "loanTenor",
              "type": "uint48",
              "internalType": "uint48"
            },
            {
              "name": "initialAprBps",
              "type": "uint16",
              "internalType": "uint16"
            },
            {
              "name": "depositEscrowAddress",
              "type": "address",
              "internalType": "address"
            },
            {
              "name": "riskOracleAdapter",
              "type": "address",
              "internalType": "address"
            }
          ]
        }
      ],
      "outputs": [],
      "stateMutability": "nonpayable"
    },
    {
      "type": "function",
      "name": "interestClaimedByInvestor",
      "inputs": [
        {
          "name": "",
          "type": "address",
          "internalType": "address"
        }
      ],
      "outputs": [
        {
          "name": "",
          "type": "uint256",
          "internalType": "uint256"
        }
      ],
      "stateMutability": "view"
    },
    {
      "type": "function",
      "name": "interestRepaid",
      "inputs": [],
      "outputs": [
        {
          "name": "",
          "type": "uint256",
          "internalType": "uint256"
        }
      ],
      "stateMutability": "view"
    },
    {
      "type": "function",
      "name": "invest",
      "inputs": [
        {
          "name": "amount",
          "type": "uint256",
          "internalType": "uint256"
        }
      ],
      "outputs": [],
      "stateMutability": "nonpayable"
    },
    {
      "type": "function",
      "name": "investorShares",
      "inputs": [
        {
          "name": "",
          "type": "address",
          "internalType": "address"
        }
      ],
      "outputs": [
        {
          "name": "",
          "type": "uint256",
          "internalType": "uint256"
        }
      ],
      "stateMutability": "view"
    },
    {
      "type": "function",
      "name": "isFundingClosed",
      "inputs": [],
      "outputs": [
        {
          "name": "",
          "type": "bool",
          "internalType": "bool"
        }
      ],
      "stateMutability": "view"
    },
    {
      "type": "function",
      "name": "isLoanClosed",
      "inputs": [],
      "outputs": [
        {
          "name": "",
          "type": "bool",
          "internalType": "bool"
        }
      ],
      "stateMutability": "view"
    },
    {
      "type": "function",
      "name": "lastInterestAccrualTimestamp",
      "inputs": [],
      "outputs": [
        {
          "name": "",
          "type": "uint256",
          "internalType": "uint256"
        }
      ],
      "stateMutability": "view"
    },
    {
      "type": "function",
      "name": "loanAmount",
      "inputs": [],
      "outputs": [
        {
          "name": "",
          "type": "uint256",
          "internalType": "uint256"
        }
      ],
      "stateMutability": "view"
    },
    {
      "type": "function",
      "name": "loanClosed",
      "inputs": [],
      "outputs": [
        {
          "name": "",
          "type": "bool",
          "internalType": "bool"
        }
      ],
      "stateMutability": "view"
    },
    {
      "type": "function",
      "name": "loanStartTime",
      "inputs": [],
      "outputs": [
        {
          "name": "",
          "type": "uint64",
          "internalType": "uint64"
        }
      ],
      "stateMutability": "view"
    },
    {
      "type": "function",
      "name": "loanTenor",
      "inputs": [],
      "outputs": [
        {
          "name": "",
          "type": "uint48",
          "internalType": "uint48"
        }
      ],
      "stateMutability": "view"
    },
    {
      "type": "function",
      "name": "pause",
      "inputs": [],
      "outputs": [],
      "stateMutability": "nonpayable"
    },
    {
      "type": "function",
      "name": "paused",
      "inputs": [],
      "outputs": [
        {
          "name": "",
          "type": "bool",
          "internalType": "bool"
        }
      ],
      "stateMutability": "view"
    },
    {
      "type": "function",
      "name": "principalClaimedByInvestor",
      "inputs": [
        {
          "name": "",
          "type": "address",
          "internalType": "address"
        }
      ],
      "outputs": [
        {
          "name": "",
          "type": "uint256",
          "internalType": "uint256"
        }
      ],
      "stateMutability": "view"
    },
    {
      "type": "function",
      "name": "principalRepaid",
      "inputs": [],
      "outputs": [
        {
          "name": "",
          "type": "uint256",
          "internalType": "uint256"
        }
      ],
      "stateMutability": "view"
    },
    {
      "type": "function",
      "name": "projectId",
      "inputs": [],
      "outputs": [
        {
          "name": "",
          "type": "uint256",
          "internalType": "uint256"
        }
      ],
      "stateMutability": "view"
    },
    {
      "type": "function",
      "name": "proxiableUUID",
      "inputs": [],
      "outputs": [
        {
          "name": "",
          "type": "bytes32",
          "internalType": "bytes32"
        }
      ],
      "stateMutability": "view"
    },
    {
      "type": "function",
      "name": "redeem",
      "inputs": [],
      "outputs": [
        {
          "name": "principalAmount",
          "type": "uint256",
          "internalType": "uint256"
        },
        {
          "name": "yieldAmount",
          "type": "uint256",
          "internalType": "uint256"
        }
      ],
      "stateMutability": "nonpayable"
    },
    {
      "type": "function",
      "name": "renounceRole",
      "inputs": [
        {
          "name": "role",
          "type": "bytes32",
          "internalType": "bytes32"
        },
        {
          "name": "callerConfirmation",
          "type": "address",
          "internalType": "address"
        }
      ],
      "outputs": [],
      "stateMutability": "nonpayable"
    },
    {
      "type": "function",
      "name": "revokeRole",
      "inputs": [
        {
          "name": "role",
          "type": "bytes32",
          "internalType": "bytes32"
        },
        {
          "name": "account",
          "type": "address",
          "internalType": "address"
        }
      ],
      "outputs": [],
      "stateMutability": "nonpayable"
    },
    {
      "type": "function",
      "name": "supportsInterface",
      "inputs": [
        {
          "name": "interfaceId",
          "type": "bytes4",
          "internalType": "bytes4"
        }
      ],
      "outputs": [
        {
          "name": "",
          "type": "bool",
          "internalType": "bool"
        }
      ],
      "stateMutability": "view"
    },
    {
      "type": "function",
      "name": "totalAssetsInvested",
      "inputs": [],
      "outputs": [
        {
          "name": "",
          "type": "uint256",
          "internalType": "uint256"
        }
      ],
      "stateMutability": "view"
    },
    {
      "type": "function",
      "name": "totalDebt",
      "inputs": [],
      "outputs": [
        {
          "name": "",
          "type": "uint256",
          "internalType": "uint256"
        }
      ],
      "stateMutability": "view"
    },
    {
      "type": "function",
      "name": "totalShares",
      "inputs": [],
      "outputs": [
        {
          "name": "",
          "type": "uint256",
          "internalType": "uint256"
        }
      ],
      "stateMutability": "view"
    },
    {
      "type": "function",
      "name": "unpause",
      "inputs": [],
      "outputs": [],
      "stateMutability": "nonpayable"
    },
    {
      "type": "function",
      "name": "updateRiskParams",
      "inputs": [
        {
          "name": "newAprBps",
          "type": "uint16",
          "internalType": "uint16"
        }
      ],
      "outputs": [],
      "stateMutability": "nonpayable"
    },
    {
      "type": "function",
      "name": "upgradeToAndCall",
      "inputs": [
        {
          "name": "newImplementation",
          "type": "address",
          "internalType": "address"
        },
        {
          "name": "data",
          "type": "bytes",
          "internalType": "bytes"
        }
      ],
      "outputs": [],
      "stateMutability": "payable"
    },
    {
      "type": "function",
      "name": "usdcToken",
      "inputs": [],
      "outputs": [
        {
          "name": "",
          "type": "address",
          "internalType": "contract IERC20"
        }
      ],
      "stateMutability": "view"
    },
    {
      "type": "event",
      "name": "DepositTransferFailed",
      "inputs": [
        {
          "name": "projectId",
          "type": "uint256",
          "indexed": true,
          "internalType": "uint256"
        },
        {
          "name": "developer",
          "type": "address",
          "indexed": true,
          "internalType": "address"
        },
        {
          "name": "depositAmount",
          "type": "uint256",
          "indexed": false,
          "internalType": "uint256"
        }
      ],
      "anonymous": false
    },
    {
      "type": "event",
      "name": "FundingClosed",
      "inputs": [
        {
          "name": "projectId",
          "type": "uint256",
          "indexed": false,
          "internalType": "uint256"
        },
        {
          "name": "totalAssetsInvested",
          "type": "uint256",
          "indexed": false,
          "internalType": "uint256"
        }
      ],
      "anonymous": false
    },
    {
      "type": "event",
      "name": "Initialized",
      "inputs": [
        {
          "name": "version",
          "type": "uint64",
          "indexed": false,
          "internalType": "uint64"
        }
      ],
      "anonymous": false
    },
    {
      "type": "event",
      "name": "Invested",
      "inputs": [
        {
          "name": "investor",
          "type": "address",
          "indexed": true,
          "internalType": "address"
        },
        {
          "name": "amountInvested",
          "type": "uint256",
          "indexed": false,
          "internalType": "uint256"
        },
        {
          "name": "totalAssetsInvested",
          "type": "uint256",
          "indexed": false,
          "internalType": "uint256"
        }
      ],
      "anonymous": false
    },
    {
      "type": "event",
      "name": "LoanClosed",
      "inputs": [
        {
          "name": "projectId",
          "type": "uint256",
          "indexed": false,
          "internalType": "uint256"
        },
        {
          "name": "finalPrincipalRepaid",
          "type": "uint256",
          "indexed": false,
          "internalType": "uint256"
        },
        {
          "name": "finalInterestAccrued",
          "type": "uint256",
          "indexed": false,
          "internalType": "uint256"
        }
      ],
      "anonymous": false
    },
    {
      "type": "event",
      "name": "Paused",
      "inputs": [
        {
          "name": "account",
          "type": "address",
          "indexed": false,
          "internalType": "address"
        }
      ],
      "anonymous": false
    },
    {
      "type": "event",
      "name": "PrincipalClaimed",
      "inputs": [
        {
          "name": "investor",
          "type": "address",
          "indexed": true,
          "internalType": "address"
        },
        {
          "name": "amountClaimed",
          "type": "uint256",
          "indexed": false,
          "internalType": "uint256"
        }
      ],
      "anonymous": false
    },
    {
      "type": "event",
      "name": "RepaymentReceived",
      "inputs": [
        {
          "name": "projectId",
          "type": "uint256",
          "indexed": false,
          "internalType": "uint256"
        },
        {
          "name": "payer",
          "type": "address",
          "indexed": true,
          "internalType": "address"
        },
        {
          "name": "principalAmount",
          "type": "uint256",
          "indexed": false,
          "internalType": "uint256"
        },
        {
          "name": "interestAmount",
          "type": "uint256",
          "indexed": false,
          "internalType": "uint256"
        }
      ],
      "anonymous": false
    },
    {
      "type": "event",
      "name": "RiskParamsUpdated",
      "inputs": [
        {
          "name": "projectId",
          "type": "uint256",
          "indexed": false,
          "internalType": "uint256"
        },
        {
          "name": "newAprBps",
          "type": "uint16",
          "indexed": false,
          "internalType": "uint16"
        }
      ],
      "anonymous": false
    },
    {
      "type": "event",
      "name": "RoleAdminChanged",
      "inputs": [
        {
          "name": "role",
          "type": "bytes32",
          "indexed": true,
          "internalType": "bytes32"
        },
        {
          "name": "previousAdminRole",
          "type": "bytes32",
          "indexed": true,
          "internalType": "bytes32"
        },
        {
          "name": "newAdminRole",
          "type": "bytes32",
          "indexed": true,
          "internalType": "bytes32"
        }
      ],
      "anonymous": false
    },
    {
      "type": "event",
      "name": "RoleGranted",
      "inputs": [
        {
          "name": "role",
          "type": "bytes32",
          "indexed": true,
          "internalType": "bytes32"
        },
        {
          "name": "account",
          "type": "address",
          "indexed": true,
          "internalType": "address"
        },
        {
          "name": "sender",
          "type": "address",
          "indexed": true,
          "internalType": "address"
        }
      ],
      "anonymous": false
    },
    {
      "type": "event",
      "name": "RoleRevoked",
      "inputs": [
        {
          "name": "role",
          "type": "bytes32",
          "indexed": true,
          "internalType": "bytes32"
        },
        {
          "name": "account",
          "type": "address",
          "indexed": true,
          "internalType": "address"
        },
        {
          "name": "sender",
          "type": "address",
          "indexed": true,
          "internalType": "address"
        }
      ],
      "anonymous": false
    },
    {
      "type": "event",
      "name": "Unpaused",
      "inputs": [
        {
          "name": "account",
          "type": "address",
          "indexed": false,
          "internalType": "address"
        }
      ],
      "anonymous": false
    },
    {
      "type": "event",
      "name": "Upgraded",
      "inputs": [
        {
          "name": "implementation",
          "type": "address",
          "indexed": true,
          "internalType": "address"
        }
      ],
      "anonymous": false
    },
    {
      "type": "event",
      "name": "YieldClaimed",
      "inputs": [
        {
          "name": "investor",
          "type": "address",
          "indexed": true,
          "internalType": "address"
        },
        {
          "name": "amountClaimed",
          "type": "uint256",
          "indexed": false,
          "internalType": "uint256"
        }
      ],
      "anonymous": false
    },
    {
      "type": "error",
      "name": "AccessControlBadConfirmation",
      "inputs": []
    },
    {
      "type": "error",
      "name": "AccessControlUnauthorizedAccount",
      "inputs": [
        {
          "name": "account",
          "type": "address",
          "internalType": "address"
        },
        {
          "name": "neededRole",
          "type": "bytes32",
          "internalType": "bytes32"
        }
      ]
    },
    {
      "type": "error",
      "name": "AddressEmptyCode",
      "inputs": [
        {
          "name": "target",
          "type": "address",
          "internalType": "address"
        }
      ]
    },
    {
      "type": "error",
      "name": "AmountCannotBeZero",
      "inputs": []
    },
    {
      "type": "error",
      "name": "CannotInvestZero",
      "inputs": []
    },
    {
      "type": "error",
      "name": "ERC1967InvalidImplementation",
      "inputs": [
        {
          "name": "implementation",
          "type": "address",
          "internalType": "address"
        }
      ]
    },
    {
      "type": "error",
      "name": "ERC1967NonPayable",
      "inputs": []
    },
    {
      "type": "error",
      "name": "EnforcedPause",
      "inputs": []
    },
    {
      "type": "error",
      "name": "ExpectedPause",
      "inputs": []
    },
    {
      "type": "error",
      "name": "FailedCall",
      "inputs": []
    },
    {
      "type": "error",
      "name": "FundingCapReached",
      "inputs": [
        {
          "name": "limit",
          "type": "uint256",
          "internalType": "uint256"
        }
      ]
    },
    {
      "type": "error",
      "name": "FundingClosed",
      "inputs": []
    },
    {
      "type": "error",
      "name": "InvalidInitialization",
      "inputs": []
    },
    {
      "type": "error",
      "name": "InvalidValue",
      "inputs": [
        {
          "name": "reason",
          "type": "string",
          "internalType": "string"
        }
      ]
    },
    {
      "type": "error",
      "name": "InvestmentBelowMinimum",
      "inputs": [
        {
          "name": "minimum",
          "type": "uint256",
          "internalType": "uint256"
        }
      ]
    },
    {
      "type": "error",
      "name": "LoanAlreadyClosed",
      "inputs": []
    },
    {
      "type": "error",
      "name": "LoanNotClosed",
      "inputs": []
    },
    {
      "type": "error",
      "name": "NotAuthorized",
      "inputs": [
        {
          "name": "caller",
          "type": "address",
          "internalType": "address"
        },
        {
          "name": "role",
          "type": "bytes32",
          "internalType": "bytes32"
        }
      ]
    },
    {
      "type": "error",
      "name": "NotInitializing",
      "inputs": []
    },
    {
      "type": "error",
      "name": "NothingToClaim",
      "inputs": []
    },
    {
      "type": "error",
      "name": "PRBMath_MulDivSigned_InputTooSmall",
      "inputs": []
    },
    {
      "type": "error",
      "name": "PRBMath_MulDivSigned_Overflow",
      "inputs": [
        {
          "name": "x",
          "type": "int256",
          "internalType": "int256"
        },
        {
          "name": "y",
          "type": "int256",
          "internalType": "int256"
        }
      ]
    },
    {
      "type": "error",
      "name": "PRBMath_MulDiv_Overflow",
      "inputs": [
        {
          "name": "x",
          "type": "uint256",
          "internalType": "uint256"
        },
        {
          "name": "y",
          "type": "uint256",
          "internalType": "uint256"
        },
        {
          "name": "denominator",
          "type": "uint256",
          "internalType": "uint256"
        }
      ]
    },
    {
      "type": "error",
      "name": "ReentrancyGuardReentrantCall",
      "inputs": []
    },
    {
      "type": "error",
      "name": "SafeERC20FailedOperation",
      "inputs": [
        {
          "name": "token",
          "type": "address",
          "internalType": "address"
        }
      ]
    },
    {
      "type": "error",
      "name": "UUPSUnauthorizedCallContext",
      "inputs": []
    },
    {
      "type": "error",
      "name": "UUPSUnsupportedProxiableUUID",
      "inputs": [
        {
          "name": "slot",
          "type": "bytes32",
          "internalType": "bytes32"
        }
      ]
    },
    {
      "type": "error",
      "name": "ZeroAddressNotAllowed",
      "inputs": []
    }
  ],
  "bytecode": {
    "object": "0x60a0604052306080523480156012575f80fd5b50600160035560805161452261003e5f395f81816125520152818161257b015261278d01526145225ff3fe60806040526004361061035b575f3560e01c80637ba32ee3116101bd578063b367b11f116100f2578063d84065f911610092578063f4b01b181161006d578063f4b01b18146109ed578063fc7b9c1814610a01578063fdd2d57714610a15578063ffaa626914610a2c575f80fd5b8063d84065f914610986578063da7806e6146109a3578063e7559260146109ce575f80fd5b8063ca15c873116100cd578063ca15c873146108fe578063ca4b208b1461091d578063d3690b6a1461093c578063d547741f14610967575f80fd5b8063b367b11f146108a0578063b6cbc5f0146108bf578063be040fb0146108ea575f80fd5b80639b9ee6631161015d578063a217fddf11610138578063a217fddf146107f7578063a3246ad31461080a578063a5ddc86414610836578063ad3cb1cc1461084b575f80fd5b80639b9ee6631461079b5780639d585f7f146107cd578063a05f0986146107e2575f80fd5b8063850c4ca011610198578063850c4ca0146106e35780639010d07c1461072657806391d148541461074557806399fb9f0414610787575f80fd5b80637ba32ee3146106a2578063838dfaa4146106b65780638456cb59146106cf575f80fd5b806336568abe116102935780634f1ef2861161023357806352d1902d1161020e57806352d1902d1461064d5780635ae4cbf0146106615780635c975abb1461067657806368a188551461068d575f80fd5b80634f1ef286146106115780634fd6403c146106245780635204b10a14610639575f80fd5b80633fafa1271161026e5780633fafa1271461057f578063406cf22914610594578063417cd4b6146105a8578063496179ac146105dd575f80fd5b806336568abe146105375780633a98ef39146105565780633f4ba83a1461056b575f80fd5b8063232fa733116102fe5780632afcf480116102d95780632afcf480146104bb5780632d6af4d5146104da5780632f2ff15d146104f95780633180afec14610518575f80fd5b8063232fa73314610464578063248a9ca3146104785780632a2b3a20146104a6575f80fd5b806311eac8551161033957806311eac855146103f75780631916f16f146104165780631940fe311461042a5780632116da5b1461044b575f80fd5b806301ffc9a71461035f57806303e89a8c146103935780630ce77ca3146103ca575b5f80fd5b34801561036a575f80fd5b5061037e610379366004613cd2565b610a43565b60405190151581526020015b60405180910390f35b34801561039e575f80fd5b506006546103b2906001600160a01b031681565b6040516001600160a01b03909116815260200161038a565b3480156103d5575f80fd5b506103e96103e4366004613d2c565b610a53565b60405190815260200161038a565b348015610402575f80fd5b506004546103b2906001600160a01b031681565b348015610421575f80fd5b50600e546103e9565b348015610435575f80fd5b50610449610444366004613d45565b610ae3565b005b348015610456575f80fd5b50600b5461037e9060ff1681565b34801561046f575f80fd5b50610449610bdb565b348015610483575f80fd5b506103e9610492366004613d66565b5f9081526020819052604090206001015490565b3480156104b1575f80fd5b506103e9600f5481565b3480156104c6575f80fd5b506104496104d5366004613d66565b610d10565b3480156104e5575f80fd5b506103e96104f4366004613d7d565b610f0e565b348015610504575f80fd5b50610449610513366004613d9d565b610f3a565b348015610523575f80fd5b506103e9610532366004613d2c565b610f64565b348015610542575f80fd5b50610449610551366004613d9d565b610fe1565b348015610561575f80fd5b506103e960125481565b348015610576575f80fd5b50610449611032565b34801561058a575f80fd5b506103e960075481565b34801561059f575f80fd5b50610449611064565b3480156105b3575f80fd5b506009546105c69065ffffffffffff1681565b60405165ffffffffffff909116815260200161038a565b3480156105e8575f80fd5b506105fc6105f7366004613dc7565b61113d565b6040805192835260208301919091520161038a565b61044961061f366004613e4a565b61136e565b34801561062f575f80fd5b506103e9600a5481565b348015610644575f80fd5b50600a546103e9565b348015610658575f80fd5b506103e961138d565b34801561066c575f80fd5b506103e9600c5481565b348015610681575f80fd5b5060025460ff1661037e565b348015610698575f80fd5b506103e960155481565b3480156106ad575f80fd5b506104496113bc565b3480156106c1575f80fd5b5060105461037e9060ff1681565b3480156106da575f80fd5b5061044961147d565b3480156106ee575f80fd5b5060095461070d906601000000000000900467ffffffffffffffff1681565b60405167ffffffffffffffff909116815260200161038a565b348015610731575f80fd5b506103b2610740366004613d7d565b6114af565b348015610750575f80fd5b5061037e61075f366004613d9d565b5f918252602082815260408084206001600160a01b0393909316845291905290205460ff1690565b348015610792575f80fd5b506104496114c6565b3480156107a6575f80fd5b50600b546107ba90610100900461ffff1681565b60405161ffff909116815260200161038a565b3480156107d8575f80fd5b506103e960085481565b3480156107ed575f80fd5b506103e9600e5481565b348015610802575f80fd5b506103e95f81565b348015610815575f80fd5b50610829610824366004613d66565b61151d565b60405161038a9190613ef3565b348015610841575f80fd5b506103e9600d5481565b348015610856575f80fd5b506108936040518060400160405280600581526020017f352e302e3000000000000000000000000000000000000000000000000000000081525081565b60405161038a9190613f6c565b3480156108ab575f80fd5b506104496108ba366004613f7e565b611536565b3480156108ca575f80fd5b506103e96108d9366004613d2c565b60136020525f908152604090205481565b3480156108f5575f80fd5b506105fc61197d565b348015610909575f80fd5b506103e9610918366004613d66565b611ae6565b348015610928575f80fd5b506005546103b2906001600160a01b031681565b348015610947575f80fd5b506103e9610956366004613d2c565b60116020525f908152604090205481565b348015610972575f80fd5b50610449610981366004613d9d565b611afc565b348015610991575f80fd5b50600b54610100900461ffff166107ba565b3480156109ae575f80fd5b506103e96109bd366004613d2c565b60146020525f908152604090205481565b3480156109d9575f80fd5b506016546103b2906001600160a01b031681565b3480156109f8575f80fd5b506008546103e9565b348015610a0c575f80fd5b506103e9611b20565b348015610a20575f80fd5b5060105460ff1661037e565b348015610a37575f80fd5b50600b5460ff1661037e565b5f610a4d82611c9e565b92915050565b5f6012545f03610a6457505f919050565b6001600160a01b0382165f9081526011602052604081205490819003610a8c57505f92915050565b5f60125482600e54610a9e9190613fc5565b610aa89190614009565b6001600160a01b0385165f90815260136020526040902054909150808211610ad0575f610ada565b610ada8183614041565b95945050505050565b7f02509c39826ef4d4fc9a6478dd388f892df655e831b495ea37e26344d4c48aca610b0d81611cf3565b610b15611cfd565b60105460ff1615610b52576040517fda902c5c00000000000000000000000000000000000000000000000000000000815260040160405180910390fd5b610b5a611d3a565b50600b805461ffff8416610100027fffffffffffffffffffffffffffffffffffffffffffffffffffffffffff0000ff9091161790556007546040517fdcfd3c456c7f42d94d236adab85854a7074ef2c12fcf2d907729a9c87220154291610bcf91859091825261ffff16602082015260400190565b60405180910390a15050565b335f9081527fad3228b676f7d3cd4284a5443f17f1962b36e491b30a40b2405849e597ba5fb5602052604090205460ff16158015610c475750335f9081527f419147074a8a0b83722181d4e0e5dc044f3b2854438503867308dada50203372602052604090205460ff16155b15610c8b576040517fa4e1a97e0000000000000000000000000000000000000000000000000000000081523360048201525f60248201526044015b60405180910390fd5b60105460ff1615610cc8576040517fda902c5c00000000000000000000000000000000000000000000000000000000815260040160405180910390fd5b600a54600e541015610d06576040517f5563445200000000000000000000000000000000000000000000000000000000815260040160405180910390fd5b610d0e611e40565b565b610d18611ed4565b610d20611cfd565b600b5460ff1615610d5d576040517ff3e84c4c00000000000000000000000000000000000000000000000000000000815260040160405180910390fd5b805f03610d96576040517f8ff9ef0b00000000000000000000000000000000000000000000000000000000815260040160405180910390fd5b610da26006600a61416d565b610dad90600a613fc5565b811015610e0057610dc06006600a61416d565b610dcb90600a613fc5565b6040517fbec095db000000000000000000000000000000000000000000000000000000008152600401610c8291815260200190565b600a545f610e0e838361417b565b9050600854811115610e52576008546040517fa97a18a5000000000000000000000000000000000000000000000000000000008152600401610c8291815260200190565b600a819055335f9081526011602052604081208054859290610e7590849061417b565b925050819055508260125f828254610e8d919061417b565b9091555050600454610eaa906001600160a01b0316333086611f17565b6008548103610ebb57610ebb611f93565b600a5460405133917f9e9d071824fd57d062ca63fd8b786d8da48a6807eebbcb2d83f9e8d21398e28c91610ef791878252602082015260400190565b60405180910390a25050610f0b6001600355565b50565b600b545f9060ff16610f235750600854610a4d565b600e54600854610f339190614041565b9392505050565b5f82815260208190526040902060010154610f5481611cf3565b610f5e8383612466565b50505050565b5f6012545f03610f7557505f919050565b6001600160a01b0382165f9081526011602052604081205490819003610f9d57505f92915050565b5f60125482600f54610faf9190613fc5565b610fb99190614009565b6001600160a01b0385165f90815260146020526040902054909150808211610ad0575f610ada565b6001600160a01b0381163314611023576040517f6697b23200000000000000000000000000000000000000000000000000000000815260040160405180910390fd5b61102d8282612499565b505050565b7f65d7a28e3265b37a6474929f336521b332c1681b933f6cb9f3376673440d862a61105c81611cf3565b610f0b6124c4565b61106c611ed4565b611074611cfd565b61107c611d3a565b505f61108733610f64565b9050805f036110c2576040517f969bf72800000000000000000000000000000000000000000000000000000000815260040160405180910390fd5b335f90815260146020526040812080548392906110e090849061417b565b90915550506004546110fc906001600160a01b03163383612516565b60405181815233907fc04825ba3f383b602255d2a13065a68e325c65c9e0ed5d031ea2b06f641873af906020015b60405180910390a250610d0e6001600355565b5f80611147611ed4565b61114f611cfd565b7f51a687be621618bb42f5dcbb17ee3798544ce951156fd30a67d800a241b4801961117981611cf3565b60075485146111e4576040517f432f5b4a00000000000000000000000000000000000000000000000000000000815260206004820152601360248201527f50726f6a656374204944206d69736d61746368000000000000000000000000006044820152606401610c82565b60105460ff1615611221576040517fda902c5c00000000000000000000000000000000000000000000000000000000815260040160405180910390fd5b835f03611233575f809250925061135b565b61123b611d3a565b505f600e54600a5461124d9190614041565b90505f6b033b2e3c9fd0803ce8000000601254600c5461126d9190613fc5565b6112779190614009565b90505f8190505f600f54821161128d575f61129a565b600f5461129a9083614041565b90508088106112c3579450846112b08189614041565b9650838711156112be578396505b6112ca565b8795505f96505b85600f5f8282546112db919061417b565b9250508190555086600e5f8282546112f3919061417b565b9091555050600a54600e541061131157600a54600e55611311611e40565b6007546040805191825260208201899052810187905233907f9b4568b7aa4f12be9ecabfae89e1d1885c23877819acceb5b1f25738ffd9f75e9060600160405180910390a2505050505b506113666001600355565b935093915050565b611376612547565b61137f82612617565b6113898282612681565b5050565b5f611396612782565b507f360894a13ba1a3210667c828492db98dca3e2076cc3735a920a3ca505d382bbc5b90565b6113c4611ed4565b6113cc611cfd565b5f6113d633610a53565b9050805f03611411576040517f969bf72800000000000000000000000000000000000000000000000000000000815260040160405180910390fd5b335f908152601360205260408120805483929061142f90849061417b565b909155505060045461144b906001600160a01b03163383612516565b60405181815233907f2e6100b89b43378c0aeb062f2df0cfaa63e4437abab6844b441f8e47cb31bec39060200161112a565b7f65d7a28e3265b37a6474929f336521b332c1681b933f6cb9f3376673440d862a6114a781611cf3565b610f0b6127e4565b5f828152600160205260408120610f339083612821565b5f6114d081611cf3565b6114d8611cfd565b600b5460ff1615611515576040517ff3e84c4c00000000000000000000000000000000000000000000000000000000815260040160405180910390fd5b610f0b611f93565b5f818152600160205260409020606090610a4d9061282c565b5f61153f612838565b805490915060ff68010000000000000000820416159067ffffffffffffffff165f8115801561156b5750825b90505f8267ffffffffffffffff1660011480156115875750303b155b905081158015611595575080155b156115cc576040517ff92ee8a900000000000000000000000000000000000000000000000000000000815260040160405180910390fd5b84547fffffffffffffffffffffffffffffffffffffffffffffffff0000000000000000166001178555831561162d5784547fffffffffffffffffffffffffffffffffffffffffffffff00ffffffffffffffff16680100000000000000001785555b61169461163d6020880188613d2c565b61164d6040890160208a01613d2c565b61165d60608a0160408b01613d2c565b61166d60808b0160608c01613d2c565b61167d60a08c0160808d01613d2c565b61168f6101608d016101408e01613d2c565b612860565b8560c001355f036116d1576040517fd11b25af00000000000000000000000000000000000000000000000000000000815260040160405180910390fd5b6116e16040870160208801613d2c565b600480547fffffffffffffffffffffffff0000000000000000000000000000000000000000166001600160a01b03929092169190911790556117296060870160408801613d2c565b600580547fffffffffffffffffffffffff0000000000000000000000000000000000000000166001600160a01b03929092169190911790556117716080870160608801613d2c565b600680547fffffffffffffffffffffffff0000000000000000000000000000000000000000166001600160a01b039290921691909117905560a086013560075560c086013560085560e08601356015556117d36101208701610100880161418e565b600980547fffffffffffffffffffffffffffffffffffffffffffffffffffff0000000000001665ffffffffffff9290921691909117905561181c61014087016101208801613d45565b600b805461ffff92909216610100027fffffffffffffffffffffffffffffffffffffffffffffffffffffffffff0000ff90921691909117905561186761016087016101408801613d2c565b601680547fffffffffffffffffffffffff0000000000000000000000000000000000000000166001600160a01b03929092169190911790556118e66118af6020880188613d2c565b6118bf60a0890160808a01613d2c565b6118cf60808a0160608b01613d2c565b6118e16101808b016101608c01613d2c565b6128fc565b5f600a8190556012819055600b805460ff19908116909155601080549091169055600e819055600f819055600c5583156119755784547fffffffffffffffffffffffffffffffffffffffffffffff00ffffffffffffffff168555604051600181527fc7f505b2f371ae2175ee4913f4499e1f2633a7b5936321eed1cdaeb6115181d29060200160405180910390a15b505050505050565b5f80611987611ed4565b61198f611cfd565b611997611d3a565b506119a133610a53565b91506119ac33610f64565b90505f6119b9828461417b565b9050805f036119f4576040517f969bf72800000000000000000000000000000000000000000000000000000000815260040160405180910390fd5b8215611a1e57335f9081526013602052604081208054859290611a1890849061417b565b90915550505b8115611a4857335f9081526014602052604081208054849290611a4290849061417b565b90915550505b600454611a5f906001600160a01b03163383612516565b8215611a9b5760405183815233907f2e6100b89b43378c0aeb062f2df0cfaa63e4437abab6844b441f8e47cb31bec39060200160405180910390a25b8115611ad75760405182815233907fc04825ba3f383b602255d2a13065a68e325c65c9e0ed5d031ea2b06f641873af9060200160405180910390a25b50611ae26001600355565b9091565b5f818152600160205260408120610a4d906129f8565b5f82815260208190526040902060010154611b1681611cf3565b610f5e8383612499565b6010545f9060ff1615611b3257505f90565b600b5460ff16611b4157505f90565b600d54600c54429067ffffffffffffffff808416908316118015611b6657505f601254115b15611c2a575f611b856127105b600b54610100900461ffff1690612a01565b90505f611ba56113b9611b9887876141b3565b67ffffffffffffffff1690565b90506301e133805f611bc1611bba6113b98681565b8484612a18565b90505f611bcd82612bc2565b90505f611bde82633b9aca00613fc5565b9050611bf66b033b2e3c9fd0803ce800000082614041565b6b033b2e3c9fd0803ce8000000611c0d838a613fc5565b611c179190614009565b611c21919061417b565b96505050505050505b5f600e54600a54611c3b9190614041565b90505f6b033b2e3c9fd0803ce800000060125484611c599190613fc5565b611c639190614009565b90505f8190505f600f548211611c79575f611c86565b600f54611c869083614041565b9050611c92818561417b565b97505050505050505090565b5f7fffffffff0000000000000000000000000000000000000000000000000000000082167f5a05180f000000000000000000000000000000000000000000000000000000001480610a4d5750610a4d82613336565b610f0b81336133cc565b60025460ff1615610d0e576040517fd93c066500000000000000000000000000000000000000000000000000000000815260040160405180910390fd5b600d545f904267ffffffffffffffff808316908216111580611d5e575060105460ff165b80611d6c5750600b5460ff16155b80611d775750601254155b15611d8657600c549250505090565b5f611d92612710611b73565b90505f611da56113b9611b9886866141b3565b90506301e133805f611dba611bba6113b98681565b90505f611dc682612bc2565b90505f611dd782633b9aca00613fc5565b600c54909150611df36b033b2e3c9fd0803ce800000083614041565b6b033b2e3c9fd0803ce8000000611e0a8484613fc5565b611e149190614009565b611e1e919061417b565b600c81905567ffffffffffffffff909816600d55509598975050505050505050565b60105460ff1615611e4d57565b6010805460ff19166001179055611e62611d3a565b505f6b033b2e3c9fd0803ce8000000601254600c54611e819190613fc5565b611e8b9190614009565b600754600e54604080519283526020830191909152810182905290915081907f4acb957de3799dd3d95bb7da6bcfbca6f5a33812d69ad37816ed87e79b6327d690606001610bcf565b600260035403611f10576040517f3ee5aeb500000000000000000000000000000000000000000000000000000000815260040160405180910390fd5b6002600355565b6040516001600160a01b038481166024830152838116604483015260648201839052610f5e9186918216906323b872dd906084015b604051602081830303815290604052915060e01b6020820180517bffffffffffffffffffffffffffffffffffffffffffffffffffffffff8381831617835250505050613437565b600b5460ff1615611fa057565b600b805460ff191660011790556009805467ffffffffffffffff42811666010000000000009081027fffffffffffffffffffffffffffffffffffff0000000000000000ffffffffffff9093169290921792839055910416600d55600754600a546040517f352ce94da8e3109dc06c05ed84e8a0aaf9ce2c4329dfd10ad1190cf6200489729261203792908252602082015260400190565b60405180910390a1600a5415610d0e57600554600a54600454612068926001600160a01b0391821692911690612516565b6016545f906001600160a01b03161561236a576016546007546040517f2d3bc8570000000000000000000000000000000000000000000000000000000081526001600160a01b0390921691632d3bc857916120c99160040190815260200190565b6020604051808303815f875af1925050508015612103575060408051601f3d908101601f19168201909252612100918101906141d3565b60015b6122745761210f6141ea565b806308c379a0036121d75750612123614202565b8061212e57506121d9565b6005546007546015546040519081526001600160a01b03909216917fc538a608f69fbfe24f023ca000ad9eef53d3bc0e808bb9e785fd5727f93445819060200160405180910390a36121d1604051806060016040528060248152602001614464602491396007546040518060400160405280600781526020017f526561736f6e3a00000000000000000000000000000000000000000000000000815250846134bc565b5061238e565b505b3d808015612202576040519150601f19603f3d011682016040523d82523d5f602084013e612207565b606091505b506005546007546015546040519081526001600160a01b03909216917fc538a608f69fbfe24f023ca000ad9eef53d3bc0e808bb9e785fd5727f93445819060200160405180910390a36121d160405180606001604052806039815260200161442b60399139600754613533565b601554810361228657600191506121d1565b6005546007546015546040519081526001600160a01b03909216917fc538a608f69fbfe24f023ca000ad9eef53d3bc0e808bb9e785fd5727f93445819060200160405180910390a36122f26040518060600160405280602d8152602001614488602d9139600754613533565b6121d16040518060400160405280600981526020017f45787065637465643a00000000000000000000000000000000000000000000008152506015546040518060400160405280600981526020017f52656365697665643a0000000000000000000000000000000000000000000000815250846135a6565b61238e6040518060600160405280602a81526020016143d1602a9139600754613533565b5f8161239c57600a546123ac565b601554600a546123ac919061417b565b6006546040517fdd92ffe5000000000000000000000000000000000000000000000000000000008152600481018390529192506001600160a01b03169063dd92ffe5906024015f604051808303815f87803b158015612409575f80fd5b505af192505050801561241a575060015b612442576113896040518060600160405280603881526020016144b560389139600754613533565b6113896040518060600160405280603081526020016143fb60309139600754613533565b5f80612472848461361d565b90508015610f33575f84815260016020526040902061249190846136c4565b509392505050565b5f806124a584846136d8565b90508015610f33575f8481526001602052604090206124919084613759565b6124cc61376d565b6002805460ff191690557f5db9ee0a495bf2e6ff9c91a7834c1ba4fdd244a5e8aa4e537bd38aeae4b073aa335b6040516001600160a01b03909116815260200160405180910390a1565b6040516001600160a01b0383811660248301526044820183905261102d91859182169063a9059cbb90606401611f4c565b306001600160a01b037f00000000000000000000000000000000000000000000000000000000000000001614806125e057507f00000000000000000000000000000000000000000000000000000000000000006001600160a01b03166125d47f360894a13ba1a3210667c828492db98dca3e2076cc3735a920a3ca505d382bbc546001600160a01b031690565b6001600160a01b031614155b15610d0e576040517fe07c8dba00000000000000000000000000000000000000000000000000000000815260040160405180910390fd5b7f189ab7a9244df0848122154315af71fe140f3db0fe014031783b0946b8c9d2e361264181611cf3565b6001600160a01b038216611389576040517f8579befe00000000000000000000000000000000000000000000000000000000815260040160405180910390fd5b816001600160a01b03166352d1902d6040518163ffffffff1660e01b8152600401602060405180830381865afa9250505080156126db575060408051601f3d908101601f191682019092526126d8918101906141d3565b60015b61271c576040517f4c9c8ce30000000000000000000000000000000000000000000000000000000081526001600160a01b0383166004820152602401610c82565b7f360894a13ba1a3210667c828492db98dca3e2076cc3735a920a3ca505d382bbc8114612778576040517faa1d49a400000000000000000000000000000000000000000000000000000000815260048101829052602401610c82565b61102d83836137a9565b306001600160a01b037f00000000000000000000000000000000000000000000000000000000000000001614610d0e576040517fe07c8dba00000000000000000000000000000000000000000000000000000000815260040160405180910390fd5b6127ec611cfd565b6002805460ff191660011790557f62e78cea01bee320cd4e420270b5ea74000d11b0c9f74754ebdbfc544b05a2586124f93390565b5f610f3383836137fe565b60605f610f3383613824565b5f807ff0c57e16840df040f15088dc2f81fe391c3923bec73e23a9662efc9c229c6a00610a4d565b6001600160a01b038616158061287d57506001600160a01b038516155b8061288f57506001600160a01b038416155b806128a157506001600160a01b038316155b806128b357506001600160a01b038216155b806128c557506001600160a01b038116155b15611975576040517f8579befe00000000000000000000000000000000000000000000000000000000815260040160405180910390fd5b6129065f85612466565b506129317f65d7a28e3265b37a6474929f336521b332c1681b933f6cb9f3376673440d862a85612466565b5061295c7f189ab7a9244df0848122154315af71fe140f3db0fe014031783b0946b8c9d2e385612466565b506129877f51a687be621618bb42f5dcbb17ee3798544ce951156fd30a67d800a241b4801984612466565b506001600160a01b038116156129c7576129c17f02509c39826ef4d4fc9a6478dd388f892df655e831b495ea37e26344d4c48aca82612466565b50610f5e565b6129f17f02509c39826ef4d4fc9a6478dd388f892df655e831b495ea37e26344d4c48aca85612466565b5050505050565b5f610a4d825490565b5f610f336113b984670de0b6b3a76400008561387d565b5f7f8000000000000000000000000000000000000000000000000000000000000000841480612a6657507f800000000000000000000000000000000000000000000000000000000000000083145b80612a9057507f800000000000000000000000000000000000000000000000000000000000000082145b15612ac7576040517f96aa557200000000000000000000000000000000000000000000000000000000815260040160405180910390fd5b5f805f808712612ad75786612adb565b865f035b92505f8612612aea5785612aee565b855f035b91505f8512612afd5784612b01565b845f035b90505f612b0f84848461387d565b90507f7fffffffffffffffffffffffffffffffffffffffffffffffffffffffffffffff811115612b75576040517f1832b7bd0000000000000000000000000000000000000000000000000000000081526004810189905260248101889052604401610c82565b7fffffffffffffffffffffffffffffffffffffffffffffffffffffffffffffffff808913908089139088138183188114612baf5783612bb3565b835f035b9b9a5050505050505050505050565b7780000000000000000000000000000000000000000000000067ff00000000000000821615612ce357678000000000000000821615612c0a5768016a09e667f3bcc9090260401c5b674000000000000000821615612c29576801306fe0a31b7152df0260401c5b672000000000000000821615612c48576801172b83c7d517adce0260401c5b671000000000000000821615612c675768010b5586cf9890f62a0260401c5b670800000000000000821615612c86576801059b0d31585743ae0260401c5b670400000000000000821615612ca557680102c9a3e778060ee70260401c5b670200000000000000821615612cc45768010163da9fb33356d80260401c5b670100000000000000821615612ce357680100b1afa5abcbed610260401c5b66ff000000000000821615612de2576680000000000000821615612d105768010058c86da1c09ea20260401c5b6640000000000000821615612d2e576801002c605e2e8cec500260401c5b6620000000000000821615612d4c57680100162f3904051fa10260401c5b6610000000000000821615612d6a576801000b175effdc76ba0260401c5b6608000000000000821615612d8857680100058ba01fb9f96d0260401c5b6604000000000000821615612da65768010002c5cc37da94920260401c5b6602000000000000821615612dc4576801000162e525ee05470260401c5b6601000000000000821615612de25768010000b17255775c040260401c5b65ff0000000000821615612ed85765800000000000821615612e0d576801000058b91b5bc9ae0260401c5b65400000000000821615612e2a57680100002c5c89d5ec6d0260401c5b65200000000000821615612e475768010000162e43f4f8310260401c5b65100000000000821615612e6457680100000b1721bcfc9a0260401c5b65080000000000821615612e815768010000058b90cf1e6e0260401c5b65040000000000821615612e9e576801000002c5c863b73f0260401c5b65020000000000821615612ebb57680100000162e430e5a20260401c5b65010000000000821615612ed8576801000000b1721835510260401c5b64ff00000000821615612fc557648000000000821615612f0157680100000058b90c0b490260401c5b644000000000821615612f1d5768010000002c5c8601cc0260401c5b642000000000821615612f39576801000000162e42fff00260401c5b641000000000821615612f555768010000000b17217fbb0260401c5b640800000000821615612f71576801000000058b90bfce0260401c5b640400000000821615612f8d57680100000002c5c85fe30260401c5b640200000000821615612fa95768010000000162e42ff10260401c5b640100000000821615612fc557680100000000b17217f80260401c5b63ff0000008216156130a9576380000000821615612fec5768010000000058b90bfc0260401c5b6340000000821615613007576801000000002c5c85fe0260401c5b632000000082161561302257680100000000162e42ff0260401c5b631000000082161561303d576801000000000b17217f0260401c5b630800000082161561305857680100000000058b90c00260401c5b63040000008216156130735768010000000002c5c8600260401c5b630200000082161561308e576801000000000162e4300260401c5b63010000008216156130a95768010000000000b172180260401c5b62ff000082161561318457628000008216156130ce576801000000000058b90c0260401c5b624000008216156130e857680100000000002c5c860260401c5b622000008216156131025768010000000000162e430260401c5b6210000082161561311c57680100000000000b17210260401c5b620800008216156131365768010000000000058b910260401c5b62040000821615613150576801000000000002c5c80260401c5b6202000082161561316a57680100000000000162e40260401c5b62010000821615613184576801000000000000b1720260401c5b61ff00821615613256576180008216156131a757680100000000000058b90260401c5b6140008216156131c05768010000000000002c5d0260401c5b6120008216156131d9576801000000000000162e0260401c5b6110008216156131f25768010000000000000b170260401c5b61080082161561320b576801000000000000058c0260401c5b61040082161561322457680100000000000002c60260401c5b61020082161561323d57680100000000000001630260401c5b61010082161561325657680100000000000000b10260401c5b60ff82161561331f57608082161561327757680100000000000000590260401c5b604082161561328f576801000000000000002c0260401c5b60208216156132a757680100000000000000160260401c5b60108216156132bf576801000000000000000b0260401c5b60088216156132d757680100000000000000060260401c5b60048216156132ef57680100000000000000030260401c5b600282161561330757680100000000000000010260401c5b600182161561331f57680100000000000000010260401c5b670de0b6b3a76400000260409190911c60bf031c90565b5f7fffffffff0000000000000000000000000000000000000000000000000000000082167f7965db0b000000000000000000000000000000000000000000000000000000001480610a4d57507f01ffc9a7000000000000000000000000000000000000000000000000000000007fffffffff00000000000000000000000000000000000000000000000000000000831614610a4d565b5f828152602081815260408083206001600160a01b038516845290915290205460ff16611389576040517fe2517d3f0000000000000000000000000000000000000000000000000000000081526001600160a01b038216600482015260248101839052604401610c82565b5f8060205f8451602086015f885af180613456576040513d5f823e3d81fd5b50505f513d9150811561346d57806001141561347a565b6001600160a01b0384163b155b15610f5e576040517f5274afe70000000000000000000000000000000000000000000000000000000081526001600160a01b0385166004820152602401610c82565b610f5e848484846040516024016134d694939291906142ba565b60408051601f198184030181529190526020810180517bffffffffffffffffffffffffffffffffffffffffffffffffffffffff167f5ab84e1f00000000000000000000000000000000000000000000000000000000179052613983565b6113898282604051602401613549929190614303565b60408051601f198184030181529190526020810180517bffffffffffffffffffffffffffffffffffffffffffffffffffffffff167fb60e72cc00000000000000000000000000000000000000000000000000000000179052613983565b610f5e848484846040516024016135c09493929190614324565b60408051601f198184030181529190526020810180517bffffffffffffffffffffffffffffffffffffffffffffffffffffffff167fc67ea9d100000000000000000000000000000000000000000000000000000000179052613983565b5f828152602081815260408083206001600160a01b038516845290915281205460ff166136bd575f838152602081815260408083206001600160a01b03861684529091529020805460ff191660011790556136753390565b6001600160a01b0316826001600160a01b0316847f2f8788117e7eff1d82e926ec794901d17c78024a50270940304540a733656f0d60405160405180910390a4506001610a4d565b505f610a4d565b5f610f33836001600160a01b03841661398c565b5f828152602081815260408083206001600160a01b038516845290915281205460ff16156136bd575f838152602081815260408083206001600160a01b0386168085529252808320805460ff1916905551339286917ff6391f5c32d9c69d2a47ea670b442974b53935d1edc7fd64eb21e047a839171b9190a4506001610a4d565b5f610f33836001600160a01b0384166139d1565b60025460ff16610d0e576040517f8dfc202b00000000000000000000000000000000000000000000000000000000815260040160405180910390fd5b6137b282613ab4565b6040516001600160a01b038316907fbc7cd75a20ee27fd9adebab32041f755214dbc6bffa90cc0225b39da2e5c2d3b905f90a28051156137f65761102d8282613b5b565b611389613bc4565b5f825f01828154811061381357613813614360565b905f5260205f200154905092915050565b6060815f0180548060200260200160405190810160405280929190818152602001828054801561387157602002820191905f5260205f20905b81548152602001906001019080831161385d575b50505050509050919050565b5f80807fffffffffffffffffffffffffffffffffffffffffffffffffffffffffffffffff858709858702925082811083820303915050805f036138d3578382816138c9576138c9613fdc565b0492505050610f33565b83811061391d576040517f63a05778000000000000000000000000000000000000000000000000000000008152600481018790526024810186905260448101859052606401610c82565b5f84868809600260036001881981018916988990049182028318808302840302808302840302808302840302808302840302808302840302918202909203025f889003889004909101858311909403939093029303949094049190911702949350505050565b610f0b81613bfc565b5f8181526001830160205260408120546136bd57508154600181810184555f848152602080822090930184905584548482528286019093526040902091909155610a4d565b5f8181526001830160205260408120548015613aab575f6139f3600183614041565b85549091505f90613a0690600190614041565b9050808214613a65575f865f018281548110613a2457613a24614360565b905f5260205f200154905080875f018481548110613a4457613a44614360565b5f918252602080832090910192909255918252600188019052604090208390555b8554869080613a7657613a7661438d565b600190038181905f5260205f20015f90559055856001015f8681526020019081526020015f205f905560019350505050610a4d565b5f915050610a4d565b806001600160a01b03163b5f03613b02576040517f4c9c8ce30000000000000000000000000000000000000000000000000000000081526001600160a01b0382166004820152602401610c82565b7f360894a13ba1a3210667c828492db98dca3e2076cc3735a920a3ca505d382bbc80547fffffffffffffffffffffffff0000000000000000000000000000000000000000166001600160a01b0392909216919091179055565b60605f80846001600160a01b031684604051613b7791906143ba565b5f60405180830381855af49150503d805f8114613baf576040519150601f19603f3d011682016040523d82523d5f602084013e613bb4565b606091505b5091509150610ada858383613c1b565b3415610d0e576040517fb398979f00000000000000000000000000000000000000000000000000000000815260040160405180910390fd5b5f6a636f6e736f6c652e6c6f6790505f80835160208501845afa505050565b606082613c3057613c2b82613c90565b610f33565b8151158015613c4757506001600160a01b0384163b155b15613c89576040517f9996b3150000000000000000000000000000000000000000000000000000000081526001600160a01b0385166004820152602401610c82565b5080610f33565b805115613ca05780518082602001fd5b6040517fd6bda27500000000000000000000000000000000000000000000000000000000815260040160405180910390fd5b5f60208284031215613ce2575f80fd5b81357fffffffff0000000000000000000000000000000000000000000000000000000081168114610f33575f80fd5b80356001600160a01b0381168114613d27575f80fd5b919050565b5f60208284031215613d3c575f80fd5b610f3382613d11565b5f60208284031215613d55575f80fd5b813561ffff81168114610f33575f80fd5b5f60208284031215613d76575f80fd5b5035919050565b5f8060408385031215613d8e575f80fd5b50508035926020909101359150565b5f8060408385031215613dae575f80fd5b82359150613dbe60208401613d11565b90509250929050565b5f805f60608486031215613dd9575f80fd5b505081359360208301359350604090920135919050565b7f4e487b71000000000000000000000000000000000000000000000000000000005f52604160045260245ffd5b601f19601f830116810181811067ffffffffffffffff82111715613e4357613e43613df0565b6040525050565b5f8060408385031215613e5b575f80fd5b613e6483613d11565b9150602083013567ffffffffffffffff811115613e7f575f80fd5b8301601f81018513613e8f575f80fd5b803567ffffffffffffffff811115613ea957613ea9613df0565b604051613ec06020601f19601f8501160182613e1d565b818152866020838501011115613ed4575f80fd5b816020840160208301375f602083830101528093505050509250929050565b602080825282518282018190525f918401906040840190835b81811015613f335783516001600160a01b0316835260209384019390920191600101613f0c565b509095945050505050565b5f81518084528060208401602086015e5f602082860101526020601f19601f83011685010191505092915050565b602081525f610f336020830184613f3e565b5f610180828403128015613f90575f80fd5b509092915050565b7f4e487b71000000000000000000000000000000000000000000000000000000005f52601160045260245ffd5b8082028115828204841417610a4d57610a4d613f98565b7f4e487b71000000000000000000000000000000000000000000000000000000005f52601260045260245ffd5b5f8261403c577f4e487b71000000000000000000000000000000000000000000000000000000005f52601260045260245ffd5b500490565b81810381811115610a4d57610a4d613f98565b6001815b60018411156113665780850481111561407357614073613f98565b600184161561408157908102905b60019390931c928002614058565b5f8261409d57506001610a4d565b816140a957505f610a4d565b81600181146140bf57600281146140c9576140e5565b6001915050610a4d565b60ff8411156140da576140da613f98565b50506001821b610a4d565b5060208310610133831016604e8410600b8410161715614108575081810a610a4d565b6141337fffffffffffffffffffffffffffffffffffffffffffffffffffffffffffffffff8484614054565b807fffffffffffffffffffffffffffffffffffffffffffffffffffffffffffffffff0482111561416557614165613f98565b029392505050565b5f610f3360ff84168361408f565b80820180821115610a4d57610a4d613f98565b5f6020828403121561419e575f80fd5b813565ffffffffffff81168114610f33575f80fd5b67ffffffffffffffff8281168282160390811115610a4d57610a4d613f98565b5f602082840312156141e3575f80fd5b5051919050565b5f60033d11156113b95760045f803e505f5160e01c90565b5f60443d101561420f5790565b6040517ffffffffffffffffffffffffffffffffffffffffffffffffffffffffffffffffc3d016004823e80513d602482011167ffffffffffffffff8211171561425757505090565b808201805167ffffffffffffffff811115614273575050505090565b7ffffffffffffffffffffffffffffffffffffffffffffffffffffffffffffffffc3d85010160208284010111156142ab575050505090565b61249160208285010185613e1d565b608081525f6142cc6080830187613f3e565b85602084015282810360408401526142e48186613f3e565b905082810360608401526142f88185613f3e565b979650505050505050565b604081525f6143156040830185613f3e565b90508260208301529392505050565b608081525f6143366080830187613f3e565b856020840152828103604084015261434e8186613f3e565b91505082606083015295945050505050565b7f4e487b71000000000000000000000000000000000000000000000000000000005f52603260045260245ffd5b7f4e487b71000000000000000000000000000000000000000000000000000000005f52603160045260245ffd5b5f82518060208501845e5f92019182525091905056fe4e6f206465706f73697420657363726f7720616464726573732073657420666f722070726f6a6563743a457363726f77206e6f746966696564206f662066756e64696e6720636f6d706c65746520666f722070726f6a6563743a4465706f736974207472616e73666572206661696c656420666f722070726f6a6563742077697468206c6f772d6c6576656c206572726f723a4465706f736974207472616e73666572206661696c656420666f722070726f6a6563743a4465706f736974207472616e7366657220616d6f756e74206d69736d6174636820666f722070726f6a6563743a4661696c656420746f206e6f7469667920657363726f77206f662066756e64696e6720636f6d706c65746520666f722070726f6a6563743aa264697066735822122068a624872d7856a84618caf91bfdf3327ee0e2b6df1b30440558f68eb284b02964736f6c634300081a0033",
    "linkReferences": {}
  },
  "methodIdentifiers": {
    "DEFAULT_ADMIN_ROLE()": "a217fddf",
    "UPGRADE_INTERFACE_VERSION()": "ad3cb1cc",
    "accruedInterestPerShare_RAY()": "5ae4cbf0",
    "claimPrincipal()": "7ba32ee3",
    "claimYield()": "406cf229",
    "claimablePrincipal(address)": "0ce77ca3",
    "claimableYield(address)": "3180afec",
    "closeFundingManually()": "99fb9f04",
    "closeLoan()": "232fa733",
    "currentAprBps()": "9b9ee663",
    "depositEscrowAddress()": "e7559260",
    "devEscrow()": "03e89a8c",
    "developer()": "ca4b208b",
    "developerDeposit()": "68a18855",
    "fundingClosed()": "2116da5b",
    "getCurrentAprBps()": "d84065f9",
    "getLoanAmount()": "f4b01b18",
    "getOutstandingPrincipal(uint256,uint256)": "2d6af4d5",
    "getPrincipalRepaid()": "1916f16f",
    "getRoleAdmin(bytes32)": "248a9ca3",
    "getRoleMember(bytes32,uint256)": "9010d07c",
    "getRoleMemberCount(bytes32)": "ca15c873",
    "getRoleMembers(bytes32)": "a3246ad3",
    "getTotalAssetsInvested()": "5204b10a",
    "grantRole(bytes32,address)": "2f2ff15d",
    "handleRepayment(uint256,uint256,uint256)": "496179ac",
    "hasRole(bytes32,address)": "91d14854",
    "initialize((address,address,address,address,address,uint256,uint256,uint256,uint48,uint16,address,address))": "b367b11f",
    "interestClaimedByInvestor(address)": "da7806e6",
    "interestRepaid()": "2a2b3a20",
    "invest(uint256)": "2afcf480",
    "investorShares(address)": "d3690b6a",
    "isFundingClosed()": "ffaa6269",
    "isLoanClosed()": "fdd2d577",
    "lastInterestAccrualTimestamp()": "a5ddc864",
    "loanAmount()": "9d585f7f",
    "loanClosed()": "838dfaa4",
    "loanStartTime()": "850c4ca0",
    "loanTenor()": "417cd4b6",
    "pause()": "8456cb59",
    "paused()": "5c975abb",
    "principalClaimedByInvestor(address)": "b6cbc5f0",
    "principalRepaid()": "a05f0986",
    "projectId()": "3fafa127",
    "proxiableUUID()": "52d1902d",
    "redeem()": "be040fb0",
    "renounceRole(bytes32,address)": "36568abe",
    "revokeRole(bytes32,address)": "d547741f",
    "supportsInterface(bytes4)": "01ffc9a7",
    "totalAssetsInvested()": "4fd6403c",
    "totalDebt()": "fc7b9c18",
    "totalShares()": "3a98ef39",
    "unpause()": "3f4ba83a",
    "updateRiskParams(uint16)": "1940fe31",
    "upgradeToAndCall(address,bytes)": "4f1ef286",
    "usdcToken()": "11eac855"
  },
  "id": 94
}