{
  "abi": [
    {
      "type": "constructor",
      "inputs": [
        {
          "name": "_creditToken",
          "type": "address",
          "internalType": "address"
        },
        {
          "name": "_rewardDistributor",
          "type": "address",
          "internalType": "address"
        },
        {
          "name": "_initialAdmin",
          "type": "address",
          "internalType": "address"
        },
        {
          "name": "_initialSubmitter",
          "type": "address",
          "internalType": "address"
        },
        {
          "name": "_initialEmissionFactor",
          "type": "uint256",
          "internalType": "uint256"
        },
        {
          "name": "_initialRequiredConsensusNodes",
          "type": "uint256",
          "internalType": "uint256"
        },
        {
          "name": "_initialBatchProcessingDelay",
          "type": "uint256",
          "internalType": "uint256"
        }
      ],
      "stateMutability": "nonpayable"
    },
    {
      "type": "function",
      "name": "DATA_SUBMITTER_ROLE",
      "inputs": [],
      "outputs": [
        {
          "name": "",
          "type": "bytes32",
          "internalType": "bytes32"
        }
      ],
      "stateMutability": "view"
    },
    {
      "type": "function",
      "name": "DEFAULT_ADMIN_ROLE",
      "inputs": [],
      "outputs": [
        {
          "name": "",
          "type": "bytes32",
          "internalType": "bytes32"
        }
      ],
      "stateMutability": "view"
    },
    {
      "type": "function",
      "name": "NODE_MANAGER_ROLE",
      "inputs": [],
      "outputs": [
        {
          "name": "",
          "type": "bytes32",
          "internalType": "bytes32"
        }
      ],
      "stateMutability": "view"
    },
    {
      "type": "function",
      "name": "PAUSER_ROLE",
      "inputs": [],
      "outputs": [
        {
          "name": "",
          "type": "bytes32",
          "internalType": "bytes32"
        }
      ],
      "stateMutability": "view"
    },
    {
      "type": "function",
      "name": "UPGRADER_ROLE",
      "inputs": [],
      "outputs": [
        {
          "name": "",
          "type": "bytes32",
          "internalType": "bytes32"
        }
      ],
      "stateMutability": "view"
    },
    {
      "type": "function",
      "name": "UPGRADE_INTERFACE_VERSION",
      "inputs": [],
      "outputs": [
        {
          "name": "",
          "type": "string",
          "internalType": "string"
        }
      ],
      "stateMutability": "view"
    },
    {
      "type": "function",
      "name": "batchChallenges",
      "inputs": [
        {
          "name": "",
          "type": "bytes32",
          "internalType": "bytes32"
        }
      ],
      "outputs": [
        {
          "name": "challenger",
          "type": "address",
          "internalType": "address"
        },
        {
          "name": "batchHash",
          "type": "bytes32",
          "internalType": "bytes32"
        },
        {
          "name": "reason",
          "type": "string",
          "internalType": "string"
        },
        {
          "name": "challengeTime",
          "type": "uint64",
          "internalType": "uint64"
        },
        {
          "name": "isResolved",
          "type": "bool",
          "internalType": "bool"
        },
        {
          "name": "isUpheld",
          "type": "bool",
          "internalType": "bool"
        }
      ],
      "stateMutability": "view"
    },
    {
      "type": "function",
      "name": "batchProcessingDelay",
      "inputs": [],
      "outputs": [
        {
          "name": "",
          "type": "uint256",
          "internalType": "uint256"
        }
      ],
      "stateMutability": "view"
    },
    {
      "type": "function",
      "name": "batchSubmissionTimes",
      "inputs": [
        {
          "name": "",
          "type": "bytes32",
          "internalType": "bytes32"
        }
      ],
      "outputs": [
        {
          "name": "",
          "type": "uint256",
          "internalType": "uint256"
        }
      ],
      "stateMutability": "view"
    },
    {
      "type": "function",
      "name": "carbonCreditToken",
      "inputs": [],
      "outputs": [
        {
          "name": "",
          "type": "address",
          "internalType": "contract ICarbonCreditToken"
        }
      ],
      "stateMutability": "view"
    },
    {
      "type": "function",
      "name": "challengeBatch",
      "inputs": [
        {
          "name": "batchHash",
          "type": "bytes32",
          "internalType": "bytes32"
        },
        {
          "name": "reason",
          "type": "string",
          "internalType": "string"
        }
      ],
      "outputs": [],
      "stateMutability": "nonpayable"
    },
    {
      "type": "function",
      "name": "emissionFactor",
      "inputs": [],
      "outputs": [
        {
          "name": "",
          "type": "uint256",
          "internalType": "uint256"
        }
      ],
      "stateMutability": "view"
    },
    {
      "type": "function",
      "name": "getPeerIdCount",
      "inputs": [],
      "outputs": [
        {
          "name": "",
          "type": "uint256",
          "internalType": "uint256"
        }
      ],
      "stateMutability": "view"
    },
    {
      "type": "function",
      "name": "getRoleAdmin",
      "inputs": [
        {
          "name": "role",
          "type": "bytes32",
          "internalType": "bytes32"
        }
      ],
      "outputs": [
        {
          "name": "",
          "type": "bytes32",
          "internalType": "bytes32"
        }
      ],
      "stateMutability": "view"
    },
    {
      "type": "function",
      "name": "grantRole",
      "inputs": [
        {
          "name": "role",
          "type": "bytes32",
          "internalType": "bytes32"
        },
        {
          "name": "account",
          "type": "address",
          "internalType": "address"
        }
      ],
      "outputs": [],
      "stateMutability": "nonpayable"
    },
    {
      "type": "function",
      "name": "hasRole",
      "inputs": [
        {
          "name": "role",
          "type": "bytes32",
          "internalType": "bytes32"
        },
        {
          "name": "account",
          "type": "address",
          "internalType": "address"
        }
      ],
      "outputs": [
        {
          "name": "",
          "type": "bool",
          "internalType": "bool"
        }
      ],
      "stateMutability": "view"
    },
    {
      "type": "function",
      "name": "pause",
      "inputs": [],
      "outputs": [],
      "stateMutability": "nonpayable"
    },
    {
      "type": "function",
      "name": "paused",
      "inputs": [],
      "outputs": [
        {
          "name": "",
          "type": "bool",
          "internalType": "bool"
        }
      ],
      "stateMutability": "view"
    },
    {
      "type": "function",
      "name": "peerIds",
      "inputs": [
        {
          "name": "",
          "type": "uint256",
          "internalType": "uint256"
        }
      ],
      "outputs": [
        {
          "name": "",
          "type": "bytes32",
          "internalType": "bytes32"
        }
      ],
      "stateMutability": "view"
    },
    {
      "type": "function",
      "name": "processBatch",
      "inputs": [
        {
          "name": "batchHash",
          "type": "bytes32",
          "internalType": "bytes32"
        }
      ],
      "outputs": [],
      "stateMutability": "nonpayable"
    },
    {
      "type": "function",
      "name": "processedBatchHashes",
      "inputs": [
        {
          "name": "",
          "type": "bytes32",
          "internalType": "bytes32"
        }
      ],
      "outputs": [
        {
          "name": "",
          "type": "bool",
          "internalType": "bool"
        }
      ],
      "stateMutability": "view"
    },
    {
      "type": "function",
      "name": "proxiableUUID",
      "inputs": [],
      "outputs": [
        {
          "name": "",
          "type": "bytes32",
          "internalType": "bytes32"
        }
      ],
      "stateMutability": "view"
    },
    {
      "type": "function",
      "name": "registerNode",
      "inputs": [
        {
          "name": "_peerId",
          "type": "bytes32",
          "internalType": "bytes32"
        },
        {
          "name": "_operator",
          "type": "address",
          "internalType": "address"
        }
      ],
      "outputs": [],
      "stateMutability": "nonpayable"
    },
    {
      "type": "function",
      "name": "registeredNodes",
      "inputs": [
        {
          "name": "",
          "type": "bytes32",
          "internalType": "bytes32"
        }
      ],
      "outputs": [
        {
          "name": "operator",
          "type": "address",
          "internalType": "address"
        },
        {
          "name": "peerId",
          "type": "bytes32",
          "internalType": "bytes32"
        },
        {
          "name": "isActive",
          "type": "bool",
          "internalType": "bool"
        }
      ],
      "stateMutability": "view"
    },
    {
      "type": "function",
      "name": "renounceRole",
      "inputs": [
        {
          "name": "role",
          "type": "bytes32",
          "internalType": "bytes32"
        },
        {
          "name": "callerConfirmation",
          "type": "address",
          "internalType": "address"
        }
      ],
      "outputs": [],
      "stateMutability": "nonpayable"
    },
    {
      "type": "function",
      "name": "requiredConsensusNodes",
      "inputs": [],
      "outputs": [
        {
          "name": "",
          "type": "uint256",
          "internalType": "uint256"
        }
      ],
      "stateMutability": "view"
    },
    {
      "type": "function",
      "name": "resolveChallenge",
      "inputs": [
        {
          "name": "batchHash",
          "type": "bytes32",
          "internalType": "bytes32"
        },
        {
          "name": "isUpheld",
          "type": "bool",
          "internalType": "bool"
        }
      ],
      "outputs": [],
      "stateMutability": "nonpayable"
    },
    {
      "type": "function",
      "name": "revokeRole",
      "inputs": [
        {
          "name": "role",
          "type": "bytes32",
          "internalType": "bytes32"
        },
        {
          "name": "account",
          "type": "address",
          "internalType": "address"
        }
      ],
      "outputs": [],
      "stateMutability": "nonpayable"
    },
    {
      "type": "function",
      "name": "rewardDistributor",
      "inputs": [],
      "outputs": [
        {
          "name": "",
          "type": "address",
          "internalType": "contract IRewardDistributor"
        }
      ],
      "stateMutability": "view"
    },
    {
      "type": "function",
      "name": "setBatchProcessingDelay",
      "inputs": [
        {
          "name": "_delayInSeconds",
          "type": "uint256",
          "internalType": "uint256"
        }
      ],
      "outputs": [],
      "stateMutability": "nonpayable"
    },
    {
      "type": "function",
      "name": "setEmissionFactor",
      "inputs": [
        {
          "name": "_factor",
          "type": "uint256",
          "internalType": "uint256"
        }
      ],
      "outputs": [],
      "stateMutability": "nonpayable"
    },
    {
      "type": "function",
      "name": "setRequiredConsensusNodes",
      "inputs": [
        {
          "name": "_requiredNodes",
          "type": "uint256",
          "internalType": "uint256"
        }
      ],
      "outputs": [],
      "stateMutability": "nonpayable"
    },
    {
      "type": "function",
      "name": "storedBatches",
      "inputs": [
        {
          "name": "",
          "type": "bytes32",
          "internalType": "bytes32"
        },
        {
          "name": "",
          "type": "uint256",
          "internalType": "uint256"
        }
      ],
      "outputs": [
        {
          "name": "deviceId",
          "type": "bytes32",
          "internalType": "bytes32"
        },
        {
          "name": "nodeOperatorAddress",
          "type": "address",
          "internalType": "address"
        },
        {
          "name": "energyKWh",
          "type": "uint256",
          "internalType": "uint256"
        },
        {
          "name": "timestamp",
          "type": "uint64",
          "internalType": "uint64"
        }
      ],
      "stateMutability": "view"
    },
    {
      "type": "function",
      "name": "submitEnergyDataBatch",
      "inputs": [
        {
          "name": "dataBatch",
          "type": "tuple[]",
          "internalType": "struct EnergyDataBridge.EnergyData[]",
          "components": [
            {
              "name": "deviceId",
              "type": "bytes32",
              "internalType": "bytes32"
            },
            {
              "name": "nodeOperatorAddress",
              "type": "address",
              "internalType": "address"
            },
            {
              "name": "energyKWh",
              "type": "uint256",
              "internalType": "uint256"
            },
            {
              "name": "timestamp",
              "type": "uint64",
              "internalType": "uint64"
            }
          ]
        },
        {
          "name": "consensusProof",
          "type": "tuple",
          "internalType": "struct EnergyDataBridge.P2PConsensusProof",
          "components": [
            {
              "name": "consensusRoundId",
              "type": "bytes32",
              "internalType": "bytes32"
            },
            {
              "name": "participatingNodeCount",
              "type": "uint256",
              "internalType": "uint256"
            },
            {
              "name": "consensusResultHash",
              "type": "bytes32",
              "internalType": "bytes32"
            },
            {
              "name": "multiSignature",
              "type": "bytes",
              "internalType": "bytes"
            }
          ]
        }
      ],
      "outputs": [],
      "stateMutability": "nonpayable"
    },
    {
      "type": "function",
      "name": "supportsInterface",
      "inputs": [
        {
          "name": "interfaceId",
          "type": "bytes4",
          "internalType": "bytes4"
        }
      ],
      "outputs": [
        {
          "name": "",
          "type": "bool",
          "internalType": "bool"
        }
      ],
      "stateMutability": "view"
    },
    {
      "type": "function",
      "name": "unpause",
      "inputs": [],
      "outputs": [],
      "stateMutability": "nonpayable"
    },
    {
      "type": "function",
      "name": "updateNodeStatus",
      "inputs": [
        {
          "name": "_peerId",
          "type": "bytes32",
          "internalType": "bytes32"
        },
        {
          "name": "_isActive",
          "type": "bool",
          "internalType": "bool"
        }
      ],
      "outputs": [],
      "stateMutability": "nonpayable"
    },
    {
      "type": "function",
      "name": "upgradeToAndCall",
      "inputs": [
        {
          "name": "newImplementation",
          "type": "address",
          "internalType": "address"
        },
        {
          "name": "data",
          "type": "bytes",
          "internalType": "bytes"
        }
      ],
      "outputs": [],
      "stateMutability": "payable"
    },
    {
      "type": "event",
      "name": "BatchChallenged",
      "inputs": [
        {
          "name": "batchHash",
          "type": "bytes32",
          "indexed": true,
          "internalType": "bytes32"
        },
        {
          "name": "challenger",
          "type": "address",
          "indexed": true,
          "internalType": "address"
        },
        {
          "name": "reason",
          "type": "string",
          "indexed": false,
          "internalType": "string"
        }
      ],
      "anonymous": false
    },
    {
      "type": "event",
      "name": "ChallengeResolved",
      "inputs": [
        {
          "name": "batchHash",
          "type": "bytes32",
          "indexed": true,
          "internalType": "bytes32"
        },
        {
          "name": "isUpheld",
          "type": "bool",
          "indexed": false,
          "internalType": "bool"
        }
      ],
      "anonymous": false
    },
    {
      "type": "event",
      "name": "EmissionFactorSet",
      "inputs": [
        {
          "name": "oldFactor",
          "type": "uint256",
          "indexed": false,
          "internalType": "uint256"
        },
        {
          "name": "newFactor",
          "type": "uint256",
          "indexed": false,
          "internalType": "uint256"
        }
      ],
      "anonymous": false
    },
    {
      "type": "event",
      "name": "EnergyDataProcessed",
      "inputs": [
        {
          "name": "batchHash",
          "type": "bytes32",
          "indexed": true,
          "internalType": "bytes32"
        },
        {
          "name": "totalCreditsMinted",
          "type": "uint256",
          "indexed": false,
          "internalType": "uint256"
        },
        {
          "name": "entriesProcessed",
          "type": "uint256",
          "indexed": false,
          "internalType": "uint256"
        }
      ],
      "anonymous": false
    },
    {
      "type": "event",
      "name": "EnergyDataSubmitted",
      "inputs": [
        {
          "name": "batchHash",
          "type": "bytes32",
          "indexed": true,
          "internalType": "bytes32"
        },
        {
          "name": "entriesSubmitted",
          "type": "uint256",
          "indexed": false,
          "internalType": "uint256"
        },
        {
          "name": "processAfterTimestamp",
          "type": "uint256",
          "indexed": false,
          "internalType": "uint256"
        }
      ],
      "anonymous": false
    },
    {
      "type": "event",
      "name": "NodeRegistered",
      "inputs": [
        {
          "name": "peerId",
          "type": "bytes32",
          "indexed": true,
          "internalType": "bytes32"
        },
        {
          "name": "operator",
          "type": "address",
          "indexed": true,
          "internalType": "address"
        }
      ],
      "anonymous": false
    },
    {
      "type": "event",
      "name": "NodeStatusUpdated",
      "inputs": [
        {
          "name": "peerId",
          "type": "bytes32",
          "indexed": true,
          "internalType": "bytes32"
        },
        {
          "name": "isActive",
          "type": "bool",
          "indexed": false,
          "internalType": "bool"
        }
      ],
      "anonymous": false
    },
    {
      "type": "event",
      "name": "Paused",
      "inputs": [
        {
          "name": "account",
          "type": "address",
          "indexed": false,
          "internalType": "address"
        }
      ],
      "anonymous": false
    },
    {
      "type": "event",
      "name": "RoleAdminChanged",
      "inputs": [
        {
          "name": "role",
          "type": "bytes32",
          "indexed": true,
          "internalType": "bytes32"
        },
        {
          "name": "previousAdminRole",
          "type": "bytes32",
          "indexed": true,
          "internalType": "bytes32"
        },
        {
          "name": "newAdminRole",
          "type": "bytes32",
          "indexed": true,
          "internalType": "bytes32"
        }
      ],
      "anonymous": false
    },
    {
      "type": "event",
      "name": "RoleGranted",
      "inputs": [
        {
          "name": "role",
          "type": "bytes32",
          "indexed": true,
          "internalType": "bytes32"
        },
        {
          "name": "account",
          "type": "address",
          "indexed": true,
          "internalType": "address"
        },
        {
          "name": "sender",
          "type": "address",
          "indexed": true,
          "internalType": "address"
        }
      ],
      "anonymous": false
    },
    {
      "type": "event",
      "name": "RoleRevoked",
      "inputs": [
        {
          "name": "role",
          "type": "bytes32",
          "indexed": true,
          "internalType": "bytes32"
        },
        {
          "name": "account",
          "type": "address",
          "indexed": true,
          "internalType": "address"
        },
        {
          "name": "sender",
          "type": "address",
          "indexed": true,
          "internalType": "address"
        }
      ],
      "anonymous": false
    },
    {
      "type": "event",
      "name": "Unpaused",
      "inputs": [
        {
          "name": "account",
          "type": "address",
          "indexed": false,
          "internalType": "address"
        }
      ],
      "anonymous": false
    },
    {
      "type": "event",
      "name": "Upgraded",
      "inputs": [
        {
          "name": "implementation",
          "type": "address",
          "indexed": true,
          "internalType": "address"
        }
      ],
      "anonymous": false
    },
    {
      "type": "error",
      "name": "AccessControlBadConfirmation",
      "inputs": []
    },
    {
      "type": "error",
      "name": "AccessControlUnauthorizedAccount",
      "inputs": [
        {
          "name": "account",
          "type": "address",
          "internalType": "address"
        },
        {
          "name": "neededRole",
          "type": "bytes32",
          "internalType": "bytes32"
        }
      ]
    },
    {
      "type": "error",
      "name": "AddressEmptyCode",
      "inputs": [
        {
          "name": "target",
          "type": "address",
          "internalType": "address"
        }
      ]
    },
    {
      "type": "error",
      "name": "BatchAlreadyChallenged",
      "inputs": []
    },
    {
      "type": "error",
      "name": "BatchAlreadyProcessed",
      "inputs": []
    },
    {
      "type": "error",
      "name": "BatchAlreadySubmitted",
      "inputs": []
    },
    {
      "type": "error",
      "name": "BatchChallengeUpheld",
      "inputs": []
    },
    {
      "type": "error",
      "name": "BatchNotSubmitted",
      "inputs": []
    },
    {
      "type": "error",
      "name": "CallerNotDataSubmitter",
      "inputs": []
    },
    {
      "type": "error",
      "name": "CallerNotNodeManager",
      "inputs": []
    },
    {
      "type": "error",
      "name": "ChallengeAlreadyResolved",
      "inputs": []
    },
    {
      "type": "error",
      "name": "ChallengeNotFound",
      "inputs": []
    },
    {
      "type": "error",
      "name": "ChallengePeriodNotOver",
      "inputs": []
    },
    {
      "type": "error",
      "name": "ChallengePeriodOver",
      "inputs": []
    },
    {
      "type": "error",
      "name": "ERC1967InvalidImplementation",
      "inputs": [
        {
          "name": "implementation",
          "type": "address",
          "internalType": "address"
        }
      ]
    },
    {
      "type": "error",
      "name": "ERC1967NonPayable",
      "inputs": []
    },
    {
      "type": "error",
      "name": "EnforcedPause",
      "inputs": []
    },
    {
      "type": "error",
      "name": "ExpectedPause",
      "inputs": []
    },
    {
      "type": "error",
      "name": "FailedCall",
      "inputs": []
    },
    {
      "type": "error",
      "name": "InvalidConsensusConfig",
      "inputs": []
    },
    {
      "type": "error",
      "name": "InvalidConsensusProof",
      "inputs": []
    },
    {
      "type": "error",
      "name": "InvalidEmissionFactor",
      "inputs": []
    },
    {
      "type": "error",
      "name": "InvalidPeerId",
      "inputs": []
    },
    {
      "type": "error",
      "name": "NodeNotRegistered",
      "inputs": []
    },
    {
      "type": "error",
      "name": "ReentrancyGuardReentrantCall",
      "inputs": []
    },
    {
      "type": "error",
      "name": "UUPSUnauthorizedCallContext",
      "inputs": []
    },
    {
      "type": "error",
      "name": "UUPSUnsupportedProxiableUUID",
      "inputs": [
        {
          "name": "slot",
          "type": "bytes32",
          "internalType": "bytes32"
        }
      ]
    },
    {
      "type": "error",
      "name": "UnresolvedChallenge",
      "inputs": []
    },
    {
      "type": "error",
      "name": "ZeroAddress",
      "inputs": []
    }
  ],
  "bytecode": {
    "object": "0x60a060405230608052348015610013575f80fd5b50604051612df0380380612df083398101604081905261003291610312565b60016002556001600160a01b03871661005e5760405163d92e233d60e01b815260040160405180910390fd5b6001600160a01b0386166100855760405163d92e233d60e01b815260040160405180910390fd5b6001600160a01b0385166100ac5760405163d92e233d60e01b815260040160405180910390fd5b6001600160a01b0384166100d35760405163d92e233d60e01b815260040160405180910390fd5b825f036100f357604051633802588b60e01b815260040160405180910390fd5b815f0361011357604051632730045360e21b815260040160405180910390fd5b600380546001600160a01b03808a166001600160a01b031992831617909255600480549289169290911691909117905560058390556009829055600c81905561015c5f8661024e565b506101877f65d7a28e3265b37a6474929f336521b332c1681b933f6cb9f3376673440d862a8661024e565b506101b27f189ab7a9244df0848122154315af71fe140f3db0fe014031783b0946b8c9d2e38661024e565b506101dd7fdaf9ac3a6308052428e8806fd908cf472318416ed7d78b3f35dd94bbbafde56a8661024e565b506102087ff52ef53ec1ccd82becd71536891a4878949c44f3e710519cb7b39d90c38fed268561024e565b50604080515f8152602081018590527f52d6fea3ebb885fb57a2b1e62465f4883c03b0930558cc3d514d806b9c6ed833910160405180910390a150505050505050610380565b5f828152602081815260408083206001600160a01b038516845290915281205460ff166102ee575f838152602081815260408083206001600160a01b03861684529091529020805460ff191660011790556102a63390565b6001600160a01b0316826001600160a01b0316847f2f8788117e7eff1d82e926ec794901d17c78024a50270940304540a733656f0d60405160405180910390a45060016102f1565b505f5b92915050565b80516001600160a01b038116811461030d575f80fd5b919050565b5f805f805f805f60e0888a031215610328575f80fd5b610331886102f7565b965061033f602089016102f7565b955061034d604089016102f7565b945061035b606089016102f7565b608089015160a08a015160c0909a0151989b979a509598909795969095945092505050565b608051612a4a6103a65f395f8181611b7c01528181611ba50152611d7e0152612a4a5ff3fe608060405260043610610277575f3560e01c80637a6ab57d1161014b578063ad3cb1cc116100c6578063d68de31b1161007c578063e63ab1e911610062578063e63ab1e9146107c9578063e9ae4094146107fc578063f72c0d8b1461081b575f80fd5b8063d68de31b1461077f578063dffe86ae146107aa575f80fd5b8063b3def2f5116100ac578063b3def2f514610718578063d547741f1461072d578063d59f9fe01461074c575f80fd5b8063ad3cb1cc14610655578063ad573d3e146106aa575f80fd5b80638be2b0731161011b57806391d148541161010157806391d14854146105e1578063a217fddf14610623578063acc2166a14610636575f80fd5b80638be2b073146105915780638ca5d972146105b0575f80fd5b80637a6ab57d146104ee5780637d89122d1461053f5780638456cb591461055e578063897453f114610572575f80fd5b80633f4ba83a116101f55780635c975abb116101ab57806366dea3581161019157806366dea35814610483578063686ddc7a146104ba5780636facc105146104d9575f80fd5b80635c975abb1461044d57806366b5b2c514610464575f80fd5b80634f1ef286116101db5780634f1ef28614610407578063514bab551461041a57806352d1902d14610439575f80fd5b80633f4ba83a146103de578063474508cf146103f2575f80fd5b8063248a9ca31161024a57806333be17f81161023057806333be17f81461038c57806334083de7146103a057806336568abe146103bf575f80fd5b8063248a9ca31461033f5780632f2ff15d1461036d575f80fd5b806301ffc9a71461027b57806306c52e7c146102af5780631b2b49a6146102dd5780631bacfcc11461031e575b5f80fd5b348015610286575f80fd5b5061029a61029536600461224c565b61084e565b60405190151581526020015b60405180910390f35b3480156102ba575f80fd5b5061029a6102c936600461228b565b60066020525f908152604090205460ff1681565b3480156102e8575f80fd5b506103107ff52ef53ec1ccd82becd71536891a4878949c44f3e710519cb7b39d90c38fed2681565b6040519081526020016102a6565b348015610329575f80fd5b5061033d61033836600461228b565b6108e6565b005b34801561034a575f80fd5b5061031061035936600461228b565b5f9081526020819052604090206001015490565b348015610378575f80fd5b5061033d6103873660046122b6565b61096f565b348015610397575f80fd5b50600854610310565b3480156103ab575f80fd5b5061033d6103ba3660046122b6565b610999565b3480156103ca575f80fd5b5061033d6103d93660046122b6565b610b74565b3480156103e9575f80fd5b5061033d610bc5565b3480156103fd575f80fd5b50610310600c5481565b61033d610415366004612311565b610bfa565b348015610425575f80fd5b5061033d61043436600461228b565b610c19565b348015610444575f80fd5b50610310610c29565b348015610458575f80fd5b5060015460ff1661029a565b34801561046f575f80fd5b5061033d61047e3660046123ee565b610c57565b34801561048e575f80fd5b506003546104a2906001600160a01b031681565b6040516001600160a01b0390911681526020016102a6565b3480156104c5575f80fd5b5061033d6104d4366004612486565b610e96565b3480156104e4575f80fd5b5061031060095481565b3480156104f9575f80fd5b5061050d6105083660046124fd565b61116d565b604080519485526001600160a01b0390931660208501529183015267ffffffffffffffff1660608201526080016102a6565b34801561054a575f80fd5b5061033d61055936600461251d565b6111c2565b348015610569575f80fd5b5061033d61131c565b34801561057d575f80fd5b5061031061058c36600461228b565b61134e565b34801561059c575f80fd5b5061033d6105ab36600461251d565b61136d565b3480156105bb575f80fd5b506105cf6105ca36600461228b565b61147a565b6040516102a696959493929190612572565b3480156105ec575f80fd5b5061029a6105fb3660046122b6565b5f918252602082815260408084206001600160a01b0393909316845291905290205460ff1690565b34801561062e575f80fd5b506103105f81565b348015610641575f80fd5b506004546104a2906001600160a01b031681565b348015610660575f80fd5b5061069d6040518060400160405280600581526020017f352e302e3000000000000000000000000000000000000000000000000000000081525081565b6040516102a691906125c3565b3480156106b5575f80fd5b506106f16106c436600461228b565b60076020525f90815260409020805460018201546002909201546001600160a01b03909116919060ff1683565b604080516001600160a01b03909416845260208401929092521515908201526060016102a6565b348015610723575f80fd5b5061031060055481565b348015610738575f80fd5b5061033d6107473660046122b6565b61155d565b348015610757575f80fd5b506103107fdaf9ac3a6308052428e8806fd908cf472318416ed7d78b3f35dd94bbbafde56a81565b34801561078a575f80fd5b5061031061079936600461228b565b600d6020525f908152604090205481565b3480156107b5575f80fd5b5061033d6107c436600461228b565b611581565b3480156107d4575f80fd5b506103107f65d7a28e3265b37a6474929f336521b332c1681b933f6cb9f3376673440d862a81565b348015610807575f80fd5b5061033d61081636600461228b565b6119a4565b348015610826575f80fd5b506103107f189ab7a9244df0848122154315af71fe140f3db0fe014031783b0946b8c9d2e381565b5f7fffffffff0000000000000000000000000000000000000000000000000000000082167f7965db0b0000000000000000000000000000000000000000000000000000000014806108e057507f01ffc9a7000000000000000000000000000000000000000000000000000000007fffffffff000000000000000000000000000000000000000000000000000000008316145b92915050565b5f6108f0816119ed565b815f03610929576040517f3802588b00000000000000000000000000000000000000000000000000000000815260040160405180910390fd5b600580549083905560408051828152602081018590527f52d6fea3ebb885fb57a2b1e62465f4883c03b0930558cc3d514d806b9c6ed833910160405180910390a1505050565b5f82815260208190526040902060010154610989816119ed565b61099383836119f7565b50505050565b335f9081527ff27da3b2c406461c14405e472ba4a48537a292a76b946db0dbd7443ec08d5831602052604090205460ff16610a00576040517f949fc64d00000000000000000000000000000000000000000000000000000000815260040160405180910390fd5b81610a37576040517ffd8b66e900000000000000000000000000000000000000000000000000000000815260040160405180910390fd5b6001600160a01b038116610a77576040517fd92e233d00000000000000000000000000000000000000000000000000000000815260040160405180910390fd5b5f828152600760205260409020546001600160a01b0316610ac757600880546001810182555f919091527ff3f7a9fe364faab93b216da50a3214154f22a0a2b415b23a84c8169e8b636ee3018290555b604080516060810182526001600160a01b03838116808352602080840187815260018587018181525f8a81526007909452878420965187547fffffffffffffffffffffffff000000000000000000000000000000000000000016961695909517865590519085015591516002909301805460ff1916931515939093179092559151909184917f6cedacb14e1e8a818c7aec54125e7471dba6129fb346b97fe9ada4b43329eb819190a35050565b6001600160a01b0381163314610bb6576040517f6697b23200000000000000000000000000000000000000000000000000000000815260040160405180910390fd5b610bc08282611a9e565b505050565b7f65d7a28e3265b37a6474929f336521b332c1681b933f6cb9f3376673440d862a610bef816119ed565b610bf7611b1f565b50565b610c02611b71565b610c0b82611c43565b610c158282611c6d565b5050565b5f610c23816119ed565b50600c55565b5f610c32611d73565b507f360894a13ba1a3210667c828492db98dca3e2076cc3735a920a3ca505d382bbc90565b610c5f611dd5565b610c67611e16565b335f9081527f806e2a7d00c072d747779081bbe49e052b9bab0bb13b720d89dd394d70bf16a6602052604090205460ff16610cce576040517f98f0bc1a00000000000000000000000000000000000000000000000000000000815260040160405180910390fd5b5f8383604051602001610ce29291906125ea565b60408051601f1981840301815291815281516020928301205f818152600690935291205490915060ff1615610d43576040517fe2b1f19400000000000000000000000000000000000000000000000000000000815260040160405180910390fd5b5f818152600d602052604090205415610d88576040517f434ddb8d00000000000000000000000000000000000000000000000000000000815260040160405180910390fd5b610d93848484611e53565b610dc9576040517fada235dc00000000000000000000000000000000000000000000000000000000815260040160405180910390fd5b5f818152600b60205260408120905b84811015610e2a5781868683818110610df357610df3612667565b83546001810185555f9485526020909420608090910292909201926004029091019050610e208282612694565b5050600101610dd8565b505f600c5442610e3a9190612760565b5f848152600d6020908152604091829020839055815188815290810183905291925084917f6cd89f29dba6c301ac9f6dbd1c0017eb2d9652f5b7201d3d946aaefd6347a1b2910160405180910390a2505050610bc06001600255565b610e9e611dd5565b610ea6611e16565b5f838152600d602052604081205490819003610eee576040517ffc08f5f200000000000000000000000000000000000000000000000000000000815260040160405180910390fd5b804210610f27576040517ff541751000000000000000000000000000000000000000000000000000000000815260040160405180910390fd5b5f8481526006602052604090205460ff1615610f6f576040517fe2b1f19400000000000000000000000000000000000000000000000000000000815260040160405180910390fd5b5f848152600a60205260409020546001600160a01b031615610fbd576040517f148db16600000000000000000000000000000000000000000000000000000000815260040160405180910390fd5b6040518060c00160405280336001600160a01b0316815260200185815260200184848080601f0160208091040260200160405190810160405280939291908181526020018383808284375f9201829052509385525050504267ffffffffffffffff1660208084019190915260408084018390526060909301829052878252600a815290829020835181547fffffffffffffffffffffffff0000000000000000000000000000000000000000166001600160a01b039091161781559083015160018201559082015160028201906110939082612809565b50606082015160039091018054608084015160a09094015115156901000000000000000000027fffffffffffffffffffffffffffffffffffffffffffff00ffffffffffffffffff94151568010000000000000000027fffffffffffffffffffffffffffffffffffffffffffffff00000000000000000090921667ffffffffffffffff909416939093171792909216179055604051339085907f0f9f5c3df79ff3f1c73de526110a901f830460789fde1737fd291195c75bdee89061115a9087908790612902565b60405180910390a350610bc06001600255565b600b602052815f5260405f208181548110611186575f80fd5b5f91825260209091206004909102018054600182015460028301546003909301549194506001600160a01b0316925067ffffffffffffffff1684565b5f6111cc816119ed565b5f838152600a60205260409020546001600160a01b0316611219576040517fae20a7fc00000000000000000000000000000000000000000000000000000000815260040160405180910390fd5b5f838152600a602052604090206003015468010000000000000000900460ff1615611270576040517f2d921dad00000000000000000000000000000000000000000000000000000000815260040160405180910390fd5b5f838152600a602052604090206003018054831580156901000000000000000000027fffffffffffffffffffffffffffffffffffffffffffff0000ffffffffffffffff9092169190911768010000000000000000179091556112db575f838152600d60205260408120555b827fbf0625141f8955c67e8538833525be4a25b700bc19e4f2ddc96d3a4cce4330888360405161130f911515815260200190565b60405180910390a2505050565b7f65d7a28e3265b37a6474929f336521b332c1681b933f6cb9f3376673440d862a611346816119ed565b610bf7611f0d565b6008818154811061135d575f80fd5b5f91825260209091200154905081565b335f9081527ff27da3b2c406461c14405e472ba4a48537a292a76b946db0dbd7443ec08d5831602052604090205460ff166113d4576040517f949fc64d00000000000000000000000000000000000000000000000000000000815260040160405180910390fd5b5f828152600760205260409020546001600160a01b0316611421576040517f014f556800000000000000000000000000000000000000000000000000000000815260040160405180910390fd5b5f82815260076020908152604091829020600201805460ff1916841515908117909155915191825283917fed2bf659025c6e41a9002b0f00cdfb398811c6fde9a8b71a04b6180ab7023a25910160405180910390a25050565b600a6020525f90815260409020805460018201546002830180546001600160a01b039093169391926114ab90612773565b80601f01602080910402602001604051908101604052809291908181526020018280546114d790612773565b80156115225780601f106114f957610100808354040283529160200191611522565b820191905f5260205f20905b81548152906001019060200180831161150557829003601f168201915b5050506003909301549192505067ffffffffffffffff81169060ff680100000000000000008204811691690100000000000000000090041686565b5f82815260208190526040902060010154611577816119ed565b6109938383611a9e565b611589611dd5565b611591611e16565b5f818152600d6020526040812054908190036115d9576040517ffc08f5f200000000000000000000000000000000000000000000000000000000815260040160405180910390fd5b80421015611613576040517fd1312e9f00000000000000000000000000000000000000000000000000000000815260040160405180910390fd5b5f8281526006602052604090205460ff161561165b576040517fe2b1f19400000000000000000000000000000000000000000000000000000000815260040160405180910390fd5b5f828152600a60205260409020546001600160a01b03161580159061169d57505f828152600a602052604090206003015468010000000000000000900460ff16155b156116d4576040517f4b809d9d00000000000000000000000000000000000000000000000000000000815260040160405180910390fd5b5f828152600a602052604090206003015468010000000000000000900460ff16801561171d57505f828152600a60205260409020600301546901000000000000000000900460ff165b15611754576040517fc1c51c8100000000000000000000000000000000000000000000000000000000815260040160405180910390fd5b5f828152600b602052604081208054909190815b818110156118bf575f84828154811061178357611783612667565b5f918252602090912060049091020160018101549091506001600160a01b03166117ad57506118b7565b80600201545f036117be57506118b7565b5f633b9aca0060055483600201546117d69190612930565b6117e09190612947565b905080156117f5576117f28186612760565b94505b60018201546001600160a01b03161580159061181457505f8260020154115b156118b457600480546001840154600285015460038601546040517f4e06f3530000000000000000000000000000000000000000000000000000000081526001600160a01b0393841695810195909552602485019190915267ffffffffffffffff1660448401521690634e06f353906064015f604051808303815f87803b15801561189d575f80fd5b505af11580156118af573d5f803e3d5ffd5b505050505b50505b600101611768565b508115611939576003546040517fa65948a3000000000000000000000000000000000000000000000000000000008152600481018490526001600160a01b039091169063a65948a3906024015f604051808303815f87803b158015611922575f80fd5b505af1158015611934573d5f803e3d5ffd5b505050505b5f8581526006602052604090819020805460ff191660011790555185907f7329a6d2220bdcd2e0f894c159b5bc028a43c58f3bca4f2ddfadcd9f12c535c69061198e9085908590918252602082015260400190565b60405180910390a250505050610bf76001600255565b5f6119ae816119ed565b815f036119e7576040517f9cc0114c00000000000000000000000000000000000000000000000000000000815260040160405180910390fd5b50600955565b610bf78133611f48565b5f828152602081815260408083206001600160a01b038516845290915281205460ff16611a97575f838152602081815260408083206001600160a01b03861684529091529020805460ff19166001179055611a4f3390565b6001600160a01b0316826001600160a01b0316847f2f8788117e7eff1d82e926ec794901d17c78024a50270940304540a733656f0d60405160405180910390a45060016108e0565b505f6108e0565b5f828152602081815260408083206001600160a01b038516845290915281205460ff1615611a97575f838152602081815260408083206001600160a01b0386168085529252808320805460ff1916905551339286917ff6391f5c32d9c69d2a47ea670b442974b53935d1edc7fd64eb21e047a839171b9190a45060016108e0565b611b27611fb3565b6001805460ff191690557f5db9ee0a495bf2e6ff9c91a7834c1ba4fdd244a5e8aa4e537bd38aeae4b073aa335b6040516001600160a01b03909116815260200160405180910390a1565b306001600160a01b037f0000000000000000000000000000000000000000000000000000000000000000161480611c0a57507f00000000000000000000000000000000000000000000000000000000000000006001600160a01b0316611bfe7f360894a13ba1a3210667c828492db98dca3e2076cc3735a920a3ca505d382bbc546001600160a01b031690565b6001600160a01b031614155b15611c41576040517fe07c8dba00000000000000000000000000000000000000000000000000000000815260040160405180910390fd5b565b7f189ab7a9244df0848122154315af71fe140f3db0fe014031783b0946b8c9d2e3610c15816119ed565b816001600160a01b03166352d1902d6040518163ffffffff1660e01b8152600401602060405180830381865afa925050508015611cc7575060408051601f3d908101601f19168201909252611cc49181019061297f565b60015b611d0d576040517f4c9c8ce30000000000000000000000000000000000000000000000000000000081526001600160a01b03831660048201526024015b60405180910390fd5b7f360894a13ba1a3210667c828492db98dca3e2076cc3735a920a3ca505d382bbc8114611d69576040517faa1d49a400000000000000000000000000000000000000000000000000000000815260048101829052602401611d04565b610bc08383611fef565b306001600160a01b037f00000000000000000000000000000000000000000000000000000000000000001614611c41576040517fe07c8dba00000000000000000000000000000000000000000000000000000000815260040160405180910390fd5b6002805403611e10576040517f3ee5aeb500000000000000000000000000000000000000000000000000000000815260040160405180910390fd5b60028055565b60015460ff1615611c41576040517fd93c066500000000000000000000000000000000000000000000000000000000815260040160405180910390fd5b5f60095482602001351015611e6957505f611f06565b5f8484604051602001611e7d9291906125ea565b60408051601f19818403018152828252805160209182012086358285015283830181905282518085038401815260609094018352835193909101929092209192508401358114611ed1575f92505050611f06565b5f8460200135118015611ef05750611eec6060850185612996565b1590505b15611eff575f92505050611f06565b6001925050505b9392505050565b611f15611e16565b6001805460ff1916811790557f62e78cea01bee320cd4e420270b5ea74000d11b0c9f74754ebdbfc544b05a25833611b54565b5f828152602081815260408083206001600160a01b038516845290915290205460ff16610c15576040517fe2517d3f0000000000000000000000000000000000000000000000000000000081526001600160a01b038216600482015260248101839052604401611d04565b60015460ff16611c41576040517f8dfc202b00000000000000000000000000000000000000000000000000000000815260040160405180910390fd5b611ff882612044565b6040516001600160a01b038316907fbc7cd75a20ee27fd9adebab32041f755214dbc6bffa90cc0225b39da2e5c2d3b905f90a280511561203c57610bc082826120eb565b610c1561215d565b806001600160a01b03163b5f03612092576040517f4c9c8ce30000000000000000000000000000000000000000000000000000000081526001600160a01b0382166004820152602401611d04565b7f360894a13ba1a3210667c828492db98dca3e2076cc3735a920a3ca505d382bbc80547fffffffffffffffffffffffff0000000000000000000000000000000000000000166001600160a01b0392909216919091179055565b60605f80846001600160a01b03168460405161210791906129fe565b5f60405180830381855af49150503d805f811461213f576040519150601f19603f3d011682016040523d82523d5f602084013e612144565b606091505b5091509150612154858383612195565b95945050505050565b3415611c41576040517fb398979f00000000000000000000000000000000000000000000000000000000815260040160405180910390fd5b6060826121aa576121a58261220a565b611f06565b81511580156121c157506001600160a01b0384163b155b15612203576040517f9996b3150000000000000000000000000000000000000000000000000000000081526001600160a01b0385166004820152602401611d04565b5080611f06565b80511561221a5780518082602001fd5b6040517fd6bda27500000000000000000000000000000000000000000000000000000000815260040160405180910390fd5b5f6020828403121561225c575f80fd5b81357fffffffff0000000000000000000000000000000000000000000000000000000081168114611f06575f80fd5b5f6020828403121561229b575f80fd5b5035919050565b6001600160a01b0381168114610bf7575f80fd5b5f80604083850312156122c7575f80fd5b8235915060208301356122d9816122a2565b809150509250929050565b7f4e487b71000000000000000000000000000000000000000000000000000000005f52604160045260245ffd5b5f8060408385031215612322575f80fd5b823561232d816122a2565b9150602083013567ffffffffffffffff811115612348575f80fd5b8301601f81018513612358575f80fd5b803567ffffffffffffffff811115612372576123726122e4565b604051601f19603f601f19601f8501160116810181811067ffffffffffffffff821117156123a2576123a26122e4565b6040528181528282016020018710156123b9575f80fd5b816020840160208301375f602083830101528093505050509250929050565b5f608082840312156123e8575f80fd5b50919050565b5f805f60408486031215612400575f80fd5b833567ffffffffffffffff811115612416575f80fd5b8401601f81018613612426575f80fd5b803567ffffffffffffffff81111561243c575f80fd5b8660208260071b8401011115612450575f80fd5b60209182019450925084013567ffffffffffffffff811115612470575f80fd5b61247c868287016123d8565b9150509250925092565b5f805f60408486031215612498575f80fd5b83359250602084013567ffffffffffffffff8111156124b5575f80fd5b8401601f810186136124c5575f80fd5b803567ffffffffffffffff8111156124db575f80fd5b8660208284010111156124ec575f80fd5b939660209190910195509293505050565b5f806040838503121561250e575f80fd5b50508035926020909101359150565b5f806040838503121561252e575f80fd5b82359150602083013580151581146122d9575f80fd5b5f81518084528060208401602086015e5f602082860101526020601f19601f83011685010191505092915050565b6001600160a01b038716815285602082015260c060408201525f61259960c0830187612544565b67ffffffffffffffff959095166060830152509115156080830152151560a0909101529392505050565b602081525f611f066020830184612544565b67ffffffffffffffff81168114610bf7575f80fd5b602080825281018290525f8360408301825b8581101561265d57823582526020830135612616816122a2565b6001600160a01b0316602083015260408381013590830152606083013561263c816125d5565b67ffffffffffffffff166060830152608092830192909101906001016125fc565b5095945050505050565b7f4e487b71000000000000000000000000000000000000000000000000000000005f52603260045260245ffd5b813581556001810160208301356126aa816122a2565b6001600160a01b0381167fffffffffffffffffffffffff0000000000000000000000000000000000000000835416178255505060408201356002820155600381015f60608401356126fa816125d5565b82547fffffffffffffffffffffffffffffffffffffffffffffffff00000000000000001667ffffffffffffffff90911617909155505050565b7f4e487b71000000000000000000000000000000000000000000000000000000005f52601160045260245ffd5b808201808211156108e0576108e0612733565b600181811c9082168061278757607f821691505b6020821081036123e8577f4e487b71000000000000000000000000000000000000000000000000000000005f52602260045260245ffd5b601f821115610bc057805f5260205f20601f840160051c810160208510156127e35750805b601f840160051c820191505b81811015612802575f81556001016127ef565b5050505050565b815167ffffffffffffffff811115612823576128236122e4565b612837816128318454612773565b846127be565b6020601f821160018114612888575f83156128525750848201515b7fffffffffffffffffffffffffffffffffffffffffffffffffffffffffffffffff600385901b1c1916600184901b178455612802565b5f84815260208120601f198516915b828110156128b75787850151825560209485019460019092019101612897565b50848210156128f357868401517fffffffffffffffffffffffffffffffffffffffffffffffffffffffffffffffff600387901b60f8161c191681555b50505050600190811b01905550565b60208152816020820152818360408301375f818301604090810191909152601f909201601f19160101919050565b80820281158282048414176108e0576108e0612733565b5f8261297a577f4e487b71000000000000000000000000000000000000000000000000000000005f52601260045260245ffd5b500490565b5f6020828403121561298f575f80fd5b5051919050565b5f8083357fffffffffffffffffffffffffffffffffffffffffffffffffffffffffffffffe18436030181126129c9575f80fd5b83018035915067ffffffffffffffff8211156129e3575f80fd5b6020019150368190038213156129f7575f80fd5b9250929050565b5f82518060208501845e5f92019182525091905056fea2646970667358221220d5e49e3501184937e8922b41638138b5b05c71fb40591201ab97cf192e645e1964736f6c634300081a0033",
    "linkReferences": {}
  },
  "methodIdentifiers": {
    "DATA_SUBMITTER_ROLE()": "1b2b49a6",
    "DEFAULT_ADMIN_ROLE()": "a217fddf",
    "NODE_MANAGER_ROLE()": "d59f9fe0",
    "PAUSER_ROLE()": "e63ab1e9",
    "UPGRADER_ROLE()": "f72c0d8b",
    "UPGRADE_INTERFACE_VERSION()": "ad3cb1cc",
    "batchChallenges(bytes32)": "8ca5d972",
    "batchProcessingDelay()": "474508cf",
    "batchSubmissionTimes(bytes32)": "d68de31b",
    "carbonCreditToken()": "66dea358",
    "challengeBatch(bytes32,string)": "686ddc7a",
    "emissionFactor()": "b3def2f5",
    "getPeerIdCount()": "33be17f8",
    "getRoleAdmin(bytes32)": "248a9ca3",
    "grantRole(bytes32,address)": "2f2ff15d",
    "hasRole(bytes32,address)": "91d14854",
    "pause()": "8456cb59",
    "paused()": "5c975abb",
    "peerIds(uint256)": "897453f1",
    "processBatch(bytes32)": "dffe86ae",
    "processedBatchHashes(bytes32)": "06c52e7c",
    "proxiableUUID()": "52d1902d",
    "registerNode(bytes32,address)": "34083de7",
    "registeredNodes(bytes32)": "ad573d3e",
    "renounceRole(bytes32,address)": "36568abe",
    "requiredConsensusNodes()": "6facc105",
    "resolveChallenge(bytes32,bool)": "7d89122d",
    "revokeRole(bytes32,address)": "d547741f",
    "rewardDistributor()": "acc2166a",
    "setBatchProcessingDelay(uint256)": "514bab55",
    "setEmissionFactor(uint256)": "1bacfcc1",
    "setRequiredConsensusNodes(uint256)": "e9ae4094",
    "storedBatches(bytes32,uint256)": "7a6ab57d",
    "submitEnergyDataBatch((bytes32,address,uint256,uint64)[],(bytes32,uint256,bytes32,bytes))": "66b5b2c5",
    "supportsInterface(bytes4)": "01ffc9a7",
    "unpause()": "3f4ba83a",
    "updateNodeStatus(bytes32,bool)": "8be2b073",
    "upgradeToAndCall(address,bytes)": "4f1ef286"
  },
  "id": 44
}