{
  "abi": [
    {
      "type": "function",
      "name": "DEFAULT_ADMIN_ROLE",
      "inputs": [],
      "outputs": [
        {
          "name": "",
          "type": "bytes32",
          "internalType": "bytes32"
        }
      ],
      "stateMutability": "view"
    },
    {
      "type": "function",
      "name": "UPGRADE_INTERFACE_VERSION",
      "inputs": [],
      "outputs": [
        {
          "name": "",
          "type": "string",
          "internalType": "string"
        }
      ],
      "stateMutability": "view"
    },
    {
      "type": "function",
      "name": "allPoolIds",
      "inputs": [
        {
          "name": "",
          "type": "uint256",
          "internalType": "uint256"
        }
      ],
      "outputs": [
        {
          "name": "",
          "type": "uint256",
          "internalType": "uint256"
        }
      ],
      "stateMutability": "view"
    },
    {
      "type": "function",
      "name": "createPool",
      "inputs": [
        {
          "name": "",
          "type": "uint256",
          "internalType": "uint256"
        },
        {
          "name": "name",
          "type": "string",
          "internalType": "string"
        }
      ],
      "outputs": [],
      "stateMutability": "nonpayable"
    },
    {
      "type": "function",
      "name": "depositEscrow",
      "inputs": [],
      "outputs": [
        {
          "name": "",
          "type": "address",
          "internalType": "contract IDeveloperDepositEscrow"
        }
      ],
      "stateMutability": "view"
    },
    {
      "type": "function",
      "name": "depositToPool",
      "inputs": [
        {
          "name": "poolId",
          "type": "uint256",
          "internalType": "uint256"
        },
        {
          "name": "amount",
          "type": "uint256",
          "internalType": "uint256"
        }
      ],
      "outputs": [
        {
          "name": "shares",
          "type": "uint256",
          "internalType": "uint256"
        }
      ],
      "stateMutability": "nonpayable"
    },
    {
      "type": "function",
      "name": "devEscrowImplementation",
      "inputs": [],
      "outputs": [
        {
          "name": "",
          "type": "address",
          "internalType": "address"
        }
      ],
      "stateMutability": "view"
    },
    {
      "type": "function",
      "name": "developerRegistry",
      "inputs": [],
      "outputs": [
        {
          "name": "",
          "type": "address",
          "internalType": "contract IDeveloperRegistry"
        }
      ],
      "stateMutability": "view"
    },
    {
      "type": "function",
      "name": "feeRouter",
      "inputs": [],
      "outputs": [
        {
          "name": "",
          "type": "address",
          "internalType": "contract IFeeRouter"
        }
      ],
      "stateMutability": "view"
    },
    {
      "type": "function",
      "name": "getAllPools",
      "inputs": [],
      "outputs": [
        {
          "name": "",
          "type": "tuple[]",
          "internalType": "struct ILiquidityPoolManager.PoolInfo[]",
          "components": [
            {
              "name": "exists",
              "type": "bool",
              "internalType": "bool"
            },
            {
              "name": "name",
              "type": "string",
              "internalType": "string"
            },
            {
              "name": "totalAssets",
              "type": "uint256",
              "internalType": "uint256"
            },
            {
              "name": "totalShares",
              "type": "uint256",
              "internalType": "uint256"
            }
          ]
        }
      ],
      "stateMutability": "view"
    },
    {
      "type": "function",
      "name": "getOutstandingPrincipal",
      "inputs": [
        {
          "name": "poolId",
          "type": "uint256",
          "internalType": "uint256"
        },
        {
          "name": "projectId",
          "type": "uint256",
          "internalType": "uint256"
        }
      ],
      "outputs": [
        {
          "name": "",
          "type": "uint256",
          "internalType": "uint256"
        }
      ],
      "stateMutability": "view"
    },
    {
      "type": "function",
      "name": "getPoolInfo",
      "inputs": [
        {
          "name": "poolId",
          "type": "uint256",
          "internalType": "uint256"
        }
      ],
      "outputs": [
        {
          "name": "",
          "type": "tuple",
          "internalType": "struct ILiquidityPoolManager.PoolInfo",
          "components": [
            {
              "name": "exists",
              "type": "bool",
              "internalType": "bool"
            },
            {
              "name": "name",
              "type": "string",
              "internalType": "string"
            },
            {
              "name": "totalAssets",
              "type": "uint256",
              "internalType": "uint256"
            },
            {
              "name": "totalShares",
              "type": "uint256",
              "internalType": "uint256"
            }
          ]
        }
      ],
      "stateMutability": "view"
    },
    {
      "type": "function",
      "name": "getPoolLoanRecord",
      "inputs": [
        {
          "name": "poolId",
          "type": "uint256",
          "internalType": "uint256"
        },
        {
          "name": "projectId",
          "type": "uint256",
          "internalType": "uint256"
        }
      ],
      "outputs": [
        {
          "name": "",
          "type": "tuple",
          "internalType": "struct ILiquidityPoolManager.LoanRecord",
          "components": [
            {
              "name": "exists",
              "type": "bool",
              "internalType": "bool"
            },
            {
              "name": "developer",
              "type": "address",
              "internalType": "address"
            },
            {
              "name": "devEscrow",
              "type": "address",
              "internalType": "address"
            },
            {
              "name": "principal",
              "type": "uint256",
              "internalType": "uint256"
            },
            {
              "name": "aprBps",
              "type": "uint16",
              "internalType": "uint16"
            },
            {
              "name": "loanTenor",
              "type": "uint48",
              "internalType": "uint48"
            },
            {
              "name": "principalRepaid",
              "type": "uint256",
              "internalType": "uint256"
            },
            {
              "name": "interestAccrued",
              "type": "uint256",
              "internalType": "uint256"
            },
            {
              "name": "startTime",
              "type": "uint64",
              "internalType": "uint64"
            },
            {
              "name": "isActive",
              "type": "bool",
              "internalType": "bool"
            }
          ]
        }
      ],
      "stateMutability": "view"
    },
    {
      "type": "function",
      "name": "getPoolLoans",
      "inputs": [
        {
          "name": "poolId",
          "type": "uint256",
          "internalType": "uint256"
        }
      ],
      "outputs": [
        {
          "name": "projectIds",
          "type": "uint256[]",
          "internalType": "uint256[]"
        },
        {
          "name": "loanAmounts",
          "type": "uint256[]",
          "internalType": "uint256[]"
        },
        {
          "name": "outstandingAmounts",
          "type": "uint256[]",
          "internalType": "uint256[]"
        },
        {
          "name": "states",
          "type": "uint8[]",
          "internalType": "uint8[]"
        }
      ],
      "stateMutability": "view"
    },
    {
      "type": "function",
      "name": "getRoleAdmin",
      "inputs": [
        {
          "name": "role",
          "type": "bytes32",
          "internalType": "bytes32"
        }
      ],
      "outputs": [
        {
          "name": "",
          "type": "bytes32",
          "internalType": "bytes32"
        }
      ],
      "stateMutability": "view"
    },
    {
      "type": "function",
      "name": "getRoleMember",
      "inputs": [
        {
          "name": "role",
          "type": "bytes32",
          "internalType": "bytes32"
        },
        {
          "name": "index",
          "type": "uint256",
          "internalType": "uint256"
        }
      ],
      "outputs": [
        {
          "name": "",
          "type": "address",
          "internalType": "address"
        }
      ],
      "stateMutability": "view"
    },
    {
      "type": "function",
      "name": "getRoleMemberCount",
      "inputs": [
        {
          "name": "role",
          "type": "bytes32",
          "internalType": "bytes32"
        }
      ],
      "outputs": [
        {
          "name": "",
          "type": "uint256",
          "internalType": "uint256"
        }
      ],
      "stateMutability": "view"
    },
    {
      "type": "function",
      "name": "getRoleMembers",
      "inputs": [
        {
          "name": "role",
          "type": "bytes32",
          "internalType": "bytes32"
        }
      ],
      "outputs": [
        {
          "name": "",
          "type": "address[]",
          "internalType": "address[]"
        }
      ],
      "stateMutability": "view"
    },
    {
      "type": "function",
      "name": "getUserPoolInvestments",
      "inputs": [
        {
          "name": "user",
          "type": "address",
          "internalType": "address"
        }
      ],
      "outputs": [
        {
          "name": "poolIds",
          "type": "uint256[]",
          "internalType": "uint256[]"
        },
        {
          "name": "shares",
          "type": "uint256[]",
          "internalType": "uint256[]"
        },
        {
          "name": "values",
          "type": "uint256[]",
          "internalType": "uint256[]"
        }
      ],
      "stateMutability": "view"
    },
    {
      "type": "function",
      "name": "getUserShares",
      "inputs": [
        {
          "name": "poolId",
          "type": "uint256",
          "internalType": "uint256"
        },
        {
          "name": "user",
          "type": "address",
          "internalType": "address"
        }
      ],
      "outputs": [
        {
          "name": "",
          "type": "uint256",
          "internalType": "uint256"
        }
      ],
      "stateMutability": "view"
    },
    {
      "type": "function",
      "name": "grantRole",
      "inputs": [
        {
          "name": "role",
          "type": "bytes32",
          "internalType": "bytes32"
        },
        {
          "name": "account",
          "type": "address",
          "internalType": "address"
        }
      ],
      "outputs": [],
      "stateMutability": "nonpayable"
    },
    {
      "type": "function",
      "name": "handleLoanDefault",
      "inputs": [
        {
          "name": "poolId",
          "type": "uint256",
          "internalType": "uint256"
        },
        {
          "name": "projectId",
          "type": "uint256",
          "internalType": "uint256"
        },
        {
          "name": "writeOffAmount",
          "type": "uint256",
          "internalType": "uint256"
        },
        {
          "name": "slashDeposit",
          "type": "bool",
          "internalType": "bool"
        }
      ],
      "outputs": [],
      "stateMutability": "nonpayable"
    },
    {
      "type": "function",
      "name": "handleRepayment",
      "inputs": [
        {
          "name": "poolId",
          "type": "uint256",
          "internalType": "uint256"
        },
        {
          "name": "projectId",
          "type": "uint256",
          "internalType": "uint256"
        },
        {
          "name": "netAmountReceived",
          "type": "uint256",
          "internalType": "uint256"
        }
      ],
      "outputs": [
        {
          "name": "principalPaid",
          "type": "uint256",
          "internalType": "uint256"
        },
        {
          "name": "interestPaid",
          "type": "uint256",
          "internalType": "uint256"
        }
      ],
      "stateMutability": "nonpayable"
    },
    {
      "type": "function",
      "name": "hasRole",
      "inputs": [
        {
          "name": "role",
          "type": "bytes32",
          "internalType": "bytes32"
        },
        {
          "name": "account",
          "type": "address",
          "internalType": "address"
        }
      ],
      "outputs": [
        {
          "name": "",
          "type": "bool",
          "internalType": "bool"
        }
      ],
      "stateMutability": "view"
    },
    {
      "type": "function",
      "name": "initialize",
      "inputs": [
        {
          "name": "_admin",
          "type": "address",
          "internalType": "address"
        },
        {
          "name": "_usdcToken",
          "type": "address",
          "internalType": "address"
        },
        {
          "name": "_feeRouter",
          "type": "address",
          "internalType": "address"
        },
        {
          "name": "_developerRegistry",
          "type": "address",
          "internalType": "address"
        },
        {
          "name": "_riskRateOracleAdapter",
          "type": "address",
          "internalType": "address"
        },
        {
          "name": "_devEscrowImplementation",
          "type": "address",
          "internalType": "address"
        },
        {
          "name": "_repaymentRouter",
          "type": "address",
          "internalType": "address"
        },
        {
          "name": "_depositEscrow",
          "type": "address",
          "internalType": "address"
        },
        {
          "name": "_protocolTreasuryAdmin",
          "type": "address",
          "internalType": "address"
        }
      ],
      "outputs": [],
      "stateMutability": "nonpayable"
    },
    {
      "type": "function",
      "name": "pause",
      "inputs": [],
      "outputs": [],
      "stateMutability": "nonpayable"
    },
    {
      "type": "function",
      "name": "paused",
      "inputs": [],
      "outputs": [
        {
          "name": "",
          "type": "bool",
          "internalType": "bool"
        }
      ],
      "stateMutability": "view"
    },
    {
      "type": "function",
      "name": "poolAprRates",
      "inputs": [
        {
          "name": "",
          "type": "uint256",
          "internalType": "uint256"
        }
      ],
      "outputs": [
        {
          "name": "",
          "type": "uint16",
          "internalType": "uint16"
        }
      ],
      "stateMutability": "view"
    },
    {
      "type": "function",
      "name": "poolCount",
      "inputs": [],
      "outputs": [
        {
          "name": "",
          "type": "uint256",
          "internalType": "uint256"
        }
      ],
      "stateMutability": "view"
    },
    {
      "type": "function",
      "name": "poolInvestors",
      "inputs": [
        {
          "name": "",
          "type": "uint256",
          "internalType": "uint256"
        },
        {
          "name": "",
          "type": "uint256",
          "internalType": "uint256"
        }
      ],
      "outputs": [
        {
          "name": "",
          "type": "address",
          "internalType": "address"
        }
      ],
      "stateMutability": "view"
    },
    {
      "type": "function",
      "name": "poolLoans",
      "inputs": [
        {
          "name": "",
          "type": "uint256",
          "internalType": "uint256"
        },
        {
          "name": "",
          "type": "uint256",
          "internalType": "uint256"
        }
      ],
      "outputs": [
        {
          "name": "exists",
          "type": "bool",
          "internalType": "bool"
        },
        {
          "name": "developer",
          "type": "address",
          "internalType": "address"
        },
        {
          "name": "devEscrow",
          "type": "address",
          "internalType": "address"
        },
        {
          "name": "principal",
          "type": "uint256",
          "internalType": "uint256"
        },
        {
          "name": "aprBps",
          "type": "uint16",
          "internalType": "uint16"
        },
        {
          "name": "loanTenor",
          "type": "uint48",
          "internalType": "uint48"
        },
        {
          "name": "principalRepaid",
          "type": "uint256",
          "internalType": "uint256"
        },
        {
          "name": "interestAccrued",
          "type": "uint256",
          "internalType": "uint256"
        },
        {
          "name": "startTime",
          "type": "uint64",
          "internalType": "uint64"
        },
        {
          "name": "isActive",
          "type": "bool",
          "internalType": "bool"
        }
      ],
      "stateMutability": "view"
    },
    {
      "type": "function",
      "name": "poolProjectStates",
      "inputs": [
        {
          "name": "",
          "type": "uint256",
          "internalType": "uint256"
        }
      ],
      "outputs": [
        {
          "name": "",
          "type": "uint8",
          "internalType": "uint8"
        }
      ],
      "stateMutability": "view"
    },
    {
      "type": "function",
      "name": "poolRiskLevels",
      "inputs": [
        {
          "name": "",
          "type": "uint256",
          "internalType": "uint256"
        }
      ],
      "outputs": [
        {
          "name": "",
          "type": "uint16",
          "internalType": "uint16"
        }
      ],
      "stateMutability": "view"
    },
    {
      "type": "function",
      "name": "pools",
      "inputs": [
        {
          "name": "",
          "type": "uint256",
          "internalType": "uint256"
        }
      ],
      "outputs": [
        {
          "name": "exists",
          "type": "bool",
          "internalType": "bool"
        },
        {
          "name": "name",
          "type": "string",
          "internalType": "string"
        },
        {
          "name": "totalAssets",
          "type": "uint256",
          "internalType": "uint256"
        },
        {
          "name": "totalShares",
          "type": "uint256",
          "internalType": "uint256"
        }
      ],
      "stateMutability": "view"
    },
    {
      "type": "function",
      "name": "projectsByPool",
      "inputs": [
        {
          "name": "",
          "type": "uint256",
          "internalType": "uint256"
        },
        {
          "name": "",
          "type": "uint256",
          "internalType": "uint256"
        }
      ],
      "outputs": [
        {
          "name": "",
          "type": "uint256",
          "internalType": "uint256"
        }
      ],
      "stateMutability": "view"
    },
    {
      "type": "function",
      "name": "protocolTreasuryAdmin",
      "inputs": [],
      "outputs": [
        {
          "name": "",
          "type": "address",
          "internalType": "address"
        }
      ],
      "stateMutability": "view"
    },
    {
      "type": "function",
      "name": "proxiableUUID",
      "inputs": [],
      "outputs": [
        {
          "name": "",
          "type": "bytes32",
          "internalType": "bytes32"
        }
      ],
      "stateMutability": "view"
    },
    {
      "type": "function",
      "name": "redeem",
      "inputs": [
        {
          "name": "poolId",
          "type": "uint256",
          "internalType": "uint256"
        },
        {
          "name": "shares",
          "type": "uint256",
          "internalType": "uint256"
        }
      ],
      "outputs": [
        {
          "name": "assets",
          "type": "uint256",
          "internalType": "uint256"
        }
      ],
      "stateMutability": "nonpayable"
    },
    {
      "type": "function",
      "name": "registerAndFundProject",
      "inputs": [
        {
          "name": "projectId",
          "type": "uint256",
          "internalType": "uint256"
        },
        {
          "name": "developer",
          "type": "address",
          "internalType": "address"
        },
        {
          "name": "params",
          "type": "tuple",
          "internalType": "struct ILiquidityPoolManager.ProjectParams",
          "components": [
            {
              "name": "loanAmountRequested",
              "type": "uint256",
              "internalType": "uint256"
            },
            {
              "name": "totalProjectCost",
              "type": "uint256",
              "internalType": "uint256"
            },
            {
              "name": "requestedTenor",
              "type": "uint48",
              "internalType": "uint48"
            },
            {
              "name": "fundingDeadline",
              "type": "uint32",
              "internalType": "uint32"
            },
            {
              "name": "metadataCID",
              "type": "string",
              "internalType": "string"
            }
          ]
        }
      ],
      "outputs": [
        {
          "name": "success",
          "type": "bool",
          "internalType": "bool"
        },
        {
          "name": "poolId",
          "type": "uint256",
          "internalType": "uint256"
        }
      ],
      "stateMutability": "nonpayable"
    },
    {
      "type": "function",
      "name": "renounceRole",
      "inputs": [
        {
          "name": "role",
          "type": "bytes32",
          "internalType": "bytes32"
        },
        {
          "name": "callerConfirmation",
          "type": "address",
          "internalType": "address"
        }
      ],
      "outputs": [],
      "stateMutability": "nonpayable"
    },
    {
      "type": "function",
      "name": "repaymentRouter",
      "inputs": [],
      "outputs": [
        {
          "name": "",
          "type": "address",
          "internalType": "address"
        }
      ],
      "stateMutability": "view"
    },
    {
      "type": "function",
      "name": "revokeRole",
      "inputs": [
        {
          "name": "role",
          "type": "bytes32",
          "internalType": "bytes32"
        },
        {
          "name": "account",
          "type": "address",
          "internalType": "address"
        }
      ],
      "outputs": [],
      "stateMutability": "nonpayable"
    },
    {
      "type": "function",
      "name": "riskOracleAdapter",
      "inputs": [],
      "outputs": [
        {
          "name": "",
          "type": "address",
          "internalType": "contract IRiskRateOracleAdapter"
        }
      ],
      "stateMutability": "view"
    },
    {
      "type": "function",
      "name": "setPoolRiskLevel",
      "inputs": [
        {
          "name": "poolId",
          "type": "uint256",
          "internalType": "uint256"
        },
        {
          "name": "riskLevel",
          "type": "uint16",
          "internalType": "uint16"
        },
        {
          "name": "baseAprBps",
          "type": "uint16",
          "internalType": "uint16"
        }
      ],
      "outputs": [],
      "stateMutability": "nonpayable"
    },
    {
      "type": "function",
      "name": "supportsInterface",
      "inputs": [
        {
          "name": "interfaceId",
          "type": "bytes4",
          "internalType": "bytes4"
        }
      ],
      "outputs": [
        {
          "name": "",
          "type": "bool",
          "internalType": "bool"
        }
      ],
      "stateMutability": "view"
    },
    {
      "type": "function",
      "name": "unpause",
      "inputs": [],
      "outputs": [],
      "stateMutability": "nonpayable"
    },
    {
      "type": "function",
      "name": "updateRiskParams",
      "inputs": [
        {
          "name": "poolId",
          "type": "uint256",
          "internalType": "uint256"
        },
        {
          "name": "projectId",
          "type": "uint256",
          "internalType": "uint256"
        },
        {
          "name": "newAprBps",
          "type": "uint16",
          "internalType": "uint16"
        }
      ],
      "outputs": [],
      "stateMutability": "nonpayable"
    },
    {
      "type": "function",
      "name": "upgradeToAndCall",
      "inputs": [
        {
          "name": "newImplementation",
          "type": "address",
          "internalType": "address"
        },
        {
          "name": "data",
          "type": "bytes",
          "internalType": "bytes"
        }
      ],
      "outputs": [],
      "stateMutability": "payable"
    },
    {
      "type": "function",
      "name": "usdcToken",
      "inputs": [],
      "outputs": [
        {
          "name": "",
          "type": "address",
          "internalType": "contract IERC20"
        }
      ],
      "stateMutability": "view"
    },
    {
      "type": "function",
      "name": "userPoolIds",
      "inputs": [
        {
          "name": "",
          "type": "address",
          "internalType": "address"
        },
        {
          "name": "",
          "type": "uint256",
          "internalType": "uint256"
        }
      ],
      "outputs": [
        {
          "name": "",
          "type": "uint256",
          "internalType": "uint256"
        }
      ],
      "stateMutability": "view"
    },
    {
      "type": "function",
      "name": "userShares",
      "inputs": [
        {
          "name": "",
          "type": "address",
          "internalType": "address"
        },
        {
          "name": "",
          "type": "uint256",
          "internalType": "uint256"
        }
      ],
      "outputs": [
        {
          "name": "",
          "type": "uint256",
          "internalType": "uint256"
        }
      ],
      "stateMutability": "view"
    },
    {
      "type": "event",
      "name": "Initialized",
      "inputs": [
        {
          "name": "version",
          "type": "uint64",
          "indexed": false,
          "internalType": "uint64"
        }
      ],
      "anonymous": false
    },
    {
      "type": "event",
      "name": "LoanDefaulted",
      "inputs": [
        {
          "name": "poolId",
          "type": "uint256",
          "indexed": true,
          "internalType": "uint256"
        },
        {
          "name": "projectId",
          "type": "uint256",
          "indexed": true,
          "internalType": "uint256"
        },
        {
          "name": "developer",
          "type": "address",
          "indexed": true,
          "internalType": "address"
        },
        {
          "name": "writeOffAmount",
          "type": "uint256",
          "indexed": false,
          "internalType": "uint256"
        },
        {
          "name": "totalOutstandingAtDefault",
          "type": "uint256",
          "indexed": false,
          "internalType": "uint256"
        }
      ],
      "anonymous": false
    },
    {
      "type": "event",
      "name": "Paused",
      "inputs": [
        {
          "name": "account",
          "type": "address",
          "indexed": false,
          "internalType": "address"
        }
      ],
      "anonymous": false
    },
    {
      "type": "event",
      "name": "PoolCreated",
      "inputs": [
        {
          "name": "poolId",
          "type": "uint256",
          "indexed": true,
          "internalType": "uint256"
        },
        {
          "name": "name",
          "type": "string",
          "indexed": false,
          "internalType": "string"
        },
        {
          "name": "creator",
          "type": "address",
          "indexed": true,
          "internalType": "address"
        }
      ],
      "anonymous": false
    },
    {
      "type": "event",
      "name": "PoolDeposit",
      "inputs": [
        {
          "name": "poolId",
          "type": "uint256",
          "indexed": true,
          "internalType": "uint256"
        },
        {
          "name": "investor",
          "type": "address",
          "indexed": true,
          "internalType": "address"
        },
        {
          "name": "assetsDeposited",
          "type": "uint256",
          "indexed": false,
          "internalType": "uint256"
        },
        {
          "name": "sharesMinted",
          "type": "uint256",
          "indexed": false,
          "internalType": "uint256"
        }
      ],
      "anonymous": false
    },
    {
      "type": "event",
      "name": "PoolProjectFunded",
      "inputs": [
        {
          "name": "poolId",
          "type": "uint256",
          "indexed": true,
          "internalType": "uint256"
        },
        {
          "name": "projectId",
          "type": "uint256",
          "indexed": true,
          "internalType": "uint256"
        },
        {
          "name": "developer",
          "type": "address",
          "indexed": true,
          "internalType": "address"
        },
        {
          "name": "devEscrow",
          "type": "address",
          "indexed": false,
          "internalType": "address"
        },
        {
          "name": "amountFunded",
          "type": "uint256",
          "indexed": false,
          "internalType": "uint256"
        },
        {
          "name": "aprBps",
          "type": "uint16",
          "indexed": false,
          "internalType": "uint16"
        },
        {
          "name": "liquidityPoolManagerAddress",
          "type": "address",
          "indexed": false,
          "internalType": "address"
        }
      ],
      "anonymous": false
    },
    {
      "type": "event",
      "name": "PoolRedeem",
      "inputs": [
        {
          "name": "poolId",
          "type": "uint256",
          "indexed": true,
          "internalType": "uint256"
        },
        {
          "name": "redeemer",
          "type": "address",
          "indexed": true,
          "internalType": "address"
        },
        {
          "name": "sharesBurned",
          "type": "uint256",
          "indexed": false,
          "internalType": "uint256"
        },
        {
          "name": "assetsWithdrawn",
          "type": "uint256",
          "indexed": false,
          "internalType": "uint256"
        }
      ],
      "anonymous": false
    },
    {
      "type": "event",
      "name": "PoolRepaymentReceived",
      "inputs": [
        {
          "name": "poolId",
          "type": "uint256",
          "indexed": true,
          "internalType": "uint256"
        },
        {
          "name": "projectId",
          "type": "uint256",
          "indexed": true,
          "internalType": "uint256"
        },
        {
          "name": "payer",
          "type": "address",
          "indexed": true,
          "internalType": "address"
        },
        {
          "name": "principalReceived",
          "type": "uint256",
          "indexed": false,
          "internalType": "uint256"
        },
        {
          "name": "interestReceived",
          "type": "uint256",
          "indexed": false,
          "internalType": "uint256"
        }
      ],
      "anonymous": false
    },
    {
      "type": "event",
      "name": "RoleAdminChanged",
      "inputs": [
        {
          "name": "role",
          "type": "bytes32",
          "indexed": true,
          "internalType": "bytes32"
        },
        {
          "name": "previousAdminRole",
          "type": "bytes32",
          "indexed": true,
          "internalType": "bytes32"
        },
        {
          "name": "newAdminRole",
          "type": "bytes32",
          "indexed": true,
          "internalType": "bytes32"
        }
      ],
      "anonymous": false
    },
    {
      "type": "event",
      "name": "RoleGranted",
      "inputs": [
        {
          "name": "role",
          "type": "bytes32",
          "indexed": true,
          "internalType": "bytes32"
        },
        {
          "name": "account",
          "type": "address",
          "indexed": true,
          "internalType": "address"
        },
        {
          "name": "sender",
          "type": "address",
          "indexed": true,
          "internalType": "address"
        }
      ],
      "anonymous": false
    },
    {
      "type": "event",
      "name": "RoleRevoked",
      "inputs": [
        {
          "name": "role",
          "type": "bytes32",
          "indexed": true,
          "internalType": "bytes32"
        },
        {
          "name": "account",
          "type": "address",
          "indexed": true,
          "internalType": "address"
        },
        {
          "name": "sender",
          "type": "address",
          "indexed": true,
          "internalType": "address"
        }
      ],
      "anonymous": false
    },
    {
      "type": "event",
      "name": "Unpaused",
      "inputs": [
        {
          "name": "account",
          "type": "address",
          "indexed": false,
          "internalType": "address"
        }
      ],
      "anonymous": false
    },
    {
      "type": "event",
      "name": "Upgraded",
      "inputs": [
        {
          "name": "implementation",
          "type": "address",
          "indexed": true,
          "internalType": "address"
        }
      ],
      "anonymous": false
    },
    {
      "type": "error",
      "name": "AccessControlBadConfirmation",
      "inputs": []
    },
    {
      "type": "error",
      "name": "AccessControlUnauthorizedAccount",
      "inputs": [
        {
          "name": "account",
          "type": "address",
          "internalType": "address"
        },
        {
          "name": "neededRole",
          "type": "bytes32",
          "internalType": "bytes32"
        }
      ]
    },
    {
      "type": "error",
      "name": "AddressEmptyCode",
      "inputs": [
        {
          "name": "target",
          "type": "address",
          "internalType": "address"
        }
      ]
    },
    {
      "type": "error",
      "name": "AmountCannotBeZero",
      "inputs": []
    },
    {
      "type": "error",
      "name": "CannotInvestZero",
      "inputs": []
    },
    {
      "type": "error",
      "name": "CannotRedeemZeroShares",
      "inputs": []
    },
    {
      "type": "error",
      "name": "ERC1967InvalidImplementation",
      "inputs": [
        {
          "name": "implementation",
          "type": "address",
          "internalType": "address"
        }
      ]
    },
    {
      "type": "error",
      "name": "ERC1967NonPayable",
      "inputs": []
    },
    {
      "type": "error",
      "name": "EnforcedPause",
      "inputs": []
    },
    {
      "type": "error",
      "name": "ExpectedPause",
      "inputs": []
    },
    {
      "type": "error",
      "name": "FailedCall",
      "inputs": []
    },
    {
      "type": "error",
      "name": "FailedDeployment",
      "inputs": []
    },
    {
      "type": "error",
      "name": "InsufficientBalance",
      "inputs": [
        {
          "name": "balance",
          "type": "uint256",
          "internalType": "uint256"
        },
        {
          "name": "needed",
          "type": "uint256",
          "internalType": "uint256"
        }
      ]
    },
    {
      "type": "error",
      "name": "InsufficientLiquidity",
      "inputs": []
    },
    {
      "type": "error",
      "name": "InsufficientShares",
      "inputs": [
        {
          "name": "required",
          "type": "uint256",
          "internalType": "uint256"
        },
        {
          "name": "available",
          "type": "uint256",
          "internalType": "uint256"
        }
      ]
    },
    {
      "type": "error",
      "name": "InvalidInitialization",
      "inputs": []
    },
    {
      "type": "error",
      "name": "InvalidState",
      "inputs": [
        {
          "name": "reason",
          "type": "string",
          "internalType": "string"
        }
      ]
    },
    {
      "type": "error",
      "name": "InvalidValue",
      "inputs": [
        {
          "name": "reason",
          "type": "string",
          "internalType": "string"
        }
      ]
    },
    {
      "type": "error",
      "name": "InvestmentBelowMinimum",
      "inputs": [
        {
          "name": "minimum",
          "type": "uint256",
          "internalType": "uint256"
        }
      ]
    },
    {
      "type": "error",
      "name": "NotInitializing",
      "inputs": []
    },
    {
      "type": "error",
      "name": "PoolAlreadyExists",
      "inputs": [
        {
          "name": "poolId",
          "type": "uint256",
          "internalType": "uint256"
        }
      ]
    },
    {
      "type": "error",
      "name": "PoolDoesNotExist",
      "inputs": [
        {
          "name": "poolId",
          "type": "uint256",
          "internalType": "uint256"
        }
      ]
    },
    {
      "type": "error",
      "name": "ReentrancyGuardReentrantCall",
      "inputs": []
    },
    {
      "type": "error",
      "name": "SafeERC20FailedOperation",
      "inputs": [
        {
          "name": "token",
          "type": "address",
          "internalType": "address"
        }
      ]
    },
    {
      "type": "error",
      "name": "StringCannotBeEmpty",
      "inputs": []
    },
    {
      "type": "error",
      "name": "UUPSUnauthorizedCallContext",
      "inputs": []
    },
    {
      "type": "error",
      "name": "UUPSUnsupportedProxiableUUID",
      "inputs": [
        {
          "name": "slot",
          "type": "bytes32",
          "internalType": "bytes32"
        }
      ]
    },
    {
      "type": "error",
      "name": "ZeroAddressNotAllowed",
      "inputs": []
    }
  ],
  "bytecode": {
    "object": "0x60a0604052306080523480156012575f80fd5b50600160035560805161508b61003e5f395f81816131f20152818161321b015261342d015261508b5ff3fe608060405260043610610324575f3560e01c8063835dc40b116101a7578063ac4afa38116100e7578063e53dc68011610092578063f29ebf611161006d578063f29ebf6114610c53578063f525cb6814610c72578063f5e95acb14610c87578063fcb72a9c14610ca6575f80fd5b8063e53dc68014610bd0578063e60ee79914610c06578063eb82055114610c34575f80fd5b8063ce4a37fe116100c2578063ce4a37fe14610b71578063d547741f14610b90578063d88ff1f414610baf575f80fd5b8063ac4afa3814610ace578063ad3cb1cc14610afd578063ca15c87314610b52575f80fd5b806391d14854116101525780639676c1cb1161012d5780639676c1cb1461093d578063a0df49ee14610a4f578063a217fddf14610a8f578063a3246ad314610aa2575f80fd5b806391d148541461079b57806396050317146107dd578063960b5cec1461091e575f80fd5b80638aa1c0dc116101825780638aa1c0dc1461073e5780638aabb0821461075d5780639010d07c1461077c575f80fd5b8063835dc40b146106bd5780638456cb59146106fb57806385cc27fb1461070f575f80fd5b80633f4ba83a1161027257806359b2d2941161021d5780637113fe4e116101f85780637113fe4e1461064157806372e42038146106605780637cbc23731461067f578063818afcd11461069e575f80fd5b806359b2d294146105ec5780635c975abb1461060b5780636fa9d05614610622575f80fd5b8063496179ac1161024d578063496179ac146105915780634f1ef286146105c557806352d1902d146105d8575f80fd5b80633f4ba83a14610505578063455cbc40146105195780634674810d1461054f575f80fd5b80632ac8cb8a116102d25780632f2ff15d116102ad5780632f2ff15d1461049b5780632f380b35146104ba57806336568abe146104e6575f80fd5b80632ac8cb8a1461042e5780632d6af4d51461045d5780632edca33b1461047c575f80fd5b806312d06cf21161030257806312d06cf2146103b2578063171eb0ee146103d3578063248a9ca3146103f2575f80fd5b806301ffc9a714610328578063107d0be11461035c57806311eac85514610393575b5f80fd5b348015610333575f80fd5b50610347610342366004614403565b610cc5565b60405190151581526020015b60405180910390f35b348015610367575f80fd5b5060065461037b906001600160a01b031681565b6040516001600160a01b039091168152602001610353565b34801561039e575f80fd5b5060045461037b906001600160a01b031681565b3480156103bd575f80fd5b506103d16103cc366004614451565b610d8f565b005b3480156103de575f80fd5b5060085461037b906001600160a01b031681565b3480156103fd575f80fd5b5061042061040c366004614487565b5f9081526020819052604090206001015490565b604051908152602001610353565b348015610439575f80fd5b5061044d610448366004614487565b610ea1565b60405161035394939291906144d8565b348015610468575f80fd5b50610420610477366004614559565b6110ca565b348015610487575f80fd5b50610420610496366004614559565b611112565b3480156104a6575f80fd5b506103d16104b536600461458f565b61113d565b3480156104c5575f80fd5b506104d96104d4366004614487565b611167565b6040516103539190614627565b3480156104f1575f80fd5b506103d161050036600461458f565b6112ad565b348015610510575f80fd5b506103d16112fe565b348015610524575f80fd5b50610538610533366004614639565b611333565b604080519215158352602083019190915201610353565b34801561055a575f80fd5b5061057e610569366004614487565b60166020525f908152604090205461ffff1681565b60405161ffff9091168152602001610353565b34801561059c575f80fd5b506105b06105ab366004614687565b61140b565b60408051928352602083019190915201610353565b6103d16105d33660046146dd565b611649565b3480156105e3575f80fd5b50610420611668565b3480156105f7575f80fd5b5060075461037b906001600160a01b031681565b348015610616575f80fd5b5060025460ff16610347565b34801561062d575f80fd5b5060095461037b906001600160a01b031681565b34801561064c575f80fd5b506103d161065b3660046147a2565b611696565b34801561066b575f80fd5b5061037b61067a366004614559565b6117bd565b34801561068a575f80fd5b50610420610699366004614559565b6117f1565b3480156106a9575f80fd5b50600b5461037b906001600160a01b031681565b3480156106c8575f80fd5b506104206106d736600461458f565b6001600160a01b03165f908152601460209081526040808320938352929052205490565b348015610706575f80fd5b506103d1611aec565b34801561071a575f80fd5b5061057e610729366004614487565b60156020525f908152604090205461ffff1681565b348015610749575f80fd5b50600a5461037b906001600160a01b031681565b348015610768575f80fd5b506104206107773660046147d6565b611b1e565b348015610787575f80fd5b5061037b610796366004614559565b611b37565b3480156107a6575f80fd5b506103476107b536600461458f565b5f918252602082815260408084206001600160a01b0393909316845291905290205460ff1690565b3480156107e8575f80fd5b506109116107f7366004614559565b60408051610140810182525f80825260208201819052918101829052606081018290526080810182905260a0810182905260c0810182905260e081018290526101008101829052610120810191909152505f828152601260209081526040808320848452825291829020825161014081018452815460ff808216151583526001600160a01b036101009283900481169584019590955260018401549094169482019490945260028201546060820152600382015461ffff8116608083015265ffffffffffff620100009091041660a0820152600482015460c0820152600582015460e082015260069091015467ffffffffffffffff8116938201939093526801000000000000000090920416151561012082015292915050565b60405161035391906147fe565b348015610929575f80fd5b506103d16109383660046148c0565b611b55565b348015610948575f80fd5b506109df610957366004614559565b601260209081525f9283526040808420909152908252902080546001820154600283015460038401546004850154600586015460069096015460ff808716976101009097046001600160a01b039081169796169561ffff85169462010000900465ffffffffffff169392909167ffffffffffffffff821691680100000000000000009004168a565b604080519a15158b526001600160a01b03998a1660208c01529790981696890196909652606088019490945261ffff92909216608087015265ffffffffffff1660a086015260c085015260e084015267ffffffffffffffff16610100830152151561012082015261014001610353565b348015610a5a575f80fd5b50610a7d610a69366004614487565b60116020525f908152604090205460ff1681565b60405160ff9091168152602001610353565b348015610a9a575f80fd5b506104205f81565b348015610aad575f80fd5b50610ac1610abc366004614487565b611e22565b6040516103539190614902565b348015610ad9575f80fd5b50610aed610ae8366004614487565b611e3b565b604051610353949392919061494d565b348015610b08575f80fd5b50610b456040518060400160405280600581526020017f352e302e3000000000000000000000000000000000000000000000000000000081525081565b604051610353919061497a565b348015610b5d575f80fd5b50610420610b6c366004614487565b611eed565b348015610b7c575f80fd5b506103d1610b8b36600461498c565b611f03565b348015610b9b575f80fd5b506103d1610baa36600461458f565b6120e4565b348015610bba575f80fd5b50610bc3612108565b6040516103539190614a03565b348015610bdb575f80fd5b50610420610bea3660046147d6565b601460209081525f928352604080842090915290825290205481565b348015610c11575f80fd5b50610c25610c20366004614a84565b6122b0565b60405161035393929190614a9d565b348015610c3f575f80fd5b50610420610c4e366004614559565b6124b1565b348015610c5e575f80fd5b5060055461037b906001600160a01b031681565b348015610c7d575f80fd5b50610420600d5481565b348015610c92575f80fd5b506103d1610ca1366004614ad5565b612776565b348015610cb1575f80fd5b50610420610cc0366004614487565b612bc4565b5f7f8456cb591a934d53f6ccc6332123a165a1f3562907bf11330d847a29ca49eb897f3f4ba83af89dc9793996d9e56b8abe6dc88cd97c9c2bb23027806e9c1ffd54dc7fbb1d6363e20e842acf5a1fd64aa91f08697f8f559b94a3032a0414b5d5b4bf557f44e29c9d000000000000000000000000000000000000000000000000000000007fffffffff00000000000000000000000000000000000000000000000000000000861601610d7d57506001949350505050565b610d8685612be3565b95945050505050565b7f02509c39826ef4d4fc9a6478dd388f892df655e831b495ea37e26344d4c48aca610db981612c38565b610dc1612c42565b5f8481526012602090815260408083208684529091529020805460ff161580610dfb5750600681015468010000000000000000900460ff16155b15610e67576040517f432f5b4a00000000000000000000000000000000000000000000000000000000815260206004820152600d60248201527f4c6f616e20696e6163746976650000000000000000000000000000000000000060448201526064015b60405180910390fd5b60030180547fffffffffffffffffffffffffffffffffffffffffffffffffffffffffffff00001661ffff9390931692909217909155505050565b60608060608060135f8681526020019081526020015f20805480602002602001604051908101604052809291908181526020018280548015610f0057602002820191905f5260205f20905b815481526020019060010190808311610eec575b50508351939750839250505067ffffffffffffffff811115610f2457610f246146b0565b604051908082528060200260200182016040528015610f4d578160200160208202803683370190505b5093508067ffffffffffffffff811115610f6957610f696146b0565b604051908082528060200260200182016040528015610f92578160200160208202803683370190505b5092508067ffffffffffffffff811115610fae57610fae6146b0565b604051908082528060200260200182016040528015610fd7578160200160208202803683370190505b5091505f5b818110156110c1575f8781526012602052604081208751829089908590811061100757611007614b77565b602002602001015181526020019081526020015f209050806002015486838151811061103557611035614b77565b602002602001018181525050806004015481600201546110559190614bd1565b85838151811061106757611067614b77565b6020908102919091010152600681015468010000000000000000900460ff16611091576004611094565b60035b8483815181106110a6576110a6614b77565b60ff9092166020928302919091019091015250600101610fdc565b50509193509193565b5f8281526012602090815260408083208484529091528120805460ff166110f4575f91505061110c565b806004015481600201546111089190614bd1565b9150505b92915050565b6013602052815f5260405f20818154811061112b575f80fd5b905f5260205f20015f91509150505481565b5f8281526020819052604090206001015461115781612c38565b6111618383612c81565b50505050565b61119160405180608001604052805f15158152602001606081526020015f81526020015f81525090565b5f828152600c602052604090205460ff166111db576040517f1e657b1d00000000000000000000000000000000000000000000000000000000815260048101839052602401610e5e565b5f828152600c6020908152604091829020825160808101909352805460ff1615158352600181018054919284019161121290614be4565b80601f016020809104026020016040519081016040528092919081815260200182805461123e90614be4565b80156112895780601f1061126057610100808354040283529160200191611289565b820191905f5260205f20905b81548152906001019060200180831161126c57829003601f168201915b50505050508152602001600282015481526020016003820154815250509050919050565b6001600160a01b03811633146112ef576040517f6697b23200000000000000000000000000000000000000000000000000000000815260040160405180910390fd5b6112f98282612cb4565b505050565b7f65d7a28e3265b37a6474929f336521b332c1681b933f6cb9f3376673440d862a61132881612c38565b611330612cdf565b50565b5f8061133d612d4f565b611345612c42565b7f42847befda217a8205614b97eeba0062d90a739902cf3467520ceec14471153961136f81612c38565b6001600160a01b0385166113af576040517f8579befe00000000000000000000000000000000000000000000000000000000815260040160405180910390fd5b83355f036113e9576040517fd11b25af00000000000000000000000000000000000000000000000000000000815260040160405180910390fd5b6113f4868686612d92565b92509250506114036001600355565b935093915050565b5f80611415612d4f565b61141d612c42565b7f51a687be621618bb42f5dcbb17ee3798544ce951156fd30a67d800a241b4801961144781612c38565b5f868152600c60205260409020805460ff16611492576040517f1e657b1d00000000000000000000000000000000000000000000000000000000815260048101889052602401610e5e565b5f8781526012602090815260408083208984529091529020805460ff1615806114cc5750600681015468010000000000000000900460ff16155b15611533576040517f432f5b4a00000000000000000000000000000000000000000000000000000000815260206004820152600d60248201527f4c6f616e20696e616374697665000000000000000000000000000000000000006044820152606401610e5e565b5f816004015482600201546115489190614bd1565b90508087106115655794508461155e8188614bd1565b945061156c565b8695505f94505b85826004015f82825461157f9190614c35565b9250508190555084826005015f8282546115999190614c35565b9250508190555086836002015f8282546115b39190614c35565b909155505060028201546004830154106115fc57600282015460048301556006820180547fffffffffffffffffffffffffffffffffffffffffffffff00ffffffffffffffff1690555b604080518781526020810187905233918a918c917f56ab6a9fb8beed983212ba8dac7e660f7280fbded340421fe12a5308f8d5ebe1910160405180910390a4505050506114036001600355565b6116516131e7565b61165a826132b7565b6116648282613321565b5050565b5f611671613422565b507f360894a13ba1a3210667c828492db98dca3e2076cc3735a920a3ca505d382bbc90565b5f6116a081612c38565b5f848152600c602052604090205460ff166116ea576040517f1e657b1d00000000000000000000000000000000000000000000000000000000815260048101859052602401610e5e565b60018361ffff161080611701575060038361ffff16115b15611768576040517f432f5b4a00000000000000000000000000000000000000000000000000000000815260206004820152600860248201527f5269736b20312d330000000000000000000000000000000000000000000000006044820152606401610e5e565b505f92835260156020908152604080852080547fffffffffffffffffffffffffffffffffffffffffffffffffffffffffffff000090811661ffff96871617909155601690925290932080549093169116179055565b6010602052815f5260405f2081815481106117d6575f80fd5b5f918252602090912001546001600160a01b03169150829050565b5f6117fa612d4f565b611802612c42565b815f0361183b576040517f2bf6e4ea00000000000000000000000000000000000000000000000000000000815260040160405180910390fd5b5f838152600c60205260409020805460ff16611886576040517f1e657b1d00000000000000000000000000000000000000000000000000000000815260048101859052602401610e5e565b335f908152601460209081526040808320878452909152902054838110156118e4576040517fcb1d8bba0000000000000000000000000000000000000000000000000000000081526004810185905260248101829052604401610e5e565b600282015460038301545f819003611958576040517f8c3685b800000000000000000000000000000000000000000000000000000000815260206004820152600a60248201527f456d70747920706f6f6c000000000000000000000000000000000000000000006044820152606401610e5e565b806119638388614c48565b61196d9190614c8c565b9450845f036119d8576040517f432f5b4a00000000000000000000000000000000000000000000000000000000815260206004820152601060248201527f53686172657320746f6f20736d616c6c000000000000000000000000000000006044820152606401610e5e565b81851115611a42576040517f8c3685b800000000000000000000000000000000000000000000000000000000815260206004820152600a60248201527f43616c63206572726f72000000000000000000000000000000000000000000006044820152606401610e5e565b611a4c8583614bd1565b6002850155611a5b8682614bd1565b6003850155611a6a8684614bd1565b335f8181526014602090815260408083208c8452909152902091909155600454611aa0916001600160a01b039091169087613484565b6040805187815260208101879052339189917ff0251db1454f88c8e8294c42d324ba89e0192d1f40b3350af5aa350755a208a991015b60405180910390a35050505061110c6001600355565b7f65d7a28e3265b37a6474929f336521b332c1681b933f6cb9f3376673440d862a611b1681612c38565b6113306134f8565b600f602052815f5260405f20818154811061112b575f80fd5b5f828152600160205260408120611b4e9083613553565b9392505050565b5f611b5f81612c38565b611b67612c42565b5f858152600c60205260409020805460ff16611bb2576040517f1e657b1d00000000000000000000000000000000000000000000000000000000815260048101879052602401610e5e565b5f8681526012602090815260408083208884529091529020805460ff161580611bec5750600681015468010000000000000000900460ff16155b15611c53576040517f432f5b4a00000000000000000000000000000000000000000000000000000000815260206004820152600d60248201527f4c6f616e20696e616374697665000000000000000000000000000000000000006044820152606401610e5e565b5f81600401548260020154611c689190614bd1565b9050805f03611cd3576040517f432f5b4a00000000000000000000000000000000000000000000000000000000815260206004820152600e60248201527f4e6f206f75747374616e64696e670000000000000000000000000000000000006044820152606401610e5e565b5f8615611ce05786611ce2565b815b905081811115611cef5750805b6006830180547fffffffffffffffffffffffffffffffffffffffffffffff00ffffffffffffffff16905560028401548111611d425780846002015f828254611d379190614bd1565b90915550611d499050565b5f60028501555b8515611dc857600a54600b546040517f4283271c000000000000000000000000000000000000000000000000000000008152600481018b90526001600160a01b039182166024820152911690634283271c906044015f604051808303815f87803b158015611db5575f80fd5b505af1925050508015611dc6575060015b505b825460408051838152602081018590526101009092046001600160a01b0316918a918c917fa11a3de42af4c44c74b0183a1d12f04019f41d1191fa13aae591340b884ad296910160405180910390a4505050505050505050565b5f81815260016020526040902060609061110c9061355e565b600c6020525f90815260409020805460018201805460ff9092169291611e6090614be4565b80601f0160208091040260200160405190810160405280929190818152602001828054611e8c90614be4565b8015611ed75780601f10611eae57610100808354040283529160200191611ed7565b820191905f5260205f20905b815481529060010190602001808311611eba57829003601f168201915b5050505050908060020154908060030154905084565b5f81815260016020526040812061110c9061356a565b5f611f0d81612c38565b611f15612c42565b5f600d5f8154611f2490614c9f565b91829055505f818152600c602052604090205490915060ff1615611f77576040517f988c4d7800000000000000000000000000000000000000000000000000000000815260048101829052602401610e5e565b5f839003611fb1576040517faabcb66800000000000000000000000000000000000000000000000000000000815260040160405180910390fd5b604051806080016040528060011515815260200185858080601f0160208091040260200160405190810160405280939291908181526020018383808284375f92018290525093855250505060208083018290526040928301829052848252600c8152919020825181547fffffffffffffffffffffffffffffffffffffffffffffffffffffffffffffff00169015151781559082015160018201906120559082614d21565b506040828101516002830155606090920151600390910155600e80546001810182555f919091527fbb7b4a454dc3493923482f07822329ed19e8244eff582cc204f8554c3620c3fd0182905551339082907f7eb8d63c0f8c2fb1b61dd0947e2f9eb707c7d44ec5d65a0761976cbc070197a5906120d59088908890614e1a565b60405180910390a35050505050565b5f828152602081905260409020600101546120fe81612c38565b6111618383612cb4565b600e546060905f8167ffffffffffffffff811115612128576121286146b0565b60405190808252806020026020018201604052801561218357816020015b61217060405180608001604052805f15158152602001606081526020015f81526020015f81525090565b8152602001906001900390816121465790505b5090505f5b828110156122a957600c5f600e83815481106121a6576121a6614b77565b905f5260205f20015481526020019081526020015f206040518060800160405290815f82015f9054906101000a900460ff161515151581526020016001820180546121f090614be4565b80601f016020809104026020016040519081016040528092919081815260200182805461221c90614be4565b80156122675780601f1061223e57610100808354040283529160200191612267565b820191905f5260205f20905b81548152906001019060200180831161224a57829003601f168201915b505050505081526020016002820154815260200160038201548152505082828151811061229657612296614b77565b6020908102919091010152600101612188565b5092915050565b6060806060600f5f856001600160a01b03166001600160a01b031681526020019081526020015f2080548060200260200160405190810160405280929190818152602001828054801561232057602002820191905f5260205f20905b81548152602001906001019080831161230c575b50508351939650839250505067ffffffffffffffff811115612344576123446146b0565b60405190808252806020026020018201604052801561236d578160200160208202803683370190505b5092508067ffffffffffffffff811115612389576123896146b0565b6040519080825280602002602001820160405280156123b2578160200160208202803683370190505b5091505f5b818110156124a8575f8582815181106123d2576123d2614b77565b6020026020010151905060145f886001600160a01b03166001600160a01b031681526020019081526020015f205f8281526020019081526020015f205485838151811061242157612421614b77565b6020908102919091018101919091525f828152600c9091526040902060038101541561249e578060030154816002015487858151811061246357612463614b77565b60200260200101516124759190614c48565b61247f9190614c8c565b85848151811061249157612491614b77565b6020026020010181815250505b50506001016123b7565b50509193909250565b5f6124ba612d4f565b6124c2612c42565b815f036124fb576040517f8ff9ef0b00000000000000000000000000000000000000000000000000000000815260040160405180910390fd5b6125076006600a614f61565b612512906001614c48565b821015612565576125256006600a614f61565b612530906001614c48565b6040517fbec095db000000000000000000000000000000000000000000000000000000008152600401610e5e91815260200190565b5f838152600c60205260409020805460ff166125b0576040517f1e657b1d00000000000000000000000000000000000000000000000000000000815260048101859052602401610e5e565b600281015460038201548115806125c5575080155b156125d2578493506125ea565b816125dd8287614c48565b6125e79190614c8c565b93505b835f03612653576040517f432f5b4a00000000000000000000000000000000000000000000000000000000815260206004820152601160248201527f4465706f73697420746f6f20736d616c6c0000000000000000000000000000006044820152606401610e5e565b61265d8583614c35565b600284015561266c8482614c35565b6003840155335f9081526014602090815260408083208984529091528120805486929061269a908490614c35565b9091555050335f90815260146020908152604080832089845290915290205484108061272457335f818152600f60209081526040808320805460018181018355918552838520018c90558b84526010835290832080549182018155835291200180547fffffffffffffffffffffffff00000000000000000000000000000000000000001690911790555b60045461273c906001600160a01b0316333089613573565b6040805187815260208101879052339189917f8235d65791fe2c87bd88b1c43846194851f3cbbbd7f4ee6a0952b1072bd9417f9101611ad6565b5f61277f6135ac565b805490915060ff68010000000000000000820416159067ffffffffffffffff165f811580156127ab5750825b90505f8267ffffffffffffffff1660011480156127c75750303b155b9050811580156127d5575080155b1561280c576040517ff92ee8a900000000000000000000000000000000000000000000000000000000815260040160405180910390fd5b84547fffffffffffffffffffffffffffffffffffffffffffffffff0000000000000000166001178555831561286d5784547fffffffffffffffffffffffffffffffffffffffffffffff00ffffffffffffffff16680100000000000000001785555b6001600160a01b038e16158061288a57506001600160a01b038d16155b8061289c57506001600160a01b038c16155b806128ae57506001600160a01b038b16155b806128c057506001600160a01b038a16155b806128d257506001600160a01b038916155b806128e457506001600160a01b038816155b806128f657506001600160a01b038716155b8061290857506001600160a01b038616155b1561293f576040517f8579befe00000000000000000000000000000000000000000000000000000000815260040160405180910390fd5b8c60045f6101000a8154816001600160a01b0302191690836001600160a01b031602179055508b60055f6101000a8154816001600160a01b0302191690836001600160a01b031602179055508a60065f6101000a8154816001600160a01b0302191690836001600160a01b031602179055508960075f6101000a8154816001600160a01b0302191690836001600160a01b031602179055508860085f6101000a8154816001600160a01b0302191690836001600160a01b031602179055508760095f6101000a8154816001600160a01b0302191690836001600160a01b0316021790555086600a5f6101000a8154816001600160a01b0302191690836001600160a01b0316021790555085600b5f6101000a8154816001600160a01b0302191690836001600160a01b03160217905550612a7b5f801b8f612c81565b50612aa67f65d7a28e3265b37a6474929f336521b332c1681b933f6cb9f3376673440d862a8f612c81565b50612ad17f189ab7a9244df0848122154315af71fe140f3db0fe014031783b0946b8c9d2e38f612c81565b50612afc7f42847befda217a8205614b97eeba0062d90a739902cf3467520ceec1447115398f612c81565b50612b277f51a687be621618bb42f5dcbb17ee3798544ce951156fd30a67d800a241b4801989612c81565b50612b527f02509c39826ef4d4fc9a6478dd388f892df655e831b495ea37e26344d4c48aca8f612c81565b508315612bb45784547fffffffffffffffffffffffffffffffffffffffffffffff00ffffffffffffffff168555604051600181527fc7f505b2f371ae2175ee4913f4499e1f2633a7b5936321eed1cdaeb6115181d29060200160405180910390a15b5050505050505050505050505050565b600e8181548110612bd3575f80fd5b5f91825260209091200154905081565b5f7fffffffff0000000000000000000000000000000000000000000000000000000082167f5a05180f00000000000000000000000000000000000000000000000000000000148061110c575061110c826135d4565b611330813361366a565b60025460ff1615612c7f576040517fd93c066500000000000000000000000000000000000000000000000000000000815260040160405180910390fd5b565b5f80612c8d84846136d5565b90508015611b4e575f848152600160205260409020612cac908461379a565b509392505050565b5f80612cc084846137ae565b90508015611b4e575f848152600160205260409020612cac908461384d565b612ce7613861565b600280547fffffffffffffffffffffffffffffffffffffffffffffffffffffffffffffff001690557f5db9ee0a495bf2e6ff9c91a7834c1ba4fdd244a5e8aa4e537bd38aeae4b073aa335b6040516001600160a01b03909116815260200160405180910390a1565b600260035403612d8b576040517f3ee5aeb500000000000000000000000000000000000000000000000000000000815260040160405180910390fd5b6002600355565b5f805f612d9e8661389d565b90505f612dac828635613951565b9050805f03612e1757604080515f808252602082018190529181018290523060608201526001600160a01b0388169189917fdcd469e2717beb6ab0c2a53e003f397044fbe998c33f4df2d5213ff84033f4b79060800160405180910390a45f80935093505050611403565b5f612e23878735613a12565b90506001600160a01b038116612e9657604080515f808252602082018190529181018290523060608201526001600160a01b038916918a917fdcd469e2717beb6ab0c2a53e003f397044fbe998c33f4df2d5213ff84033f4b79060800160405180910390a45f8094509450505050611403565b5f60165f8481526020019081526020015f205f9054906101000a900461ffff1690506130a7838a8a858b5f0135868d6040016020810190612ed79190614f6f565b604051806101400160405280600115158152602001866001600160a01b03168152602001856001600160a01b031681526020018481526020018361ffff1681526020018265ffffffffffff1681526020015f81526020015f81526020014267ffffffffffffffff1681526020016001151581525060125f8981526020019081526020015f205f8881526020019081526020015f205f820151815f015f6101000a81548160ff0219169083151502179055506020820151815f0160016101000a8154816001600160a01b0302191690836001600160a01b031602179055506040820151816001015f6101000a8154816001600160a01b0302191690836001600160a01b03160217905550606082015181600201556080820151816003015f6101000a81548161ffff021916908361ffff16021790555060a08201518160030160026101000a81548165ffffffffffff021916908365ffffffffffff16021790555060c0820151816004015560e08201518160050155610100820151816006015f6101000a81548167ffffffffffffffff021916908367ffffffffffffffff1602179055506101208201518160060160086101000a81548160ff02191690831515021790555090505050505050505050565b5f838152601360209081526040822080546001810182559083529120018990556130d383898935613b2e565b6130f5898960208a01358a356130ef60608d0160408e01614f6f565b88613ba8565b600a546040517f2d3bc857000000000000000000000000000000000000000000000000000000008152600481018b90526001600160a01b0390911690632d3bc857906024016020604051808303815f875af1925050508015613174575060408051601f3d908101601f1916820190925261317191810190614f94565b60015b1561317b57505b604080516001600160a01b0384811682528935602083015261ffff8416828401523060608301529151918a16918b9186917fdcd469e2717beb6ab0c2a53e003f397044fbe998c33f4df2d5213ff84033f4b79181900360800190a4506001989197509095505050505050565b306001600160a01b037f000000000000000000000000000000000000000000000000000000000000000016148061328057507f00000000000000000000000000000000000000000000000000000000000000006001600160a01b03166132747f360894a13ba1a3210667c828492db98dca3e2076cc3735a920a3ca505d382bbc546001600160a01b031690565b6001600160a01b031614155b15612c7f576040517fe07c8dba00000000000000000000000000000000000000000000000000000000815260040160405180910390fd5b7f189ab7a9244df0848122154315af71fe140f3db0fe014031783b0946b8c9d2e36132e181612c38565b6001600160a01b038216611664576040517f8579befe00000000000000000000000000000000000000000000000000000000815260040160405180910390fd5b816001600160a01b03166352d1902d6040518163ffffffff1660e01b8152600401602060405180830381865afa92505050801561337b575060408051601f3d908101601f1916820190925261337891810190614f94565b60015b6133bc576040517f4c9c8ce30000000000000000000000000000000000000000000000000000000081526001600160a01b0383166004820152602401610e5e565b7f360894a13ba1a3210667c828492db98dca3e2076cc3735a920a3ca505d382bbc8114613418576040517faa1d49a400000000000000000000000000000000000000000000000000000000815260048101829052602401610e5e565b6112f98383613e46565b306001600160a01b037f00000000000000000000000000000000000000000000000000000000000000001614612c7f576040517fe07c8dba00000000000000000000000000000000000000000000000000000000815260040160405180910390fd5b6040516001600160a01b038381166024830152604482018390526112f991859182169063a9059cbb906064015b604051602081830303815290604052915060e01b6020820180517bffffffffffffffffffffffffffffffffffffffffffffffffffffffff8381831617835250505050613e9b565b613500612c42565b600280547fffffffffffffffffffffffffffffffffffffffffffffffffffffffffffffff001660011790557f62e78cea01bee320cd4e420270b5ea74000d11b0c9f74754ebdbfc544b05a258612d323390565b5f611b4e8383613f20565b60605f611b4e83613f46565b5f61110c825490565b6040516001600160a01b0384811660248301528381166044830152606482018390526111619186918216906323b872dd906084016134b1565b5f807ff0c57e16840df040f15088dc2f81fe391c3923bec73e23a9662efc9c229c6a0061110c565b5f7fffffffff0000000000000000000000000000000000000000000000000000000082167f7965db0b00000000000000000000000000000000000000000000000000000000148061110c57507f01ffc9a7000000000000000000000000000000000000000000000000000000007fffffffff0000000000000000000000000000000000000000000000000000000083161461110c565b5f828152602081815260408083206001600160a01b038516845290915290205460ff16611664576040517fe2517d3f0000000000000000000000000000000000000000000000000000000081526001600160a01b038216600482015260248101839052604401610e5e565b5f828152602081815260408083206001600160a01b038516845290915281205460ff16613793575f838152602081815260408083206001600160a01b0386168452909152902080547fffffffffffffffffffffffffffffffffffffffffffffffffffffffffffffff0016600117905561374b3390565b6001600160a01b0316826001600160a01b0316847f2f8788117e7eff1d82e926ec794901d17c78024a50270940304540a733656f0d60405160405180910390a450600161110c565b505f61110c565b5f611b4e836001600160a01b038416613f9f565b5f828152602081815260408083206001600160a01b038516845290915281205460ff1615613793575f838152602081815260408083206001600160a01b038616808552925280832080547fffffffffffffffffffffffffffffffffffffffffffffffffffffffffffffff0016905551339286917ff6391f5c32d9c69d2a47ea670b442974b53935d1edc7fd64eb21e047a839171b9190a450600161110c565b5f611b4e836001600160a01b038416613fe4565b60025460ff16612c7f576040517f8dfc202b00000000000000000000000000000000000000000000000000000000815260040160405180910390fd5b6007546040517f0630bcd7000000000000000000000000000000000000000000000000000000008152600481018390525f916001600160a01b031690630630bcd790602401602060405180830381865afa92505050801561391b575060408051601f3d908101601f1916820190925261391891810190614fab565b60015b61392757506002919050565b60018161ffff1610158015613941575060038161ffff1611155b61110c576002611b4e565b919050565b5f8061ffff60015b600d548111613a08575f818152600c602052604090205460ff16801561398f57505f818152600c60205260409020600201548511155b156139f6575f8181526015602052604090205461ffff9081169087168114806139c85750831580156139c857508661ffff168161ffff16115b156139f4575f8281526016602052604090205461ffff9081169084168110156139f2578294508093505b505b505b80613a0081614c9f565b915050613959565b5090949350505050565b6008545f908190613a2b906001600160a01b03166140c7565b90506001600160a01b038116613a44575f91505061110c565b6004546040516001600160a01b039182166024820152858216604482015230606482018190526084820186905260a48201525f9183169060c40160408051601f198184030181529181526020820180517bffffffffffffffffffffffffffffffffffffffffffffffffffffffff167f530b97a40000000000000000000000000000000000000000000000000000000017905251613ae19190614fc6565b5f604051808303815f865af19150503d805f8114613b1a576040519150601f19603f3d011682016040523d82523d5f602084013e613b1f565b606091505b5050905080612cac575f610d86565b5f838152600c602052604090206002810154821115613b79576040517fbb55fd2700000000000000000000000000000000000000000000000000000000815260040160405180910390fd5b81816002015f828254613b8c9190614bd1565b9091555050600454611161906001600160a01b03168484613484565b6005546040517f850e63d400000000000000000000000000000000000000000000000000000000815260048101889052602481018690526001600160a01b03878116604483015267ffffffffffffffff421660648301529091169063850e63d4906084015f604051808303815f87803b158015613c23575f80fd5b505af1925050508015613c34575060015b506006546040517f9962b5b50000000000000000000000000000000000000000000000000000000081526001600160a01b03878116600483015290911690639962b5b5906024015f604051808303815f87803b158015613c92575f80fd5b505af1925050508015613ca3575060015b505f81815260166020526040812054613cc290859061ffff16856140d2565b90508015613d47576005546040517f85548dbd0000000000000000000000000000000000000000000000000000000081526004810189905260016024820152604481018390526001600160a01b03909116906385548dbd906064015f604051808303815f87803b158015613d34575f80fd5b505af1925050508015613d45575060015b505b6009546040517faaed1b7f00000000000000000000000000000000000000000000000000000000815260048101899052306024820152604481018490526001600160a01b039091169063aaed1b7f906064015f604051808303815f87803b158015613db0575f80fd5b505af1925050508015613dc1575060015b506007546040517fb6ec0db300000000000000000000000000000000000000000000000000000000815260048101899052306024820152604481018490526001600160a01b039091169063b6ec0db3906064015f604051808303815f87803b158015613e2b575f80fd5b505af1925050508015613e3c575060015b5050505050505050565b613e4f8261413e565b6040516001600160a01b038316907fbc7cd75a20ee27fd9adebab32041f755214dbc6bffa90cc0225b39da2e5c2d3b905f90a2805115613e93576112f982826141e5565b61166461424e565b5f8060205f8451602086015f885af180613eba576040513d5f823e3d81fd5b50505f513d91508115613ed1578060011415613ede565b6001600160a01b0384163b155b15611161576040517f5274afe70000000000000000000000000000000000000000000000000000000081526001600160a01b0385166004820152602401610e5e565b5f825f018281548110613f3557613f35614b77565b905f5260205f200154905092915050565b6060815f01805480602002602001604051908101604052809291908181526020018280548015613f9357602002820191905f5260205f20905b815481526020019060010190808311613f7f575b50505050509050919050565b5f81815260018301602052604081205461379357508154600181810184555f84815260208082209093018490558454848252828601909352604090209190915561110c565b5f81815260018301602052604081205480156140be575f614006600183614bd1565b85549091505f9061401990600190614bd1565b9050808214614078575f865f01828154811061403757614037614b77565b905f5260205f200154905080875f01848154811061405757614057614b77565b5f918252602080832090910192909255918252600188019052604090208390555b855486908061408957614089614fdc565b600190038181905f5260205f20015f90559055856001015f8681526020019081526020015f205f90556001935050505061110c565b5f91505061110c565b5f61110c825f614286565b5f8061016d6140e2846007615009565b6140ec919061502a565b6140fe9065ffffffffffff1686614c8c565b90505f603461271061411461ffff881689614c48565b61411e9190614c8c565b6141289190614c8c565b90506141348183614c35565b9695505050505050565b806001600160a01b03163b5f0361418c576040517f4c9c8ce30000000000000000000000000000000000000000000000000000000081526001600160a01b0382166004820152602401610e5e565b7f360894a13ba1a3210667c828492db98dca3e2076cc3735a920a3ca505d382bbc80547fffffffffffffffffffffffff0000000000000000000000000000000000000000166001600160a01b0392909216919091179055565b60605f80846001600160a01b0316846040516142019190614fc6565b5f60405180830381855af49150503d805f8114614239576040519150601f19603f3d011682016040523d82523d5f602084013e61423e565b606091505b5091509150610d8685838361434c565b3415612c7f576040517fb398979f00000000000000000000000000000000000000000000000000000000815260040160405180910390fd5b5f814710156142ca576040517fcf47918100000000000000000000000000000000000000000000000000000000815247600482015260248101839052604401610e5e565b763d602d80600a3d3981f3363d3d373d3d3d363d730000008360601b60e81c175f526e5af43d82803e903d91602b57fd5bf38360781b176020526037600983f090506001600160a01b03811661110c576040517fb06ebf3d00000000000000000000000000000000000000000000000000000000815260040160405180910390fd5b6060826143615761435c826143c1565b611b4e565b815115801561437857506001600160a01b0384163b155b156143ba576040517f9996b3150000000000000000000000000000000000000000000000000000000081526001600160a01b0385166004820152602401610e5e565b5080611b4e565b8051156143d15780518082602001fd5b6040517fd6bda27500000000000000000000000000000000000000000000000000000000815260040160405180910390fd5b5f60208284031215614413575f80fd5b81357fffffffff0000000000000000000000000000000000000000000000000000000081168114611b4e575f80fd5b61ffff81168114611330575f80fd5b5f805f60608486031215614463575f80fd5b8335925060208401359150604084013561447c81614442565b809150509250925092565b5f60208284031215614497575f80fd5b5035919050565b5f8151808452602084019350602083015f5b828110156144ce5781518652602095860195909101906001016144b0565b5093949350505050565b608081525f6144ea608083018761449e565b82810360208401526144fc818761449e565b90508281036040840152614510818661449e565b8381036060850152845180825260208087019350909101905f5b8181101561454b57835160ff1683526020938401939092019160010161452a565b509098975050505050505050565b5f806040838503121561456a575f80fd5b50508035926020909101359150565b80356001600160a01b038116811461394c575f80fd5b5f80604083850312156145a0575f80fd5b823591506145b060208401614579565b90509250929050565b5f81518084528060208401602086015e5f602082860101526020601f19601f83011685010191505092915050565b8051151582525f60208201516080602085015261460760808501826145b9565b905060408301516040850152606083015160608501528091505092915050565b602081525f611b4e60208301846145e7565b5f805f6060848603121561464b575f80fd5b8335925061465b60208501614579565b9150604084013567ffffffffffffffff811115614676575f80fd5b840160a0818703121561447c575f80fd5b5f805f60608486031215614699575f80fd5b505081359360208301359350604090920135919050565b7f4e487b71000000000000000000000000000000000000000000000000000000005f52604160045260245ffd5b5f80604083850312156146ee575f80fd5b6146f783614579565b9150602083013567ffffffffffffffff811115614712575f80fd5b8301601f81018513614722575f80fd5b803567ffffffffffffffff81111561473c5761473c6146b0565b604051601f19603f601f19601f8501160116810181811067ffffffffffffffff8211171561476c5761476c6146b0565b604052818152828201602001871015614783575f80fd5b816020840160208301375f602083830101528093505050509250929050565b5f805f606084860312156147b4575f80fd5b8335925060208401356147c681614442565b9150604084013561447c81614442565b5f80604083850312156147e7575f80fd5b6147f083614579565b946020939093013593505050565b8151151581526101408101602083015161482360208401826001600160a01b03169052565b50604083015161483e60408401826001600160a01b03169052565b5060608301516060830152608083015161485e608084018261ffff169052565b5060a083015161487860a084018265ffffffffffff169052565b5060c083015160c083015260e083015160e08301526101008301516148aa61010084018267ffffffffffffffff169052565b506101208301516122a961012084018215159052565b5f805f80608085870312156148d3575f80fd5b843593506020850135925060408501359150606085013580151581146148f7575f80fd5b939692955090935050565b602080825282518282018190525f918401906040840190835b818110156149425783516001600160a01b031683526020938401939092019160010161491b565b509095945050505050565b8415158152608060208201525f61496760808301866145b9565b6040830194909452506060015292915050565b602081525f611b4e60208301846145b9565b5f805f6040848603121561499e575f80fd5b83359250602084013567ffffffffffffffff8111156149bb575f80fd5b8401601f810186136149cb575f80fd5b803567ffffffffffffffff8111156149e1575f80fd5b8660208284010111156149f2575f80fd5b939660209190910195509293505050565b5f602082016020835280845180835260408501915060408160051b8601019250602086015f5b82811015614a78577fffffffffffffffffffffffffffffffffffffffffffffffffffffffffffffffc0878603018452614a638583516145e7565b94506020938401939190910190600101614a29565b50929695505050505050565b5f60208284031215614a94575f80fd5b611b4e82614579565b606081525f614aaf606083018661449e565b8281036020840152614ac1818661449e565b90508281036040840152614134818561449e565b5f805f805f805f805f6101208a8c031215614aee575f80fd5b614af78a614579565b9850614b0560208b01614579565b9750614b1360408b01614579565b9650614b2160608b01614579565b9550614b2f60808b01614579565b9450614b3d60a08b01614579565b9350614b4b60c08b01614579565b9250614b5960e08b01614579565b9150614b686101008b01614579565b90509295985092959850929598565b7f4e487b71000000000000000000000000000000000000000000000000000000005f52603260045260245ffd5b7f4e487b71000000000000000000000000000000000000000000000000000000005f52601160045260245ffd5b8181038181111561110c5761110c614ba4565b600181811c90821680614bf857607f821691505b602082108103614c2f577f4e487b71000000000000000000000000000000000000000000000000000000005f52602260045260245ffd5b50919050565b8082018082111561110c5761110c614ba4565b808202811582820484141761110c5761110c614ba4565b7f4e487b71000000000000000000000000000000000000000000000000000000005f52601260045260245ffd5b5f82614c9a57614c9a614c5f565b500490565b5f7fffffffffffffffffffffffffffffffffffffffffffffffffffffffffffffffff8203614ccf57614ccf614ba4565b5060010190565b601f8211156112f957805f5260205f20601f840160051c81016020851015614cfb5750805b601f840160051c820191505b81811015614d1a575f8155600101614d07565b5050505050565b815167ffffffffffffffff811115614d3b57614d3b6146b0565b614d4f81614d498454614be4565b84614cd6565b6020601f821160018114614da0575f8315614d6a5750848201515b7fffffffffffffffffffffffffffffffffffffffffffffffffffffffffffffffff600385901b1c1916600184901b178455614d1a565b5f84815260208120601f198516915b82811015614dcf5787850151825560209485019460019092019101614daf565b5084821015614e0b57868401517fffffffffffffffffffffffffffffffffffffffffffffffffffffffffffffffff600387901b60f8161c191681555b50505050600190811b01905550565b60208152816020820152818360408301375f818301604090810191909152601f909201601f19160101919050565b6001815b600184111561140357808504811115614e6757614e67614ba4565b6001841615614e7557908102905b60019390931c928002614e4c565b5f82614e915750600161110c565b81614e9d57505f61110c565b8160018114614eb35760028114614ebd57614ed9565b600191505061110c565b60ff841115614ece57614ece614ba4565b50506001821b61110c565b5060208310610133831016604e8410600b8410161715614efc575081810a61110c565b614f277fffffffffffffffffffffffffffffffffffffffffffffffffffffffffffffffff8484614e48565b807fffffffffffffffffffffffffffffffffffffffffffffffffffffffffffffffff04821115614f5957614f59614ba4565b029392505050565b5f611b4e60ff841683614e83565b5f60208284031215614f7f575f80fd5b813565ffffffffffff81168114611b4e575f80fd5b5f60208284031215614fa4575f80fd5b5051919050565b5f60208284031215614fbb575f80fd5b8151611b4e81614442565b5f82518060208501845e5f920191825250919050565b7f4e487b71000000000000000000000000000000000000000000000000000000005f52603160045260245ffd5b65ffffffffffff81811683821602908116908181146122a9576122a9614ba4565b5f65ffffffffffff83168061504157615041614c5f565b8065ffffffffffff8416049150509291505056fea26469706673582212207e2736adb8076eefc115ee9d551d55fadb01cd36cf3f9ba0e7188451064f57a564736f6c634300081a0033",
    "linkReferences": {}
  },
  "methodIdentifiers": {
    "DEFAULT_ADMIN_ROLE()": "a217fddf",
    "UPGRADE_INTERFACE_VERSION()": "ad3cb1cc",
    "allPoolIds(uint256)": "fcb72a9c",
    "createPool(uint256,string)": "ce4a37fe",
    "depositEscrow()": "8aa1c0dc",
    "depositToPool(uint256,uint256)": "eb820551",
    "devEscrowImplementation()": "171eb0ee",
    "developerRegistry()": "107d0be1",
    "feeRouter()": "f29ebf61",
    "getAllPools()": "d88ff1f4",
    "getOutstandingPrincipal(uint256,uint256)": "2d6af4d5",
    "getPoolInfo(uint256)": "2f380b35",
    "getPoolLoanRecord(uint256,uint256)": "96050317",
    "getPoolLoans(uint256)": "2ac8cb8a",
    "getRoleAdmin(bytes32)": "248a9ca3",
    "getRoleMember(bytes32,uint256)": "9010d07c",
    "getRoleMemberCount(bytes32)": "ca15c873",
    "getRoleMembers(bytes32)": "a3246ad3",
    "getUserPoolInvestments(address)": "e60ee799",
    "getUserShares(uint256,address)": "835dc40b",
    "grantRole(bytes32,address)": "2f2ff15d",
    "handleLoanDefault(uint256,uint256,uint256,bool)": "960b5cec",
    "handleRepayment(uint256,uint256,uint256)": "496179ac",
    "hasRole(bytes32,address)": "91d14854",
    "initialize(address,address,address,address,address,address,address,address,address)": "f5e95acb",
    "pause()": "8456cb59",
    "paused()": "5c975abb",
    "poolAprRates(uint256)": "4674810d",
    "poolCount()": "f525cb68",
    "poolInvestors(uint256,uint256)": "72e42038",
    "poolLoans(uint256,uint256)": "9676c1cb",
    "poolProjectStates(uint256)": "a0df49ee",
    "poolRiskLevels(uint256)": "85cc27fb",
    "pools(uint256)": "ac4afa38",
    "projectsByPool(uint256,uint256)": "2edca33b",
    "protocolTreasuryAdmin()": "818afcd1",
    "proxiableUUID()": "52d1902d",
    "redeem(uint256,uint256)": "7cbc2373",
    "registerAndFundProject(uint256,address,(uint256,uint256,uint48,uint32,string))": "455cbc40",
    "renounceRole(bytes32,address)": "36568abe",
    "repaymentRouter()": "6fa9d056",
    "revokeRole(bytes32,address)": "d547741f",
    "riskOracleAdapter()": "59b2d294",
    "setPoolRiskLevel(uint256,uint16,uint16)": "7113fe4e",
    "supportsInterface(bytes4)": "01ffc9a7",
    "unpause()": "3f4ba83a",
    "updateRiskParams(uint256,uint256,uint16)": "12d06cf2",
    "upgradeToAndCall(address,bytes)": "4f1ef286",
    "usdcToken()": "11eac855",
    "userPoolIds(address,uint256)": "8aabb082",
    "userShares(address,uint256)": "e53dc680"
  },
  "id": 95
}