{
  "abi": [
    {
      "type": "function",
      "name": "DEFAULT_ADMIN_ROLE",
      "inputs": [],
      "outputs": [
        {
          "name": "",
          "type": "bytes32",
          "internalType": "bytes32"
        }
      ],
      "stateMutability": "view"
    },
    {
      "type": "function",
      "name": "UPGRADE_INTERFACE_VERSION",
      "inputs": [],
      "outputs": [
        {
          "name": "",
          "type": "string",
          "internalType": "string"
        }
      ],
      "stateMutability": "view"
    },
    {
      "type": "function",
      "name": "createPool",
      "inputs": [
        {
          "name": "",
          "type": "uint256",
          "internalType": "uint256"
        },
        {
          "name": "name",
          "type": "string",
          "internalType": "string"
        }
      ],
      "outputs": [],
      "stateMutability": "nonpayable"
    },
    {
      "type": "function",
      "name": "depositEscrow",
      "inputs": [],
      "outputs": [
        {
          "name": "",
          "type": "address",
          "internalType": "contract IDeveloperDepositEscrow"
        }
      ],
      "stateMutability": "view"
    },
    {
      "type": "function",
      "name": "depositToPool",
      "inputs": [
        {
          "name": "poolId",
          "type": "uint256",
          "internalType": "uint256"
        },
        {
          "name": "amount",
          "type": "uint256",
          "internalType": "uint256"
        }
      ],
      "outputs": [
        {
          "name": "shares",
          "type": "uint256",
          "internalType": "uint256"
        }
      ],
      "stateMutability": "nonpayable"
    },
    {
      "type": "function",
      "name": "devEscrowImplementation",
      "inputs": [],
      "outputs": [
        {
          "name": "",
          "type": "address",
          "internalType": "address"
        }
      ],
      "stateMutability": "view"
    },
    {
      "type": "function",
      "name": "developerRegistry",
      "inputs": [],
      "outputs": [
        {
          "name": "",
          "type": "address",
          "internalType": "contract IDeveloperRegistry"
        }
      ],
      "stateMutability": "view"
    },
    {
      "type": "function",
      "name": "feeRouter",
      "inputs": [],
      "outputs": [
        {
          "name": "",
          "type": "address",
          "internalType": "contract IFeeRouter"
        }
      ],
      "stateMutability": "view"
    },
    {
      "type": "function",
      "name": "getOutstandingPrincipal",
      "inputs": [
        {
          "name": "poolId",
          "type": "uint256",
          "internalType": "uint256"
        },
        {
          "name": "projectId",
          "type": "uint256",
          "internalType": "uint256"
        }
      ],
      "outputs": [
        {
          "name": "",
          "type": "uint256",
          "internalType": "uint256"
        }
      ],
      "stateMutability": "view"
    },
    {
      "type": "function",
      "name": "getPoolInfo",
      "inputs": [
        {
          "name": "poolId",
          "type": "uint256",
          "internalType": "uint256"
        }
      ],
      "outputs": [
        {
          "name": "",
          "type": "tuple",
          "internalType": "struct ILiquidityPoolManager.PoolInfo",
          "components": [
            {
              "name": "exists",
              "type": "bool",
              "internalType": "bool"
            },
            {
              "name": "name",
              "type": "string",
              "internalType": "string"
            },
            {
              "name": "totalAssets",
              "type": "uint256",
              "internalType": "uint256"
            },
            {
              "name": "totalShares",
              "type": "uint256",
              "internalType": "uint256"
            }
          ]
        }
      ],
      "stateMutability": "view"
    },
    {
      "type": "function",
      "name": "getPoolLoanRecord",
      "inputs": [
        {
          "name": "poolId",
          "type": "uint256",
          "internalType": "uint256"
        },
        {
          "name": "projectId",
          "type": "uint256",
          "internalType": "uint256"
        }
      ],
      "outputs": [
        {
          "name": "",
          "type": "tuple",
          "internalType": "struct ILiquidityPoolManager.LoanRecord",
          "components": [
            {
              "name": "exists",
              "type": "bool",
              "internalType": "bool"
            },
            {
              "name": "developer",
              "type": "address",
              "internalType": "address"
            },
            {
              "name": "devEscrow",
              "type": "address",
              "internalType": "address"
            },
            {
              "name": "principal",
              "type": "uint256",
              "internalType": "uint256"
            },
            {
              "name": "aprBps",
              "type": "uint16",
              "internalType": "uint16"
            },
            {
              "name": "loanTenor",
              "type": "uint48",
              "internalType": "uint48"
            },
            {
              "name": "principalRepaid",
              "type": "uint256",
              "internalType": "uint256"
            },
            {
              "name": "interestAccrued",
              "type": "uint256",
              "internalType": "uint256"
            },
            {
              "name": "startTime",
              "type": "uint64",
              "internalType": "uint64"
            },
            {
              "name": "isActive",
              "type": "bool",
              "internalType": "bool"
            }
          ]
        }
      ],
      "stateMutability": "view"
    },
    {
      "type": "function",
      "name": "getRoleAdmin",
      "inputs": [
        {
          "name": "role",
          "type": "bytes32",
          "internalType": "bytes32"
        }
      ],
      "outputs": [
        {
          "name": "",
          "type": "bytes32",
          "internalType": "bytes32"
        }
      ],
      "stateMutability": "view"
    },
    {
      "type": "function",
      "name": "getRoleMember",
      "inputs": [
        {
          "name": "role",
          "type": "bytes32",
          "internalType": "bytes32"
        },
        {
          "name": "index",
          "type": "uint256",
          "internalType": "uint256"
        }
      ],
      "outputs": [
        {
          "name": "",
          "type": "address",
          "internalType": "address"
        }
      ],
      "stateMutability": "view"
    },
    {
      "type": "function",
      "name": "getRoleMemberCount",
      "inputs": [
        {
          "name": "role",
          "type": "bytes32",
          "internalType": "bytes32"
        }
      ],
      "outputs": [
        {
          "name": "",
          "type": "uint256",
          "internalType": "uint256"
        }
      ],
      "stateMutability": "view"
    },
    {
      "type": "function",
      "name": "getRoleMembers",
      "inputs": [
        {
          "name": "role",
          "type": "bytes32",
          "internalType": "bytes32"
        }
      ],
      "outputs": [
        {
          "name": "",
          "type": "address[]",
          "internalType": "address[]"
        }
      ],
      "stateMutability": "view"
    },
    {
      "type": "function",
      "name": "getUserShares",
      "inputs": [
        {
          "name": "poolId",
          "type": "uint256",
          "internalType": "uint256"
        },
        {
          "name": "user",
          "type": "address",
          "internalType": "address"
        }
      ],
      "outputs": [
        {
          "name": "",
          "type": "uint256",
          "internalType": "uint256"
        }
      ],
      "stateMutability": "view"
    },
    {
      "type": "function",
      "name": "grantRole",
      "inputs": [
        {
          "name": "role",
          "type": "bytes32",
          "internalType": "bytes32"
        },
        {
          "name": "account",
          "type": "address",
          "internalType": "address"
        }
      ],
      "outputs": [],
      "stateMutability": "nonpayable"
    },
    {
      "type": "function",
      "name": "handleLoanDefault",
      "inputs": [
        {
          "name": "poolId",
          "type": "uint256",
          "internalType": "uint256"
        },
        {
          "name": "projectId",
          "type": "uint256",
          "internalType": "uint256"
        },
        {
          "name": "writeOffAmount",
          "type": "uint256",
          "internalType": "uint256"
        },
        {
          "name": "slashDeposit",
          "type": "bool",
          "internalType": "bool"
        }
      ],
      "outputs": [],
      "stateMutability": "nonpayable"
    },
    {
      "type": "function",
      "name": "handleRepayment",
      "inputs": [
        {
          "name": "poolId",
          "type": "uint256",
          "internalType": "uint256"
        },
        {
          "name": "projectId",
          "type": "uint256",
          "internalType": "uint256"
        },
        {
          "name": "netAmountReceived",
          "type": "uint256",
          "internalType": "uint256"
        }
      ],
      "outputs": [
        {
          "name": "principalPaid",
          "type": "uint256",
          "internalType": "uint256"
        },
        {
          "name": "interestPaid",
          "type": "uint256",
          "internalType": "uint256"
        }
      ],
      "stateMutability": "nonpayable"
    },
    {
      "type": "function",
      "name": "hasRole",
      "inputs": [
        {
          "name": "role",
          "type": "bytes32",
          "internalType": "bytes32"
        },
        {
          "name": "account",
          "type": "address",
          "internalType": "address"
        }
      ],
      "outputs": [
        {
          "name": "",
          "type": "bool",
          "internalType": "bool"
        }
      ],
      "stateMutability": "view"
    },
    {
      "type": "function",
      "name": "initialize",
      "inputs": [
        {
          "name": "_admin",
          "type": "address",
          "internalType": "address"
        },
        {
          "name": "_usdcToken",
          "type": "address",
          "internalType": "address"
        },
        {
          "name": "_feeRouter",
          "type": "address",
          "internalType": "address"
        },
        {
          "name": "_developerRegistry",
          "type": "address",
          "internalType": "address"
        },
        {
          "name": "_riskRateOracleAdapter",
          "type": "address",
          "internalType": "address"
        },
        {
          "name": "_devEscrowImplementation",
          "type": "address",
          "internalType": "address"
        },
        {
          "name": "_repaymentRouter",
          "type": "address",
          "internalType": "address"
        },
        {
          "name": "_depositEscrow",
          "type": "address",
          "internalType": "address"
        },
        {
          "name": "_protocolTreasuryAdmin",
          "type": "address",
          "internalType": "address"
        }
      ],
      "outputs": [],
      "stateMutability": "nonpayable"
    },
    {
      "type": "function",
      "name": "pause",
      "inputs": [],
      "outputs": [],
      "stateMutability": "nonpayable"
    },
    {
      "type": "function",
      "name": "paused",
      "inputs": [],
      "outputs": [
        {
          "name": "",
          "type": "bool",
          "internalType": "bool"
        }
      ],
      "stateMutability": "view"
    },
    {
      "type": "function",
      "name": "poolAprRates",
      "inputs": [
        {
          "name": "",
          "type": "uint256",
          "internalType": "uint256"
        }
      ],
      "outputs": [
        {
          "name": "",
          "type": "uint16",
          "internalType": "uint16"
        }
      ],
      "stateMutability": "view"
    },
    {
      "type": "function",
      "name": "poolCount",
      "inputs": [],
      "outputs": [
        {
          "name": "",
          "type": "uint256",
          "internalType": "uint256"
        }
      ],
      "stateMutability": "view"
    },
    {
      "type": "function",
      "name": "poolLoans",
      "inputs": [
        {
          "name": "",
          "type": "uint256",
          "internalType": "uint256"
        },
        {
          "name": "",
          "type": "uint256",
          "internalType": "uint256"
        }
      ],
      "outputs": [
        {
          "name": "exists",
          "type": "bool",
          "internalType": "bool"
        },
        {
          "name": "developer",
          "type": "address",
          "internalType": "address"
        },
        {
          "name": "devEscrow",
          "type": "address",
          "internalType": "address"
        },
        {
          "name": "principal",
          "type": "uint256",
          "internalType": "uint256"
        },
        {
          "name": "aprBps",
          "type": "uint16",
          "internalType": "uint16"
        },
        {
          "name": "loanTenor",
          "type": "uint48",
          "internalType": "uint48"
        },
        {
          "name": "principalRepaid",
          "type": "uint256",
          "internalType": "uint256"
        },
        {
          "name": "interestAccrued",
          "type": "uint256",
          "internalType": "uint256"
        },
        {
          "name": "startTime",
          "type": "uint64",
          "internalType": "uint64"
        },
        {
          "name": "isActive",
          "type": "bool",
          "internalType": "bool"
        }
      ],
      "stateMutability": "view"
    },
    {
      "type": "function",
      "name": "poolRiskLevels",
      "inputs": [
        {
          "name": "",
          "type": "uint256",
          "internalType": "uint256"
        }
      ],
      "outputs": [
        {
          "name": "",
          "type": "uint16",
          "internalType": "uint16"
        }
      ],
      "stateMutability": "view"
    },
    {
      "type": "function",
      "name": "pools",
      "inputs": [
        {
          "name": "",
          "type": "uint256",
          "internalType": "uint256"
        }
      ],
      "outputs": [
        {
          "name": "exists",
          "type": "bool",
          "internalType": "bool"
        },
        {
          "name": "name",
          "type": "string",
          "internalType": "string"
        },
        {
          "name": "totalAssets",
          "type": "uint256",
          "internalType": "uint256"
        },
        {
          "name": "totalShares",
          "type": "uint256",
          "internalType": "uint256"
        }
      ],
      "stateMutability": "view"
    },
    {
      "type": "function",
      "name": "protocolTreasuryAdmin",
      "inputs": [],
      "outputs": [
        {
          "name": "",
          "type": "address",
          "internalType": "address"
        }
      ],
      "stateMutability": "view"
    },
    {
      "type": "function",
      "name": "proxiableUUID",
      "inputs": [],
      "outputs": [
        {
          "name": "",
          "type": "bytes32",
          "internalType": "bytes32"
        }
      ],
      "stateMutability": "view"
    },
    {
      "type": "function",
      "name": "redeem",
      "inputs": [
        {
          "name": "poolId",
          "type": "uint256",
          "internalType": "uint256"
        },
        {
          "name": "shares",
          "type": "uint256",
          "internalType": "uint256"
        }
      ],
      "outputs": [
        {
          "name": "assets",
          "type": "uint256",
          "internalType": "uint256"
        }
      ],
      "stateMutability": "nonpayable"
    },
    {
      "type": "function",
      "name": "registerAndFundProject",
      "inputs": [
        {
          "name": "projectId",
          "type": "uint256",
          "internalType": "uint256"
        },
        {
          "name": "developer",
          "type": "address",
          "internalType": "address"
        },
        {
          "name": "params",
          "type": "tuple",
          "internalType": "struct ILiquidityPoolManager.ProjectParams",
          "components": [
            {
              "name": "loanAmountRequested",
              "type": "uint256",
              "internalType": "uint256"
            },
            {
              "name": "totalProjectCost",
              "type": "uint256",
              "internalType": "uint256"
            },
            {
              "name": "requestedTenor",
              "type": "uint48",
              "internalType": "uint48"
            },
            {
              "name": "metadataCID",
              "type": "string",
              "internalType": "string"
            }
          ]
        }
      ],
      "outputs": [
        {
          "name": "success",
          "type": "bool",
          "internalType": "bool"
        },
        {
          "name": "poolId",
          "type": "uint256",
          "internalType": "uint256"
        }
      ],
      "stateMutability": "nonpayable"
    },
    {
      "type": "function",
      "name": "renounceRole",
      "inputs": [
        {
          "name": "role",
          "type": "bytes32",
          "internalType": "bytes32"
        },
        {
          "name": "callerConfirmation",
          "type": "address",
          "internalType": "address"
        }
      ],
      "outputs": [],
      "stateMutability": "nonpayable"
    },
    {
      "type": "function",
      "name": "repaymentRouter",
      "inputs": [],
      "outputs": [
        {
          "name": "",
          "type": "address",
          "internalType": "address"
        }
      ],
      "stateMutability": "view"
    },
    {
      "type": "function",
      "name": "revokeRole",
      "inputs": [
        {
          "name": "role",
          "type": "bytes32",
          "internalType": "bytes32"
        },
        {
          "name": "account",
          "type": "address",
          "internalType": "address"
        }
      ],
      "outputs": [],
      "stateMutability": "nonpayable"
    },
    {
      "type": "function",
      "name": "riskOracleAdapter",
      "inputs": [],
      "outputs": [
        {
          "name": "",
          "type": "address",
          "internalType": "contract IRiskRateOracleAdapter"
        }
      ],
      "stateMutability": "view"
    },
    {
      "type": "function",
      "name": "setPoolRiskLevel",
      "inputs": [
        {
          "name": "poolId",
          "type": "uint256",
          "internalType": "uint256"
        },
        {
          "name": "riskLevel",
          "type": "uint16",
          "internalType": "uint16"
        },
        {
          "name": "baseAprBps",
          "type": "uint16",
          "internalType": "uint16"
        }
      ],
      "outputs": [],
      "stateMutability": "nonpayable"
    },
    {
      "type": "function",
      "name": "supportsInterface",
      "inputs": [
        {
          "name": "interfaceId",
          "type": "bytes4",
          "internalType": "bytes4"
        }
      ],
      "outputs": [
        {
          "name": "",
          "type": "bool",
          "internalType": "bool"
        }
      ],
      "stateMutability": "view"
    },
    {
      "type": "function",
      "name": "unpause",
      "inputs": [],
      "outputs": [],
      "stateMutability": "nonpayable"
    },
    {
      "type": "function",
      "name": "updateRiskParams",
      "inputs": [
        {
          "name": "poolId",
          "type": "uint256",
          "internalType": "uint256"
        },
        {
          "name": "projectId",
          "type": "uint256",
          "internalType": "uint256"
        },
        {
          "name": "newAprBps",
          "type": "uint16",
          "internalType": "uint16"
        }
      ],
      "outputs": [],
      "stateMutability": "nonpayable"
    },
    {
      "type": "function",
      "name": "upgradeToAndCall",
      "inputs": [
        {
          "name": "newImplementation",
          "type": "address",
          "internalType": "address"
        },
        {
          "name": "data",
          "type": "bytes",
          "internalType": "bytes"
        }
      ],
      "outputs": [],
      "stateMutability": "payable"
    },
    {
      "type": "function",
      "name": "usdcToken",
      "inputs": [],
      "outputs": [
        {
          "name": "",
          "type": "address",
          "internalType": "contract IERC20"
        }
      ],
      "stateMutability": "view"
    },
    {
      "type": "function",
      "name": "userShares",
      "inputs": [
        {
          "name": "",
          "type": "address",
          "internalType": "address"
        },
        {
          "name": "",
          "type": "uint256",
          "internalType": "uint256"
        }
      ],
      "outputs": [
        {
          "name": "",
          "type": "uint256",
          "internalType": "uint256"
        }
      ],
      "stateMutability": "view"
    },
    {
      "type": "event",
      "name": "Initialized",
      "inputs": [
        {
          "name": "version",
          "type": "uint64",
          "indexed": false,
          "internalType": "uint64"
        }
      ],
      "anonymous": false
    },
    {
      "type": "event",
      "name": "LoanDefaulted",
      "inputs": [
        {
          "name": "poolId",
          "type": "uint256",
          "indexed": true,
          "internalType": "uint256"
        },
        {
          "name": "projectId",
          "type": "uint256",
          "indexed": true,
          "internalType": "uint256"
        },
        {
          "name": "developer",
          "type": "address",
          "indexed": true,
          "internalType": "address"
        },
        {
          "name": "writeOffAmount",
          "type": "uint256",
          "indexed": false,
          "internalType": "uint256"
        },
        {
          "name": "totalOutstandingAtDefault",
          "type": "uint256",
          "indexed": false,
          "internalType": "uint256"
        }
      ],
      "anonymous": false
    },
    {
      "type": "event",
      "name": "Paused",
      "inputs": [
        {
          "name": "account",
          "type": "address",
          "indexed": false,
          "internalType": "address"
        }
      ],
      "anonymous": false
    },
    {
      "type": "event",
      "name": "PoolCreated",
      "inputs": [
        {
          "name": "poolId",
          "type": "uint256",
          "indexed": true,
          "internalType": "uint256"
        },
        {
          "name": "name",
          "type": "string",
          "indexed": false,
          "internalType": "string"
        },
        {
          "name": "creator",
          "type": "address",
          "indexed": true,
          "internalType": "address"
        }
      ],
      "anonymous": false
    },
    {
      "type": "event",
      "name": "PoolDeposit",
      "inputs": [
        {
          "name": "poolId",
          "type": "uint256",
          "indexed": true,
          "internalType": "uint256"
        },
        {
          "name": "investor",
          "type": "address",
          "indexed": true,
          "internalType": "address"
        },
        {
          "name": "assetsDeposited",
          "type": "uint256",
          "indexed": false,
          "internalType": "uint256"
        },
        {
          "name": "sharesMinted",
          "type": "uint256",
          "indexed": false,
          "internalType": "uint256"
        }
      ],
      "anonymous": false
    },
    {
      "type": "event",
      "name": "PoolProjectFunded",
      "inputs": [
        {
          "name": "poolId",
          "type": "uint256",
          "indexed": true,
          "internalType": "uint256"
        },
        {
          "name": "projectId",
          "type": "uint256",
          "indexed": true,
          "internalType": "uint256"
        },
        {
          "name": "developer",
          "type": "address",
          "indexed": true,
          "internalType": "address"
        },
        {
          "name": "devEscrow",
          "type": "address",
          "indexed": false,
          "internalType": "address"
        },
        {
          "name": "amountFunded",
          "type": "uint256",
          "indexed": false,
          "internalType": "uint256"
        },
        {
          "name": "aprBps",
          "type": "uint16",
          "indexed": false,
          "internalType": "uint16"
        },
        {
          "name": "liquidityPoolManagerAddress",
          "type": "address",
          "indexed": false,
          "internalType": "address"
        }
      ],
      "anonymous": false
    },
    {
      "type": "event",
      "name": "PoolRedeem",
      "inputs": [
        {
          "name": "poolId",
          "type": "uint256",
          "indexed": true,
          "internalType": "uint256"
        },
        {
          "name": "redeemer",
          "type": "address",
          "indexed": true,
          "internalType": "address"
        },
        {
          "name": "sharesBurned",
          "type": "uint256",
          "indexed": false,
          "internalType": "uint256"
        },
        {
          "name": "assetsWithdrawn",
          "type": "uint256",
          "indexed": false,
          "internalType": "uint256"
        }
      ],
      "anonymous": false
    },
    {
      "type": "event",
      "name": "PoolRepaymentReceived",
      "inputs": [
        {
          "name": "poolId",
          "type": "uint256",
          "indexed": true,
          "internalType": "uint256"
        },
        {
          "name": "projectId",
          "type": "uint256",
          "indexed": true,
          "internalType": "uint256"
        },
        {
          "name": "payer",
          "type": "address",
          "indexed": true,
          "internalType": "address"
        },
        {
          "name": "principalReceived",
          "type": "uint256",
          "indexed": false,
          "internalType": "uint256"
        },
        {
          "name": "interestReceived",
          "type": "uint256",
          "indexed": false,
          "internalType": "uint256"
        }
      ],
      "anonymous": false
    },
    {
      "type": "event",
      "name": "RoleAdminChanged",
      "inputs": [
        {
          "name": "role",
          "type": "bytes32",
          "indexed": true,
          "internalType": "bytes32"
        },
        {
          "name": "previousAdminRole",
          "type": "bytes32",
          "indexed": true,
          "internalType": "bytes32"
        },
        {
          "name": "newAdminRole",
          "type": "bytes32",
          "indexed": true,
          "internalType": "bytes32"
        }
      ],
      "anonymous": false
    },
    {
      "type": "event",
      "name": "RoleGranted",
      "inputs": [
        {
          "name": "role",
          "type": "bytes32",
          "indexed": true,
          "internalType": "bytes32"
        },
        {
          "name": "account",
          "type": "address",
          "indexed": true,
          "internalType": "address"
        },
        {
          "name": "sender",
          "type": "address",
          "indexed": true,
          "internalType": "address"
        }
      ],
      "anonymous": false
    },
    {
      "type": "event",
      "name": "RoleRevoked",
      "inputs": [
        {
          "name": "role",
          "type": "bytes32",
          "indexed": true,
          "internalType": "bytes32"
        },
        {
          "name": "account",
          "type": "address",
          "indexed": true,
          "internalType": "address"
        },
        {
          "name": "sender",
          "type": "address",
          "indexed": true,
          "internalType": "address"
        }
      ],
      "anonymous": false
    },
    {
      "type": "event",
      "name": "Unpaused",
      "inputs": [
        {
          "name": "account",
          "type": "address",
          "indexed": false,
          "internalType": "address"
        }
      ],
      "anonymous": false
    },
    {
      "type": "event",
      "name": "Upgraded",
      "inputs": [
        {
          "name": "implementation",
          "type": "address",
          "indexed": true,
          "internalType": "address"
        }
      ],
      "anonymous": false
    },
    {
      "type": "error",
      "name": "AccessControlBadConfirmation",
      "inputs": []
    },
    {
      "type": "error",
      "name": "AccessControlUnauthorizedAccount",
      "inputs": [
        {
          "name": "account",
          "type": "address",
          "internalType": "address"
        },
        {
          "name": "neededRole",
          "type": "bytes32",
          "internalType": "bytes32"
        }
      ]
    },
    {
      "type": "error",
      "name": "AddressEmptyCode",
      "inputs": [
        {
          "name": "target",
          "type": "address",
          "internalType": "address"
        }
      ]
    },
    {
      "type": "error",
      "name": "AmountCannotBeZero",
      "inputs": []
    },
    {
      "type": "error",
      "name": "CannotInvestZero",
      "inputs": []
    },
    {
      "type": "error",
      "name": "CannotRedeemZeroShares",
      "inputs": []
    },
    {
      "type": "error",
      "name": "ERC1967InvalidImplementation",
      "inputs": [
        {
          "name": "implementation",
          "type": "address",
          "internalType": "address"
        }
      ]
    },
    {
      "type": "error",
      "name": "ERC1967NonPayable",
      "inputs": []
    },
    {
      "type": "error",
      "name": "EnforcedPause",
      "inputs": []
    },
    {
      "type": "error",
      "name": "ExpectedPause",
      "inputs": []
    },
    {
      "type": "error",
      "name": "FailedCall",
      "inputs": []
    },
    {
      "type": "error",
      "name": "FailedDeployment",
      "inputs": []
    },
    {
      "type": "error",
      "name": "InsufficientBalance",
      "inputs": [
        {
          "name": "balance",
          "type": "uint256",
          "internalType": "uint256"
        },
        {
          "name": "needed",
          "type": "uint256",
          "internalType": "uint256"
        }
      ]
    },
    {
      "type": "error",
      "name": "InsufficientLiquidity",
      "inputs": []
    },
    {
      "type": "error",
      "name": "InsufficientShares",
      "inputs": [
        {
          "name": "required",
          "type": "uint256",
          "internalType": "uint256"
        },
        {
          "name": "available",
          "type": "uint256",
          "internalType": "uint256"
        }
      ]
    },
    {
      "type": "error",
      "name": "InvalidInitialization",
      "inputs": []
    },
    {
      "type": "error",
      "name": "InvalidState",
      "inputs": [
        {
          "name": "reason",
          "type": "string",
          "internalType": "string"
        }
      ]
    },
    {
      "type": "error",
      "name": "InvalidValue",
      "inputs": [
        {
          "name": "reason",
          "type": "string",
          "internalType": "string"
        }
      ]
    },
    {
      "type": "error",
      "name": "InvestmentBelowMinimum",
      "inputs": [
        {
          "name": "minimum",
          "type": "uint256",
          "internalType": "uint256"
        }
      ]
    },
    {
      "type": "error",
      "name": "NotInitializing",
      "inputs": []
    },
    {
      "type": "error",
      "name": "PoolAlreadyExists",
      "inputs": [
        {
          "name": "poolId",
          "type": "uint256",
          "internalType": "uint256"
        }
      ]
    },
    {
      "type": "error",
      "name": "PoolDoesNotExist",
      "inputs": [
        {
          "name": "poolId",
          "type": "uint256",
          "internalType": "uint256"
        }
      ]
    },
    {
      "type": "error",
      "name": "ReentrancyGuardReentrantCall",
      "inputs": []
    },
    {
      "type": "error",
      "name": "SafeERC20FailedOperation",
      "inputs": [
        {
          "name": "token",
          "type": "address",
          "internalType": "address"
        }
      ]
    },
    {
      "type": "error",
      "name": "StringCannotBeEmpty",
      "inputs": []
    },
    {
      "type": "error",
      "name": "UUPSUnauthorizedCallContext",
      "inputs": []
    },
    {
      "type": "error",
      "name": "UUPSUnsupportedProxiableUUID",
      "inputs": [
        {
          "name": "slot",
          "type": "bytes32",
          "internalType": "bytes32"
        }
      ]
    },
    {
      "type": "error",
      "name": "ZeroAddressNotAllowed",
      "inputs": []
    }
  ],
  "bytecode": {
    "object": "0x60a0604052306080523480156012575f80fd5b5060016003556080516159d161003e5f395f8181612f2401528181612f4d015261315f01526159d15ff3fe6080604052600436106102cc575f3560e01c8063818afcd11161017b578063a3246ad3116100d1578063d547741f11610087578063f29ebf6111610062578063f29ebf6114610ae0578063f525cb6814610aff578063f5e95acb14610b14575f80fd5b8063d547741f14610a6c578063e53dc68014610a8b578063eb82055114610ac1575f80fd5b8063ad3cb1cc116100b7578063ad3cb1cc146109d9578063ca15c87314610a2e578063ce4a37fe14610a4d575f80fd5b8063a3246ad31461097e578063ac4afa38146109aa575f80fd5b80639010d07c11610131578063960b5cec1161010c578063960b5cec1461083a5780639676c1cb14610859578063a217fddf1461096b575f80fd5b80639010d07c1461069857806391d14854146106b757806396050317146106f9575f80fd5b80638456cb59116101615780638456cb591461063657806385cc27fb1461064a5780638aa1c0dc14610679575f80fd5b8063818afcd1146105d9578063835dc40b146105f8575f80fd5b80633f4ba83a1161023057806359b2d294116101e65780637080b938116101c15780637080b938146105655780637113fe4e1461059b5780637cbc2373146105ba575f80fd5b806359b2d294146105105780635c975abb1461052f5780636fa9d05614610546575f80fd5b8063496179ac11610216578063496179ac146104b55780634f1ef286146104e957806352d1902d146104fc575f80fd5b80633f4ba83a1461045f5780634674810d14610473575f80fd5b8063248a9ca3116102855780632f2ff15d1161026b5780632f2ff15d146103f55780632f380b351461041457806336568abe14610440575f80fd5b8063248a9ca31461039a5780632d6af4d5146103d6575f80fd5b806311eac855116102b557806311eac8551461033b57806312d06cf21461035a578063171eb0ee1461037b575f80fd5b806301ffc9a7146102d0578063107d0be114610304575b5f80fd5b3480156102db575f80fd5b506102ef6102ea3660046148bb565b610b33565b60405190151581526020015b60405180910390f35b34801561030f575f80fd5b50600654610323906001600160a01b031681565b6040516001600160a01b0390911681526020016102fb565b348015610346575f80fd5b50600454610323906001600160a01b031681565b348015610365575f80fd5b50610379610374366004614909565b610bfd565b005b348015610386575f80fd5b50600854610323906001600160a01b031681565b3480156103a5575f80fd5b506103c86103b436600461493f565b5f9081526020819052604090206001015490565b6040519081526020016102fb565b3480156103e1575f80fd5b506103c86103f0366004614956565b610d0f565b348015610400575f80fd5b5061037961040f366004614991565b610d57565b34801561041f575f80fd5b5061043361042e36600461493f565b610d81565b6040516102fb91906149e9565b34801561044b575f80fd5b5061037961045a366004614991565b610ec7565b34801561046a575f80fd5b50610379610f18565b34801561047e575f80fd5b506104a261048d36600461493f565b60136020525f908152604090205461ffff1681565b60405161ffff90911681526020016102fb565b3480156104c0575f80fd5b506104d46104cf366004614a30565b610f4d565b604080519283526020830191909152016102fb565b6103796104f7366004614ab3565b611194565b348015610507575f80fd5b506103c86111b3565b34801561051b575f80fd5b50600754610323906001600160a01b031681565b34801561053a575f80fd5b5060025460ff166102ef565b348015610551575f80fd5b50600954610323906001600160a01b031681565b348015610570575f80fd5b5061058461057f366004614b5c565b6111e2565b6040805192151583526020830191909152016102fb565b3480156105a6575f80fd5b506103796105b5366004614baa565b611bab565b3480156105c5575f80fd5b506103c86105d4366004614956565b611cd2565b3480156105e4575f80fd5b50600b54610323906001600160a01b031681565b348015610603575f80fd5b506103c8610612366004614991565b6001600160a01b03165f908152600f60209081526040808320938352929052205490565b348015610641575f80fd5b50610379611fc7565b348015610655575f80fd5b506104a261066436600461493f565b60126020525f908152604090205461ffff1681565b348015610684575f80fd5b50600a54610323906001600160a01b031681565b3480156106a3575f80fd5b506103236106b2366004614956565b611ff9565b3480156106c2575f80fd5b506102ef6106d1366004614991565b5f918252602082815260408084206001600160a01b0393909316845291905290205460ff1690565b348015610704575f80fd5b5061082d610713366004614956565b60408051610140810182525f80825260208201819052918101829052606081018290526080810182905260a0810182905260c0810182905260e081018290526101008101829052610120810191909152505f828152600e60209081526040808320848452825291829020825161014081018452815460ff808216151583526001600160a01b036101009283900481169584019590955260018401549094169482019490945260028201546060820152600382015461ffff8116608083015265ffffffffffff620100009091041660a0820152600482015460c0820152600582015460e082015260069091015467ffffffffffffffff8116938201939093526801000000000000000090920416151561012082015292915050565b6040516102fb9190614bde565b348015610845575f80fd5b50610379610854366004614ca0565b612017565b348015610864575f80fd5b506108fb610873366004614956565b600e60209081525f9283526040808420909152908252902080546001820154600283015460038401546004850154600586015460069096015460ff808716976101009097046001600160a01b039081169796169561ffff85169462010000900465ffffffffffff169392909167ffffffffffffffff821691680100000000000000009004168a565b604080519a15158b526001600160a01b03998a1660208c01529790981696890196909652606088019490945261ffff92909216608087015265ffffffffffff1660a086015260c085015260e084015267ffffffffffffffff166101008301521515610120820152610140016102fb565b348015610976575f80fd5b506103c85f81565b348015610989575f80fd5b5061099d61099836600461493f565b612439565b6040516102fb9190614ce2565b3480156109b5575f80fd5b506109c96109c436600461493f565b612452565b6040516102fb9493929190614d2d565b3480156109e4575f80fd5b50610a216040518060400160405280600581526020017f352e302e3000000000000000000000000000000000000000000000000000000081525081565b6040516102fb9190614d5a565b348015610a39575f80fd5b506103c8610a4836600461493f565b612504565b348015610a58575f80fd5b50610379610a67366004614d6c565b61251a565b348015610a77575f80fd5b50610379610a86366004614991565b6126cf565b348015610a96575f80fd5b506103c8610aa5366004614de3565b600f60209081525f928352604080842090915290825290205481565b348015610acc575f80fd5b506103c8610adb366004614956565b6126f3565b348015610aeb575f80fd5b50600554610323906001600160a01b031681565b348015610b0a575f80fd5b506103c8600d5481565b348015610b1f575f80fd5b50610379610b2e366004614e0b565b61291c565b5f7f8456cb591a934d53f6ccc6332123a165a1f3562907bf11330d847a29ca49eb897f3f4ba83af89dc9793996d9e56b8abe6dc88cd97c9c2bb23027806e9c1ffd54dc7fbb1d6363e20e842acf5a1fd64aa91f08697f8f559b94a3032a0414b5d5b4bf557f44e29c9d000000000000000000000000000000000000000000000000000000007fffffffff00000000000000000000000000000000000000000000000000000000861601610beb57506001949350505050565b610bf485612d6a565b95945050505050565b7f02509c39826ef4d4fc9a6478dd388f892df655e831b495ea37e26344d4c48aca610c2781612dbf565b610c2f612dc9565b5f848152600e602090815260408083208684529091529020805460ff161580610c695750600681015468010000000000000000900460ff16155b15610cd5576040517f432f5b4a00000000000000000000000000000000000000000000000000000000815260206004820152601c60248201527f4c6f616e206e6f7420616374697665206f72206e6f7420666f756e640000000060448201526064015b60405180910390fd5b60030180547fffffffffffffffffffffffffffffffffffffffffffffffffffffffffffff00001661ffff9390931692909217909155505050565b5f828152600e602090815260408083208484529091528120805460ff16610d39575f915050610d51565b80600401548160020154610d4d9190614eda565b9150505b92915050565b5f82815260208190526040902060010154610d7181612dbf565b610d7b8383612e08565b50505050565b610dab60405180608001604052805f15158152602001606081526020015f81526020015f81525090565b5f828152600c602052604090205460ff16610df5576040517f1e657b1d00000000000000000000000000000000000000000000000000000000815260048101839052602401610ccc565b5f828152600c6020908152604091829020825160808101909352805460ff16151583526001810180549192840191610e2c90614eed565b80601f0160208091040260200160405190810160405280929190818152602001828054610e5890614eed565b8015610ea35780601f10610e7a57610100808354040283529160200191610ea3565b820191905f5260205f20905b815481529060010190602001808311610e8657829003601f168201915b50505050508152602001600282015481526020016003820154815250509050919050565b6001600160a01b0381163314610f09576040517f6697b23200000000000000000000000000000000000000000000000000000000815260040160405180910390fd5b610f138282612e3b565b505050565b7f65d7a28e3265b37a6474929f336521b332c1681b933f6cb9f3376673440d862a610f4281612dbf565b610f4a612e66565b50565b5f80610f57612ed6565b610f5f612dc9565b7f51a687be621618bb42f5dcbb17ee3798544ce951156fd30a67d800a241b48019610f8981612dbf565b5f868152600c60205260409020805460ff16610fd4576040517f1e657b1d00000000000000000000000000000000000000000000000000000000815260048101889052602401610ccc565b5f878152600e602090815260408083208984529091529020805460ff16158061100e5750600681015468010000000000000000900460ff16155b15611075576040517f432f5b4a00000000000000000000000000000000000000000000000000000000815260206004820152601c60248201527f4c6f616e206e6f7420616374697665206f72206e6f7420666f756e64000000006044820152606401610ccc565b5f8160040154826002015461108a9190614eda565b90508087106110a7579450846110a08188614eda565b94506110ae565b8695505f94505b85826004015f8282546110c19190614f3e565b9250508190555084826005015f8282546110db9190614f3e565b9250508190555086836002015f8282546110f59190614f3e565b9091555050600282015460048301541061113e57600282015460048301556006820180547fffffffffffffffffffffffffffffffffffffffffffffff00ffffffffffffffff1690555b604080518781526020810187905233918a918c917f56ab6a9fb8beed983212ba8dac7e660f7280fbded340421fe12a5308f8d5ebe1910160405180910390a45050505b5061118c6001600355565b935093915050565b61119c612f19565b6111a582612fe9565b6111af8282613053565b5050565b5f6111bc613154565b507f360894a13ba1a3210667c828492db98dca3e2076cc3735a920a3ca505d382bbc5b90565b5f806111ec612ed6565b6111f4612dc9565b7f42847befda217a8205614b97eeba0062d90a739902cf3467520ceec14471153961121e81612dbf565b6001600160a01b03851661125e576040517f8579befe00000000000000000000000000000000000000000000000000000000815260040160405180910390fd5b83355f03611298576040517fd11b25af00000000000000000000000000000000000000000000000000000000815260040160405180910390fd5b5f6112a16131b6565b5f818152601060209081526040918290208a81556002810180547fffffffffffffffffffffffff0000000000000000000000000000000000000000166001600160a01b038c161790558835600482015590880135600582015591925061130d9060608801908801614f51565b60068201805465ffffffffffff9290921662010000027fffffffffffffffffffffffffffffffffffffffffffffffff000000000000ffff9092169190911790556007546040517f0630bcd7000000000000000000000000000000000000000000000000000000008152600481018a90526001600160a01b0390911690630630bcd790602401602060405180830381865afa9250505080156113cb575060408051601f3d908101601f191682019092526113c891810190614f76565b60015b611535576113d7614f91565b806308c379a0036114ac57506113eb614fa9565b806113f657506114ae565b6006820180547fffffffffffffffffffffffffffffffffffffffffffff0000ffffffffffffffff16680200000000000000001790556040805160608101909152602580825261148591906158f860208301398a6040518060400160405280600781526020017f526561736f6e3a00000000000000000000000000000000000000000000000000815250846131cf565b6114a66040518060800160405280604981526020016156fa60499139613246565b50611682565b505b3d8080156114d7576040519150601f19603f3d011682016040523d82523d5f602084013e6114dc565b606091505b506006820180547fffffffffffffffffffffffffffffffffffffffffffff0000ffffffffffffffff16680200000000000000001790556040805160608101909152603a80825261148591906157d760208301398a6132b7565b60018161ffff161015801561154f575060038161ffff1611155b156115f2576006820180547fffffffffffffffffffffffffffffffffffffffffffff0000ffffffffffffffff166801000000000000000061ffff841602179055604080516060810190915260218082526115ed91906156b360208301398a6040518060400160405280600b81526020017f5269736b204c6576656c3a0000000000000000000000000000000000000000008152508461ffff1661332a565b611680565b6006820180547fffffffffffffffffffffffffffffffffffffffffffff0000ffffffffffffffff166802000000000000000017905560408051606081019091526029808252611680919061597360208301398a6040518060400160405280601d81526020017f44656661756c74696e6720746f206d656469756d207269736b202832290000008152506133a1565b505b6116a3828260060160089054906101000a900461ffff168360040154613416565b61170a57604080515f808252602082018190529181018290523060608201526001600160a01b038916918a917fdcd469e2717beb6ab0c2a53e003f397044fbe998c33f4df2d5213ff84033f4b7906080015b60405180910390a45f80945094505050611181565b6117138261355d565b61176957604080515f808252602082018190529181018290523060608201526001600160a01b038916918a917fdcd469e2717beb6ab0c2a53e003f397044fbe998c33f4df2d5213ff84033f4b7906080016116f5565b60018101548154600283015460038401546004850154600686015461197e9594936001600160a01b039081169316919061ffff81169065ffffffffffff6201000090910416604051806101400160405280600115158152602001866001600160a01b03168152602001856001600160a01b031681526020018481526020018361ffff1681526020018265ffffffffffff1681526020015f81526020015f81526020014267ffffffffffffffff16815260200160011515815250600e5f8981526020019081526020015f205f8881526020019081526020015f205f820151815f015f6101000a81548160ff0219169083151502179055506020820151815f0160016101000a8154816001600160a01b0302191690836001600160a01b031602179055506040820151816001015f6101000a8154816001600160a01b0302191690836001600160a01b03160217905550606082015181600201556080820151816003015f6101000a81548161ffff021916908361ffff16021790555060a08201518160030160026101000a81548165ffffffffffff021916908365ffffffffffff16021790555060c0820151816004015560e08201518160050155610100820151816006015f6101000a81548167ffffffffffffffff021916908367ffffffffffffffff1602179055506101208201518160060160086101000a81548160ff02191690831515021790555090505050505050505050565b61198782613733565b50611991826137de565b61199a82613abb565b6001818101545f8481526010602052604081208181558084018290556002810180547fffffffffffffffffffffffff0000000000000000000000000000000000000000908116909155600382018054909116905560048101829055600581019190915560060180547fffffffffffffffffffffffffffffffffffffffffffff00000000000000000000169055600a546040517f2d3bc857000000000000000000000000000000000000000000000000000000008152600481018c90526001600160a01b0390911690632d3bc857906024016020604051808303815f875af1925050508015611aa5575060408051601f3d908101601f19168201909252611aa291810190615061565b60015b611b0257611ab1614f91565b806308c379a003611af85750611ac5614fa9565b80611ad05750611afa565b611af260405180606001604052806025815260200161591d6025913982613dfd565b50611b25565b505b3d5f803e3d5ffd5b50611b256040518060600160405280602a81526020016158ce602a91398b6132b7565b600283015483546001850154600386015460048701546006880154604080516001600160a01b039485168152602081019390935261ffff909116908201523060608201529316927fdcd469e2717beb6ab0c2a53e003f397044fbe998c33f4df2d5213ff84033f4b79060800160405180910390a4909550935050505061118c6001600355565b5f611bb581612dbf565b5f848152600c602052604090205460ff16611bff576040517f1e657b1d00000000000000000000000000000000000000000000000000000000815260048101859052602401610ccc565b60018361ffff161080611c16575060038361ffff16115b15611c7d576040517f432f5b4a00000000000000000000000000000000000000000000000000000000815260206004820152601660248201527f5269736b206c6576656c206d75737420626520312d33000000000000000000006044820152606401610ccc565b505f92835260126020908152604080852080547fffffffffffffffffffffffffffffffffffffffffffffffffffffffffffff000090811661ffff96871617909155601390925290932080549093169116179055565b5f611cdb612ed6565b611ce3612dc9565b815f03611d1c576040517f2bf6e4ea00000000000000000000000000000000000000000000000000000000815260040160405180910390fd5b5f838152600c60205260409020805460ff16611d67576040517f1e657b1d00000000000000000000000000000000000000000000000000000000815260048101859052602401610ccc565b335f908152600f6020908152604080832087845290915290205483811015611dc5576040517fcb1d8bba0000000000000000000000000000000000000000000000000000000081526004810185905260248101829052604401610ccc565b600282015460038301545f819003611e5e576040517f8c3685b8000000000000000000000000000000000000000000000000000000008152602060048201526024808201527f43616e6e6f742072656465656d2066726f6d20656d70747920706f6f6c20736860448201527f61726573000000000000000000000000000000000000000000000000000000006064820152608401610ccc565b80611e698388615078565b611e7391906150bc565b9450845f03611ede576040517f432f5b4a00000000000000000000000000000000000000000000000000000000815260206004820152601b60248201527f53686172657320746f6f20736d616c6c20666f722061737365747300000000006044820152606401610ccc565b81851115611f48576040517f8c3685b800000000000000000000000000000000000000000000000000000000815260206004820152601c60248201527f526564656d7074696f6e2063616c63756c6174696f6e206572726f72000000006044820152606401610ccc565b611f528682614eda565b6003850155611f618684614eda565b335f818152600f602090815260408083208c8452825291829020939093558051898152928301889052909189917ff0251db1454f88c8e8294c42d324ba89e0192d1f40b3350af5aa350755a208a9910160405180910390a350505050610d516001600355565b7f65d7a28e3265b37a6474929f336521b332c1681b933f6cb9f3376673440d862a611ff181612dbf565b610f4a613e70565b5f8281526001602052604081206120109083613ecb565b9392505050565b5f61202181612dbf565b612029612dc9565b5f858152600c60205260409020805460ff16612074576040517f1e657b1d00000000000000000000000000000000000000000000000000000000815260048101879052602401610ccc565b5f868152600e602090815260408083208884529091529020805460ff166120f7576040517f432f5b4a00000000000000000000000000000000000000000000000000000000815260206004820152600e60248201527f4c6f616e206e6f7420666f756e640000000000000000000000000000000000006044820152606401610ccc565b600681015468010000000000000000900460ff16612171576040517f432f5b4a00000000000000000000000000000000000000000000000000000000815260206004820152601660248201527f4c6f616e20697320616c726561647920636c6f736564000000000000000000006044820152606401610ccc565b5f816004015482600201546121869190614eda565b9050805f03612217576040517f432f5b4a00000000000000000000000000000000000000000000000000000000815260206004820152602660248201527f4e6f206f75747374616e64696e67207072696e636970616c20746f206465666160448201527f756c74206f6e00000000000000000000000000000000000000000000000000006064820152608401610ccc565b5f86156122245786612226565b815b9050818111156122335750805b6006830180547fffffffffffffffffffffffffffffffffffffffffffffff00ffffffffffffffff169055600284015481116122865780846002015f82825461227b9190614eda565b9091555061228d9050565b5f60028501555b85156123df57600a54600b546040517f4283271c000000000000000000000000000000000000000000000000000000008152600481018b90526001600160a01b039182166024820152911690634283271c906044015f604051808303815f87803b1580156122f9575f80fd5b505af192505050801561230a575060015b6123bd57612316614f91565b806308c379a003612394575061232a614fa9565b806123355750612396565b61238e60405180606001604052806024815260200161557a602491398a6040518060400160405280600781526020017f526561736f6e3a00000000000000000000000000000000000000000000000000815250846131cf565b506123df565b505b6123b860405180606001604052806034815260200161581160349139896132b7565b6123df565b6123df6040518060600160405280603381526020016155dc60339139896132b7565b825460408051838152602081018590526101009092046001600160a01b0316918a918c917fa11a3de42af4c44c74b0183a1d12f04019f41d1191fa13aae591340b884ad296910160405180910390a4505050505050505050565b5f818152600160205260409020606090610d5190613ed6565b600c6020525f90815260409020805460018201805460ff909216929161247790614eed565b80601f01602080910402602001604051908101604052809291908181526020018280546124a390614eed565b80156124ee5780601f106124c5576101008083540402835291602001916124ee565b820191905f5260205f20905b8154815290600101906020018083116124d157829003601f168201915b5050505050908060020154908060030154905084565b5f818152600160205260408120610d5190613ee2565b5f61252481612dbf565b61252c612dc9565b5f600d5f815461253b906150cf565b91829055505f818152600c602052604090205490915060ff161561258e576040517f988c4d7800000000000000000000000000000000000000000000000000000000815260048101829052602401610ccc565b5f8390036125c8576040517faabcb66800000000000000000000000000000000000000000000000000000000815260040160405180910390fd5b604051806080016040528060011515815260200185858080601f0160208091040260200160405190810160405280939291908181526020018383808284375f92018290525093855250505060208083018290526040928301829052848252600c8152919020825181547fffffffffffffffffffffffffffffffffffffffffffffffffffffffffffffff001690151517815590820151600182019061266c9082615151565b506040820151816002015560608201518160030155905050336001600160a01b0316817f7eb8d63c0f8c2fb1b61dd0947e2f9eb707c7d44ec5d65a0761976cbc070197a586866040516126c092919061524a565b60405180910390a35050505050565b5f828152602081905260409020600101546126e981612dbf565b610d7b8383612e3b565b5f6126fc612ed6565b612704612dc9565b815f0361273d576040517f8ff9ef0b00000000000000000000000000000000000000000000000000000000815260040160405180910390fd5b6127496006600a615391565b612754906001615078565b8210156127a7576127676006600a615391565b612772906001615078565b6040517fbec095db000000000000000000000000000000000000000000000000000000008152600401610ccc91815260200190565b5f838152600c60205260409020805460ff166127f2576040517f1e657b1d00000000000000000000000000000000000000000000000000000000815260048101859052602401610ccc565b60028101546003820154811580612807575080155b156128145784935061282c565b8161281f8287615078565b61282991906150bc565b93505b835f03612895576040517f432f5b4a00000000000000000000000000000000000000000000000000000000815260206004820152601c60248201527f4465706f73697420746f6f20736d616c6c20666f7220736861726573000000006044820152606401610ccc565b61289f8482614f3e565b6003840155335f908152600f60209081526040808320898452909152812080548692906128cd908490614f3e565b90915550506040805186815260208101869052339188917f8235d65791fe2c87bd88b1c43846194851f3cbbbd7f4ee6a0952b1072bd9417f910160405180910390a3505050610d516001600355565b5f612925613eeb565b805490915060ff68010000000000000000820416159067ffffffffffffffff165f811580156129515750825b90505f8267ffffffffffffffff16600114801561296d5750303b155b90508115801561297b575080155b156129b2576040517ff92ee8a900000000000000000000000000000000000000000000000000000000815260040160405180910390fd5b84547fffffffffffffffffffffffffffffffffffffffffffffffff00000000000000001660011785558315612a135784547fffffffffffffffffffffffffffffffffffffffffffffff00ffffffffffffffff16680100000000000000001785555b6001600160a01b038e161580612a3057506001600160a01b038d16155b80612a4257506001600160a01b038c16155b80612a5457506001600160a01b038b16155b80612a6657506001600160a01b038a16155b80612a7857506001600160a01b038916155b80612a8a57506001600160a01b038816155b80612a9c57506001600160a01b038716155b80612aae57506001600160a01b038616155b15612ae5576040517f8579befe00000000000000000000000000000000000000000000000000000000815260040160405180910390fd5b8c60045f6101000a8154816001600160a01b0302191690836001600160a01b031602179055508b60055f6101000a8154816001600160a01b0302191690836001600160a01b031602179055508a60065f6101000a8154816001600160a01b0302191690836001600160a01b031602179055508960075f6101000a8154816001600160a01b0302191690836001600160a01b031602179055508860085f6101000a8154816001600160a01b0302191690836001600160a01b031602179055508760095f6101000a8154816001600160a01b0302191690836001600160a01b0316021790555086600a5f6101000a8154816001600160a01b0302191690836001600160a01b0316021790555085600b5f6101000a8154816001600160a01b0302191690836001600160a01b03160217905550612c215f801b8f612e08565b50612c4c7f65d7a28e3265b37a6474929f336521b332c1681b933f6cb9f3376673440d862a8f612e08565b50612c777f189ab7a9244df0848122154315af71fe140f3db0fe014031783b0946b8c9d2e38f612e08565b50612ca27f42847befda217a8205614b97eeba0062d90a739902cf3467520ceec1447115398f612e08565b50612ccd7f51a687be621618bb42f5dcbb17ee3798544ce951156fd30a67d800a241b4801989612e08565b50612cf87f02509c39826ef4d4fc9a6478dd388f892df655e831b495ea37e26344d4c48aca8f612e08565b508315612d5a5784547fffffffffffffffffffffffffffffffffffffffffffffff00ffffffffffffffff168555604051600181527fc7f505b2f371ae2175ee4913f4499e1f2633a7b5936321eed1cdaeb6115181d29060200160405180910390a15b5050505050505050505050505050565b5f7fffffffff0000000000000000000000000000000000000000000000000000000082167f5a05180f000000000000000000000000000000000000000000000000000000001480610d515750610d5182613f13565b610f4a8133613fa9565b60025460ff1615612e06576040517fd93c066500000000000000000000000000000000000000000000000000000000815260040160405180910390fd5b565b5f80612e148484614014565b90508015612010575f848152600160205260409020612e3390846140d9565b509392505050565b5f80612e4784846140ed565b90508015612010575f848152600160205260409020612e33908461418c565b612e6e6141a0565b600280547fffffffffffffffffffffffffffffffffffffffffffffffffffffffffffffff001690557f5db9ee0a495bf2e6ff9c91a7834c1ba4fdd244a5e8aa4e537bd38aeae4b073aa335b6040516001600160a01b03909116815260200160405180910390a1565b600260035403612f12576040517f3ee5aeb500000000000000000000000000000000000000000000000000000000815260040160405180910390fd5b6002600355565b306001600160a01b037f0000000000000000000000000000000000000000000000000000000000000000161480612fb257507f00000000000000000000000000000000000000000000000000000000000000006001600160a01b0316612fa67f360894a13ba1a3210667c828492db98dca3e2076cc3735a920a3ca505d382bbc546001600160a01b031690565b6001600160a01b031614155b15612e06576040517fe07c8dba00000000000000000000000000000000000000000000000000000000815260040160405180910390fd5b7f189ab7a9244df0848122154315af71fe140f3db0fe014031783b0946b8c9d2e361301381612dbf565b6001600160a01b0382166111af576040517f8579befe00000000000000000000000000000000000000000000000000000000815260040160405180910390fd5b816001600160a01b03166352d1902d6040518163ffffffff1660e01b8152600401602060405180830381865afa9250505080156130ad575060408051601f3d908101601f191682019092526130aa91810190615061565b60015b6130ee576040517f4c9c8ce30000000000000000000000000000000000000000000000000000000081526001600160a01b0383166004820152602401610ccc565b7f360894a13ba1a3210667c828492db98dca3e2076cc3735a920a3ca505d382bbc811461314a576040517faa1d49a400000000000000000000000000000000000000000000000000000000815260048101829052602401610ccc565b610f1383836141dc565b306001600160a01b037f00000000000000000000000000000000000000000000000000000000000000001614612e06576040517fe07c8dba00000000000000000000000000000000000000000000000000000000815260040160405180910390fd5b5f60115f81546131c5906150cf565b9182905550919050565b610d7b848484846040516024016131e9949392919061539f565b60408051601f198184030181529190526020810180517bffffffffffffffffffffffffffffffffffffffffffffffffffffffff167f5ab84e1f00000000000000000000000000000000000000000000000000000000179052614231565b610f4a8160405160240161325a9190614d5a565b60408051601f198184030181529190526020810180517bffffffffffffffffffffffffffffffffffffffffffffffffffffffff167f41304fac00000000000000000000000000000000000000000000000000000000179052614231565b6111af82826040516024016132cd9291906153e8565b60408051601f198184030181529190526020810180517bffffffffffffffffffffffffffffffffffffffffffffffffffffffff167fb60e72cc00000000000000000000000000000000000000000000000000000000179052614231565b610d7b848484846040516024016133449493929190615409565b60408051601f198184030181529190526020810180517bffffffffffffffffffffffffffffffffffffffffffffffffffffffff167fc67ea9d100000000000000000000000000000000000000000000000000000000179052614231565b610f138383836040516024016133b993929190615445565b60408051601f198184030181529190526020810180517bffffffffffffffffffffffffffffffffffffffffffffffffffffffff167f5970e08900000000000000000000000000000000000000000000000000000000179052614231565b5f8381526010602052604081208161ffff60015b600d548111613502575f818152600c602052604090205460ff16801561346057505f818152600c60205260409020600201548611155b156134f0575f8181526012602052604090205461ffff90811690881681036134ad575f8281526013602052604090205461ffff9081169084168110156134a7578294508093505b506134ee565b831580156134c257508761ffff168161ffff16115b156134ee575f8281526013602052604090205461ffff9081169084168110156134ec578294508093505b505b505b806134fa816150cf565b91505061342a565b50815f03613515575f9350505050612010565b600183810192909255600690920180547fffffffffffffffffffffffffffffffffffffffffffffffffffffffffffff00001661ffff9093169290921790915590509392505050565b5f8181526010602052604081206008548290613581906001600160a01b031661423a565b90506001600160a01b0381166135f3576040517f8c3685b800000000000000000000000000000000000000000000000000000000815260206004820152601660248201527f446576457363726f7720636c6f6e65206661696c6564000000000000000000006044820152606401610ccc565b600480546002840154918401546040516001600160a01b03928316602482015292821660448401523060648401819052608484019190915260a48301525f919083169060c40160408051601f198184030181529181526020820180517bffffffffffffffffffffffffffffffffffffffffffffffffffffffff167f530b97a4000000000000000000000000000000000000000000000000000000001790525161369c919061546f565b5f604051808303815f865af19150503d805f81146136d5576040519150601f19603f3d011682016040523d82523d5f602084013e6136da565b606091505b505080915050806136ef57505f949350505050565b5060039190910180547fffffffffffffffffffffffff0000000000000000000000000000000000000000166001600160a01b03909216919091179055506001919050565b5f81815260106020908152604080832060018101548452600c9092528220600482015460028201541015613793576040517fbb55fd2700000000000000000000000000000000000000000000000000000000815260040160405180910390fd5b8160040154816002015f8282546137aa9190614eda565b9091555050600282015460048084015490546137d4926001600160a01b0391821692911690614245565b5060019392505050565b5f81815260106020526040908190206003810154600582015492517fdd92ffe500000000000000000000000000000000000000000000000000000000815291926001600160a01b039091169163dd92ffe5916138409160040190815260200190565b5f604051808303815f87803b158015613857575f80fd5b505af1925050508015613868575060015b6138bf573d808015613895576040519150601f19603f3d011682016040523d82523d5f602084013e61389a565b606091505b506138bd6040518060600160405280602781526020016156436027913982613dfd565b505b6005805482549183015460028401546040517f850e63d4000000000000000000000000000000000000000000000000000000008152600481019490945260248401919091526001600160a01b03908116604484015267ffffffffffffffff42166064840152169063850e63d4906084015f604051808303815f87803b158015613946575f80fd5b505af1925050508015613957575060015b6139aa57613963614f91565b806308c379a003611af85750613977614fa9565b806139825750611afa565b6139a46040518060600160405280602381526020016158ab6023913982613dfd565b506139cd565b6139cd6040518060600160405280603181526020016159426031913982546132b7565b60065460028201546040517f9962b5b50000000000000000000000000000000000000000000000000000000081526001600160a01b039182166004820152911690639962b5b5906024015f604051808303815f87803b158015613a2e575f80fd5b505af1925050508015613a3f575060015b613a8c57613a4b614f91565b806308c379a003611af85750613a5f614fa9565b80613a6a5750611afa565b610f136040518060600160405280603081526020016158456030913982613dfd565b6111af6040518060600160405280603e815260200161559e603e913960028301546001600160a01b03166142c5565b5f81815260106020526040812060048101546006820154919291613af3919061ffff81169062010000900465ffffffffffff16614338565b90508015613bf45760055482546040517f85548dbd000000000000000000000000000000000000000000000000000000008152600481019190915260016024820152604481018390526001600160a01b03909116906385548dbd906064015f604051808303815f87803b158015613b68575f80fd5b505af1925050508015613b79575060015b613bcc57613b85614f91565b806308c379a003611af85750613b99614fa9565b80613ba45750611afa565b613bc66040518060600160405280602681526020016156d46026913982613dfd565b50613c17565b613bef60405180606001604052806034815260200161560f6034913983546132b7565b613c17565b613c1760405180608001604052806049815260200161566a6049913983546132b7565b600954825460018401546040517faaed1b7f000000000000000000000000000000000000000000000000000000008152600481019290925230602483015260448201526001600160a01b039091169063aaed1b7f906064015f604051808303815f87803b158015613c86575f80fd5b505af1925050508015613c97575060015b613cea57613ca3614f91565b806308c379a003611af85750613cb7614fa9565b80613cc25750611afa565b613ce46040518060600160405280602881526020016157436028913982613dfd565b50613d0d565b613d0d6040518060600160405280603681526020016158756036913983546132b7565b600754825460018401546040517fb6ec0db3000000000000000000000000000000000000000000000000000000008152600481019290925230602483015260448201526001600160a01b039091169063b6ec0db3906064015f604051808303815f87803b158015613d7c575f80fd5b505af1925050508015613d8d575060015b613dda57613d99614f91565b806308c379a003611af85750613dad614fa9565b80613db85750611afa565b610d7b6040518060600160405280602f815260200161576b602f913982613dfd565b610f136040518060600160405280603d815260200161579a603d913983546132b7565b6111af8282604051602401613e13929190615485565b60408051601f198184030181529190526020810180517bffffffffffffffffffffffffffffffffffffffffffffffffffffffff167f4b5c427700000000000000000000000000000000000000000000000000000000179052614231565b613e78612dc9565b600280547fffffffffffffffffffffffffffffffffffffffffffffffffffffffffffffff001660011790557f62e78cea01bee320cd4e420270b5ea74000d11b0c9f74754ebdbfc544b05a258612eb93390565b5f61201083836143a4565b60605f612010836143ca565b5f610d51825490565b5f807ff0c57e16840df040f15088dc2f81fe391c3923bec73e23a9662efc9c229c6a00610d51565b5f7fffffffff0000000000000000000000000000000000000000000000000000000082167f7965db0b000000000000000000000000000000000000000000000000000000001480610d5157507f01ffc9a7000000000000000000000000000000000000000000000000000000007fffffffff00000000000000000000000000000000000000000000000000000000831614610d51565b5f828152602081815260408083206001600160a01b038516845290915290205460ff166111af576040517fe2517d3f0000000000000000000000000000000000000000000000000000000081526001600160a01b038216600482015260248101839052604401610ccc565b5f828152602081815260408083206001600160a01b038516845290915281205460ff166140d2575f838152602081815260408083206001600160a01b0386168452909152902080547fffffffffffffffffffffffffffffffffffffffffffffffffffffffffffffff0016600117905561408a3390565b6001600160a01b0316826001600160a01b0316847f2f8788117e7eff1d82e926ec794901d17c78024a50270940304540a733656f0d60405160405180910390a4506001610d51565b505f610d51565b5f612010836001600160a01b038416614423565b5f828152602081815260408083206001600160a01b038516845290915281205460ff16156140d2575f838152602081815260408083206001600160a01b038616808552925280832080547fffffffffffffffffffffffffffffffffffffffffffffffffffffffffffffff0016905551339286917ff6391f5c32d9c69d2a47ea670b442974b53935d1edc7fd64eb21e047a839171b9190a4506001610d51565b5f612010836001600160a01b038416614468565b60025460ff16612e06576040517f8dfc202b00000000000000000000000000000000000000000000000000000000815260040160405180910390fd5b6141e582614552565b6040516001600160a01b038316907fbc7cd75a20ee27fd9adebab32041f755214dbc6bffa90cc0225b39da2e5c2d3b905f90a280511561422957610f1382826145f9565b6111af614662565b610f4a8161469a565b5f610d51825f6146b9565b604080516001600160a01b038416602482015260448082018490528251808303909101815260649091019091526020810180517bffffffffffffffffffffffffffffffffffffffffffffffffffffffff167fa9059cbb00000000000000000000000000000000000000000000000000000000179052610f1390849061477f565b6111af82826040516024016142db9291906154a9565b60408051601f198184030181529190526020810180517bffffffffffffffffffffffffffffffffffffffffffffffffffffffff167f319af33300000000000000000000000000000000000000000000000000000000179052614231565b5f8061016d6143488460076154d3565b61435291906154f4565b6143649065ffffffffffff16866150bc565b90505f603461271061437a61ffff881689615078565b61438491906150bc565b61438e91906150bc565b905061439a8183614f3e565b9695505050505050565b5f825f0182815481106143b9576143b961551f565b905f5260205f200154905092915050565b6060815f0180548060200260200160405190810160405280929190818152602001828054801561441757602002820191905f5260205f20905b815481526020019060010190808311614403575b50505050509050919050565b5f8181526001830160205260408120546140d257508154600181810184555f848152602080822090930184905584548482528286019093526040902091909155610d51565b5f8181526001830160205260408120548015614542575f61448a600183614eda565b85549091505f9061449d90600190614eda565b90508082146144fc575f865f0182815481106144bb576144bb61551f565b905f5260205f200154905080875f0184815481106144db576144db61551f565b5f918252602080832090910192909255918252600188019052604090208390555b855486908061450d5761450d61554c565b600190038181905f5260205f20015f90559055856001015f8681526020019081526020015f205f905560019350505050610d51565b5f915050610d51565b5092915050565b806001600160a01b03163b5f036145a0576040517f4c9c8ce30000000000000000000000000000000000000000000000000000000081526001600160a01b0382166004820152602401610ccc565b7f360894a13ba1a3210667c828492db98dca3e2076cc3735a920a3ca505d382bbc80547fffffffffffffffffffffffff0000000000000000000000000000000000000000166001600160a01b0392909216919091179055565b60605f80846001600160a01b031684604051614615919061546f565b5f60405180830381855af49150503d805f811461464d576040519150601f19603f3d011682016040523d82523d5f602084013e614652565b606091505b5091509150610bf4858383614804565b3415612e06576040517fb398979f00000000000000000000000000000000000000000000000000000000815260040160405180910390fd5b5f6a636f6e736f6c652e6c6f6790505f80835160208501845afa505050565b5f814710156146fd576040517fcf47918100000000000000000000000000000000000000000000000000000000815247600482015260248101839052604401610ccc565b763d602d80600a3d3981f3363d3d373d3d3d363d730000008360601b60e81c175f526e5af43d82803e903d91602b57fd5bf38360781b176020526037600983f090506001600160a01b038116610d51576040517fb06ebf3d00000000000000000000000000000000000000000000000000000000815260040160405180910390fd5b5f8060205f8451602086015f885af18061479e576040513d5f823e3d81fd5b50505f513d915081156147b55780600114156147c2565b6001600160a01b0384163b155b15610d7b576040517f5274afe70000000000000000000000000000000000000000000000000000000081526001600160a01b0385166004820152602401610ccc565b6060826148195761481482614879565b612010565b815115801561483057506001600160a01b0384163b155b15614872576040517f9996b3150000000000000000000000000000000000000000000000000000000081526001600160a01b0385166004820152602401610ccc565b5080612010565b8051156148895780518082602001fd5b6040517fd6bda27500000000000000000000000000000000000000000000000000000000815260040160405180910390fd5b5f602082840312156148cb575f80fd5b81357fffffffff0000000000000000000000000000000000000000000000000000000081168114612010575f80fd5b61ffff81168114610f4a575f80fd5b5f805f6060848603121561491b575f80fd5b83359250602084013591506040840135614934816148fa565b809150509250925092565b5f6020828403121561494f575f80fd5b5035919050565b5f8060408385031215614967575f80fd5b50508035926020909101359150565b80356001600160a01b038116811461498c575f80fd5b919050565b5f80604083850312156149a2575f80fd5b823591506149b260208401614976565b90509250929050565b5f81518084528060208401602086015e5f602082860101526020601f19601f83011685010191505092915050565b602081528151151560208201525f602083015160806040840152614a1060a08401826149bb565b905060408401516060840152606084015160808401528091505092915050565b5f805f60608486031215614a42575f80fd5b505081359360208301359350604090920135919050565b7f4e487b71000000000000000000000000000000000000000000000000000000005f52604160045260245ffd5b601f19601f830116810181811067ffffffffffffffff82111715614aac57614aac614a59565b6040525050565b5f8060408385031215614ac4575f80fd5b614acd83614976565b9150602083013567ffffffffffffffff811115614ae8575f80fd5b8301601f81018513614af8575f80fd5b803567ffffffffffffffff811115614b1257614b12614a59565b604051614b296020601f19601f8501160182614a86565b818152866020838501011115614b3d575f80fd5b816020840160208301375f602083830101528093505050509250929050565b5f805f60608486031215614b6e575f80fd5b83359250614b7e60208501614976565b9150604084013567ffffffffffffffff811115614b99575f80fd5b840160808187031215614934575f80fd5b5f805f60608486031215614bbc575f80fd5b833592506020840135614bce816148fa565b91506040840135614934816148fa565b81511515815261014081016020830151614c0360208401826001600160a01b03169052565b506040830151614c1e60408401826001600160a01b03169052565b50606083015160608301526080830151614c3e608084018261ffff169052565b5060a0830151614c5860a084018265ffffffffffff169052565b5060c083015160c083015260e083015160e0830152610100830151614c8a61010084018267ffffffffffffffff169052565b5061012083015161454b61012084018215159052565b5f805f8060808587031215614cb3575f80fd5b84359350602085013592506040850135915060608501358015158114614cd7575f80fd5b939692955090935050565b602080825282518282018190525f918401906040840190835b81811015614d225783516001600160a01b0316835260209384019390920191600101614cfb565b509095945050505050565b8415158152608060208201525f614d4760808301866149bb565b6040830194909452506060015292915050565b602081525f61201060208301846149bb565b5f805f60408486031215614d7e575f80fd5b83359250602084013567ffffffffffffffff811115614d9b575f80fd5b8401601f81018613614dab575f80fd5b803567ffffffffffffffff811115614dc1575f80fd5b866020828401011115614dd2575f80fd5b939660209190910195509293505050565b5f8060408385031215614df4575f80fd5b614dfd83614976565b946020939093013593505050565b5f805f805f805f805f6101208a8c031215614e24575f80fd5b614e2d8a614976565b9850614e3b60208b01614976565b9750614e4960408b01614976565b9650614e5760608b01614976565b9550614e6560808b01614976565b9450614e7360a08b01614976565b9350614e8160c08b01614976565b9250614e8f60e08b01614976565b9150614e9e6101008b01614976565b90509295985092959850929598565b7f4e487b71000000000000000000000000000000000000000000000000000000005f52601160045260245ffd5b81810381811115610d5157610d51614ead565b600181811c90821680614f0157607f821691505b602082108103614f38577f4e487b71000000000000000000000000000000000000000000000000000000005f52602260045260245ffd5b50919050565b80820180821115610d5157610d51614ead565b5f60208284031215614f61575f80fd5b813565ffffffffffff81168114612010575f80fd5b5f60208284031215614f86575f80fd5b8151612010816148fa565b5f60033d11156111df5760045f803e505f5160e01c90565b5f60443d1015614fb65790565b6040517ffffffffffffffffffffffffffffffffffffffffffffffffffffffffffffffffc3d016004823e80513d602482011167ffffffffffffffff82111715614ffe57505090565b808201805167ffffffffffffffff81111561501a575050505090565b7ffffffffffffffffffffffffffffffffffffffffffffffffffffffffffffffffc3d8501016020828401011115615052575050505090565b612e3360208285010185614a86565b5f60208284031215615071575f80fd5b5051919050565b8082028115828204841417610d5157610d51614ead565b7f4e487b71000000000000000000000000000000000000000000000000000000005f52601260045260245ffd5b5f826150ca576150ca61508f565b500490565b5f7fffffffffffffffffffffffffffffffffffffffffffffffffffffffffffffffff82036150ff576150ff614ead565b5060010190565b601f821115610f1357805f5260205f20601f840160051c8101602085101561512b5750805b601f840160051c820191505b8181101561514a575f8155600101615137565b5050505050565b815167ffffffffffffffff81111561516b5761516b614a59565b61517f816151798454614eed565b84615106565b6020601f8211600181146151d0575f831561519a5750848201515b7fffffffffffffffffffffffffffffffffffffffffffffffffffffffffffffffff600385901b1c1916600184901b17845561514a565b5f84815260208120601f198516915b828110156151ff57878501518255602094850194600190920191016151df565b508482101561523b57868401517fffffffffffffffffffffffffffffffffffffffffffffffffffffffffffffffff600387901b60f8161c191681555b50505050600190811b01905550565b60208152816020820152818360408301375f818301604090810191909152601f909201601f19160101919050565b6001815b600184111561118c5780850481111561529757615297614ead565b60018416156152a557908102905b60019390931c92800261527c565b5f826152c157506001610d51565b816152cd57505f610d51565b81600181146152e357600281146152ed57615309565b6001915050610d51565b60ff8411156152fe576152fe614ead565b50506001821b610d51565b5060208310610133831016604e8410600b841016171561532c575081810a610d51565b6153577fffffffffffffffffffffffffffffffffffffffffffffffffffffffffffffffff8484615278565b807fffffffffffffffffffffffffffffffffffffffffffffffffffffffffffffffff0482111561538957615389614ead565b029392505050565b5f61201060ff8416836152b3565b608081525f6153b160808301876149bb565b85602084015282810360408401526153c981866149bb565b905082810360608401526153dd81856149bb565b979650505050505050565b604081525f6153fa60408301856149bb565b90508260208301529392505050565b608081525f61541b60808301876149bb565b856020840152828103604084015261543381866149bb565b91505082606083015295945050505050565b606081525f61545760608301866149bb565b846020840152828103604084015261439a81856149bb565b5f82518060208501845e5f920191825250919050565b604081525f61549760408301856149bb565b8281036020840152610bf481856149bb565b604081525f6154bb60408301856149bb565b90506001600160a01b03831660208301529392505050565b65ffffffffffff818116838216029081169081811461454b5761454b614ead565b5f65ffffffffffff83168061550b5761550b61508f565b8065ffffffffffff84160491505092915050565b7f4e487b71000000000000000000000000000000000000000000000000000000005f52603260045260245ffd5b7f4e487b71000000000000000000000000000000000000000000000000000000005f52603160045260245ffdfe4661696c656420746f20736c617368206465706f73697420666f722070726f6a6563743a446576656c6f70657252656769737472792e696e6372656d656e7446756e646564436f756e7465722063616c6c656420666f7220646576656c6f7065723a5375636365737366756c6c7920736c6173686564206465706f73697420666f722064656661756c7465642070726f6a6563743a466565526f757465722e73657452657061796d656e745363686564756c652063616c6c656420666f722070726f6a65637449643a446576457363726f77206e6f7469667946756e64696e67436f6d706c657465206661696c65643a536b697070656420466565526f757465722e73657452657061796d656e745363686564756c652064756520746f207a65726f207061796d656e7420666f722070726f6a65637449643a526574726965766564207269736b206c6576656c20666f722070726f6a6563743a466565526f757465722e73657452657061796d656e745363686564756c65206661696c65643a44656661756c74696e6720746f206d656469756d207269736b20283229202d2061666665637473204150522063616c63756c6174696f6e20616e6420706f6f6c206d61746368696e6752657061796d656e74526f757465722e73657446756e64696e67536f75726365206661696c65643a5269736b526174654f7261636c65416461707465722e736574546172676574436f6e7472616374206661696c65643a5269736b526174654f7261636c65416461707465722e736574546172676574436f6e74726163742063616c6c656420666f722070726f6a65637449643a4661696c656420746f20676574207269736b206c6576656c20666f722070726f6a6563742077697468206c6f772d6c6576656c206572726f723a4661696c656420746f20736c617368206465706f73697420666f722070726f6a6563742028756e6b6e6f776e206572726f72293a446576656c6f70657252656769737472792e696e6372656d656e7446756e646564436f756e746572206661696c65643a52657061796d656e74526f757465722e73657446756e64696e67536f757263652063616c6c656420666f722070726f6a65637449643a466565526f757465722e73657450726f6a65637444657461696c73206661696c65643a446576656c6f706572206465706f736974207472616e7366657272656420666f722070726f6a6563743a4661696c656420746f20676574207269736b206c6576656c20666f722070726f6a6563743a4661696c656420746f207472616e7366657220646576656c6f706572206465706f7369743a466565526f757465722e73657450726f6a65637444657461696c732063616c6c656420666f722070726f6a65637449643a52657472696576656420696e76616c6964207269736b206c6576656c20666f722070726f6a6563743aa264697066735822122009383bb081b61fe23fbcfec3a011cdfff3edacac827596864615c8063f2e90a964736f6c634300081a0033",
    "linkReferences": {}
  },
  "methodIdentifiers": {
    "DEFAULT_ADMIN_ROLE()": "a217fddf",
    "UPGRADE_INTERFACE_VERSION()": "ad3cb1cc",
    "createPool(uint256,string)": "ce4a37fe",
    "depositEscrow()": "8aa1c0dc",
    "depositToPool(uint256,uint256)": "eb820551",
    "devEscrowImplementation()": "171eb0ee",
    "developerRegistry()": "107d0be1",
    "feeRouter()": "f29ebf61",
    "getOutstandingPrincipal(uint256,uint256)": "2d6af4d5",
    "getPoolInfo(uint256)": "2f380b35",
    "getPoolLoanRecord(uint256,uint256)": "96050317",
    "getRoleAdmin(bytes32)": "248a9ca3",
    "getRoleMember(bytes32,uint256)": "9010d07c",
    "getRoleMemberCount(bytes32)": "ca15c873",
    "getRoleMembers(bytes32)": "a3246ad3",
    "getUserShares(uint256,address)": "835dc40b",
    "grantRole(bytes32,address)": "2f2ff15d",
    "handleLoanDefault(uint256,uint256,uint256,bool)": "960b5cec",
    "handleRepayment(uint256,uint256,uint256)": "496179ac",
    "hasRole(bytes32,address)": "91d14854",
    "initialize(address,address,address,address,address,address,address,address,address)": "f5e95acb",
    "pause()": "8456cb59",
    "paused()": "5c975abb",
    "poolAprRates(uint256)": "4674810d",
    "poolCount()": "f525cb68",
    "poolLoans(uint256,uint256)": "9676c1cb",
    "poolRiskLevels(uint256)": "85cc27fb",
    "pools(uint256)": "ac4afa38",
    "protocolTreasuryAdmin()": "818afcd1",
    "proxiableUUID()": "52d1902d",
    "redeem(uint256,uint256)": "7cbc2373",
    "registerAndFundProject(uint256,address,(uint256,uint256,uint48,string))": "7080b938",
    "renounceRole(bytes32,address)": "36568abe",
    "repaymentRouter()": "6fa9d056",
    "revokeRole(bytes32,address)": "d547741f",
    "riskOracleAdapter()": "59b2d294",
    "setPoolRiskLevel(uint256,uint16,uint16)": "7113fe4e",
    "supportsInterface(bytes4)": "01ffc9a7",
    "unpause()": "3f4ba83a",
    "updateRiskParams(uint256,uint256,uint16)": "12d06cf2",
    "upgradeToAndCall(address,bytes)": "4f1ef286",
    "usdcToken()": "11eac855",
    "userShares(address,uint256)": "e53dc680"
  },
  "id": 95
}