{
  "abi": [
    {
      "type": "constructor",
      "inputs": [],
      "stateMutability": "nonpayable"
    },
    {
      "type": "function",
      "name": "DEFAULT_ADMIN_ROLE",
      "inputs": [],
      "outputs": [
        {
          "name": "",
          "type": "bytes32",
          "internalType": "bytes32"
        }
      ],
      "stateMutability": "view"
    },
    {
      "type": "function",
      "name": "DOMAIN_SEPARATOR",
      "inputs": [],
      "outputs": [
        {
          "name": "",
          "type": "bytes32",
          "internalType": "bytes32"
        }
      ],
      "stateMutability": "view"
    },
    {
      "type": "function",
      "name": "allowance",
      "inputs": [
        {
          "name": "owner",
          "type": "address",
          "internalType": "address"
        },
        {
          "name": "spender",
          "type": "address",
          "internalType": "address"
        }
      ],
      "outputs": [
        {
          "name": "",
          "type": "uint256",
          "internalType": "uint256"
        }
      ],
      "stateMutability": "view"
    },
    {
      "type": "function",
      "name": "approve",
      "inputs": [
        {
          "name": "spender",
          "type": "address",
          "internalType": "address"
        },
        {
          "name": "value",
          "type": "uint256",
          "internalType": "uint256"
        }
      ],
      "outputs": [
        {
          "name": "",
          "type": "bool",
          "internalType": "bool"
        }
      ],
      "stateMutability": "nonpayable"
    },
    {
      "type": "function",
      "name": "balanceOf",
      "inputs": [
        {
          "name": "account",
          "type": "address",
          "internalType": "address"
        }
      ],
      "outputs": [
        {
          "name": "",
          "type": "uint256",
          "internalType": "uint256"
        }
      ],
      "stateMutability": "view"
    },
    {
      "type": "function",
      "name": "burn",
      "inputs": [
        {
          "name": "value",
          "type": "uint256",
          "internalType": "uint256"
        }
      ],
      "outputs": [],
      "stateMutability": "nonpayable"
    },
    {
      "type": "function",
      "name": "burnFrom",
      "inputs": [
        {
          "name": "from",
          "type": "address",
          "internalType": "address"
        },
        {
          "name": "amount",
          "type": "uint256",
          "internalType": "uint256"
        }
      ],
      "outputs": [],
      "stateMutability": "nonpayable"
    },
    {
      "type": "function",
      "name": "decimals",
      "inputs": [],
      "outputs": [
        {
          "name": "",
          "type": "uint8",
          "internalType": "uint8"
        }
      ],
      "stateMutability": "view"
    },
    {
      "type": "function",
      "name": "eip712Domain",
      "inputs": [],
      "outputs": [
        {
          "name": "fields",
          "type": "bytes1",
          "internalType": "bytes1"
        },
        {
          "name": "name",
          "type": "string",
          "internalType": "string"
        },
        {
          "name": "version",
          "type": "string",
          "internalType": "string"
        },
        {
          "name": "chainId",
          "type": "uint256",
          "internalType": "uint256"
        },
        {
          "name": "verifyingContract",
          "type": "address",
          "internalType": "address"
        },
        {
          "name": "salt",
          "type": "bytes32",
          "internalType": "bytes32"
        },
        {
          "name": "extensions",
          "type": "uint256[]",
          "internalType": "uint256[]"
        }
      ],
      "stateMutability": "view"
    },
    {
      "type": "function",
      "name": "getRoleAdmin",
      "inputs": [
        {
          "name": "role",
          "type": "bytes32",
          "internalType": "bytes32"
        }
      ],
      "outputs": [
        {
          "name": "",
          "type": "bytes32",
          "internalType": "bytes32"
        }
      ],
      "stateMutability": "view"
    },
    {
      "type": "function",
      "name": "getRoleMember",
      "inputs": [
        {
          "name": "role",
          "type": "bytes32",
          "internalType": "bytes32"
        },
        {
          "name": "index",
          "type": "uint256",
          "internalType": "uint256"
        }
      ],
      "outputs": [
        {
          "name": "",
          "type": "address",
          "internalType": "address"
        }
      ],
      "stateMutability": "view"
    },
    {
      "type": "function",
      "name": "getRoleMemberCount",
      "inputs": [
        {
          "name": "role",
          "type": "bytes32",
          "internalType": "bytes32"
        }
      ],
      "outputs": [
        {
          "name": "",
          "type": "uint256",
          "internalType": "uint256"
        }
      ],
      "stateMutability": "view"
    },
    {
      "type": "function",
      "name": "getRoleMembers",
      "inputs": [
        {
          "name": "role",
          "type": "bytes32",
          "internalType": "bytes32"
        }
      ],
      "outputs": [
        {
          "name": "",
          "type": "address[]",
          "internalType": "address[]"
        }
      ],
      "stateMutability": "view"
    },
    {
      "type": "function",
      "name": "grantRole",
      "inputs": [
        {
          "name": "role",
          "type": "bytes32",
          "internalType": "bytes32"
        },
        {
          "name": "account",
          "type": "address",
          "internalType": "address"
        }
      ],
      "outputs": [],
      "stateMutability": "nonpayable"
    },
    {
      "type": "function",
      "name": "hasRole",
      "inputs": [
        {
          "name": "role",
          "type": "bytes32",
          "internalType": "bytes32"
        },
        {
          "name": "account",
          "type": "address",
          "internalType": "address"
        }
      ],
      "outputs": [
        {
          "name": "",
          "type": "bool",
          "internalType": "bool"
        }
      ],
      "stateMutability": "view"
    },
    {
      "type": "function",
      "name": "mint",
      "inputs": [
        {
          "name": "to",
          "type": "address",
          "internalType": "address"
        },
        {
          "name": "amount",
          "type": "uint256",
          "internalType": "uint256"
        }
      ],
      "outputs": [],
      "stateMutability": "nonpayable"
    },
    {
      "type": "function",
      "name": "name",
      "inputs": [],
      "outputs": [
        {
          "name": "",
          "type": "string",
          "internalType": "string"
        }
      ],
      "stateMutability": "view"
    },
    {
      "type": "function",
      "name": "nonces",
      "inputs": [
        {
          "name": "owner",
          "type": "address",
          "internalType": "address"
        }
      ],
      "outputs": [
        {
          "name": "",
          "type": "uint256",
          "internalType": "uint256"
        }
      ],
      "stateMutability": "view"
    },
    {
      "type": "function",
      "name": "permit",
      "inputs": [
        {
          "name": "owner",
          "type": "address",
          "internalType": "address"
        },
        {
          "name": "spender",
          "type": "address",
          "internalType": "address"
        },
        {
          "name": "value",
          "type": "uint256",
          "internalType": "uint256"
        },
        {
          "name": "deadline",
          "type": "uint256",
          "internalType": "uint256"
        },
        {
          "name": "v",
          "type": "uint8",
          "internalType": "uint8"
        },
        {
          "name": "r",
          "type": "bytes32",
          "internalType": "bytes32"
        },
        {
          "name": "s",
          "type": "bytes32",
          "internalType": "bytes32"
        }
      ],
      "outputs": [],
      "stateMutability": "nonpayable"
    },
    {
      "type": "function",
      "name": "renounceRole",
      "inputs": [
        {
          "name": "role",
          "type": "bytes32",
          "internalType": "bytes32"
        },
        {
          "name": "callerConfirmation",
          "type": "address",
          "internalType": "address"
        }
      ],
      "outputs": [],
      "stateMutability": "nonpayable"
    },
    {
      "type": "function",
      "name": "revokeRole",
      "inputs": [
        {
          "name": "role",
          "type": "bytes32",
          "internalType": "bytes32"
        },
        {
          "name": "account",
          "type": "address",
          "internalType": "address"
        }
      ],
      "outputs": [],
      "stateMutability": "nonpayable"
    },
    {
      "type": "function",
      "name": "supportsInterface",
      "inputs": [
        {
          "name": "interfaceId",
          "type": "bytes4",
          "internalType": "bytes4"
        }
      ],
      "outputs": [
        {
          "name": "",
          "type": "bool",
          "internalType": "bool"
        }
      ],
      "stateMutability": "view"
    },
    {
      "type": "function",
      "name": "symbol",
      "inputs": [],
      "outputs": [
        {
          "name": "",
          "type": "string",
          "internalType": "string"
        }
      ],
      "stateMutability": "view"
    },
    {
      "type": "function",
      "name": "totalSupply",
      "inputs": [],
      "outputs": [
        {
          "name": "",
          "type": "uint256",
          "internalType": "uint256"
        }
      ],
      "stateMutability": "view"
    },
    {
      "type": "function",
      "name": "transfer",
      "inputs": [
        {
          "name": "to",
          "type": "address",
          "internalType": "address"
        },
        {
          "name": "value",
          "type": "uint256",
          "internalType": "uint256"
        }
      ],
      "outputs": [
        {
          "name": "",
          "type": "bool",
          "internalType": "bool"
        }
      ],
      "stateMutability": "nonpayable"
    },
    {
      "type": "function",
      "name": "transferFrom",
      "inputs": [
        {
          "name": "from",
          "type": "address",
          "internalType": "address"
        },
        {
          "name": "to",
          "type": "address",
          "internalType": "address"
        },
        {
          "name": "value",
          "type": "uint256",
          "internalType": "uint256"
        }
      ],
      "outputs": [
        {
          "name": "",
          "type": "bool",
          "internalType": "bool"
        }
      ],
      "stateMutability": "nonpayable"
    },
    {
      "type": "event",
      "name": "Approval",
      "inputs": [
        {
          "name": "owner",
          "type": "address",
          "indexed": true,
          "internalType": "address"
        },
        {
          "name": "spender",
          "type": "address",
          "indexed": true,
          "internalType": "address"
        },
        {
          "name": "value",
          "type": "uint256",
          "indexed": false,
          "internalType": "uint256"
        }
      ],
      "anonymous": false
    },
    {
      "type": "event",
      "name": "BurnedFrom",
      "inputs": [
        {
          "name": "burner",
          "type": "address",
          "indexed": true,
          "internalType": "address"
        },
        {
          "name": "from",
          "type": "address",
          "indexed": true,
          "internalType": "address"
        },
        {
          "name": "amount",
          "type": "uint256",
          "indexed": false,
          "internalType": "uint256"
        }
      ],
      "anonymous": false
    },
    {
      "type": "event",
      "name": "EIP712DomainChanged",
      "inputs": [],
      "anonymous": false
    },
    {
      "type": "event",
      "name": "Minted",
      "inputs": [
        {
          "name": "minter",
          "type": "address",
          "indexed": true,
          "internalType": "address"
        },
        {
          "name": "to",
          "type": "address",
          "indexed": true,
          "internalType": "address"
        },
        {
          "name": "amount",
          "type": "uint256",
          "indexed": false,
          "internalType": "uint256"
        }
      ],
      "anonymous": false
    },
    {
      "type": "event",
      "name": "RoleAdminChanged",
      "inputs": [
        {
          "name": "role",
          "type": "bytes32",
          "indexed": true,
          "internalType": "bytes32"
        },
        {
          "name": "previousAdminRole",
          "type": "bytes32",
          "indexed": true,
          "internalType": "bytes32"
        },
        {
          "name": "newAdminRole",
          "type": "bytes32",
          "indexed": true,
          "internalType": "bytes32"
        }
      ],
      "anonymous": false
    },
    {
      "type": "event",
      "name": "RoleGranted",
      "inputs": [
        {
          "name": "role",
          "type": "bytes32",
          "indexed": true,
          "internalType": "bytes32"
        },
        {
          "name": "account",
          "type": "address",
          "indexed": true,
          "internalType": "address"
        },
        {
          "name": "sender",
          "type": "address",
          "indexed": true,
          "internalType": "address"
        }
      ],
      "anonymous": false
    },
    {
      "type": "event",
      "name": "RoleRevoked",
      "inputs": [
        {
          "name": "role",
          "type": "bytes32",
          "indexed": true,
          "internalType": "bytes32"
        },
        {
          "name": "account",
          "type": "address",
          "indexed": true,
          "internalType": "address"
        },
        {
          "name": "sender",
          "type": "address",
          "indexed": true,
          "internalType": "address"
        }
      ],
      "anonymous": false
    },
    {
      "type": "event",
      "name": "Transfer",
      "inputs": [
        {
          "name": "from",
          "type": "address",
          "indexed": true,
          "internalType": "address"
        },
        {
          "name": "to",
          "type": "address",
          "indexed": true,
          "internalType": "address"
        },
        {
          "name": "value",
          "type": "uint256",
          "indexed": false,
          "internalType": "uint256"
        }
      ],
      "anonymous": false
    },
    {
      "type": "error",
      "name": "AccessControlBadConfirmation",
      "inputs": []
    },
    {
      "type": "error",
      "name": "AccessControlUnauthorizedAccount",
      "inputs": [
        {
          "name": "account",
          "type": "address",
          "internalType": "address"
        },
        {
          "name": "neededRole",
          "type": "bytes32",
          "internalType": "bytes32"
        }
      ]
    },
    {
      "type": "error",
      "name": "AmountCannotBeZero",
      "inputs": []
    },
    {
      "type": "error",
      "name": "ECDSAInvalidSignature",
      "inputs": []
    },
    {
      "type": "error",
      "name": "ECDSAInvalidSignatureLength",
      "inputs": [
        {
          "name": "length",
          "type": "uint256",
          "internalType": "uint256"
        }
      ]
    },
    {
      "type": "error",
      "name": "ECDSAInvalidSignatureS",
      "inputs": [
        {
          "name": "s",
          "type": "bytes32",
          "internalType": "bytes32"
        }
      ]
    },
    {
      "type": "error",
      "name": "ERC20InsufficientAllowance",
      "inputs": [
        {
          "name": "spender",
          "type": "address",
          "internalType": "address"
        },
        {
          "name": "allowance",
          "type": "uint256",
          "internalType": "uint256"
        },
        {
          "name": "needed",
          "type": "uint256",
          "internalType": "uint256"
        }
      ]
    },
    {
      "type": "error",
      "name": "ERC20InsufficientBalance",
      "inputs": [
        {
          "name": "sender",
          "type": "address",
          "internalType": "address"
        },
        {
          "name": "balance",
          "type": "uint256",
          "internalType": "uint256"
        },
        {
          "name": "needed",
          "type": "uint256",
          "internalType": "uint256"
        }
      ]
    },
    {
      "type": "error",
      "name": "ERC20InvalidApprover",
      "inputs": [
        {
          "name": "approver",
          "type": "address",
          "internalType": "address"
        }
      ]
    },
    {
      "type": "error",
      "name": "ERC20InvalidReceiver",
      "inputs": [
        {
          "name": "receiver",
          "type": "address",
          "internalType": "address"
        }
      ]
    },
    {
      "type": "error",
      "name": "ERC20InvalidSender",
      "inputs": [
        {
          "name": "sender",
          "type": "address",
          "internalType": "address"
        }
      ]
    },
    {
      "type": "error",
      "name": "ERC20InvalidSpender",
      "inputs": [
        {
          "name": "spender",
          "type": "address",
          "internalType": "address"
        }
      ]
    },
    {
      "type": "error",
      "name": "ERC2612ExpiredSignature",
      "inputs": [
        {
          "name": "deadline",
          "type": "uint256",
          "internalType": "uint256"
        }
      ]
    },
    {
      "type": "error",
      "name": "ERC2612InvalidSigner",
      "inputs": [
        {
          "name": "signer",
          "type": "address",
          "internalType": "address"
        },
        {
          "name": "owner",
          "type": "address",
          "internalType": "address"
        }
      ]
    },
    {
      "type": "error",
      "name": "InvalidAccountNonce",
      "inputs": [
        {
          "name": "account",
          "type": "address",
          "internalType": "address"
        },
        {
          "name": "currentNonce",
          "type": "uint256",
          "internalType": "uint256"
        }
      ]
    },
    {
      "type": "error",
      "name": "InvalidAmount",
      "inputs": [
        {
          "name": "amount",
          "type": "uint256",
          "internalType": "uint256"
        }
      ]
    },
    {
      "type": "error",
      "name": "InvalidShortString",
      "inputs": []
    },
    {
      "type": "error",
      "name": "StringTooLong",
      "inputs": [
        {
          "name": "str",
          "type": "string",
          "internalType": "string"
        }
      ]
    },
    {
      "type": "error",
      "name": "ZeroAddressNotAllowed",
      "inputs": []
    }
  ],
  "bytecode": {
    "object": "0x610160604052348015610010575f80fd5b506040518060400160405280600d81526020016c26b7b1b5902aa9a21021b7b4b760991b81525080604051806040016040528060018152602001603160f81b8152506040518060400160405280600d81526020016c26b7b1b5902aa9a21021b7b4b760991b815250604051806040016040528060048152602001635553444360e01b81525081600390816100a4919061040f565b5060046100b1828261040f565b506100c1915083905060056101cc565b610120526100d08160066101cc565b61014052815160208084019190912060e052815190820120610100524660a05261015c60e05161010051604080517f8b73c3c69bb8fe3d512ecc4cf759cc79239f7b179b0ffacaa9a75d522b39400f60208201529081019290925260608201524660808201523060a08201525f9060c00160405160208183030381529060405280519060200120905090565b60805250503060c052506101705f336101fe565b5061019b7f9f2df0fed2c77648de5860a4cc508cd0818c85b8b8a1ab4ceeef8d981c8956a6336101fe565b506101c67f3c11d16cbaffd01df69ce1c404f6340ee057498f5f00246190ea54220576a848336101fe565b50610521565b5f6020835110156101e7576101e083610232565b90506101f8565b816101f2848261040f565b5060ff90505b92915050565b5f8061020a8484610278565b9050801561022b575f8481526009602052604090206102299084610323565b505b9392505050565b5f80829050601f81511115610265578260405163305a27a960e01b815260040161025c91906104c9565b60405180910390fd5b8051610270826104fe565b179392505050565b5f8281526008602090815260408083206001600160a01b038516845290915281205460ff1661031c575f8381526008602090815260408083206001600160a01b03861684529091529020805460ff191660011790556102d43390565b6001600160a01b0316826001600160a01b0316847f2f8788117e7eff1d82e926ec794901d17c78024a50270940304540a733656f0d60405160405180910390a45060016101f8565b505f6101f8565b5f61022b836001600160a01b0384165f81815260018301602052604081205461031c57508154600181810184555f8481526020808220909301849055845484825282860190935260409020919091556101f8565b634e487b7160e01b5f52604160045260245ffd5b600181811c9082168061039f57607f821691505b6020821081036103bd57634e487b7160e01b5f52602260045260245ffd5b50919050565b601f82111561040a57805f5260205f20601f840160051c810160208510156103e85750805b601f840160051c820191505b81811015610407575f81556001016103f4565b50505b505050565b81516001600160401b0381111561042857610428610377565b61043c81610436845461038b565b846103c3565b6020601f82116001811461046e575f83156104575750848201515b5f19600385901b1c1916600184901b178455610407565b5f84815260208120601f198516915b8281101561049d578785015182556020948501946001909201910161047d565b50848210156104ba57868401515f19600387901b60f8161c191681555b50505050600190811b01905550565b602081525f82518060208401528060208501604085015e5f604082850101526040601f19601f83011684010191505092915050565b805160208083015191908110156103bd575f1960209190910360031b1b16919050565b60805160a05160c05160e051610100516101205161014051611d126105725f395f610e5d01525f610e3001525f610d1001525f610ce801525f610c4301525f610c6d01525f610c970152611d125ff3fe608060405234801561000f575f80fd5b50600436106101a5575f3560e01c806379cc6790116100e8578063a217fddf11610093578063ca15c8731161006e578063ca15c873146103b3578063d505accf146103c6578063d547741f146103d9578063dd62ed3e146103ec575f80fd5b8063a217fddf14610379578063a3246ad314610380578063a9059cbb146103a0575f80fd5b80639010d07c116100c35780639010d07c1461030e57806391d148541461033957806395d89b4114610371575f80fd5b806379cc6790146102cd5780637ecebe00146102e057806384b0196e146102f3575f80fd5b80632f2ff15d1161015357806336568abe1161012e57806336568abe1461026c57806340c10f191461027f57806342966c681461029257806370a08231146102a5575f80fd5b80632f2ff15d14610240578063313ce567146102555780633644e51514610264575f80fd5b806318160ddd1161018357806318160ddd146101f957806323b872dd1461020b578063248a9ca31461021e575f80fd5b806301ffc9a7146101a957806306fdde03146101d1578063095ea7b3146101e6575b5f80fd5b6101bc6101b736600461188b565b610424565b60405190151581526020015b60405180910390f35b6101d9610434565b6040516101c89190611916565b6101bc6101f4366004611943565b6104c4565b6002545b6040519081526020016101c8565b6101bc61021936600461196b565b6104db565b6101fd61022c3660046119a5565b5f9081526008602052604090206001015490565b61025361024e3660046119bc565b6104fe565b005b604051600681526020016101c8565b6101fd610528565b61025361027a3660046119bc565b610536565b61025361028d366004611943565b610587565b6102536102a03660046119a5565b61067a565b6101fd6102b33660046119e6565b6001600160a01b03165f9081526020819052604090205490565b6102536102db366004611943565b610687565b6101fd6102ee3660046119e6565b6107eb565b6102fb610808565b6040516101c897969594939291906119ff565b61032161031c366004611ab1565b610866565b6040516001600160a01b0390911681526020016101c8565b6101bc6103473660046119bc565b5f9182526008602090815260408084206001600160a01b0393909316845291905290205460ff1690565b6101d9610884565b6101fd5f81565b61039361038e3660046119a5565b610893565b6040516101c89190611ad1565b6101bc6103ae366004611943565b6108ac565b6101fd6103c13660046119a5565b6108b9565b6102536103d4366004611b1c565b6108cf565b6102536103e73660046119bc565b610a37565b6101fd6103fa366004611b89565b6001600160a01b039182165f90815260016020908152604080832093909416825291909152205490565b5f61042e82610a5b565b92915050565b60606003805461044390611bb1565b80601f016020809104026020016040519081016040528092919081815260200182805461046f90611bb1565b80156104ba5780601f10610491576101008083540402835291602001916104ba565b820191905f5260205f20905b81548152906001019060200180831161049d57829003601f168201915b5050505050905090565b5f336104d1818585610ab0565b5060019392505050565b5f336104e8858285610abd565b6104f3858585610b6b565b506001949350505050565b5f8281526008602052604090206001015461051881610bfa565b6105228383610c04565b50505050565b5f610531610c37565b905090565b6001600160a01b0381163314610578576040517f6697b23200000000000000000000000000000000000000000000000000000000815260040160405180910390fd5b6105828282610d60565b505050565b7f9f2df0fed2c77648de5860a4cc508cd0818c85b8b8a1ab4ceeef8d981c8956a66105b181610bfa565b6001600160a01b0383166105f1576040517f8579befe00000000000000000000000000000000000000000000000000000000815260040160405180910390fd5b815f0361062a576040517fd11b25af00000000000000000000000000000000000000000000000000000000815260040160405180910390fd5b6106348383610d8b565b6040518281526001600160a01b0384169033907f9d228d69b5fdb8d273a2336f8fb8612d039631024ea9bf09c424a9503aa078f0906020015b60405180910390a3505050565b6106843382610ddc565b50565b7f3c11d16cbaffd01df69ce1c404f6340ee057498f5f00246190ea54220576a8486106b181610bfa565b6001600160a01b0383166106f1576040517f8579befe00000000000000000000000000000000000000000000000000000000815260040160405180910390fd5b815f0361072a576040517fd11b25af00000000000000000000000000000000000000000000000000000000815260040160405180910390fd5b6001600160a01b0383165f9081526001602090815260408083203384529091529020548281101561078f576040517f3728b83d000000000000000000000000000000000000000000000000000000008152600481018290526024015b60405180910390fd5b61079a843385610abd565b6107a48484610ddc565b6040518381526001600160a01b0385169033907fef6c5694e6dbd2044aa5fb38febfdc81f65c8f98c9896c7add9f82d0fb4cee4f906020015b60405180910390a350505050565b6001600160a01b0381165f9081526007602052604081205461042e565b5f6060805f805f6060610819610e29565b610821610e56565b604080515f808252602082019092527f0f000000000000000000000000000000000000000000000000000000000000009b939a50919850469750309650945092509050565b5f82815260096020526040812061087d9083610e83565b9392505050565b60606004805461044390611bb1565b5f81815260096020526040902060609061042e90610e8e565b5f336104d1818585610b6b565b5f81815260096020526040812061042e90610e9a565b8342111561090c576040517f6279130200000000000000000000000000000000000000000000000000000000815260048101859052602401610786565b5f7f6e71edae12b1b97f4d1f60370fef10105fa2faae0126114a169c64845d6126c98888886109578c6001600160a01b03165f90815260076020526040902080546001810190915590565b6040805160208101969096526001600160a01b0394851690860152929091166060840152608083015260a082015260c0810186905260e0016040516020818303038152906040528051906020012090505f6109b182610ea3565b90505f6109c082878787610eea565b9050896001600160a01b0316816001600160a01b031614610a20576040517f4b800e460000000000000000000000000000000000000000000000000000000081526001600160a01b0380831660048301528b166024820152604401610786565b610a2b8a8a8a610ab0565b50505050505050505050565b5f82815260086020526040902060010154610a5181610bfa565b6105228383610d60565b5f7fffffffff0000000000000000000000000000000000000000000000000000000082167f5a05180f00000000000000000000000000000000000000000000000000000000148061042e575061042e82610f16565b6105828383836001610fac565b6001600160a01b038381165f908152600160209081526040808320938616835292905220547fffffffffffffffffffffffffffffffffffffffffffffffffffffffffffffffff8110156105225781811015610b5d576040517ffb8f41b20000000000000000000000000000000000000000000000000000000081526001600160a01b03841660048201526024810182905260448101839052606401610786565b61052284848484035f610fac565b6001600160a01b038316610bad576040517f96c6fd1e0000000000000000000000000000000000000000000000000000000081525f6004820152602401610786565b6001600160a01b038216610bef576040517fec442f050000000000000000000000000000000000000000000000000000000081525f6004820152602401610786565b6105828383836110a2565b61068481336111d4565b5f80610c108484611241565b9050801561087d575f848152600960205260409020610c2f908461130a565b509392505050565b5f306001600160a01b037f000000000000000000000000000000000000000000000000000000000000000016148015610c8f57507f000000000000000000000000000000000000000000000000000000000000000046145b15610cb957507f000000000000000000000000000000000000000000000000000000000000000090565b610531604080517f8b73c3c69bb8fe3d512ecc4cf759cc79239f7b179b0ffacaa9a75d522b39400f60208201527f0000000000000000000000000000000000000000000000000000000000000000918101919091527f000000000000000000000000000000000000000000000000000000000000000060608201524660808201523060a08201525f9060c00160405160208183030381529060405280519060200120905090565b5f80610d6c848461131e565b9050801561087d575f848152600960205260409020610c2f90846113c1565b6001600160a01b038216610dcd576040517fec442f050000000000000000000000000000000000000000000000000000000081525f6004820152602401610786565b610dd85f83836110a2565b5050565b6001600160a01b038216610e1e576040517f96c6fd1e0000000000000000000000000000000000000000000000000000000081525f6004820152602401610786565b610dd8825f836110a2565b60606105317f000000000000000000000000000000000000000000000000000000000000000060056113d5565b60606105317f000000000000000000000000000000000000000000000000000000000000000060066113d5565b5f61087d838361147e565b60605f61087d836114a4565b5f61042e825490565b5f61042e610eaf610c37565b836040517f19010000000000000000000000000000000000000000000000000000000000008152600281019290925260228201526042902090565b5f805f80610efa888888886114fd565b925092509250610f0a82826115e3565b50909695505050505050565b5f7fffffffff0000000000000000000000000000000000000000000000000000000082167f7965db0b00000000000000000000000000000000000000000000000000000000148061042e57507f01ffc9a7000000000000000000000000000000000000000000000000000000007fffffffff0000000000000000000000000000000000000000000000000000000083161461042e565b6001600160a01b038416610fee576040517fe602df050000000000000000000000000000000000000000000000000000000081525f6004820152602401610786565b6001600160a01b038316611030576040517f94280d620000000000000000000000000000000000000000000000000000000081525f6004820152602401610786565b6001600160a01b038085165f908152600160209081526040808320938716835292905220829055801561052257826001600160a01b0316846001600160a01b03167f8c5be1e5ebec7d5bd14f71427d1e84f3dd0314c0f7b2291e5b200ac8c7c3b925846040516107dd91815260200190565b6001600160a01b0383166110cc578060025f8282546110c19190611c2f565b909155506111559050565b6001600160a01b0383165f9081526020819052604090205481811015611137576040517fe450d38c0000000000000000000000000000000000000000000000000000000081526001600160a01b03851660048201526024810182905260448101839052606401610786565b6001600160a01b0384165f9081526020819052604090209082900390555b6001600160a01b0382166111715760028054829003905561118f565b6001600160a01b0382165f9081526020819052604090208054820190555b816001600160a01b0316836001600160a01b03167fddf252ad1be2c89b69c2b068fc378daa952ba7f163c4a11628f55a4df523b3ef8360405161066d91815260200190565b5f8281526008602090815260408083206001600160a01b038516845290915290205460ff16610dd8576040517fe2517d3f0000000000000000000000000000000000000000000000000000000081526001600160a01b038216600482015260248101839052604401610786565b5f8281526008602090815260408083206001600160a01b038516845290915281205460ff16611303575f8381526008602090815260408083206001600160a01b0386168452909152902080547fffffffffffffffffffffffffffffffffffffffffffffffffffffffffffffff001660011790556112bb3390565b6001600160a01b0316826001600160a01b0316847f2f8788117e7eff1d82e926ec794901d17c78024a50270940304540a733656f0d60405160405180910390a450600161042e565b505f61042e565b5f61087d836001600160a01b0384166116e6565b5f8281526008602090815260408083206001600160a01b038516845290915281205460ff1615611303575f8381526008602090815260408083206001600160a01b038616808552925280832080547fffffffffffffffffffffffffffffffffffffffffffffffffffffffffffffff0016905551339286917ff6391f5c32d9c69d2a47ea670b442974b53935d1edc7fd64eb21e047a839171b9190a450600161042e565b5f61087d836001600160a01b03841661172b565b606060ff83146113ef576113e88361180e565b905061042e565b8180546113fb90611bb1565b80601f016020809104026020016040519081016040528092919081815260200182805461142790611bb1565b80156114725780601f1061144957610100808354040283529160200191611472565b820191905f5260205f20905b81548152906001019060200180831161145557829003601f168201915b5050505050905061042e565b5f825f01828154811061149357611493611c42565b905f5260205f200154905092915050565b6060815f018054806020026020016040519081016040528092919081815260200182805480156114f157602002820191905f5260205f20905b8154815260200190600101908083116114dd575b50505050509050919050565b5f80807f7fffffffffffffffffffffffffffffff5d576e7357a4501ddfe92f46681b20a084111561153657505f915060039050826115d9565b604080515f808252602082018084528a905260ff891692820192909252606081018790526080810186905260019060a0016020604051602081039080840390855afa158015611587573d5f803e3d5ffd5b50506040517fffffffffffffffffffffffffffffffffffffffffffffffffffffffffffffffe001519150506001600160a01b0381166115d057505f9250600191508290506115d9565b92505f91508190505b9450945094915050565b5f8260038111156115f6576115f6611c6f565b036115ff575050565b600182600381111561161357611613611c6f565b0361164a576040517ff645eedf00000000000000000000000000000000000000000000000000000000815260040160405180910390fd5b600282600381111561165e5761165e611c6f565b03611698576040517ffce698f700000000000000000000000000000000000000000000000000000000815260048101829052602401610786565b60038260038111156116ac576116ac611c6f565b03610dd8576040517fd78bce0c00000000000000000000000000000000000000000000000000000000815260048101829052602401610786565b5f81815260018301602052604081205461130357508154600181810184555f84815260208082209093018490558454848252828601909352604090209190915561042e565b5f8181526001830160205260408120548015611805575f61174d600183611c9c565b85549091505f9061176090600190611c9c565b90508082146117bf575f865f01828154811061177e5761177e611c42565b905f5260205f200154905080875f01848154811061179e5761179e611c42565b5f918252602080832090910192909255918252600188019052604090208390555b85548690806117d0576117d0611caf565b600190038181905f5260205f20015f90559055856001015f8681526020019081526020015f205f90556001935050505061042e565b5f91505061042e565b60605f61181a8361184b565b6040805160208082528183019092529192505f91906020820181803683375050509182525060208101929092525090565b5f60ff8216601f81111561042e576040517fb3512b0c00000000000000000000000000000000000000000000000000000000815260040160405180910390fd5b5f6020828403121561189b575f80fd5b81357fffffffff000000000000000000000000000000000000000000000000000000008116811461087d575f80fd5b5f81518084528060208401602086015e5f6020828601015260207fffffffffffffffffffffffffffffffffffffffffffffffffffffffffffffffe0601f83011685010191505092915050565b602081525f61087d60208301846118ca565b80356001600160a01b038116811461193e575f80fd5b919050565b5f8060408385031215611954575f80fd5b61195d83611928565b946020939093013593505050565b5f805f6060848603121561197d575f80fd5b61198684611928565b925061199460208501611928565b929592945050506040919091013590565b5f602082840312156119b5575f80fd5b5035919050565b5f80604083850312156119cd575f80fd5b823591506119dd60208401611928565b90509250929050565b5f602082840312156119f6575f80fd5b61087d82611928565b7fff000000000000000000000000000000000000000000000000000000000000008816815260e060208201525f611a3960e08301896118ca565b8281036040840152611a4b81896118ca565b606084018890526001600160a01b038716608085015260a0840186905283810360c0850152845180825260208087019350909101905f5b81811015611aa0578351835260209384019390920191600101611a82565b50909b9a5050505050505050505050565b5f8060408385031215611ac2575f80fd5b50508035926020909101359150565b602080825282518282018190525f918401906040840190835b81811015611b115783516001600160a01b0316835260209384019390920191600101611aea565b509095945050505050565b5f805f805f805f60e0888a031215611b32575f80fd5b611b3b88611928565b9650611b4960208901611928565b95506040880135945060608801359350608088013560ff81168114611b6c575f80fd5b9699959850939692959460a0840135945060c09093013592915050565b5f8060408385031215611b9a575f80fd5b611ba383611928565b91506119dd60208401611928565b600181811c90821680611bc557607f821691505b602082108103611bfc577f4e487b71000000000000000000000000000000000000000000000000000000005f52602260045260245ffd5b50919050565b7f4e487b71000000000000000000000000000000000000000000000000000000005f52601160045260245ffd5b8082018082111561042e5761042e611c02565b7f4e487b71000000000000000000000000000000000000000000000000000000005f52603260045260245ffd5b7f4e487b71000000000000000000000000000000000000000000000000000000005f52602160045260245ffd5b8181038181111561042e5761042e611c02565b7f4e487b71000000000000000000000000000000000000000000000000000000005f52603160045260245ffdfea26469706673582212202dcba6b0f439e44e6c80916810b7583b867f17b876b9daf2df32a95295d5571e64736f6c634300081a0033",
    "linkReferences": {}
  },
  "methodIdentifiers": {
    "DEFAULT_ADMIN_ROLE()": "a217fddf",
    "DOMAIN_SEPARATOR()": "3644e515",
    "allowance(address,address)": "dd62ed3e",
    "approve(address,uint256)": "095ea7b3",
    "balanceOf(address)": "70a08231",
    "burn(uint256)": "42966c68",
    "burnFrom(address,uint256)": "79cc6790",
    "decimals()": "313ce567",
    "eip712Domain()": "84b0196e",
    "getRoleAdmin(bytes32)": "248a9ca3",
    "getRoleMember(bytes32,uint256)": "9010d07c",
    "getRoleMemberCount(bytes32)": "ca15c873",
    "getRoleMembers(bytes32)": "a3246ad3",
    "grantRole(bytes32,address)": "2f2ff15d",
    "hasRole(bytes32,address)": "91d14854",
    "mint(address,uint256)": "40c10f19",
    "name()": "06fdde03",
    "nonces(address)": "7ecebe00",
    "permit(address,address,uint256,uint256,uint8,bytes32,bytes32)": "d505accf",
    "renounceRole(bytes32,address)": "36568abe",
    "revokeRole(bytes32,address)": "d547741f",
    "supportsInterface(bytes4)": "01ffc9a7",
    "symbol()": "95d89b41",
    "totalSupply()": "18160ddd",
    "transfer(address,uint256)": "a9059cbb",
    "transferFrom(address,address,uint256)": "23b872dd"
  },
  "id": 109
}