{
  "abi": [
    {
      "type": "constructor",
      "inputs": [
        {
          "name": "_admin",
          "type": "address",
          "internalType": "address"
        }
      ],
      "stateMutability": "nonpayable"
    },
    {
      "type": "function",
      "name": "DEFAULT_ADMIN_ROLE",
      "inputs": [],
      "outputs": [
        {
          "name": "",
          "type": "bytes32",
          "internalType": "bytes32"
        }
      ],
      "stateMutability": "view"
    },
    {
      "type": "function",
      "name": "addPausableContract",
      "inputs": [
        {
          "name": "target",
          "type": "address",
          "internalType": "address"
        }
      ],
      "outputs": [],
      "stateMutability": "nonpayable"
    },
    {
      "type": "function",
      "name": "checkPauseInterfaceSupport",
      "inputs": [
        {
          "name": "target",
          "type": "address",
          "internalType": "address"
        }
      ],
      "outputs": [
        {
          "name": "",
          "type": "bool",
          "internalType": "bool"
        }
      ],
      "stateMutability": "view"
    },
    {
      "type": "function",
      "name": "getRoleAdmin",
      "inputs": [
        {
          "name": "role",
          "type": "bytes32",
          "internalType": "bytes32"
        }
      ],
      "outputs": [
        {
          "name": "",
          "type": "bytes32",
          "internalType": "bytes32"
        }
      ],
      "stateMutability": "view"
    },
    {
      "type": "function",
      "name": "getRoleMember",
      "inputs": [
        {
          "name": "role",
          "type": "bytes32",
          "internalType": "bytes32"
        },
        {
          "name": "index",
          "type": "uint256",
          "internalType": "uint256"
        }
      ],
      "outputs": [
        {
          "name": "",
          "type": "address",
          "internalType": "address"
        }
      ],
      "stateMutability": "view"
    },
    {
      "type": "function",
      "name": "getRoleMemberCount",
      "inputs": [
        {
          "name": "role",
          "type": "bytes32",
          "internalType": "bytes32"
        }
      ],
      "outputs": [
        {
          "name": "",
          "type": "uint256",
          "internalType": "uint256"
        }
      ],
      "stateMutability": "view"
    },
    {
      "type": "function",
      "name": "getRoleMembers",
      "inputs": [
        {
          "name": "role",
          "type": "bytes32",
          "internalType": "bytes32"
        }
      ],
      "outputs": [
        {
          "name": "",
          "type": "address[]",
          "internalType": "address[]"
        }
      ],
      "stateMutability": "view"
    },
    {
      "type": "function",
      "name": "grantRole",
      "inputs": [
        {
          "name": "role",
          "type": "bytes32",
          "internalType": "bytes32"
        },
        {
          "name": "account",
          "type": "address",
          "internalType": "address"
        }
      ],
      "outputs": [],
      "stateMutability": "nonpayable"
    },
    {
      "type": "function",
      "name": "hasRole",
      "inputs": [
        {
          "name": "role",
          "type": "bytes32",
          "internalType": "bytes32"
        },
        {
          "name": "account",
          "type": "address",
          "internalType": "address"
        }
      ],
      "outputs": [
        {
          "name": "",
          "type": "bool",
          "internalType": "bool"
        }
      ],
      "stateMutability": "view"
    },
    {
      "type": "function",
      "name": "isPausableContract",
      "inputs": [
        {
          "name": "target",
          "type": "address",
          "internalType": "address"
        }
      ],
      "outputs": [
        {
          "name": "",
          "type": "bool",
          "internalType": "bool"
        }
      ],
      "stateMutability": "view"
    },
    {
      "type": "function",
      "name": "pausableContracts",
      "inputs": [
        {
          "name": "",
          "type": "address",
          "internalType": "address"
        }
      ],
      "outputs": [
        {
          "name": "",
          "type": "bool",
          "internalType": "bool"
        }
      ],
      "stateMutability": "view"
    },
    {
      "type": "function",
      "name": "pause",
      "inputs": [
        {
          "name": "target",
          "type": "address",
          "internalType": "address"
        }
      ],
      "outputs": [],
      "stateMutability": "nonpayable"
    },
    {
      "type": "function",
      "name": "removePausableContract",
      "inputs": [
        {
          "name": "target",
          "type": "address",
          "internalType": "address"
        }
      ],
      "outputs": [],
      "stateMutability": "nonpayable"
    },
    {
      "type": "function",
      "name": "renounceRole",
      "inputs": [
        {
          "name": "role",
          "type": "bytes32",
          "internalType": "bytes32"
        },
        {
          "name": "callerConfirmation",
          "type": "address",
          "internalType": "address"
        }
      ],
      "outputs": [],
      "stateMutability": "nonpayable"
    },
    {
      "type": "function",
      "name": "revokeRole",
      "inputs": [
        {
          "name": "role",
          "type": "bytes32",
          "internalType": "bytes32"
        },
        {
          "name": "account",
          "type": "address",
          "internalType": "address"
        }
      ],
      "outputs": [],
      "stateMutability": "nonpayable"
    },
    {
      "type": "function",
      "name": "supportsInterface",
      "inputs": [
        {
          "name": "interfaceId",
          "type": "bytes4",
          "internalType": "bytes4"
        }
      ],
      "outputs": [
        {
          "name": "",
          "type": "bool",
          "internalType": "bool"
        }
      ],
      "stateMutability": "view"
    },
    {
      "type": "function",
      "name": "unpause",
      "inputs": [
        {
          "name": "target",
          "type": "address",
          "internalType": "address"
        }
      ],
      "outputs": [],
      "stateMutability": "nonpayable"
    },
    {
      "type": "event",
      "name": "PausableContractAdded",
      "inputs": [
        {
          "name": "target",
          "type": "address",
          "indexed": true,
          "internalType": "address"
        },
        {
          "name": "admin",
          "type": "address",
          "indexed": true,
          "internalType": "address"
        }
      ],
      "anonymous": false
    },
    {
      "type": "event",
      "name": "PausableContractRemoved",
      "inputs": [
        {
          "name": "target",
          "type": "address",
          "indexed": true,
          "internalType": "address"
        },
        {
          "name": "admin",
          "type": "address",
          "indexed": true,
          "internalType": "address"
        }
      ],
      "anonymous": false
    },
    {
      "type": "event",
      "name": "PauseWarning",
      "inputs": [
        {
          "name": "target",
          "type": "address",
          "indexed": true,
          "internalType": "address"
        },
        {
          "name": "warning",
          "type": "string",
          "indexed": false,
          "internalType": "string"
        }
      ],
      "anonymous": false
    },
    {
      "type": "event",
      "name": "Paused",
      "inputs": [
        {
          "name": "target",
          "type": "address",
          "indexed": true,
          "internalType": "address"
        },
        {
          "name": "pauser",
          "type": "address",
          "indexed": true,
          "internalType": "address"
        }
      ],
      "anonymous": false
    },
    {
      "type": "event",
      "name": "RoleAdminChanged",
      "inputs": [
        {
          "name": "role",
          "type": "bytes32",
          "indexed": true,
          "internalType": "bytes32"
        },
        {
          "name": "previousAdminRole",
          "type": "bytes32",
          "indexed": true,
          "internalType": "bytes32"
        },
        {
          "name": "newAdminRole",
          "type": "bytes32",
          "indexed": true,
          "internalType": "bytes32"
        }
      ],
      "anonymous": false
    },
    {
      "type": "event",
      "name": "RoleGranted",
      "inputs": [
        {
          "name": "role",
          "type": "bytes32",
          "indexed": true,
          "internalType": "bytes32"
        },
        {
          "name": "account",
          "type": "address",
          "indexed": true,
          "internalType": "address"
        },
        {
          "name": "sender",
          "type": "address",
          "indexed": true,
          "internalType": "address"
        }
      ],
      "anonymous": false
    },
    {
      "type": "event",
      "name": "RoleRevoked",
      "inputs": [
        {
          "name": "role",
          "type": "bytes32",
          "indexed": true,
          "internalType": "bytes32"
        },
        {
          "name": "account",
          "type": "address",
          "indexed": true,
          "internalType": "address"
        },
        {
          "name": "sender",
          "type": "address",
          "indexed": true,
          "internalType": "address"
        }
      ],
      "anonymous": false
    },
    {
      "type": "event",
      "name": "Unpaused",
      "inputs": [
        {
          "name": "target",
          "type": "address",
          "indexed": true,
          "internalType": "address"
        },
        {
          "name": "unpauser",
          "type": "address",
          "indexed": true,
          "internalType": "address"
        }
      ],
      "anonymous": false
    },
    {
      "type": "error",
      "name": "AccessControlBadConfirmation",
      "inputs": []
    },
    {
      "type": "error",
      "name": "AccessControlUnauthorizedAccount",
      "inputs": [
        {
          "name": "account",
          "type": "address",
          "internalType": "address"
        },
        {
          "name": "neededRole",
          "type": "bytes32",
          "internalType": "bytes32"
        }
      ]
    },
    {
      "type": "error",
      "name": "InvalidState",
      "inputs": [
        {
          "name": "reason",
          "type": "string",
          "internalType": "string"
        }
      ]
    },
    {
      "type": "error",
      "name": "InvalidValue",
      "inputs": [
        {
          "name": "reason",
          "type": "string",
          "internalType": "string"
        }
      ]
    },
    {
      "type": "error",
      "name": "ZeroAddressNotAllowed",
      "inputs": []
    }
  ],
  "bytecode": {
    "object": "0x608060405234801561000f575f80fd5b50604051611d47380380611d4783398101604081905261002e916101c2565b6001600160a01b038116610055576040516342bcdf7f60e11b815260040160405180910390fd5b61005f5f82610091565b5061008a7f65d7a28e3265b37a6474929f336521b332c1681b933f6cb9f3376673440d862a82610091565b50506101e8565b5f8061009d84846100c7565b905080156100be575f8481526001602052604090206100bc908461016e565b505b90505b92915050565b5f828152602081815260408083206001600160a01b038516845290915281205460ff16610167575f838152602081815260408083206001600160a01b03861684529091529020805460ff1916600117905561011f3390565b6001600160a01b0316826001600160a01b0316847f2f8788117e7eff1d82e926ec794901d17c78024a50270940304540a733656f0d60405160405180910390a45060016100c1565b505f6100c1565b5f6100be836001600160a01b0384165f81815260018301602052604081205461016757508154600181810184555f8481526020808220909301849055845484825282860190935260409020919091556100c1565b5f602082840312156101d2575f80fd5b81516001600160a01b03811681146100be575f80fd5b611b52806101f55f395ff3fe608060405234801561000f575f80fd5b5060043610610115575f3560e01c80637a67772c116100ad578063a217fddf1161007d578063c725500e11610063578063c725500e146102d2578063ca15c873146102f4578063d547741f14610307575f80fd5b8063a217fddf146102ab578063a3246ad3146102b2575f80fd5b80637a67772c146101e55780639010d07c146101f857806390763c161461023057806391d1485414610268575f80fd5b80632f2ff15d116100e85780632f2ff15d1461019957806336568abe146101ac57806357b001f9146101bf57806376a67a51146101d2575f80fd5b806301ffc9a7146101195780630218c43314610141578063239882ad14610156578063248a9ca314610169575b5f80fd5b61012c610127366004611798565b61031a565b60405190151581526020015b60405180910390f35b61015461014f3660046117ff565b610375565b005b6101546101643660046117ff565b61056e565b61018b610177366004611818565b5f9081526020819052604090206001015490565b604051908152602001610138565b6101546101a736600461182f565b61067c565b6101546101ba36600461182f565b6106a6565b6101546101cd3660046117ff565b610704565b6101546101e03660046117ff565b610af8565b61012c6101f33660046117ff565b610e86565b61020b610206366004611859565b610e90565b60405173ffffffffffffffffffffffffffffffffffffffff9091168152602001610138565b61012c61023e3660046117ff565b73ffffffffffffffffffffffffffffffffffffffff165f9081526002602052604090205460ff1690565b61012c61027636600461182f565b5f9182526020828152604080842073ffffffffffffffffffffffffffffffffffffffff93909316845291905290205460ff1690565b61018b5f81565b6102c56102c0366004611818565b610eae565b6040516101389190611879565b61012c6102e03660046117ff565b60026020525f908152604090205460ff1681565b61018b610302366004611818565b610ec7565b61015461031536600461182f565b610edd565b5f7f90e00120000000000000000000000000000000000000000000000000000000007fffffffff000000000000000000000000000000000000000000000000000000008316148061036f575061036f82610f01565b92915050565b5f61037f81610f56565b73ffffffffffffffffffffffffffffffffffffffff82166103cc576040517f8579befe00000000000000000000000000000000000000000000000000000000815260040160405180910390fd5b73ffffffffffffffffffffffffffffffffffffffff82165f9081526002602052604090205460ff1615610460576040517f432f5b4a00000000000000000000000000000000000000000000000000000000815260206004820152601660248201527f436f6e747261637420616c72656164792061646465640000000000000000000060448201526064015b60405180910390fd5b61046982610f63565b6104f5576040517f432f5b4a00000000000000000000000000000000000000000000000000000000815260206004820152603860248201527f54617267657420636f6e747261637420646f6573206e6f7420737570706f727460448201527f2070617573652f756e706175736520696e7465726661636500000000000000006064820152608401610457565b73ffffffffffffffffffffffffffffffffffffffff82165f8181526002602052604080822080547fffffffffffffffffffffffffffffffffffffffffffffffffffffffffffffff00166001179055513392917f6aceeb9556238b9bb18f0ed0c0abad6f1acb4f2743265e1ccfb8a590694aced291a35050565b5f61057881610f56565b73ffffffffffffffffffffffffffffffffffffffff82165f9081526002602052604090205460ff16610606576040517f432f5b4a00000000000000000000000000000000000000000000000000000000815260206004820152601260248201527f436f6e7472616374206e6f7420666f756e6400000000000000000000000000006044820152606401610457565b73ffffffffffffffffffffffffffffffffffffffff82165f8181526002602052604080822080547fffffffffffffffffffffffffffffffffffffffffffffffffffffffffffffff00169055513392917f71662076bcf52583b8b13651a6f74cb8b33c86be15715dda5ed9585e79b8e98991a35050565b5f8281526020819052604090206001015461069681610f56565b6106a083836111ac565b50505050565b73ffffffffffffffffffffffffffffffffffffffff811633146106f5576040517f6697b23200000000000000000000000000000000000000000000000000000000815260040160405180910390fd5b6106ff82826111df565b505050565b7f65d7a28e3265b37a6474929f336521b332c1681b933f6cb9f3376673440d862a61072e81610f56565b6107378261120a565b6040517f65d7a28e3265b37a6474929f336521b332c1681b933f6cb9f3376673440d862a60248201523060448201525f90819073ffffffffffffffffffffffffffffffffffffffff85169060640160408051601f198184030181529181526020820180517bffffffffffffffffffffffffffffffffffffffffffffffffffffffff167f91d1485400000000000000000000000000000000000000000000000000000000179052516107e891906118e8565b5f60405180830381855afa9150503d805f8114610820576040519150601f19603f3d011682016040523d82523d5f602084013e610825565b606091505b509150915081801561084857508080602001905181019061084691906118f3565b155b156108f2578373ffffffffffffffffffffffffffffffffffffffff167febc773f57a0b5b7c7efb4da5cde5ebbd2a847ac6aefbd2f8042078bd4b93a5416040516108e9906020808252603a908201527f546172676574206d69676874206e6f742068617665206772616e74656420504160408201527f555345525f524f4c4520746f207468697320676f7665726e6f72000000000000606082015260800190565b60405180910390a25b60408051600481526024810182526020810180517bffffffffffffffffffffffffffffffffffffffffffffffffffffffff167f3f4ba83a0000000000000000000000000000000000000000000000000000000017905290515f91829173ffffffffffffffffffffffffffffffffffffffff88169161096f916118e8565b5f604051808303815f865af19150503d805f81146109a8576040519150601f19603f3d011682016040523d82523d5f602084013e6109ad565b606091505b509150915081610aae57805115610a26575f818060200190518101906109d3919061193f565b9050806040516020016109e691906119f3565b60408051601f19818403018152908290527f08c379a000000000000000000000000000000000000000000000000000000000825261045791600401611a24565b6040517f8c3685b800000000000000000000000000000000000000000000000000000000815260206004820152602160248201527f54617267657420756e7061757365206661696c656420286c6f77206c6576656c60448201527f29000000000000000000000000000000000000000000000000000000000000006064820152608401610457565b604051339073ffffffffffffffffffffffffffffffffffffffff8816907f3d072963433794eb417a69355df67d08bbd73d5076ef653d6863861161d60af3905f90a3505050505050565b7f65d7a28e3265b37a6474929f336521b332c1681b933f6cb9f3376673440d862a610b2281610f56565b610b2b8261120a565b6040517f65d7a28e3265b37a6474929f336521b332c1681b933f6cb9f3376673440d862a60248201523060448201525f90819073ffffffffffffffffffffffffffffffffffffffff85169060640160408051601f198184030181529181526020820180517bffffffffffffffffffffffffffffffffffffffffffffffffffffffff167f91d148540000000000000000000000000000000000000000000000000000000017905251610bdc91906118e8565b5f60405180830381855afa9150503d805f8114610c14576040519150601f19603f3d011682016040523d82523d5f602084013e610c19565b606091505b5091509150818015610c3c575080806020019051810190610c3a91906118f3565b155b15610ce6578373ffffffffffffffffffffffffffffffffffffffff167febc773f57a0b5b7c7efb4da5cde5ebbd2a847ac6aefbd2f8042078bd4b93a541604051610cdd906020808252603a908201527f546172676574206d69676874206e6f742068617665206772616e74656420504160408201527f555345525f524f4c4520746f207468697320676f7665726e6f72000000000000606082015260800190565b60405180910390a25b60408051600481526024810182526020810180517bffffffffffffffffffffffffffffffffffffffffffffffffffffffff167f8456cb590000000000000000000000000000000000000000000000000000000017905290515f91829173ffffffffffffffffffffffffffffffffffffffff881691610d63916118e8565b5f604051808303815f865af19150503d805f8114610d9c576040519150601f19603f3d011682016040523d82523d5f602084013e610da1565b606091505b509150915081610e3c57805115610dda575f81806020019051810190610dc7919061193f565b9050806040516020016109e69190611a59565b6040517f8c3685b800000000000000000000000000000000000000000000000000000000815260206004820152601f60248201527f546172676574207061757365206661696c656420286c6f77206c6576656c29006044820152606401610457565b604051339073ffffffffffffffffffffffffffffffffffffffff8816907f3dd4f37ca5eaf6c357698a52c806820426d7c9a26adb0991c3bebb09cf23352a905f90a3505050505050565b5f61036f82610f63565b5f828152600160205260408120610ea790836112be565b9392505050565b5f81815260016020526040902060609061036f906112c9565b5f81815260016020526040812061036f906112d5565b5f82815260208190526040902060010154610ef781610f56565b6106a083836111df565b5f7fffffffff0000000000000000000000000000000000000000000000000000000082167f5a05180f00000000000000000000000000000000000000000000000000000000148061036f575061036f826112de565b610f608133611374565b50565b6040517f01ffc9a70000000000000000000000000000000000000000000000000000000081527fbb1d63630000000000000000000000000000000000000000000000000000000060048201525f9073ffffffffffffffffffffffffffffffffffffffff8316906301ffc9a790602401602060405180830381865afa92505050801561100b575060408051601f3d908101601f19168201909252611008918101906118f3565b60015b1561102157801561101f5750600192915050565b505b60408051600481526024810182526020810180517bffffffffffffffffffffffffffffffffffffffffffffffffffffffff167f8456cb590000000000000000000000000000000000000000000000000000000017905290515f9173ffffffffffffffffffffffffffffffffffffffff85169161109d91906118e8565b5f60405180830381855afa9150503d805f81146110d5576040519150601f19603f3d011682016040523d82523d5f602084013e6110da565b606091505b505060408051600481526024810182526020810180517bffffffffffffffffffffffffffffffffffffffffffffffffffffffff167f3f4ba83a0000000000000000000000000000000000000000000000000000000017905290519192505f9173ffffffffffffffffffffffffffffffffffffffff86169161115a916118e8565b5f60405180830381855afa9150503d805f8114611192576040519150601f19603f3d011682016040523d82523d5f602084013e611197565b606091505b5050905081806111a45750805b949350505050565b5f806111b884846113fd565b90508015610ea7575f8481526001602052604090206111d790846114f6565b509392505050565b5f806111eb8484611517565b90508015610ea7575f8481526001602052604090206111d790846115d0565b73ffffffffffffffffffffffffffffffffffffffff81165f9081526002602052604090205460ff16610f60576040517f432f5b4a00000000000000000000000000000000000000000000000000000000815260206004820152602960248201527f54617267657420636f6e7472616374206e6f74207061757361626c652076696160448201527f20676f7665726e6f7200000000000000000000000000000000000000000000006064820152608401610457565b5f610ea783836115f1565b60605f610ea783611617565b5f61036f825490565b5f7fffffffff0000000000000000000000000000000000000000000000000000000082167f7965db0b00000000000000000000000000000000000000000000000000000000148061036f57507f01ffc9a7000000000000000000000000000000000000000000000000000000007fffffffff0000000000000000000000000000000000000000000000000000000083161461036f565b5f8281526020818152604080832073ffffffffffffffffffffffffffffffffffffffff8516845290915290205460ff166113f9576040517fe2517d3f00000000000000000000000000000000000000000000000000000000815273ffffffffffffffffffffffffffffffffffffffff8216600482015260248101839052604401610457565b5050565b5f8281526020818152604080832073ffffffffffffffffffffffffffffffffffffffff8516845290915281205460ff166114ef575f8381526020818152604080832073ffffffffffffffffffffffffffffffffffffffff86168452909152902080547fffffffffffffffffffffffffffffffffffffffffffffffffffffffffffffff0016600117905561148d3390565b73ffffffffffffffffffffffffffffffffffffffff168273ffffffffffffffffffffffffffffffffffffffff16847f2f8788117e7eff1d82e926ec794901d17c78024a50270940304540a733656f0d60405160405180910390a450600161036f565b505f61036f565b5f610ea78373ffffffffffffffffffffffffffffffffffffffff8416611670565b5f8281526020818152604080832073ffffffffffffffffffffffffffffffffffffffff8516845290915281205460ff16156114ef575f8381526020818152604080832073ffffffffffffffffffffffffffffffffffffffff8616808552925280832080547fffffffffffffffffffffffffffffffffffffffffffffffffffffffffffffff0016905551339286917ff6391f5c32d9c69d2a47ea670b442974b53935d1edc7fd64eb21e047a839171b9190a450600161036f565b5f610ea78373ffffffffffffffffffffffffffffffffffffffff84166116b5565b5f825f01828154811061160657611606611a8a565b905f5260205f200154905092915050565b6060815f0180548060200260200160405190810160405280929190818152602001828054801561166457602002820191905f5260205f20905b815481526020019060010190808311611650575b50505050509050919050565b5f8181526001830160205260408120546114ef57508154600181810184555f84815260208082209093018490558454848252828601909352604090209190915561036f565b5f818152600183016020526040812054801561178f575f6116d7600183611ab7565b85549091505f906116ea90600190611ab7565b9050808214611749575f865f01828154811061170857611708611a8a565b905f5260205f200154905080875f01848154811061172857611728611a8a565b5f918252602080832090910192909255918252600188019052604090208390555b855486908061175a5761175a611aef565b600190038181905f5260205f20015f90559055856001015f8681526020019081526020015f205f90556001935050505061036f565b5f91505061036f565b5f602082840312156117a8575f80fd5b81357fffffffff0000000000000000000000000000000000000000000000000000000081168114610ea7575f80fd5b803573ffffffffffffffffffffffffffffffffffffffff811681146117fa575f80fd5b919050565b5f6020828403121561180f575f80fd5b610ea7826117d7565b5f60208284031215611828575f80fd5b5035919050565b5f8060408385031215611840575f80fd5b82359150611850602084016117d7565b90509250929050565b5f806040838503121561186a575f80fd5b50508035926020909101359150565b602080825282518282018190525f918401906040840190835b818110156118c657835173ffffffffffffffffffffffffffffffffffffffff16835260209384019390920191600101611892565b509095945050505050565b5f81518060208401855e5f93019283525090919050565b5f610ea782846118d1565b5f60208284031215611903575f80fd5b81518015158114610ea7575f80fd5b7f4e487b71000000000000000000000000000000000000000000000000000000005f52604160045260245ffd5b5f6020828403121561194f575f80fd5b815167ffffffffffffffff811115611965575f80fd5b8201601f81018413611975575f80fd5b805167ffffffffffffffff81111561198f5761198f611912565b604051601f19603f601f19601f8501160116810181811067ffffffffffffffff821117156119bf576119bf611912565b6040528181528282016020018610156119d6575f80fd5b8160208401602083015e5f91810160200191909152949350505050565b7f54617267657420756e7061757365206661696c65643a2000000000000000000081525f610ea760178301846118d1565b602081525f82518060208401528060208501604085015e5f604082850101526040601f19601f83011684010191505092915050565b7f546172676574207061757365206661696c65643a20000000000000000000000081525f610ea760158301846118d1565b7f4e487b71000000000000000000000000000000000000000000000000000000005f52603260045260245ffd5b8181038181111561036f577f4e487b71000000000000000000000000000000000000000000000000000000005f52601160045260245ffd5b7f4e487b71000000000000000000000000000000000000000000000000000000005f52603160045260245ffdfea2646970667358221220951ea03403773d3302dc62b49d544f4362d459a26f27c3013d2062a2c03a58f364736f6c634300081a0033",
    "linkReferences": {}
  },
  "methodIdentifiers": {
    "DEFAULT_ADMIN_ROLE()": "a217fddf",
    "addPausableContract(address)": "0218c433",
    "checkPauseInterfaceSupport(address)": "7a67772c",
    "getRoleAdmin(bytes32)": "248a9ca3",
    "getRoleMember(bytes32,uint256)": "9010d07c",
    "getRoleMemberCount(bytes32)": "ca15c873",
    "getRoleMembers(bytes32)": "a3246ad3",
    "grantRole(bytes32,address)": "2f2ff15d",
    "hasRole(bytes32,address)": "91d14854",
    "isPausableContract(address)": "90763c16",
    "pausableContracts(address)": "c725500e",
    "pause(address)": "76a67a51",
    "removePausableContract(address)": "239882ad",
    "renounceRole(bytes32,address)": "36568abe",
    "revokeRole(bytes32,address)": "d547741f",
    "supportsInterface(bytes4)": "01ffc9a7",
    "unpause(address)": "57b001f9"
  },
  "id": 94
}