{
  "abi": [
    {
      "type": "function",
      "name": "DEFAULT_ADMIN_ROLE",
      "inputs": [],
      "outputs": [
        {
          "name": "",
          "type": "bytes32",
          "internalType": "bytes32"
        }
      ],
      "stateMutability": "view"
    },
    {
      "type": "function",
      "name": "UPGRADE_INTERFACE_VERSION",
      "inputs": [],
      "outputs": [
        {
          "name": "",
          "type": "string",
          "internalType": "string"
        }
      ],
      "stateMutability": "view"
    },
    {
      "type": "function",
      "name": "adminAddress",
      "inputs": [],
      "outputs": [
        {
          "name": "",
          "type": "address",
          "internalType": "address"
        }
      ],
      "stateMutability": "view"
    },
    {
      "type": "function",
      "name": "createProject",
      "inputs": [
        {
          "name": "params",
          "type": "tuple",
          "internalType": "struct ProjectFactory.ProjectParams",
          "components": [
            {
              "name": "loanAmountRequested",
              "type": "uint256",
              "internalType": "uint256"
            },
            {
              "name": "requestedTenor",
              "type": "uint48",
              "internalType": "uint48"
            },
            {
              "name": "fundingDeadline",
              "type": "uint32",
              "internalType": "uint32"
            },
            {
              "name": "metadataCID",
              "type": "string",
              "internalType": "string"
            }
          ]
        }
      ],
      "outputs": [
        {
          "name": "projectId",
          "type": "uint256",
          "internalType": "uint256"
        }
      ],
      "stateMutability": "nonpayable"
    },
    {
      "type": "function",
      "name": "depositEscrow",
      "inputs": [],
      "outputs": [
        {
          "name": "",
          "type": "address",
          "internalType": "contract IDeveloperDepositEscrow"
        }
      ],
      "stateMutability": "view"
    },
    {
      "type": "function",
      "name": "devEscrowImplementation",
      "inputs": [],
      "outputs": [
        {
          "name": "",
          "type": "address",
          "internalType": "address"
        }
      ],
      "stateMutability": "view"
    },
    {
      "type": "function",
      "name": "developerRegistry",
      "inputs": [],
      "outputs": [
        {
          "name": "",
          "type": "address",
          "internalType": "contract IDeveloperRegistry"
        }
      ],
      "stateMutability": "view"
    },
    {
      "type": "function",
      "name": "feeRouter",
      "inputs": [],
      "outputs": [
        {
          "name": "",
          "type": "address",
          "internalType": "contract IFeeRouter"
        }
      ],
      "stateMutability": "view"
    },
    {
      "type": "function",
      "name": "getAllHighValueProjects",
      "inputs": [],
      "outputs": [
        {
          "name": "",
          "type": "address[]",
          "internalType": "address[]"
        }
      ],
      "stateMutability": "view"
    },
    {
      "type": "function",
      "name": "getRoleAdmin",
      "inputs": [
        {
          "name": "role",
          "type": "bytes32",
          "internalType": "bytes32"
        }
      ],
      "outputs": [
        {
          "name": "",
          "type": "bytes32",
          "internalType": "bytes32"
        }
      ],
      "stateMutability": "view"
    },
    {
      "type": "function",
      "name": "getRoleMember",
      "inputs": [
        {
          "name": "role",
          "type": "bytes32",
          "internalType": "bytes32"
        },
        {
          "name": "index",
          "type": "uint256",
          "internalType": "uint256"
        }
      ],
      "outputs": [
        {
          "name": "",
          "type": "address",
          "internalType": "address"
        }
      ],
      "stateMutability": "view"
    },
    {
      "type": "function",
      "name": "getRoleMemberCount",
      "inputs": [
        {
          "name": "role",
          "type": "bytes32",
          "internalType": "bytes32"
        }
      ],
      "outputs": [
        {
          "name": "",
          "type": "uint256",
          "internalType": "uint256"
        }
      ],
      "stateMutability": "view"
    },
    {
      "type": "function",
      "name": "getRoleMembers",
      "inputs": [
        {
          "name": "role",
          "type": "bytes32",
          "internalType": "bytes32"
        }
      ],
      "outputs": [
        {
          "name": "",
          "type": "address[]",
          "internalType": "address[]"
        }
      ],
      "stateMutability": "view"
    },
    {
      "type": "function",
      "name": "grantRole",
      "inputs": [
        {
          "name": "role",
          "type": "bytes32",
          "internalType": "bytes32"
        },
        {
          "name": "account",
          "type": "address",
          "internalType": "address"
        }
      ],
      "outputs": [],
      "stateMutability": "nonpayable"
    },
    {
      "type": "function",
      "name": "hasRole",
      "inputs": [
        {
          "name": "role",
          "type": "bytes32",
          "internalType": "bytes32"
        },
        {
          "name": "account",
          "type": "address",
          "internalType": "address"
        }
      ],
      "outputs": [
        {
          "name": "",
          "type": "bool",
          "internalType": "bool"
        }
      ],
      "stateMutability": "view"
    },
    {
      "type": "function",
      "name": "highValueVaults",
      "inputs": [
        {
          "name": "",
          "type": "uint256",
          "internalType": "uint256"
        }
      ],
      "outputs": [
        {
          "name": "",
          "type": "address",
          "internalType": "address"
        }
      ],
      "stateMutability": "view"
    },
    {
      "type": "function",
      "name": "initialize",
      "inputs": [
        {
          "name": "_registry",
          "type": "address",
          "internalType": "address"
        },
        {
          "name": "_depositEscrow",
          "type": "address",
          "internalType": "address"
        },
        {
          "name": "_usdc",
          "type": "address",
          "internalType": "address"
        },
        {
          "name": "_initialAdmin",
          "type": "address",
          "internalType": "address"
        }
      ],
      "outputs": [],
      "stateMutability": "nonpayable"
    },
    {
      "type": "function",
      "name": "liquidityPoolManager",
      "inputs": [],
      "outputs": [
        {
          "name": "",
          "type": "address",
          "internalType": "contract ILiquidityPoolManager"
        }
      ],
      "stateMutability": "view"
    },
    {
      "type": "function",
      "name": "pause",
      "inputs": [],
      "outputs": [],
      "stateMutability": "nonpayable"
    },
    {
      "type": "function",
      "name": "paused",
      "inputs": [],
      "outputs": [
        {
          "name": "",
          "type": "bool",
          "internalType": "bool"
        }
      ],
      "stateMutability": "view"
    },
    {
      "type": "function",
      "name": "pauserAddress",
      "inputs": [],
      "outputs": [
        {
          "name": "",
          "type": "address",
          "internalType": "address"
        }
      ],
      "stateMutability": "view"
    },
    {
      "type": "function",
      "name": "projectCounter",
      "inputs": [],
      "outputs": [
        {
          "name": "",
          "type": "uint256",
          "internalType": "uint256"
        }
      ],
      "stateMutability": "view"
    },
    {
      "type": "function",
      "name": "projectFundingDeadlines",
      "inputs": [
        {
          "name": "",
          "type": "uint256",
          "internalType": "uint256"
        }
      ],
      "outputs": [
        {
          "name": "",
          "type": "uint64",
          "internalType": "uint64"
        }
      ],
      "stateMutability": "view"
    },
    {
      "type": "function",
      "name": "projectStates",
      "inputs": [
        {
          "name": "",
          "type": "uint256",
          "internalType": "uint256"
        }
      ],
      "outputs": [
        {
          "name": "",
          "type": "uint8",
          "internalType": "uint8"
        }
      ],
      "stateMutability": "view"
    },
    {
      "type": "function",
      "name": "proxiableUUID",
      "inputs": [],
      "outputs": [
        {
          "name": "",
          "type": "bytes32",
          "internalType": "bytes32"
        }
      ],
      "stateMutability": "view"
    },
    {
      "type": "function",
      "name": "renounceRole",
      "inputs": [
        {
          "name": "role",
          "type": "bytes32",
          "internalType": "bytes32"
        },
        {
          "name": "callerConfirmation",
          "type": "address",
          "internalType": "address"
        }
      ],
      "outputs": [],
      "stateMutability": "nonpayable"
    },
    {
      "type": "function",
      "name": "repaymentRouterAddress",
      "inputs": [],
      "outputs": [
        {
          "name": "",
          "type": "address",
          "internalType": "address"
        }
      ],
      "stateMutability": "view"
    },
    {
      "type": "function",
      "name": "revokeRole",
      "inputs": [
        {
          "name": "role",
          "type": "bytes32",
          "internalType": "bytes32"
        },
        {
          "name": "account",
          "type": "address",
          "internalType": "address"
        }
      ],
      "outputs": [],
      "stateMutability": "nonpayable"
    },
    {
      "type": "function",
      "name": "riskOracleAdapterAddress",
      "inputs": [],
      "outputs": [
        {
          "name": "",
          "type": "address",
          "internalType": "address"
        }
      ],
      "stateMutability": "view"
    },
    {
      "type": "function",
      "name": "setAddresses",
      "inputs": [
        {
          "name": "_poolManager",
          "type": "address",
          "internalType": "address"
        },
        {
          "name": "_vaultImpl",
          "type": "address",
          "internalType": "address"
        },
        {
          "name": "_escrowImpl",
          "type": "address",
          "internalType": "address"
        },
        {
          "name": "_repaymentRouter",
          "type": "address",
          "internalType": "address"
        },
        {
          "name": "_pauser",
          "type": "address",
          "internalType": "address"
        },
        {
          "name": "_admin",
          "type": "address",
          "internalType": "address"
        },
        {
          "name": "_riskOracleAdapter",
          "type": "address",
          "internalType": "address"
        },
        {
          "name": "_feeRouter",
          "type": "address",
          "internalType": "address"
        }
      ],
      "outputs": [],
      "stateMutability": "nonpayable"
    },
    {
      "type": "function",
      "name": "supportsInterface",
      "inputs": [
        {
          "name": "interfaceId",
          "type": "bytes4",
          "internalType": "bytes4"
        }
      ],
      "outputs": [
        {
          "name": "",
          "type": "bool",
          "internalType": "bool"
        }
      ],
      "stateMutability": "view"
    },
    {
      "type": "function",
      "name": "unpause",
      "inputs": [],
      "outputs": [],
      "stateMutability": "nonpayable"
    },
    {
      "type": "function",
      "name": "upgradeToAndCall",
      "inputs": [
        {
          "name": "newImplementation",
          "type": "address",
          "internalType": "address"
        },
        {
          "name": "data",
          "type": "bytes",
          "internalType": "bytes"
        }
      ],
      "outputs": [],
      "stateMutability": "payable"
    },
    {
      "type": "function",
      "name": "usdcToken",
      "inputs": [],
      "outputs": [
        {
          "name": "",
          "type": "address",
          "internalType": "contract IERC20"
        }
      ],
      "stateMutability": "view"
    },
    {
      "type": "function",
      "name": "userProjects",
      "inputs": [
        {
          "name": "",
          "type": "address",
          "internalType": "address"
        },
        {
          "name": "",
          "type": "uint256",
          "internalType": "uint256"
        }
      ],
      "outputs": [
        {
          "name": "",
          "type": "uint256",
          "internalType": "uint256"
        }
      ],
      "stateMutability": "view"
    },
    {
      "type": "function",
      "name": "vaultImplementation",
      "inputs": [],
      "outputs": [
        {
          "name": "",
          "type": "address",
          "internalType": "address"
        }
      ],
      "stateMutability": "view"
    },
    {
      "type": "event",
      "name": "AddressesSet",
      "inputs": [
        {
          "name": "poolManager",
          "type": "address",
          "indexed": false,
          "internalType": "address"
        },
        {
          "name": "vaultImpl",
          "type": "address",
          "indexed": false,
          "internalType": "address"
        },
        {
          "name": "escrowImpl",
          "type": "address",
          "indexed": false,
          "internalType": "address"
        },
        {
          "name": "repaymentRouter",
          "type": "address",
          "indexed": false,
          "internalType": "address"
        },
        {
          "name": "pauser",
          "type": "address",
          "indexed": false,
          "internalType": "address"
        },
        {
          "name": "admin",
          "type": "address",
          "indexed": false,
          "internalType": "address"
        },
        {
          "name": "riskOracleAdapter",
          "type": "address",
          "indexed": false,
          "internalType": "address"
        },
        {
          "name": "feeRouter",
          "type": "address",
          "indexed": false,
          "internalType": "address"
        }
      ],
      "anonymous": false
    },
    {
      "type": "event",
      "name": "Initialized",
      "inputs": [
        {
          "name": "version",
          "type": "uint64",
          "indexed": false,
          "internalType": "uint64"
        }
      ],
      "anonymous": false
    },
    {
      "type": "event",
      "name": "LowValueProjectSubmitted",
      "inputs": [
        {
          "name": "projectId",
          "type": "uint256",
          "indexed": true,
          "internalType": "uint256"
        },
        {
          "name": "developer",
          "type": "address",
          "indexed": true,
          "internalType": "address"
        },
        {
          "name": "poolId",
          "type": "uint256",
          "indexed": false,
          "internalType": "uint256"
        },
        {
          "name": "loanAmount",
          "type": "uint256",
          "indexed": false,
          "internalType": "uint256"
        },
        {
          "name": "success",
          "type": "bool",
          "indexed": false,
          "internalType": "bool"
        }
      ],
      "anonymous": false
    },
    {
      "type": "event",
      "name": "Paused",
      "inputs": [
        {
          "name": "account",
          "type": "address",
          "indexed": false,
          "internalType": "address"
        }
      ],
      "anonymous": false
    },
    {
      "type": "event",
      "name": "ProjectCreated",
      "inputs": [
        {
          "name": "projectId",
          "type": "uint256",
          "indexed": true,
          "internalType": "uint256"
        },
        {
          "name": "developer",
          "type": "address",
          "indexed": true,
          "internalType": "address"
        },
        {
          "name": "vaultAddress",
          "type": "address",
          "indexed": false,
          "internalType": "address"
        },
        {
          "name": "devEscrowAddress",
          "type": "address",
          "indexed": false,
          "internalType": "address"
        },
        {
          "name": "loanAmount",
          "type": "uint256",
          "indexed": false,
          "internalType": "uint256"
        }
      ],
      "anonymous": false
    },
    {
      "type": "event",
      "name": "RoleAdminChanged",
      "inputs": [
        {
          "name": "role",
          "type": "bytes32",
          "indexed": true,
          "internalType": "bytes32"
        },
        {
          "name": "previousAdminRole",
          "type": "bytes32",
          "indexed": true,
          "internalType": "bytes32"
        },
        {
          "name": "newAdminRole",
          "type": "bytes32",
          "indexed": true,
          "internalType": "bytes32"
        }
      ],
      "anonymous": false
    },
    {
      "type": "event",
      "name": "RoleGranted",
      "inputs": [
        {
          "name": "role",
          "type": "bytes32",
          "indexed": true,
          "internalType": "bytes32"
        },
        {
          "name": "account",
          "type": "address",
          "indexed": true,
          "internalType": "address"
        },
        {
          "name": "sender",
          "type": "address",
          "indexed": true,
          "internalType": "address"
        }
      ],
      "anonymous": false
    },
    {
      "type": "event",
      "name": "RoleRevoked",
      "inputs": [
        {
          "name": "role",
          "type": "bytes32",
          "indexed": true,
          "internalType": "bytes32"
        },
        {
          "name": "account",
          "type": "address",
          "indexed": true,
          "internalType": "address"
        },
        {
          "name": "sender",
          "type": "address",
          "indexed": true,
          "internalType": "address"
        }
      ],
      "anonymous": false
    },
    {
      "type": "event",
      "name": "Unpaused",
      "inputs": [
        {
          "name": "account",
          "type": "address",
          "indexed": false,
          "internalType": "address"
        }
      ],
      "anonymous": false
    },
    {
      "type": "event",
      "name": "Upgraded",
      "inputs": [
        {
          "name": "implementation",
          "type": "address",
          "indexed": true,
          "internalType": "address"
        }
      ],
      "anonymous": false
    },
    {
      "type": "error",
      "name": "AccessControlBadConfirmation",
      "inputs": []
    },
    {
      "type": "error",
      "name": "AccessControlUnauthorizedAccount",
      "inputs": [
        {
          "name": "account",
          "type": "address",
          "internalType": "address"
        },
        {
          "name": "neededRole",
          "type": "bytes32",
          "internalType": "bytes32"
        }
      ]
    },
    {
      "type": "error",
      "name": "AddressEmptyCode",
      "inputs": [
        {
          "name": "target",
          "type": "address",
          "internalType": "address"
        }
      ]
    },
    {
      "type": "error",
      "name": "AmountCannotBeZero",
      "inputs": []
    },
    {
      "type": "error",
      "name": "ERC1967InvalidImplementation",
      "inputs": [
        {
          "name": "implementation",
          "type": "address",
          "internalType": "address"
        }
      ]
    },
    {
      "type": "error",
      "name": "ERC1967NonPayable",
      "inputs": []
    },
    {
      "type": "error",
      "name": "EnforcedPause",
      "inputs": []
    },
    {
      "type": "error",
      "name": "ExpectedPause",
      "inputs": []
    },
    {
      "type": "error",
      "name": "FailedCall",
      "inputs": []
    },
    {
      "type": "error",
      "name": "FailedDeployment",
      "inputs": []
    },
    {
      "type": "error",
      "name": "InsufficientBalance",
      "inputs": [
        {
          "name": "balance",
          "type": "uint256",
          "internalType": "uint256"
        },
        {
          "name": "needed",
          "type": "uint256",
          "internalType": "uint256"
        }
      ]
    },
    {
      "type": "error",
      "name": "InvalidAmount",
      "inputs": [
        {
          "name": "amount",
          "type": "uint256",
          "internalType": "uint256"
        }
      ]
    },
    {
      "type": "error",
      "name": "InvalidInitialization",
      "inputs": []
    },
    {
      "type": "error",
      "name": "InvalidState",
      "inputs": [
        {
          "name": "reason",
          "type": "string",
          "internalType": "string"
        }
      ]
    },
    {
      "type": "error",
      "name": "InvalidValue",
      "inputs": [
        {
          "name": "reason",
          "type": "string",
          "internalType": "string"
        }
      ]
    },
    {
      "type": "error",
      "name": "NotInitialized",
      "inputs": []
    },
    {
      "type": "error",
      "name": "NotInitializing",
      "inputs": []
    },
    {
      "type": "error",
      "name": "NotVerified",
      "inputs": [
        {
          "name": "developer",
          "type": "address",
          "internalType": "address"
        }
      ]
    },
    {
      "type": "error",
      "name": "ReentrancyGuardReentrantCall",
      "inputs": []
    },
    {
      "type": "error",
      "name": "StringCannotBeEmpty",
      "inputs": []
    },
    {
      "type": "error",
      "name": "UUPSUnauthorizedCallContext",
      "inputs": []
    },
    {
      "type": "error",
      "name": "UUPSUnsupportedProxiableUUID",
      "inputs": [
        {
          "name": "slot",
          "type": "bytes32",
          "internalType": "bytes32"
        }
      ]
    },
    {
      "type": "error",
      "name": "ZeroAddressNotAllowed",
      "inputs": []
    }
  ],
  "bytecode": {
    "object": "0x60a0604052306080523480156012575f80fd5b506001600355608051613f5c61003e5f395f81816119e201528181611a0b0152611c1d0152613f5c5ff3fe608060405260043610610243575f3560e01c80638aa1c0dc11610131578063d547741f116100ac578063f7fb869b1161007c578063f8c8765e11610062578063f8c8765e146106f2578063fc6f946814610711578063fe60b45d14610730575f80fd5b8063f7fb869b146106be578063f8a518ed146106dd575f80fd5b8063d547741f14610642578063d733cfd014610661578063deed8d0414610680578063f29ebf611461069f575f80fd5b8063a3246ad311610101578063b5105dcd116100e7578063b5105dcd146105c4578063bba48a9014610604578063ca15c87314610623575f80fd5b8063a3246ad314610550578063ad3cb1cc1461056f575f80fd5b80638aa1c0dc146104bd5780639010d07c146104dc57806391d14854146104fb578063a217fddf1461053d575f80fd5b80633f4ba83a116101c15780634f1ef286116101915780635c975abb116101775780635c975abb1461047357806372f5572e1461048a5780638456cb59146104a9575f80fd5b80634f1ef2861461044c57806352d1902d1461045f575f80fd5b80633f4ba83a146103d95780633f616e22146103ed5780634311bc1f1461040c5780634f01582c1461042d575f80fd5b8063171eb0ee116102165780632f2ff15d116101fc5780632f2ff15d1461037a5780632fa9c0071461039b57806336568abe146103ba575f80fd5b8063171eb0ee1461031f578063248a9ca31461033e575f80fd5b806301ffc9a71461024757806307c67a831461027b578063107d0be1146102c957806311eac85514610300575b5f80fd5b348015610252575f80fd5b506102666102613660046132e3565b61074f565b60405190151581526020015b60405180910390f35b348015610286575f80fd5b506102b0610295366004613322565b60136020525f908152604090205467ffffffffffffffff1681565b60405167ffffffffffffffff9091168152602001610272565b3480156102d4575f80fd5b506004546102e8906001600160a01b031681565b6040516001600160a01b039091168152602001610272565b34801561030b575f80fd5b506006546102e8906001600160a01b031681565b34801561032a575f80fd5b50600a546102e8906001600160a01b031681565b348015610349575f80fd5b5061036c610358366004613322565b5f9081526020819052604090206001015490565b604051908152602001610272565b348015610385575f80fd5b5061039961039436600461334f565b610819565b005b3480156103a6575f80fd5b5061036c6103b5366004613379565b610843565b3480156103c5575f80fd5b506103996103d436600461334f565b61086e565b3480156103e4575f80fd5b506103996108bf565b3480156103f8575f80fd5b5061036c6104073660046133a1565b6108f4565b348015610417575f80fd5b506104206110dc565b60405161027291906133d8565b348015610438575f80fd5b50600e546102e8906001600160a01b031681565b61039961045a36600461347d565b61113c565b34801561046a575f80fd5b5061036c61115b565b34801561047e575f80fd5b5060025460ff16610266565b348015610495575f80fd5b506102e86104a4366004613322565b61118a565b3480156104b4575f80fd5b506103996111b2565b3480156104c8575f80fd5b506005546102e8906001600160a01b031681565b3480156104e7575f80fd5b506102e86104f6366004613526565b6111e4565b348015610506575f80fd5b5061026661051536600461334f565b5f918252602082815260408084206001600160a01b0393909316845291905290205460ff1690565b348015610548575f80fd5b5061036c5f81565b34801561055b575f80fd5b5061042061056a366004613322565b611204565b34801561057a575f80fd5b506105b76040518060400160405280600581526020017f352e302e3000000000000000000000000000000000000000000000000000000081525081565b6040516102729190613574565b3480156105cf575f80fd5b506105f26105de366004613322565b60126020525f908152604090205460ff1681565b60405160ff9091168152602001610272565b34801561060f575f80fd5b506009546102e8906001600160a01b031681565b34801561062e575f80fd5b5061036c61063d366004613322565b61121d565b34801561064d575f80fd5b5061039961065c36600461334f565b611233565b34801561066c575f80fd5b5061039961067b366004613586565b611257565b34801561068b575f80fd5b50600b546102e8906001600160a01b031681565b3480156106aa575f80fd5b506008546102e8906001600160a01b031681565b3480156106c9575f80fd5b50600c546102e8906001600160a01b031681565b3480156106e8575f80fd5b5061036c600f5481565b3480156106fd575f80fd5b5061039961070c366004613618565b61141d565b34801561071c575f80fd5b50600d546102e8906001600160a01b031681565b34801561073b575f80fd5b506007546102e8906001600160a01b031681565b5f7f8456cb591a934d53f6ccc6332123a165a1f3562907bf11330d847a29ca49eb897f3f4ba83af89dc9793996d9e56b8abe6dc88cd97c9c2bb23027806e9c1ffd54dc7fbb1d6363e20e842acf5a1fd64aa91f08697f8f559b94a3032a0414b5d5b4bf557f44e29c9d000000000000000000000000000000000000000000000000000000007fffffffff0000000000000000000000000000000000000000000000000000000086160161080757506001949350505050565b610810856116aa565b95945050505050565b5f82815260208190526040902060010154610833816116ff565b61083d8383611709565b50505050565b6011602052815f5260405f20818154811061085c575f80fd5b905f5260205f20015f91509150505481565b6001600160a01b03811633146108b0576040517f6697b23200000000000000000000000000000000000000000000000000000000815260040160405180910390fd5b6108ba828261173c565b505050565b7f65d7a28e3265b37a6474929f336521b332c1681b933f6cb9f3376673440d862a6108e9816116ff565b6108f1611767565b50565b5f6108fd6117b9565b6109056117fc565b81355f0361093f576040517fd11b25af00000000000000000000000000000000000000000000000000000000815260040160405180910390fd5b61094f6040830160208401613669565b65ffffffffffff165f036109c4576040517f432f5b4a00000000000000000000000000000000000000000000000000000000815260206004820152601460248201527f54656e6f722063616e6e6f74206265207a65726f00000000000000000000000060448201526064015b60405180910390fd5b6109d1606083018361368e565b90505f03610a0b576040517faabcb66800000000000000000000000000000000000000000000000000000000815260040160405180910390fd5b6004546001600160a01b03161580610a2c57506005546001600160a01b0316155b15610a63576040517f87138d5c00000000000000000000000000000000000000000000000000000000815260040160405180910390fd5b600480546040517fb9209e33000000000000000000000000000000000000000000000000000000008152339281018390526001600160a01b039091169063b9209e3390602401602060405180830381865afa158015610ac4573d5f803e3d5ffd5b505050506040513d601f19601f82011682018060405250810190610ae89190613705565b610b29576040517fb12c8f910000000000000000000000000000000000000000000000000000000081526001600160a01b03821660048201526024016109bb565b600f8054905f610b388361374b565b9091555050600f54915062278d00610b566060850160408601613782565b63ffffffff1614158015610b825750624f1a00610b796060850160408601613782565b63ffffffff1614155b8015610ba657506276a700610b9d6060850160408601613782565b63ffffffff1614155b8015610bca575062ed4e00610bc16060850160408601613782565b63ffffffff1614155b15610c31576040517f432f5b4a00000000000000000000000000000000000000000000000000000000815260206004820152601860248201527f496e76616c69642066756e64696e6720646561646c696e65000000000000000060448201526064016109bb565b5f8281526012602052604090819020805460ff19169055610c589060608501908501613782565b610c689063ffffffff16426137a5565b5f83815260136020908152604080832080547fffffffffffffffffffffffffffffffffffffffffffffffff00000000000000001667ffffffffffffffff95909516949094179093556001600160a01b0384168252601181529181208054600181018255908252918120909101839055833590612710610ce96107d0846137b8565b610cf391906137fc565b90505f610d00828461380f565b9050815f03610d3d576040517f3728b83d0000000000000000000000000000000000000000000000000000000081525f60048201526024016109bb565b6005546040517f7077a778000000000000000000000000000000000000000000000000000000008152600481018790526001600160a01b0386811660248301526044820185905290911690637077a778906064015f604051808303815f87803b158015610da8575f80fd5b505af1158015610dba573d5f803e3d5ffd5b5050505f868152601260205260409020805460ff1916600117905550610de26006600a613943565b610dee9061c3506137b8565b8310610e0657610e01848688858561183b565b611054565b6007546001600160a01b0316610e48576040517f87138d5c00000000000000000000000000000000000000000000000000000000815260040160405180910390fd5b5f6040518060a00160405280838152602001858152602001886020016020810190610e739190613669565b65ffffffffffff168152602001610e9060608a0160408b01613782565b63ffffffff168152602001610ea860608a018a61368e565b8080601f0160208091040260200160405190810160405280939291908181526020018383808284375f9201829052509390945250506007546040517f455cbc4000000000000000000000000000000000000000000000000000000000815293945090928392506001600160a01b039091169063455cbc4090610f32908b908b908890600401613951565b60408051808303815f875af1158015610f4d573d5f803e3d5ffd5b505050506040513d601f19601f82011682018060405250810190610f7191906139c2565b915091508115611002576005546040517f2d3bc857000000000000000000000000000000000000000000000000000000008152600481018a90526001600160a01b0390911690632d3bc857906024016020604051808303815f875af1158015610fdc573d5f803e3d5ffd5b505050506040513d601f19601f8201168201806040525081019061100091906139ec565b505b60408051828152602081018690528315158183015290516001600160a01b038916918a917fbce4397d5ee101010266d0c0d2ee30af5a345bb6ba7212fd5569b24e4f8249679181900360600190a35050505b600480546040517f9962b5b50000000000000000000000000000000000000000000000000000000081526001600160a01b0387811693820193909352911690639962b5b5906024015f604051808303815f87803b1580156110b3575f80fd5b505af11580156110c5573d5f803e3d5ffd5b50505050505050506110d76001600355565b919050565b6060601080548060200260200160405190810160405280929190818152602001828054801561113257602002820191905f5260205f20905b81546001600160a01b03168152600190910190602001808311611114575b5050505050905090565b6111446119d7565b61114d82611aa7565b6111578282611b11565b5050565b5f611164611c12565b507f360894a13ba1a3210667c828492db98dca3e2076cc3735a920a3ca505d382bbc5b90565b60108181548110611199575f80fd5b5f918252602090912001546001600160a01b0316905081565b7f65d7a28e3265b37a6474929f336521b332c1681b933f6cb9f3376673440d862a6111dc816116ff565b6108f1611c74565b5f8281526001602052604081206111fb9083611cb1565b90505b92915050565b5f8181526001602052604090206060906111fe90611cbc565b5f8181526001602052604081206111fe90611ccf565b5f8281526020819052604090206001015461124d816116ff565b61083d838361173c565b5f611261816116ff565b6001600160a01b038916158061127e57506001600160a01b038816155b8061129057506001600160a01b038716155b806112a257506001600160a01b038616155b806112b457506001600160a01b038516155b806112c657506001600160a01b038416155b806112d857506001600160a01b038216155b1561130f576040517f8579befe00000000000000000000000000000000000000000000000000000000815260040160405180910390fd5b600780546001600160a01b038b81167fffffffffffffffffffffffff00000000000000000000000000000000000000009283168117909355600980548c83169084168117909155600a80548c84169085168117909155600b80548c85169086168117909155600c80548c86169087168117909155600d80548c87169088168117909155600e80548c8816908916811790915560088054978c16979098168717909755604080519889526020890195909552938701929092526060860152608085015260a084015260c083019190915260e08201527faa71c48acfadc72fc01f3ba644fec57422ff4a3a067e751d63c688b8aab6312990610100015b60405180910390a1505050505050505050565b5f611426611cd8565b805490915060ff68010000000000000000820416159067ffffffffffffffff165f811580156114525750825b90505f8267ffffffffffffffff16600114801561146e5750303b155b90508115801561147c575080155b156114b3576040517ff92ee8a900000000000000000000000000000000000000000000000000000000815260040160405180910390fd5b84547fffffffffffffffffffffffffffffffffffffffffffffffff000000000000000016600117855583156115145784547fffffffffffffffffffffffffffffffffffffffffffffff00ffffffffffffffff16680100000000000000001785555b6001600160a01b038916158061153157506001600160a01b038816155b8061154357506001600160a01b038716155b8061155557506001600160a01b038616155b1561158c576040517f8579befe00000000000000000000000000000000000000000000000000000000815260040160405180910390fd5b600480546001600160a01b03808c167fffffffffffffffffffffffff000000000000000000000000000000000000000092831617909255600580548b841690831617905560068054928a16929091169190911790556115eb5f87611709565b506116167f65d7a28e3265b37a6474929f336521b332c1681b933f6cb9f3376673440d862a87611709565b506116417f189ab7a9244df0848122154315af71fe140f3db0fe014031783b0946b8c9d2e387611709565b50831561169f5784547fffffffffffffffffffffffffffffffffffffffffffffff00ffffffffffffffff168555604051600181527fc7f505b2f371ae2175ee4913f4499e1f2633a7b5936321eed1cdaeb6115181d29060200161140a565b505050505050505050565b5f7fffffffff0000000000000000000000000000000000000000000000000000000082167f5a05180f0000000000000000000000000000000000000000000000000000000014806111fe57506111fe82611d00565b6108f18133611d96565b5f806117158484611e01565b905080156111fb575f8481526001602052604090206117349084611ea8565b509392505050565b5f806117488484611ebc565b905080156111fb575f8481526001602052604090206117349084611f3d565b61176f611f51565b6002805460ff191690557f5db9ee0a495bf2e6ff9c91a7834c1ba4fdd244a5e8aa4e537bd38aeae4b073aa335b6040516001600160a01b03909116815260200160405180910390a1565b6002600354036117f5576040517f3ee5aeb500000000000000000000000000000000000000000000000000000000815260040160405180910390fd5b6002600355565b60025460ff1615611839576040517fd93c066500000000000000000000000000000000000000000000000000000000815260040160405180910390fd5b565b611843611f8d565b5f604051806101000160405280876001600160a01b031681526020018681526020018381526020018481526020018560200160208101906118849190613669565b65ffffffffffff1681526020016118a16060870160408801613782565b63ffffffff1681525f6020820181905260409091015290506118c281612035565b6001600160a01b0390811660e08401521660c08201526118e1816122c9565b60c0810151601080546001810182555f919091527f1b6847dc741a1b0cd08d278845f9d819d87b734759afb55fe2de5cb82a9ae6720180547fffffffffffffffffffffffff0000000000000000000000000000000000000000166001600160a01b039092169190911790556119578185356125a7565b805f01516001600160a01b031681602001517f609811090a5d46b0f41071adda594666ab60dc11a6bb94fa6286d5d224864ea98360c001518460e0015185604001516040516119c7939291906001600160a01b039384168152919092166020820152604081019190915260600190565b60405180910390a3505050505050565b306001600160a01b037f0000000000000000000000000000000000000000000000000000000000000000161480611a7057507f00000000000000000000000000000000000000000000000000000000000000006001600160a01b0316611a647f360894a13ba1a3210667c828492db98dca3e2076cc3735a920a3ca505d382bbc546001600160a01b031690565b6001600160a01b031614155b15611839576040517fe07c8dba00000000000000000000000000000000000000000000000000000000815260040160405180910390fd5b7f189ab7a9244df0848122154315af71fe140f3db0fe014031783b0946b8c9d2e3611ad1816116ff565b6001600160a01b038216611157576040517f8579befe00000000000000000000000000000000000000000000000000000000815260040160405180910390fd5b816001600160a01b03166352d1902d6040518163ffffffff1660e01b8152600401602060405180830381865afa925050508015611b6b575060408051601f3d908101601f19168201909252611b68918101906139ec565b60015b611bac576040517f4c9c8ce30000000000000000000000000000000000000000000000000000000081526001600160a01b03831660048201526024016109bb565b7f360894a13ba1a3210667c828492db98dca3e2076cc3735a920a3ca505d382bbc8114611c08576040517faa1d49a4000000000000000000000000000000000000000000000000000000008152600481018290526024016109bb565b6108ba8383612757565b306001600160a01b037f00000000000000000000000000000000000000000000000000000000000000001614611839576040517fe07c8dba00000000000000000000000000000000000000000000000000000000815260040160405180910390fd5b611c7c6117fc565b6002805460ff191660011790557f62e78cea01bee320cd4e420270b5ea74000d11b0c9f74754ebdbfc544b05a25861179c3390565b5f6111fb83836127ac565b60605f611cc8836127d2565b9392505050565b5f6111fe825490565b5f807ff0c57e16840df040f15088dc2f81fe391c3923bec73e23a9662efc9c229c6a006111fe565b5f7fffffffff0000000000000000000000000000000000000000000000000000000082167f7965db0b0000000000000000000000000000000000000000000000000000000014806111fe57507f01ffc9a7000000000000000000000000000000000000000000000000000000007fffffffff000000000000000000000000000000000000000000000000000000008316146111fe565b5f828152602081815260408083206001600160a01b038516845290915290205460ff16611157576040517fe2517d3f0000000000000000000000000000000000000000000000000000000081526001600160a01b0382166004820152602481018390526044016109bb565b5f828152602081815260408083206001600160a01b038516845290915281205460ff16611ea1575f838152602081815260408083206001600160a01b03861684529091529020805460ff19166001179055611e593390565b6001600160a01b0316826001600160a01b0316847f2f8788117e7eff1d82e926ec794901d17c78024a50270940304540a733656f0d60405160405180910390a45060016111fe565b505f6111fe565b5f6111fb836001600160a01b03841661282b565b5f828152602081815260408083206001600160a01b038516845290915281205460ff1615611ea1575f838152602081815260408083206001600160a01b0386168085529252808320805460ff1916905551339286917ff6391f5c32d9c69d2a47ea670b442974b53935d1edc7fd64eb21e047a839171b9190a45060016111fe565b5f6111fb836001600160a01b038416612870565b60025460ff16611839576040517f8dfc202b00000000000000000000000000000000000000000000000000000000815260040160405180910390fd5b6009546001600160a01b03161580611fae5750600a546001600160a01b0316155b80611fc25750600b546001600160a01b0316155b80611fd65750600c546001600160a01b0316155b80611fea5750600d546001600160a01b0316155b80611ffe57506008546001600160a01b0316155b15611839576040517f87138d5c00000000000000000000000000000000000000000000000000000000815260040160405180910390fd5b6009545f90819061204e906001600160a01b031661295a565b91506001600160a01b0382166120c0576040517f8c3685b800000000000000000000000000000000000000000000000000000000815260206004820152601260248201527f5661756c7420636c6f6e65206661696c6564000000000000000000000000000060448201526064016109bb565b6120d2835f0151838560400151612965565b604080516101a081018252600d546001600160a01b03908116825260065481166020808401919091528751821683850152818516606080850191909152600b5483166080808601919091529189015160a0808601919091528986015160c08601529089015160e08501529088015165ffffffffffff166101008401525f6101208401526005548216610140840152600e54821661016084015287015163ffffffff1661018083015291517f2e6ec85e0000000000000000000000000000000000000000000000000000000081529293509190841690632e6ec85e906121bb908490600401613a03565b5f604051808303815f87803b1580156121d2575f80fd5b505af19250505080156121e3575060015b6122c3576121ef613b26565b806308c379a00361225f5750612203613b3e565b8061220e5750612261565b8060405160200161221f9190613c0d565b60408051601f19818403018152908290527f08c379a00000000000000000000000000000000000000000000000000000000082526109bb91600401613574565b505b6040517f8c3685b800000000000000000000000000000000000000000000000000000000815260206004820152601160248201527f5661756c7420696e6974206661696c656400000000000000000000000000000060448201526064016109bb565b50915091565b60055460c08201516040517f2f2ff15d0000000000000000000000000000000000000000000000000000000081525f926001600160a01b031691632f2ff15d91612349917f88f3509f0e42391f2d94ebfb2a37cbd0782b1b8f73715330017f4663290b8117916004019182526001600160a01b0316602082015260400190565b5f604051808303815f87803b158015612360575f80fd5b505af1925050508015612371575060015b6123ce5761237d613b26565b806308c379a0036123c45750612391613b3e565b8061239c57506123c6565b6123be604051806060016040528060278152602001613e146027913982612b45565b50612415565b505b3d5f803e3d5ffd5b6124116040518060400160405280601f81526020017f52454c45415345525f524f4c45206772616e74656420746f207661756c743a008152508360c00151612bb8565b5060015b806124a2576040517f8c3685b800000000000000000000000000000000000000000000000000000000815260206004820152602660248201527f4661696c656420746f206772616e742052454c45415345525f524f4c4520746f60448201527f207661756c74000000000000000000000000000000000000000000000000000060648201526084016109bb565b600e546001600160a01b03161561115757600e54602083015160c08401516040517fb6ec0db300000000000000000000000000000000000000000000000000000000815260048101929092526001600160a01b0390811660248301525f60448301529091169063b6ec0db3906064015f604051808303815f87803b158015612528575f80fd5b505af1925050508015612539575060015b61258657612545613b26565b806308c379a0036123c45750612559613b3e565b8061256457506123c6565b6108ba604051806060016040528060348152602001613d696034913982612b45565b6111576040518060600160405280602b8152602001613e99602b9139612c2b565b600854602083015183516040517f850e63d40000000000000000000000000000000000000000000000000000000081526004810192909252602482018490526001600160a01b03908116604483015267ffffffffffffffff421660648301525f92169063850e63d4906084015f604051808303815f87803b15801561262a575f80fd5b505af192505050801561263b575060015b61268e57612647613b26565b806308c379a0036123c4575061265b613b3e565b8061266657506123c6565b6126886040518060600160405280602b8152602001613d3e602b913982612b45565b506126b8565b6126b46040518060600160405280602f8152602001613ef8602f91398460200151612c9c565b5060015b80612745576040517f8c3685b800000000000000000000000000000000000000000000000000000000815260206004820152602a60248201527f4661696c656420746f207365742070726f6a6563742064657461696c7320696e60448201527f20466565526f757465720000000000000000000000000000000000000000000060648201526084016109bb565b61274e83612d0f565b6108ba83612e65565b61276082612ff6565b6040516001600160a01b038316907fbc7cd75a20ee27fd9adebab32041f755214dbc6bffa90cc0225b39da2e5c2d3b905f90a28051156127a4576108ba828261309d565b611157613106565b5f825f0182815481106127c1576127c1613c3e565b905f5260205f200154905092915050565b6060815f0180548060200260200160405190810160405280929190818152602001828054801561281f57602002820191905f5260205f20905b81548152602001906001019080831161280b575b50505050509050919050565b5f818152600183016020526040812054611ea157508154600181810184555f8481526020808220909301849055845484825282860190935260409020919091556111fe565b5f818152600183016020526040812054801561294a575f61289260018361380f565b85549091505f906128a59060019061380f565b9050808214612904575f865f0182815481106128c3576128c3613c3e565b905f5260205f200154905080875f0184815481106128e3576128e3613c3e565b5f918252602080832090910192909255918252600188019052604090208390555b855486908061291557612915613c6b565b600190038181905f5260205f20015f90559055856001015f8681526020019081526020015f205f9055600193505050506111fe565b5f9150506111fe565b5092915050565b5f6111fe825f61313e565b600a545f90819061297e906001600160a01b031661295a565b90506001600160a01b0381166129f0576040517f8c3685b800000000000000000000000000000000000000000000000000000000815260206004820152601660248201527f446576457363726f7720636c6f6e65206661696c65640000000000000000000060448201526064016109bb565b600654600c546040516001600160a01b039283166024820152878316604482015286831660648201526084810186905290821660a48201525f9183169060c40160408051601f198184030181529181526020820180517bffffffffffffffffffffffffffffffffffffffffffffffffffffffff167f530b97a40000000000000000000000000000000000000000000000000000000017905251612a939190613c98565b5f604051808303815f865af19150503d805f8114612acc576040519150601f19603f3d011682016040523d82523d5f602084013e612ad1565b606091505b5050905080612b3c576040517f8c3685b800000000000000000000000000000000000000000000000000000000815260206004820152601560248201527f446576457363726f7720696e6974206661696c6564000000000000000000000060448201526064016109bb565b50949350505050565b6111578282604051602401612b5b929190613ca3565b60408051601f198184030181529190526020810180517bffffffffffffffffffffffffffffffffffffffffffffffffffffffff167f4b5c427700000000000000000000000000000000000000000000000000000000179052613204565b6111578282604051602401612bce929190613cc7565b60408051601f198184030181529190526020810180517bffffffffffffffffffffffffffffffffffffffffffffffffffffffff167f319af33300000000000000000000000000000000000000000000000000000000179052613204565b6108f181604051602401612c3f9190613574565b60408051601f198184030181529190526020810180517bffffffffffffffffffffffffffffffffffffffffffffffffffffffff167f41304fac00000000000000000000000000000000000000000000000000000000179052613204565b6111578282604051602401612cb2929190613cf1565b60408051601f198184030181529190526020810180517bffffffffffffffffffffffffffffffffffffffffffffffffffffffff167fb60e72cc00000000000000000000000000000000000000000000000000000000179052613204565b5f60078260800151612d219190613d12565b65ffffffffffff1690505f8115612d4557818360400151612d4291906137fc565b90505b8015612e3f5760085460208401516040517f85548dbd000000000000000000000000000000000000000000000000000000008152600481019190915260016024820152604481018390526001600160a01b03909116906385548dbd906064015f604051808303815f87803b158015612dbb575f80fd5b505af1925050508015612dcc575060015b612e1957612dd8613b26565b806308c379a0036123c45750612dec613b3e565b80612df757506123c6565b61083d6040518060600160405280602e8152602001613e6b602e913982612b45565b6108ba604051806060016040528060328152602001613de2603291398460200151612c9c565b6108ba604051806080016040528060458152602001613d9d604591398460200151612c9c565b600b54602082015160c08301516040517faaed1b7f00000000000000000000000000000000000000000000000000000000815260048101929092526001600160a01b0390811660248301525f6044830181905292169063aaed1b7f906064015f604051808303815f87803b158015612edb575f80fd5b505af1925050508015612eec575060015b612f3f57612ef8613b26565b806308c379a0036123c45750612f0c613b3e565b80612f1757506123c6565b612f39604051806060016040528060308152602001613e3b6030913982612b45565b50612f69565b612f65604051806060016040528060348152602001613ec4603491398360200151612c9c565b5060015b80611157576040517f8c3685b800000000000000000000000000000000000000000000000000000000815260206004820152602f60248201527f4661696c656420746f207365742066756e64696e6720736f7572636520696e2060448201527f52657061796d656e74526f75746572000000000000000000000000000000000060648201526084016109bb565b806001600160a01b03163b5f03613044576040517f4c9c8ce30000000000000000000000000000000000000000000000000000000081526001600160a01b03821660048201526024016109bb565b7f360894a13ba1a3210667c828492db98dca3e2076cc3735a920a3ca505d382bbc80547fffffffffffffffffffffffff0000000000000000000000000000000000000000166001600160a01b0392909216919091179055565b60605f80846001600160a01b0316846040516130b99190613c98565b5f60405180830381855af49150503d805f81146130f1576040519150601f19603f3d011682016040523d82523d5f602084013e6130f6565b606091505b509150915061081085838361320d565b3415611839576040517fb398979f00000000000000000000000000000000000000000000000000000000815260040160405180910390fd5b5f81471015613182576040517fcf479181000000000000000000000000000000000000000000000000000000008152476004820152602481018390526044016109bb565b763d602d80600a3d3981f3363d3d373d3d3d363d730000008360601b60e81c175f526e5af43d82803e903d91602b57fd5bf38360781b176020526037600983f090506001600160a01b0381166111fe576040517fb06ebf3d00000000000000000000000000000000000000000000000000000000815260040160405180910390fd5b6108f181613282565b6060826132225761321d826132a1565b611cc8565b815115801561323957506001600160a01b0384163b155b1561327b576040517f9996b3150000000000000000000000000000000000000000000000000000000081526001600160a01b03851660048201526024016109bb565b5080611cc8565b5f6a636f6e736f6c652e6c6f6790505f80835160208501845afa505050565b8051156132b15780518082602001fd5b6040517fd6bda27500000000000000000000000000000000000000000000000000000000815260040160405180910390fd5b5f602082840312156132f3575f80fd5b81357fffffffff00000000000000000000000000000000000000000000000000000000811681146111fb575f80fd5b5f60208284031215613332575f80fd5b5035919050565b80356001600160a01b03811681146110d7575f80fd5b5f8060408385031215613360575f80fd5b8235915061337060208401613339565b90509250929050565b5f806040838503121561338a575f80fd5b61339383613339565b946020939093013593505050565b5f602082840312156133b1575f80fd5b813567ffffffffffffffff8111156133c7575f80fd5b8201608081850312156111fb575f80fd5b602080825282518282018190525f918401906040840190835b818110156134185783516001600160a01b03168352602093840193909201916001016133f1565b509095945050505050565b7f4e487b71000000000000000000000000000000000000000000000000000000005f52604160045260245ffd5b601f19601f830116810181811067ffffffffffffffff8211171561347657613476613423565b6040525050565b5f806040838503121561348e575f80fd5b61349783613339565b9150602083013567ffffffffffffffff8111156134b2575f80fd5b8301601f810185136134c2575f80fd5b803567ffffffffffffffff8111156134dc576134dc613423565b6040516134f36020601f19601f8501160182613450565b818152866020838501011115613507575f80fd5b816020840160208301375f602083830101528093505050509250929050565b5f8060408385031215613537575f80fd5b50508035926020909101359150565b5f81518084528060208401602086015e5f602082860101526020601f19601f83011685010191505092915050565b602081525f6111fb6020830184613546565b5f805f805f805f80610100898b03121561359e575f80fd5b6135a789613339565b97506135b560208a01613339565b96506135c360408a01613339565b95506135d160608a01613339565b94506135df60808a01613339565b93506135ed60a08a01613339565b92506135fb60c08a01613339565b915061360960e08a01613339565b90509295985092959890939650565b5f805f806080858703121561362b575f80fd5b61363485613339565b935061364260208601613339565b925061365060408601613339565b915061365e60608601613339565b905092959194509250565b5f60208284031215613679575f80fd5b813565ffffffffffff811681146111fb575f80fd5b5f8083357fffffffffffffffffffffffffffffffffffffffffffffffffffffffffffffffe18436030181126136c1575f80fd5b83018035915067ffffffffffffffff8211156136db575f80fd5b6020019150368190038213156136ef575f80fd5b9250929050565b805180151581146110d7575f80fd5b5f60208284031215613715575f80fd5b6111fb826136f6565b7f4e487b71000000000000000000000000000000000000000000000000000000005f52601160045260245ffd5b5f7fffffffffffffffffffffffffffffffffffffffffffffffffffffffffffffffff820361377b5761377b61371e565b5060010190565b5f60208284031215613792575f80fd5b813563ffffffff811681146111fb575f80fd5b808201808211156111fe576111fe61371e565b80820281158282048414176111fe576111fe61371e565b7f4e487b71000000000000000000000000000000000000000000000000000000005f52601260045260245ffd5b5f8261380a5761380a6137cf565b500490565b818103818111156111fe576111fe61371e565b6001815b600184111561385d578085048111156138415761384161371e565b600184161561384f57908102905b60019390931c928002613826565b935093915050565b5f82613873575060016111fe565b8161387f57505f6111fe565b8160018114613895576002811461389f576138bb565b60019150506111fe565b60ff8411156138b0576138b061371e565b50506001821b6111fe565b5060208310610133831016604e8410600b84101617156138de575081810a6111fe565b6139097fffffffffffffffffffffffffffffffffffffffffffffffffffffffffffffffff8484613822565b807fffffffffffffffffffffffffffffffffffffffffffffffffffffffffffffffff0482111561393b5761393b61371e565b029392505050565b5f6111fb60ff841683613865565b8381526001600160a01b038316602082015260606040820152815160608201526020820151608082015265ffffffffffff60408301511660a082015263ffffffff60608301511660c08201525f608083015160a060e08401526139b8610100840182613546565b9695505050505050565b5f80604083850312156139d3575f80fd5b6139dc836136f6565b6020939093015192949293505050565b5f602082840312156139fc575f80fd5b5051919050565b81516001600160a01b031681526101a081016020830151613a2f60208401826001600160a01b03169052565b506040830151613a4a60408401826001600160a01b03169052565b506060830151613a6560608401826001600160a01b03169052565b506080830151613a8060808401826001600160a01b03169052565b5060a083015160a083015260c083015160c083015260e083015160e0830152610100830151613aba61010084018265ffffffffffff169052565b50610120830151613ad261012084018261ffff169052565b50610140830151613aef6101408401826001600160a01b03169052565b50610160830151613b0c6101608401826001600160a01b03169052565b5061018083015161295361018084018263ffffffff169052565b5f60033d11156111875760045f803e505f5160e01c90565b5f60443d1015613b4b5790565b6040517ffffffffffffffffffffffffffffffffffffffffffffffffffffffffffffffffc3d016004823e80513d602482011167ffffffffffffffff82111715613b9357505090565b808201805167ffffffffffffffff811115613baf575050505090565b7ffffffffffffffffffffffffffffffffffffffffffffffffffffffffffffffffc3d8501016020828401011115613be7575050505090565b61173460208285010185613450565b5f81518060208401855e5f93019283525090919050565b7f5661756c7420696e6974206661696c65643a200000000000000000000000000081525f6111fb6013830184613bf6565b7f4e487b71000000000000000000000000000000000000000000000000000000005f52603260045260245ffd5b7f4e487b71000000000000000000000000000000000000000000000000000000005f52603160045260245ffd5b5f6111fb8284613bf6565b604081525f613cb56040830185613546565b82810360208401526108108185613546565b604081525f613cd96040830185613546565b90506001600160a01b03831660208301529392505050565b604081525f613d036040830185613546565b90508260208301529392505050565b5f65ffffffffffff831680613d2957613d296137cf565b8065ffffffffffff8416049150509291505056fe4661696c656420746f207365742070726f6a6563742064657461696c7320696e20466565526f757465723a4661696c656420746f207265676973746572207661756c742077697468205269736b526174654f7261636c65416461707465723a536b697070696e672072657061796d656e74207363686564756c652064756520746f207a65726f207061796d656e7420616d6f756e7420666f722070726f6a65637449643a52657061796d656e74207363686564756c652073657420696e20466565526f7574657220666f722070726f6a65637449643a4661696c656420746f206772616e742052454c45415345525f524f4c4520746f207661756c743a4661696c656420746f207365742066756e64696e6720736f7572636520696e2052657061796d656e74526f757465723a4661696c656420746f207365742072657061796d656e74207363686564756c6520696e20466565526f757465723a5661756c7420726567697374657265642077697468205269736b526174654f7261636c654164617074657246756e64696e6720736f757263652073657420696e2052657061796d656e74526f7574657220666f722070726f6a65637449643a50726f6a6563742064657461696c732073657420696e20466565526f7574657220666f722070726f6a65637449643aa2646970667358221220ba57e85a7e5a7dca1f92180f763d842501b63c1066d3d43a1cdeeacc0d7cf89d64736f6c634300081a0033",
    "linkReferences": {}
  },
  "methodIdentifiers": {
    "DEFAULT_ADMIN_ROLE()": "a217fddf",
    "UPGRADE_INTERFACE_VERSION()": "ad3cb1cc",
    "adminAddress()": "fc6f9468",
    "createProject((uint256,uint48,uint32,string))": "3f616e22",
    "depositEscrow()": "8aa1c0dc",
    "devEscrowImplementation()": "171eb0ee",
    "developerRegistry()": "107d0be1",
    "feeRouter()": "f29ebf61",
    "getAllHighValueProjects()": "4311bc1f",
    "getRoleAdmin(bytes32)": "248a9ca3",
    "getRoleMember(bytes32,uint256)": "9010d07c",
    "getRoleMemberCount(bytes32)": "ca15c873",
    "getRoleMembers(bytes32)": "a3246ad3",
    "grantRole(bytes32,address)": "2f2ff15d",
    "hasRole(bytes32,address)": "91d14854",
    "highValueVaults(uint256)": "72f5572e",
    "initialize(address,address,address,address)": "f8c8765e",
    "liquidityPoolManager()": "fe60b45d",
    "pause()": "8456cb59",
    "paused()": "5c975abb",
    "pauserAddress()": "f7fb869b",
    "projectCounter()": "f8a518ed",
    "projectFundingDeadlines(uint256)": "07c67a83",
    "projectStates(uint256)": "b5105dcd",
    "proxiableUUID()": "52d1902d",
    "renounceRole(bytes32,address)": "36568abe",
    "repaymentRouterAddress()": "deed8d04",
    "revokeRole(bytes32,address)": "d547741f",
    "riskOracleAdapterAddress()": "4f01582c",
    "setAddresses(address,address,address,address,address,address,address,address)": "d733cfd0",
    "supportsInterface(bytes4)": "01ffc9a7",
    "unpause()": "3f4ba83a",
    "upgradeToAndCall(address,bytes)": "4f1ef286",
    "usdcToken()": "11eac855",
    "userProjects(address,uint256)": "2fa9c007",
    "vaultImplementation()": "bba48a90"
  },
  "id": 78
}