{
  "abi": [
    {
      "type": "function",
      "name": "DEFAULT_ADMIN_ROLE",
      "inputs": [],
      "outputs": [
        {
          "name": "",
          "type": "bytes32",
          "internalType": "bytes32"
        }
      ],
      "stateMutability": "view"
    },
    {
      "type": "function",
      "name": "UPGRADE_INTERFACE_VERSION",
      "inputs": [],
      "outputs": [
        {
          "name": "",
          "type": "string",
          "internalType": "string"
        }
      ],
      "stateMutability": "view"
    },
    {
      "type": "function",
      "name": "adminAddress",
      "inputs": [],
      "outputs": [
        {
          "name": "",
          "type": "address",
          "internalType": "address"
        }
      ],
      "stateMutability": "view"
    },
    {
      "type": "function",
      "name": "createProject",
      "inputs": [
        {
          "name": "params",
          "type": "tuple",
          "internalType": "struct ProjectFactory.ProjectParams",
          "components": [
            {
              "name": "loanAmountRequested",
              "type": "uint256",
              "internalType": "uint256"
            },
            {
              "name": "requestedTenor",
              "type": "uint48",
              "internalType": "uint48"
            },
            {
              "name": "metadataCID",
              "type": "string",
              "internalType": "string"
            }
          ]
        }
      ],
      "outputs": [
        {
          "name": "projectId",
          "type": "uint256",
          "internalType": "uint256"
        }
      ],
      "stateMutability": "nonpayable"
    },
    {
      "type": "function",
      "name": "depositEscrow",
      "inputs": [],
      "outputs": [
        {
          "name": "",
          "type": "address",
          "internalType": "contract IDeveloperDepositEscrow"
        }
      ],
      "stateMutability": "view"
    },
    {
      "type": "function",
      "name": "devEscrowImplementation",
      "inputs": [],
      "outputs": [
        {
          "name": "",
          "type": "address",
          "internalType": "address"
        }
      ],
      "stateMutability": "view"
    },
    {
      "type": "function",
      "name": "developerRegistry",
      "inputs": [],
      "outputs": [
        {
          "name": "",
          "type": "address",
          "internalType": "contract IDeveloperRegistry"
        }
      ],
      "stateMutability": "view"
    },
    {
      "type": "function",
      "name": "feeRouter",
      "inputs": [],
      "outputs": [
        {
          "name": "",
          "type": "address",
          "internalType": "contract IFeeRouter"
        }
      ],
      "stateMutability": "view"
    },
    {
      "type": "function",
      "name": "getRoleAdmin",
      "inputs": [
        {
          "name": "role",
          "type": "bytes32",
          "internalType": "bytes32"
        }
      ],
      "outputs": [
        {
          "name": "",
          "type": "bytes32",
          "internalType": "bytes32"
        }
      ],
      "stateMutability": "view"
    },
    {
      "type": "function",
      "name": "getRoleMember",
      "inputs": [
        {
          "name": "role",
          "type": "bytes32",
          "internalType": "bytes32"
        },
        {
          "name": "index",
          "type": "uint256",
          "internalType": "uint256"
        }
      ],
      "outputs": [
        {
          "name": "",
          "type": "address",
          "internalType": "address"
        }
      ],
      "stateMutability": "view"
    },
    {
      "type": "function",
      "name": "getRoleMemberCount",
      "inputs": [
        {
          "name": "role",
          "type": "bytes32",
          "internalType": "bytes32"
        }
      ],
      "outputs": [
        {
          "name": "",
          "type": "uint256",
          "internalType": "uint256"
        }
      ],
      "stateMutability": "view"
    },
    {
      "type": "function",
      "name": "getRoleMembers",
      "inputs": [
        {
          "name": "role",
          "type": "bytes32",
          "internalType": "bytes32"
        }
      ],
      "outputs": [
        {
          "name": "",
          "type": "address[]",
          "internalType": "address[]"
        }
      ],
      "stateMutability": "view"
    },
    {
      "type": "function",
      "name": "grantRole",
      "inputs": [
        {
          "name": "role",
          "type": "bytes32",
          "internalType": "bytes32"
        },
        {
          "name": "account",
          "type": "address",
          "internalType": "address"
        }
      ],
      "outputs": [],
      "stateMutability": "nonpayable"
    },
    {
      "type": "function",
      "name": "hasRole",
      "inputs": [
        {
          "name": "role",
          "type": "bytes32",
          "internalType": "bytes32"
        },
        {
          "name": "account",
          "type": "address",
          "internalType": "address"
        }
      ],
      "outputs": [
        {
          "name": "",
          "type": "bool",
          "internalType": "bool"
        }
      ],
      "stateMutability": "view"
    },
    {
      "type": "function",
      "name": "initialize",
      "inputs": [
        {
          "name": "_registry",
          "type": "address",
          "internalType": "address"
        },
        {
          "name": "_depositEscrow",
          "type": "address",
          "internalType": "address"
        },
        {
          "name": "_usdc",
          "type": "address",
          "internalType": "address"
        },
        {
          "name": "_initialAdmin",
          "type": "address",
          "internalType": "address"
        }
      ],
      "outputs": [],
      "stateMutability": "nonpayable"
    },
    {
      "type": "function",
      "name": "liquidityPoolManager",
      "inputs": [],
      "outputs": [
        {
          "name": "",
          "type": "address",
          "internalType": "contract ILiquidityPoolManager"
        }
      ],
      "stateMutability": "view"
    },
    {
      "type": "function",
      "name": "pause",
      "inputs": [],
      "outputs": [],
      "stateMutability": "nonpayable"
    },
    {
      "type": "function",
      "name": "paused",
      "inputs": [],
      "outputs": [
        {
          "name": "",
          "type": "bool",
          "internalType": "bool"
        }
      ],
      "stateMutability": "view"
    },
    {
      "type": "function",
      "name": "pauserAddress",
      "inputs": [],
      "outputs": [
        {
          "name": "",
          "type": "address",
          "internalType": "address"
        }
      ],
      "stateMutability": "view"
    },
    {
      "type": "function",
      "name": "projectCounter",
      "inputs": [],
      "outputs": [
        {
          "name": "",
          "type": "uint256",
          "internalType": "uint256"
        }
      ],
      "stateMutability": "view"
    },
    {
      "type": "function",
      "name": "proxiableUUID",
      "inputs": [],
      "outputs": [
        {
          "name": "",
          "type": "bytes32",
          "internalType": "bytes32"
        }
      ],
      "stateMutability": "view"
    },
    {
      "type": "function",
      "name": "renounceRole",
      "inputs": [
        {
          "name": "role",
          "type": "bytes32",
          "internalType": "bytes32"
        },
        {
          "name": "callerConfirmation",
          "type": "address",
          "internalType": "address"
        }
      ],
      "outputs": [],
      "stateMutability": "nonpayable"
    },
    {
      "type": "function",
      "name": "repaymentRouterAddress",
      "inputs": [],
      "outputs": [
        {
          "name": "",
          "type": "address",
          "internalType": "address"
        }
      ],
      "stateMutability": "view"
    },
    {
      "type": "function",
      "name": "revokeRole",
      "inputs": [
        {
          "name": "role",
          "type": "bytes32",
          "internalType": "bytes32"
        },
        {
          "name": "account",
          "type": "address",
          "internalType": "address"
        }
      ],
      "outputs": [],
      "stateMutability": "nonpayable"
    },
    {
      "type": "function",
      "name": "riskOracleAdapterAddress",
      "inputs": [],
      "outputs": [
        {
          "name": "",
          "type": "address",
          "internalType": "address"
        }
      ],
      "stateMutability": "view"
    },
    {
      "type": "function",
      "name": "setAddresses",
      "inputs": [
        {
          "name": "_poolManager",
          "type": "address",
          "internalType": "address"
        },
        {
          "name": "_vaultImpl",
          "type": "address",
          "internalType": "address"
        },
        {
          "name": "_escrowImpl",
          "type": "address",
          "internalType": "address"
        },
        {
          "name": "_repaymentRouter",
          "type": "address",
          "internalType": "address"
        },
        {
          "name": "_pauser",
          "type": "address",
          "internalType": "address"
        },
        {
          "name": "_admin",
          "type": "address",
          "internalType": "address"
        },
        {
          "name": "_riskOracleAdapter",
          "type": "address",
          "internalType": "address"
        },
        {
          "name": "_feeRouter",
          "type": "address",
          "internalType": "address"
        }
      ],
      "outputs": [],
      "stateMutability": "nonpayable"
    },
    {
      "type": "function",
      "name": "supportsInterface",
      "inputs": [
        {
          "name": "interfaceId",
          "type": "bytes4",
          "internalType": "bytes4"
        }
      ],
      "outputs": [
        {
          "name": "",
          "type": "bool",
          "internalType": "bool"
        }
      ],
      "stateMutability": "view"
    },
    {
      "type": "function",
      "name": "unpause",
      "inputs": [],
      "outputs": [],
      "stateMutability": "nonpayable"
    },
    {
      "type": "function",
      "name": "upgradeToAndCall",
      "inputs": [
        {
          "name": "newImplementation",
          "type": "address",
          "internalType": "address"
        },
        {
          "name": "data",
          "type": "bytes",
          "internalType": "bytes"
        }
      ],
      "outputs": [],
      "stateMutability": "payable"
    },
    {
      "type": "function",
      "name": "usdcToken",
      "inputs": [],
      "outputs": [
        {
          "name": "",
          "type": "address",
          "internalType": "contract IERC20"
        }
      ],
      "stateMutability": "view"
    },
    {
      "type": "function",
      "name": "vaultImplementation",
      "inputs": [],
      "outputs": [
        {
          "name": "",
          "type": "address",
          "internalType": "address"
        }
      ],
      "stateMutability": "view"
    },
    {
      "type": "event",
      "name": "AddressesSet",
      "inputs": [
        {
          "name": "poolManager",
          "type": "address",
          "indexed": false,
          "internalType": "address"
        },
        {
          "name": "vaultImpl",
          "type": "address",
          "indexed": false,
          "internalType": "address"
        },
        {
          "name": "escrowImpl",
          "type": "address",
          "indexed": false,
          "internalType": "address"
        },
        {
          "name": "repaymentRouter",
          "type": "address",
          "indexed": false,
          "internalType": "address"
        },
        {
          "name": "pauser",
          "type": "address",
          "indexed": false,
          "internalType": "address"
        },
        {
          "name": "admin",
          "type": "address",
          "indexed": false,
          "internalType": "address"
        },
        {
          "name": "riskOracleAdapter",
          "type": "address",
          "indexed": false,
          "internalType": "address"
        },
        {
          "name": "feeRouter",
          "type": "address",
          "indexed": false,
          "internalType": "address"
        }
      ],
      "anonymous": false
    },
    {
      "type": "event",
      "name": "Initialized",
      "inputs": [
        {
          "name": "version",
          "type": "uint64",
          "indexed": false,
          "internalType": "uint64"
        }
      ],
      "anonymous": false
    },
    {
      "type": "event",
      "name": "LowValueProjectSubmitted",
      "inputs": [
        {
          "name": "projectId",
          "type": "uint256",
          "indexed": true,
          "internalType": "uint256"
        },
        {
          "name": "developer",
          "type": "address",
          "indexed": true,
          "internalType": "address"
        },
        {
          "name": "poolId",
          "type": "uint256",
          "indexed": false,
          "internalType": "uint256"
        },
        {
          "name": "loanAmount",
          "type": "uint256",
          "indexed": false,
          "internalType": "uint256"
        },
        {
          "name": "success",
          "type": "bool",
          "indexed": false,
          "internalType": "bool"
        }
      ],
      "anonymous": false
    },
    {
      "type": "event",
      "name": "Paused",
      "inputs": [
        {
          "name": "account",
          "type": "address",
          "indexed": false,
          "internalType": "address"
        }
      ],
      "anonymous": false
    },
    {
      "type": "event",
      "name": "ProjectCreated",
      "inputs": [
        {
          "name": "projectId",
          "type": "uint256",
          "indexed": true,
          "internalType": "uint256"
        },
        {
          "name": "developer",
          "type": "address",
          "indexed": true,
          "internalType": "address"
        },
        {
          "name": "vaultAddress",
          "type": "address",
          "indexed": false,
          "internalType": "address"
        },
        {
          "name": "devEscrowAddress",
          "type": "address",
          "indexed": false,
          "internalType": "address"
        },
        {
          "name": "loanAmount",
          "type": "uint256",
          "indexed": false,
          "internalType": "uint256"
        }
      ],
      "anonymous": false
    },
    {
      "type": "event",
      "name": "RoleAdminChanged",
      "inputs": [
        {
          "name": "role",
          "type": "bytes32",
          "indexed": true,
          "internalType": "bytes32"
        },
        {
          "name": "previousAdminRole",
          "type": "bytes32",
          "indexed": true,
          "internalType": "bytes32"
        },
        {
          "name": "newAdminRole",
          "type": "bytes32",
          "indexed": true,
          "internalType": "bytes32"
        }
      ],
      "anonymous": false
    },
    {
      "type": "event",
      "name": "RoleGranted",
      "inputs": [
        {
          "name": "role",
          "type": "bytes32",
          "indexed": true,
          "internalType": "bytes32"
        },
        {
          "name": "account",
          "type": "address",
          "indexed": true,
          "internalType": "address"
        },
        {
          "name": "sender",
          "type": "address",
          "indexed": true,
          "internalType": "address"
        }
      ],
      "anonymous": false
    },
    {
      "type": "event",
      "name": "RoleRevoked",
      "inputs": [
        {
          "name": "role",
          "type": "bytes32",
          "indexed": true,
          "internalType": "bytes32"
        },
        {
          "name": "account",
          "type": "address",
          "indexed": true,
          "internalType": "address"
        },
        {
          "name": "sender",
          "type": "address",
          "indexed": true,
          "internalType": "address"
        }
      ],
      "anonymous": false
    },
    {
      "type": "event",
      "name": "Unpaused",
      "inputs": [
        {
          "name": "account",
          "type": "address",
          "indexed": false,
          "internalType": "address"
        }
      ],
      "anonymous": false
    },
    {
      "type": "event",
      "name": "Upgraded",
      "inputs": [
        {
          "name": "implementation",
          "type": "address",
          "indexed": true,
          "internalType": "address"
        }
      ],
      "anonymous": false
    },
    {
      "type": "error",
      "name": "AccessControlBadConfirmation",
      "inputs": []
    },
    {
      "type": "error",
      "name": "AccessControlUnauthorizedAccount",
      "inputs": [
        {
          "name": "account",
          "type": "address",
          "internalType": "address"
        },
        {
          "name": "neededRole",
          "type": "bytes32",
          "internalType": "bytes32"
        }
      ]
    },
    {
      "type": "error",
      "name": "AddressEmptyCode",
      "inputs": [
        {
          "name": "target",
          "type": "address",
          "internalType": "address"
        }
      ]
    },
    {
      "type": "error",
      "name": "AmountCannotBeZero",
      "inputs": []
    },
    {
      "type": "error",
      "name": "ERC1967InvalidImplementation",
      "inputs": [
        {
          "name": "implementation",
          "type": "address",
          "internalType": "address"
        }
      ]
    },
    {
      "type": "error",
      "name": "ERC1967NonPayable",
      "inputs": []
    },
    {
      "type": "error",
      "name": "EnforcedPause",
      "inputs": []
    },
    {
      "type": "error",
      "name": "ExpectedPause",
      "inputs": []
    },
    {
      "type": "error",
      "name": "FailedCall",
      "inputs": []
    },
    {
      "type": "error",
      "name": "FailedDeployment",
      "inputs": []
    },
    {
      "type": "error",
      "name": "InsufficientBalance",
      "inputs": [
        {
          "name": "balance",
          "type": "uint256",
          "internalType": "uint256"
        },
        {
          "name": "needed",
          "type": "uint256",
          "internalType": "uint256"
        }
      ]
    },
    {
      "type": "error",
      "name": "InvalidAmount",
      "inputs": [
        {
          "name": "amount",
          "type": "uint256",
          "internalType": "uint256"
        }
      ]
    },
    {
      "type": "error",
      "name": "InvalidInitialization",
      "inputs": []
    },
    {
      "type": "error",
      "name": "InvalidState",
      "inputs": [
        {
          "name": "reason",
          "type": "string",
          "internalType": "string"
        }
      ]
    },
    {
      "type": "error",
      "name": "InvalidValue",
      "inputs": [
        {
          "name": "reason",
          "type": "string",
          "internalType": "string"
        }
      ]
    },
    {
      "type": "error",
      "name": "NotInitialized",
      "inputs": []
    },
    {
      "type": "error",
      "name": "NotInitializing",
      "inputs": []
    },
    {
      "type": "error",
      "name": "NotVerified",
      "inputs": [
        {
          "name": "developer",
          "type": "address",
          "internalType": "address"
        }
      ]
    },
    {
      "type": "error",
      "name": "ReentrancyGuardReentrantCall",
      "inputs": []
    },
    {
      "type": "error",
      "name": "StringCannotBeEmpty",
      "inputs": []
    },
    {
      "type": "error",
      "name": "UUPSUnauthorizedCallContext",
      "inputs": []
    },
    {
      "type": "error",
      "name": "UUPSUnsupportedProxiableUUID",
      "inputs": [
        {
          "name": "slot",
          "type": "bytes32",
          "internalType": "bytes32"
        }
      ]
    },
    {
      "type": "error",
      "name": "ZeroAddressNotAllowed",
      "inputs": []
    }
  ],
  "bytecode": {
    "object": "0x60a0604052306080523480156012575f80fd5b506001600355608051613ae361003e5f395f81816115ad015281816115d601526117e80152613ae35ff3fe6080604052600436106101d0575f3560e01c80639010d07c116100fd578063d733cfd011610092578063f8a518ed11610062578063f8a518ed1461058a578063f8c8765e1461059f578063fc6f9468146105be578063fe60b45d146105dd575f80fd5b8063d733cfd01461050e578063deed8d041461052d578063f29ebf611461054c578063f7fb869b1461056b575f80fd5b8063ad3cb1cc116100cd578063ad3cb1cc1461045c578063bba48a90146104b1578063ca15c873146104d0578063d547741f146104ef575f80fd5b80639010d07c146103bc57806391d14854146103db578063a217fddf1461041d578063a3246ad314610430575f80fd5b80633c4afa701161017357806352d1902d1161014357806352d1902d1461035e5780635c975abb146103725780638456cb59146103895780638aa1c0dc1461039d575f80fd5b80633c4afa70146102f95780633f4ba83a146103185780634f01582c1461032c5780634f1ef2861461034b575f80fd5b8063171eb0ee116101ae578063171eb0ee1461025e578063248a9ca31461027d5780632f2ff15d146102b957806336568abe146102da575f80fd5b806301ffc9a7146101d4578063107d0be11461020857806311eac8551461023f575b5f80fd5b3480156101df575f80fd5b506101f36101ee366004612ef3565b6105fc565b60405190151581526020015b60405180910390f35b348015610213575f80fd5b50600454610227906001600160a01b031681565b6040516001600160a01b0390911681526020016101ff565b34801561024a575f80fd5b50600654610227906001600160a01b031681565b348015610269575f80fd5b50600a54610227906001600160a01b031681565b348015610288575f80fd5b506102ab610297366004612f32565b5f9081526020819052604090206001015490565b6040519081526020016101ff565b3480156102c4575f80fd5b506102d86102d3366004612f5f565b6106c6565b005b3480156102e5575f80fd5b506102d86102f4366004612f5f565b6106f0565b348015610304575f80fd5b506102ab610313366004612f89565b610741565b348015610323575f80fd5b506102d8610d63565b348015610337575f80fd5b50600e54610227906001600160a01b031681565b6102d861035936600461301a565b610d98565b348015610369575f80fd5b506102ab610db7565b34801561037d575f80fd5b5060025460ff166101f3565b348015610394575f80fd5b506102d8610de6565b3480156103a8575f80fd5b50600554610227906001600160a01b031681565b3480156103c7575f80fd5b506102276103d63660046130c3565b610e18565b3480156103e6575f80fd5b506101f36103f5366004612f5f565b5f918252602082815260408084206001600160a01b0393909316845291905290205460ff1690565b348015610428575f80fd5b506102ab5f81565b34801561043b575f80fd5b5061044f61044a366004612f32565b610e38565b6040516101ff91906130e3565b348015610467575f80fd5b506104a46040518060400160405280600581526020017f352e302e3000000000000000000000000000000000000000000000000000000081525081565b6040516101ff919061315c565b3480156104bc575f80fd5b50600954610227906001600160a01b031681565b3480156104db575f80fd5b506102ab6104ea366004612f32565b610e51565b3480156104fa575f80fd5b506102d8610509366004612f5f565b610e67565b348015610519575f80fd5b506102d861052836600461316e565b610e8b565b348015610538575f80fd5b50600b54610227906001600160a01b031681565b348015610557575f80fd5b50600854610227906001600160a01b031681565b348015610576575f80fd5b50600c54610227906001600160a01b031681565b348015610595575f80fd5b506102ab600f5481565b3480156105aa575f80fd5b506102d86105b9366004613200565b611051565b3480156105c9575f80fd5b50600d54610227906001600160a01b031681565b3480156105e8575f80fd5b50600754610227906001600160a01b031681565b5f7f8456cb591a934d53f6ccc6332123a165a1f3562907bf11330d847a29ca49eb897f3f4ba83af89dc9793996d9e56b8abe6dc88cd97c9c2bb23027806e9c1ffd54dc7fbb1d6363e20e842acf5a1fd64aa91f08697f8f559b94a3032a0414b5d5b4bf557f44e29c9d000000000000000000000000000000000000000000000000000000007fffffffff000000000000000000000000000000000000000000000000000000008616016106b457506001949350505050565b6106bd856112de565b95945050505050565b5f828152602081905260409020600101546106e081611333565b6106ea838361133d565b50505050565b6001600160a01b0381163314610732576040517f6697b23200000000000000000000000000000000000000000000000000000000815260040160405180910390fd5b61073c8282611370565b505050565b5f61074a61139b565b6107526113de565b81355f0361078c576040517fd11b25af00000000000000000000000000000000000000000000000000000000815260040160405180910390fd5b61079c6040830160208401613251565b65ffffffffffff165f03610811576040517f432f5b4a00000000000000000000000000000000000000000000000000000000815260206004820152601460248201527f54656e6f722063616e6e6f74206265207a65726f00000000000000000000000060448201526064015b60405180910390fd5b61081e6040830183613276565b90505f03610858576040517faabcb66800000000000000000000000000000000000000000000000000000000815260040160405180910390fd5b6004546001600160a01b0316158061087957506005546001600160a01b0316155b156108b0576040517f87138d5c00000000000000000000000000000000000000000000000000000000815260040160405180910390fd5b600480546040517fb9209e33000000000000000000000000000000000000000000000000000000008152339281018390526001600160a01b039091169063b9209e3390602401602060405180830381865afa158015610911573d5f803e3d5ffd5b505050506040513d601f19601f8201168201806040525081019061093591906132ed565b610976576040517fb12c8f910000000000000000000000000000000000000000000000000000000081526001600160a01b0382166004820152602401610808565b600f8054905f61098583613333565b9091555050600f54915082355f6127106109a16107d08461336a565b6109ab91906133ae565b90505f6109b882846133c1565b9050815f036109f5576040517f3728b83d0000000000000000000000000000000000000000000000000000000081525f6004820152602401610808565b6005546040517f7077a778000000000000000000000000000000000000000000000000000000008152600481018790526001600160a01b0386811660248301526044820185905290911690637077a778906064015f604051808303815f87803b158015610a60575f80fd5b505af1158015610a72573d5f803e3d5ffd5b505050506006600a610a8491906134f5565b610a909061c35061336a565b8310610aa857610aa3848688858561141d565b610cdb565b6007546001600160a01b0316610aea576040517f87138d5c00000000000000000000000000000000000000000000000000000000815260040160405180910390fd5b5f6040518060800160405280838152602001858152602001886020016020810190610b159190613251565b65ffffffffffff168152602001610b2f60408a018a613276565b8080601f0160208091040260200160405190810160405280939291908181526020018383808284375f9201829052509390945250506007546040517f7080b93800000000000000000000000000000000000000000000000000000000815293945090928392506001600160a01b0390911690637080b93890610bb9908b908b908890600401613503565b60408051808303815f875af1158015610bd4573d5f803e3d5ffd5b505050506040513d601f19601f82011682018060405250810190610bf89190613563565b915091508115610c89576005546040517f2d3bc857000000000000000000000000000000000000000000000000000000008152600481018a90526001600160a01b0390911690632d3bc857906024016020604051808303815f875af1158015610c63573d5f803e3d5ffd5b505050506040513d601f19601f82011682018060405250810190610c87919061358d565b505b60408051828152602081018690528315158183015290516001600160a01b038916918a917fbce4397d5ee101010266d0c0d2ee30af5a345bb6ba7212fd5569b24e4f8249679181900360600190a35050505b600480546040517f9962b5b50000000000000000000000000000000000000000000000000000000081526001600160a01b0387811693820193909352911690639962b5b5906024015f604051808303815f87803b158015610d3a575f80fd5b505af1158015610d4c573d5f803e3d5ffd5b5050505050505050610d5e6001600355565b919050565b7f65d7a28e3265b37a6474929f336521b332c1681b933f6cb9f3376673440d862a610d8d81611333565b610d95611532565b50565b610da06115a2565b610da982611672565b610db382826116dc565b5050565b5f610dc06117dd565b507f360894a13ba1a3210667c828492db98dca3e2076cc3735a920a3ca505d382bbc5b90565b7f65d7a28e3265b37a6474929f336521b332c1681b933f6cb9f3376673440d862a610e1081611333565b610d9561183f565b5f828152600160205260408120610e2f908361189a565b90505b92915050565b5f818152600160205260409020606090610e32906118a5565b5f818152600160205260408120610e32906118b8565b5f82815260208190526040902060010154610e8181611333565b6106ea8383611370565b5f610e9581611333565b6001600160a01b0389161580610eb257506001600160a01b038816155b80610ec457506001600160a01b038716155b80610ed657506001600160a01b038616155b80610ee857506001600160a01b038516155b80610efa57506001600160a01b038416155b80610f0c57506001600160a01b038216155b15610f43576040517f8579befe00000000000000000000000000000000000000000000000000000000815260040160405180910390fd5b600780546001600160a01b038b81167fffffffffffffffffffffffff00000000000000000000000000000000000000009283168117909355600980548c83169084168117909155600a80548c84169085168117909155600b80548c85169086168117909155600c80548c86169087168117909155600d80548c87169088168117909155600e80548c8816908916811790915560088054978c16979098168717909755604080519889526020890195909552938701929092526060860152608085015260a084015260c083019190915260e08201527faa71c48acfadc72fc01f3ba644fec57422ff4a3a067e751d63c688b8aab6312990610100015b60405180910390a1505050505050505050565b5f61105a6118c1565b805490915060ff68010000000000000000820416159067ffffffffffffffff165f811580156110865750825b90505f8267ffffffffffffffff1660011480156110a25750303b155b9050811580156110b0575080155b156110e7576040517ff92ee8a900000000000000000000000000000000000000000000000000000000815260040160405180910390fd5b84547fffffffffffffffffffffffffffffffffffffffffffffffff000000000000000016600117855583156111485784547fffffffffffffffffffffffffffffffffffffffffffffff00ffffffffffffffff16680100000000000000001785555b6001600160a01b038916158061116557506001600160a01b038816155b8061117757506001600160a01b038716155b8061118957506001600160a01b038616155b156111c0576040517f8579befe00000000000000000000000000000000000000000000000000000000815260040160405180910390fd5b600480546001600160a01b03808c167fffffffffffffffffffffffff000000000000000000000000000000000000000092831617909255600580548b841690831617905560068054928a169290911691909117905561121f5f8761133d565b5061124a7f65d7a28e3265b37a6474929f336521b332c1681b933f6cb9f3376673440d862a8761133d565b506112757f189ab7a9244df0848122154315af71fe140f3db0fe014031783b0946b8c9d2e38761133d565b5083156112d35784547fffffffffffffffffffffffffffffffffffffffffffffff00ffffffffffffffff168555604051600181527fc7f505b2f371ae2175ee4913f4499e1f2633a7b5936321eed1cdaeb6115181d29060200161103e565b505050505050505050565b5f7fffffffff0000000000000000000000000000000000000000000000000000000082167f5a05180f000000000000000000000000000000000000000000000000000000001480610e325750610e32826118e9565b610d95813361197f565b5f8061134984846119ea565b90508015610e2f575f8481526001602052604090206113689084611aaf565b509392505050565b5f8061137c8484611ac3565b90508015610e2f575f8481526001602052604090206113689084611b62565b6002600354036113d7576040517f3ee5aeb500000000000000000000000000000000000000000000000000000000815260040160405180910390fd5b6002600355565b60025460ff161561141b576040517fd93c066500000000000000000000000000000000000000000000000000000000815260040160405180910390fd5b565b611425611b76565b5f6040518060e00160405280876001600160a01b031681526020018681526020018381526020018481526020018560200160208101906114659190613251565b65ffffffffffff1681525f60208201819052604090910152905061148881611c1e565b6001600160a01b0390811660c08401521660a08201526114a781611e9d565b6114b281853561217b565b805f01516001600160a01b031681602001517f609811090a5d46b0f41071adda594666ab60dc11a6bb94fa6286d5d224864ea98360a001518460c001518560400151604051611522939291906001600160a01b039384168152919092166020820152604081019190915260600190565b60405180910390a3505050505050565b61153a61232b565b600280547fffffffffffffffffffffffffffffffffffffffffffffffffffffffffffffff001690557f5db9ee0a495bf2e6ff9c91a7834c1ba4fdd244a5e8aa4e537bd38aeae4b073aa335b6040516001600160a01b03909116815260200160405180910390a1565b306001600160a01b037f000000000000000000000000000000000000000000000000000000000000000016148061163b57507f00000000000000000000000000000000000000000000000000000000000000006001600160a01b031661162f7f360894a13ba1a3210667c828492db98dca3e2076cc3735a920a3ca505d382bbc546001600160a01b031690565b6001600160a01b031614155b1561141b576040517fe07c8dba00000000000000000000000000000000000000000000000000000000815260040160405180910390fd5b7f189ab7a9244df0848122154315af71fe140f3db0fe014031783b0946b8c9d2e361169c81611333565b6001600160a01b038216610db3576040517f8579befe00000000000000000000000000000000000000000000000000000000815260040160405180910390fd5b816001600160a01b03166352d1902d6040518163ffffffff1660e01b8152600401602060405180830381865afa925050508015611736575060408051601f3d908101601f191682019092526117339181019061358d565b60015b611777576040517f4c9c8ce30000000000000000000000000000000000000000000000000000000081526001600160a01b0383166004820152602401610808565b7f360894a13ba1a3210667c828492db98dca3e2076cc3735a920a3ca505d382bbc81146117d3576040517faa1d49a400000000000000000000000000000000000000000000000000000000815260048101829052602401610808565b61073c8383612367565b306001600160a01b037f0000000000000000000000000000000000000000000000000000000000000000161461141b576040517fe07c8dba00000000000000000000000000000000000000000000000000000000815260040160405180910390fd5b6118476113de565b600280547fffffffffffffffffffffffffffffffffffffffffffffffffffffffffffffff001660011790557f62e78cea01bee320cd4e420270b5ea74000d11b0c9f74754ebdbfc544b05a2586115853390565b5f610e2f83836123bc565b60605f6118b1836123e2565b9392505050565b5f610e32825490565b5f807ff0c57e16840df040f15088dc2f81fe391c3923bec73e23a9662efc9c229c6a00610e32565b5f7fffffffff0000000000000000000000000000000000000000000000000000000082167f7965db0b000000000000000000000000000000000000000000000000000000001480610e3257507f01ffc9a7000000000000000000000000000000000000000000000000000000007fffffffff00000000000000000000000000000000000000000000000000000000831614610e32565b5f828152602081815260408083206001600160a01b038516845290915290205460ff16610db3576040517fe2517d3f0000000000000000000000000000000000000000000000000000000081526001600160a01b038216600482015260248101839052604401610808565b5f828152602081815260408083206001600160a01b038516845290915281205460ff16611aa8575f838152602081815260408083206001600160a01b0386168452909152902080547fffffffffffffffffffffffffffffffffffffffffffffffffffffffffffffff00166001179055611a603390565b6001600160a01b0316826001600160a01b0316847f2f8788117e7eff1d82e926ec794901d17c78024a50270940304540a733656f0d60405160405180910390a4506001610e32565b505f610e32565b5f610e2f836001600160a01b03841661243b565b5f828152602081815260408083206001600160a01b038516845290915281205460ff1615611aa8575f838152602081815260408083206001600160a01b038616808552925280832080547fffffffffffffffffffffffffffffffffffffffffffffffffffffffffffffff0016905551339286917ff6391f5c32d9c69d2a47ea670b442974b53935d1edc7fd64eb21e047a839171b9190a4506001610e32565b5f610e2f836001600160a01b038416612480565b6009546001600160a01b03161580611b975750600a546001600160a01b0316155b80611bab5750600b546001600160a01b0316155b80611bbf5750600c546001600160a01b0316155b80611bd35750600d546001600160a01b0316155b80611be757506008546001600160a01b0316155b1561141b576040517f87138d5c00000000000000000000000000000000000000000000000000000000815260040160405180910390fd5b6009545f908190611c37906001600160a01b031661256a565b91506001600160a01b038216611ca9576040517f8c3685b800000000000000000000000000000000000000000000000000000000815260206004820152601260248201527f5661756c7420636c6f6e65206661696c656400000000000000000000000000006044820152606401610808565b611cbb835f0151838560400151612575565b6040805161018081018252600d546001600160a01b03908116825260065481166020808401919091528751821683850152818516606080850191909152600b5483166080808601919091529189015160a08501528885015160c085015288015160e084015287015165ffffffffffff166101008301525f6101208301526005548116610140830152600e54811661016083015291517fb367b11f000000000000000000000000000000000000000000000000000000008152929350919084169063b367b11f90611d8f9084906004016135a4565b5f604051808303815f87803b158015611da6575f80fd5b505af1925050508015611db7575060015b611e9757611dc36136ad565b806308c379a003611e335750611dd76136c5565b80611de25750611e35565b80604051602001611df39190613794565b60408051601f19818403018152908290527f08c379a00000000000000000000000000000000000000000000000000000000082526108089160040161315c565b505b6040517f8c3685b800000000000000000000000000000000000000000000000000000000815260206004820152601160248201527f5661756c7420696e6974206661696c65640000000000000000000000000000006044820152606401610808565b50915091565b60055460a08201516040517f2f2ff15d0000000000000000000000000000000000000000000000000000000081525f926001600160a01b031691632f2ff15d91611f1d917f88f3509f0e42391f2d94ebfb2a37cbd0782b1b8f73715330017f4663290b8117916004019182526001600160a01b0316602082015260400190565b5f604051808303815f87803b158015611f34575f80fd5b505af1925050508015611f45575060015b611fa257611f516136ad565b806308c379a003611f985750611f656136c5565b80611f705750611f9a565b611f9260405180606001604052806027815260200161399b6027913982612755565b50611fe9565b505b3d5f803e3d5ffd5b611fe56040518060400160405280601f81526020017f52454c45415345525f524f4c45206772616e74656420746f207661756c743a008152508360a001516127c8565b5060015b80612076576040517f8c3685b800000000000000000000000000000000000000000000000000000000815260206004820152602660248201527f4661696c656420746f206772616e742052454c45415345525f524f4c4520746f60448201527f207661756c7400000000000000000000000000000000000000000000000000006064820152608401610808565b600e546001600160a01b031615610db357600e54602083015160a08401516040517fb6ec0db300000000000000000000000000000000000000000000000000000000815260048101929092526001600160a01b0390811660248301525f60448301529091169063b6ec0db3906064015f604051808303815f87803b1580156120fc575f80fd5b505af192505050801561210d575060015b61215a576121196136ad565b806308c379a003611f98575061212d6136c5565b806121385750611f9a565b61073c6040518060600160405280603481526020016138f06034913982612755565b610db36040518060600160405280602b8152602001613a20602b913961283b565b600854602083015183516040517f850e63d40000000000000000000000000000000000000000000000000000000081526004810192909252602482018490526001600160a01b03908116604483015267ffffffffffffffff421660648301525f92169063850e63d4906084015f604051808303815f87803b1580156121fe575f80fd5b505af192505050801561220f575060015b6122625761221b6136ad565b806308c379a003611f98575061222f6136c5565b8061223a5750611f9a565b61225c6040518060600160405280602b81526020016138c5602b913982612755565b5061228c565b6122886040518060600160405280602f8152602001613a7f602f913984602001516128ac565b5060015b80612319576040517f8c3685b800000000000000000000000000000000000000000000000000000000815260206004820152602a60248201527f4661696c656420746f207365742070726f6a6563742064657461696c7320696e60448201527f20466565526f75746572000000000000000000000000000000000000000000006064820152608401610808565b6123228361291f565b61073c83612a75565b60025460ff1661141b576040517f8dfc202b00000000000000000000000000000000000000000000000000000000815260040160405180910390fd5b61237082612c06565b6040516001600160a01b038316907fbc7cd75a20ee27fd9adebab32041f755214dbc6bffa90cc0225b39da2e5c2d3b905f90a28051156123b45761073c8282612cad565b610db3612d16565b5f825f0182815481106123d1576123d16137c5565b905f5260205f200154905092915050565b6060815f0180548060200260200160405190810160405280929190818152602001828054801561242f57602002820191905f5260205f20905b81548152602001906001019080831161241b575b50505050509050919050565b5f818152600183016020526040812054611aa857508154600181810184555f848152602080822090930184905584548482528286019093526040902091909155610e32565b5f818152600183016020526040812054801561255a575f6124a26001836133c1565b85549091505f906124b5906001906133c1565b9050808214612514575f865f0182815481106124d3576124d36137c5565b905f5260205f200154905080875f0184815481106124f3576124f36137c5565b5f918252602080832090910192909255918252600188019052604090208390555b8554869080612525576125256137f2565b600190038181905f5260205f20015f90559055856001015f8681526020019081526020015f205f905560019350505050610e32565b5f915050610e32565b5092915050565b5f610e32825f612d4e565b600a545f90819061258e906001600160a01b031661256a565b90506001600160a01b038116612600576040517f8c3685b800000000000000000000000000000000000000000000000000000000815260206004820152601660248201527f446576457363726f7720636c6f6e65206661696c6564000000000000000000006044820152606401610808565b600654600c546040516001600160a01b039283166024820152878316604482015286831660648201526084810186905290821660a48201525f9183169060c40160408051601f198184030181529181526020820180517bffffffffffffffffffffffffffffffffffffffffffffffffffffffff167f530b97a400000000000000000000000000000000000000000000000000000000179052516126a3919061381f565b5f604051808303815f865af19150503d805f81146126dc576040519150601f19603f3d011682016040523d82523d5f602084013e6126e1565b606091505b505090508061274c576040517f8c3685b800000000000000000000000000000000000000000000000000000000815260206004820152601560248201527f446576457363726f7720696e6974206661696c656400000000000000000000006044820152606401610808565b50949350505050565b610db3828260405160240161276b92919061382a565b60408051601f198184030181529190526020810180517bffffffffffffffffffffffffffffffffffffffffffffffffffffffff167f4b5c427700000000000000000000000000000000000000000000000000000000179052612e14565b610db382826040516024016127de92919061384e565b60408051601f198184030181529190526020810180517bffffffffffffffffffffffffffffffffffffffffffffffffffffffff167f319af33300000000000000000000000000000000000000000000000000000000179052612e14565b610d958160405160240161284f919061315c565b60408051601f198184030181529190526020810180517bffffffffffffffffffffffffffffffffffffffffffffffffffffffff167f41304fac00000000000000000000000000000000000000000000000000000000179052612e14565b610db382826040516024016128c2929190613878565b60408051601f198184030181529190526020810180517bffffffffffffffffffffffffffffffffffffffffffffffffffffffff167fb60e72cc00000000000000000000000000000000000000000000000000000000179052612e14565b5f600782608001516129319190613899565b65ffffffffffff1690505f81156129555781836040015161295291906133ae565b90505b8015612a4f5760085460208401516040517f85548dbd000000000000000000000000000000000000000000000000000000008152600481019190915260016024820152604481018390526001600160a01b03909116906385548dbd906064015f604051808303815f87803b1580156129cb575f80fd5b505af19250505080156129dc575060015b612a29576129e86136ad565b806308c379a003611f9857506129fc6136c5565b80612a075750611f9a565b6106ea6040518060600160405280602e81526020016139f2602e913982612755565b61073c6040518060600160405280603281526020016139696032913984602001516128ac565b61073c6040518060800160405280604581526020016139246045913984602001516128ac565b600b54602082015160a08301516040517faaed1b7f00000000000000000000000000000000000000000000000000000000815260048101929092526001600160a01b0390811660248301525f6044830181905292169063aaed1b7f906064015f604051808303815f87803b158015612aeb575f80fd5b505af1925050508015612afc575060015b612b4f57612b086136ad565b806308c379a003611f985750612b1c6136c5565b80612b275750611f9a565b612b496040518060600160405280603081526020016139c26030913982612755565b50612b79565b612b75604051806060016040528060348152602001613a4b6034913983602001516128ac565b5060015b80610db3576040517f8c3685b800000000000000000000000000000000000000000000000000000000815260206004820152602f60248201527f4661696c656420746f207365742066756e64696e6720736f7572636520696e2060448201527f52657061796d656e74526f7574657200000000000000000000000000000000006064820152608401610808565b806001600160a01b03163b5f03612c54576040517f4c9c8ce30000000000000000000000000000000000000000000000000000000081526001600160a01b0382166004820152602401610808565b7f360894a13ba1a3210667c828492db98dca3e2076cc3735a920a3ca505d382bbc80547fffffffffffffffffffffffff0000000000000000000000000000000000000000166001600160a01b0392909216919091179055565b60605f80846001600160a01b031684604051612cc9919061381f565b5f60405180830381855af49150503d805f8114612d01576040519150601f19603f3d011682016040523d82523d5f602084013e612d06565b606091505b50915091506106bd858383612e1d565b341561141b576040517fb398979f00000000000000000000000000000000000000000000000000000000815260040160405180910390fd5b5f81471015612d92576040517fcf47918100000000000000000000000000000000000000000000000000000000815247600482015260248101839052604401610808565b763d602d80600a3d3981f3363d3d373d3d3d363d730000008360601b60e81c175f526e5af43d82803e903d91602b57fd5bf38360781b176020526037600983f090506001600160a01b038116610e32576040517fb06ebf3d00000000000000000000000000000000000000000000000000000000815260040160405180910390fd5b610d9581612e92565b606082612e3257612e2d82612eb1565b6118b1565b8151158015612e4957506001600160a01b0384163b155b15612e8b576040517f9996b3150000000000000000000000000000000000000000000000000000000081526001600160a01b0385166004820152602401610808565b50806118b1565b5f6a636f6e736f6c652e6c6f6790505f80835160208501845afa505050565b805115612ec15780518082602001fd5b6040517fd6bda27500000000000000000000000000000000000000000000000000000000815260040160405180910390fd5b5f60208284031215612f03575f80fd5b81357fffffffff0000000000000000000000000000000000000000000000000000000081168114610e2f575f80fd5b5f60208284031215612f42575f80fd5b5035919050565b80356001600160a01b0381168114610d5e575f80fd5b5f8060408385031215612f70575f80fd5b82359150612f8060208401612f49565b90509250929050565b5f60208284031215612f99575f80fd5b813567ffffffffffffffff811115612faf575f80fd5b820160608185031215610e2f575f80fd5b7f4e487b71000000000000000000000000000000000000000000000000000000005f52604160045260245ffd5b601f19601f830116810181811067ffffffffffffffff8211171561301357613013612fc0565b6040525050565b5f806040838503121561302b575f80fd5b61303483612f49565b9150602083013567ffffffffffffffff81111561304f575f80fd5b8301601f8101851361305f575f80fd5b803567ffffffffffffffff81111561307957613079612fc0565b6040516130906020601f19601f8501160182612fed565b8181528660208385010111156130a4575f80fd5b816020840160208301375f602083830101528093505050509250929050565b5f80604083850312156130d4575f80fd5b50508035926020909101359150565b602080825282518282018190525f918401906040840190835b818110156131235783516001600160a01b03168352602093840193909201916001016130fc565b509095945050505050565b5f81518084528060208401602086015e5f602082860101526020601f19601f83011685010191505092915050565b602081525f610e2f602083018461312e565b5f805f805f805f80610100898b031215613186575f80fd5b61318f89612f49565b975061319d60208a01612f49565b96506131ab60408a01612f49565b95506131b960608a01612f49565b94506131c760808a01612f49565b93506131d560a08a01612f49565b92506131e360c08a01612f49565b91506131f160e08a01612f49565b90509295985092959890939650565b5f805f8060808587031215613213575f80fd5b61321c85612f49565b935061322a60208601612f49565b925061323860408601612f49565b915061324660608601612f49565b905092959194509250565b5f60208284031215613261575f80fd5b813565ffffffffffff81168114610e2f575f80fd5b5f8083357fffffffffffffffffffffffffffffffffffffffffffffffffffffffffffffffe18436030181126132a9575f80fd5b83018035915067ffffffffffffffff8211156132c3575f80fd5b6020019150368190038213156132d7575f80fd5b9250929050565b80518015158114610d5e575f80fd5b5f602082840312156132fd575f80fd5b610e2f826132de565b7f4e487b71000000000000000000000000000000000000000000000000000000005f52601160045260245ffd5b5f7fffffffffffffffffffffffffffffffffffffffffffffffffffffffffffffffff820361336357613363613306565b5060010190565b8082028115828204841417610e3257610e32613306565b7f4e487b71000000000000000000000000000000000000000000000000000000005f52601260045260245ffd5b5f826133bc576133bc613381565b500490565b81810381811115610e3257610e32613306565b6001815b600184111561340f578085048111156133f3576133f3613306565b600184161561340157908102905b60019390931c9280026133d8565b935093915050565b5f8261342557506001610e32565b8161343157505f610e32565b816001811461344757600281146134515761346d565b6001915050610e32565b60ff84111561346257613462613306565b50506001821b610e32565b5060208310610133831016604e8410600b8410161715613490575081810a610e32565b6134bb7fffffffffffffffffffffffffffffffffffffffffffffffffffffffffffffffff84846133d4565b807fffffffffffffffffffffffffffffffffffffffffffffffffffffffffffffffff048211156134ed576134ed613306565b029392505050565b5f610e2f60ff841683613417565b8381526001600160a01b038316602082015260606040820152815160608201526020820151608082015265ffffffffffff60408301511660a08201525f6060830151608060c084015261355960e084018261312e565b9695505050505050565b5f8060408385031215613574575f80fd5b61357d836132de565b6020939093015192949293505050565b5f6020828403121561359d575f80fd5b5051919050565b81516001600160a01b03168152610180810160208301516135d060208401826001600160a01b03169052565b5060408301516135eb60408401826001600160a01b03169052565b50606083015161360660608401826001600160a01b03169052565b50608083015161362160808401826001600160a01b03169052565b5060a083015160a083015260c083015160c083015260e083015160e083015261010083015161365b61010084018265ffffffffffff169052565b5061012083015161367361012084018261ffff169052565b506101408301516136906101408401826001600160a01b03169052565b506101608301516125636101608401826001600160a01b03169052565b5f60033d1115610de35760045f803e505f5160e01c90565b5f60443d10156136d25790565b6040517ffffffffffffffffffffffffffffffffffffffffffffffffffffffffffffffffc3d016004823e80513d602482011167ffffffffffffffff8211171561371a57505090565b808201805167ffffffffffffffff811115613736575050505090565b7ffffffffffffffffffffffffffffffffffffffffffffffffffffffffffffffffc3d850101602082840101111561376e575050505090565b61136860208285010185612fed565b5f81518060208401855e5f93019283525090919050565b7f5661756c7420696e6974206661696c65643a200000000000000000000000000081525f610e2f601383018461377d565b7f4e487b71000000000000000000000000000000000000000000000000000000005f52603260045260245ffd5b7f4e487b71000000000000000000000000000000000000000000000000000000005f52603160045260245ffd5b5f610e2f828461377d565b604081525f61383c604083018561312e565b82810360208401526106bd818561312e565b604081525f613860604083018561312e565b90506001600160a01b03831660208301529392505050565b604081525f61388a604083018561312e565b90508260208301529392505050565b5f65ffffffffffff8316806138b0576138b0613381565b8065ffffffffffff8416049150509291505056fe4661696c656420746f207365742070726f6a6563742064657461696c7320696e20466565526f757465723a4661696c656420746f207265676973746572207661756c742077697468205269736b526174654f7261636c65416461707465723a536b697070696e672072657061796d656e74207363686564756c652064756520746f207a65726f207061796d656e7420616d6f756e7420666f722070726f6a65637449643a52657061796d656e74207363686564756c652073657420696e20466565526f7574657220666f722070726f6a65637449643a4661696c656420746f206772616e742052454c45415345525f524f4c4520746f207661756c743a4661696c656420746f207365742066756e64696e6720736f7572636520696e2052657061796d656e74526f757465723a4661696c656420746f207365742072657061796d656e74207363686564756c6520696e20466565526f757465723a5661756c7420726567697374657265642077697468205269736b526174654f7261636c654164617074657246756e64696e6720736f757263652073657420696e2052657061796d656e74526f7574657220666f722070726f6a65637449643a50726f6a6563742064657461696c732073657420696e20466565526f7574657220666f722070726f6a65637449643aa264697066735822122072c95290c378467df662cb3700875dd164f5493b0741a4a977f1f3c9e605c17c64736f6c634300081a0033",
    "linkReferences": {}
  },
  "methodIdentifiers": {
    "DEFAULT_ADMIN_ROLE()": "a217fddf",
    "UPGRADE_INTERFACE_VERSION()": "ad3cb1cc",
    "adminAddress()": "fc6f9468",
    "createProject((uint256,uint48,string))": "3c4afa70",
    "depositEscrow()": "8aa1c0dc",
    "devEscrowImplementation()": "171eb0ee",
    "developerRegistry()": "107d0be1",
    "feeRouter()": "f29ebf61",
    "getRoleAdmin(bytes32)": "248a9ca3",
    "getRoleMember(bytes32,uint256)": "9010d07c",
    "getRoleMemberCount(bytes32)": "ca15c873",
    "getRoleMembers(bytes32)": "a3246ad3",
    "grantRole(bytes32,address)": "2f2ff15d",
    "hasRole(bytes32,address)": "91d14854",
    "initialize(address,address,address,address)": "f8c8765e",
    "liquidityPoolManager()": "fe60b45d",
    "pause()": "8456cb59",
    "paused()": "5c975abb",
    "pauserAddress()": "f7fb869b",
    "projectCounter()": "f8a518ed",
    "proxiableUUID()": "52d1902d",
    "renounceRole(bytes32,address)": "36568abe",
    "repaymentRouterAddress()": "deed8d04",
    "revokeRole(bytes32,address)": "d547741f",
    "riskOracleAdapterAddress()": "4f01582c",
    "setAddresses(address,address,address,address,address,address,address,address)": "d733cfd0",
    "supportsInterface(bytes4)": "01ffc9a7",
    "unpause()": "3f4ba83a",
    "upgradeToAndCall(address,bytes)": "4f1ef286",
    "usdcToken()": "11eac855",
    "vaultImplementation()": "bba48a90"
  },
  "id": 78
}