{
  "abi": [
    {
      "type": "constructor",
      "inputs": [
        {
          "name": "_admin",
          "type": "address",
          "internalType": "address"
        },
        {
          "name": "_usdcToken",
          "type": "address",
          "internalType": "address"
        },
        {
          "name": "_feeRouter",
          "type": "address",
          "internalType": "address"
        }
      ],
      "stateMutability": "nonpayable"
    },
    {
      "type": "function",
      "name": "DEFAULT_ADMIN_ROLE",
      "inputs": [],
      "outputs": [
        {
          "name": "",
          "type": "bytes32",
          "internalType": "bytes32"
        }
      ],
      "stateMutability": "view"
    },
    {
      "type": "function",
      "name": "feeRouter",
      "inputs": [],
      "outputs": [
        {
          "name": "",
          "type": "address",
          "internalType": "contract IFeeRouter"
        }
      ],
      "stateMutability": "view"
    },
    {
      "type": "function",
      "name": "getFundingSource",
      "inputs": [
        {
          "name": "projectId",
          "type": "uint256",
          "internalType": "uint256"
        }
      ],
      "outputs": [
        {
          "name": "",
          "type": "address",
          "internalType": "address"
        }
      ],
      "stateMutability": "view"
    },
    {
      "type": "function",
      "name": "getPoolId",
      "inputs": [
        {
          "name": "projectId",
          "type": "uint256",
          "internalType": "uint256"
        }
      ],
      "outputs": [
        {
          "name": "",
          "type": "uint256",
          "internalType": "uint256"
        }
      ],
      "stateMutability": "view"
    },
    {
      "type": "function",
      "name": "getRoleAdmin",
      "inputs": [
        {
          "name": "role",
          "type": "bytes32",
          "internalType": "bytes32"
        }
      ],
      "outputs": [
        {
          "name": "",
          "type": "bytes32",
          "internalType": "bytes32"
        }
      ],
      "stateMutability": "view"
    },
    {
      "type": "function",
      "name": "getRoleMember",
      "inputs": [
        {
          "name": "role",
          "type": "bytes32",
          "internalType": "bytes32"
        },
        {
          "name": "index",
          "type": "uint256",
          "internalType": "uint256"
        }
      ],
      "outputs": [
        {
          "name": "",
          "type": "address",
          "internalType": "address"
        }
      ],
      "stateMutability": "view"
    },
    {
      "type": "function",
      "name": "getRoleMemberCount",
      "inputs": [
        {
          "name": "role",
          "type": "bytes32",
          "internalType": "bytes32"
        }
      ],
      "outputs": [
        {
          "name": "",
          "type": "uint256",
          "internalType": "uint256"
        }
      ],
      "stateMutability": "view"
    },
    {
      "type": "function",
      "name": "getRoleMembers",
      "inputs": [
        {
          "name": "role",
          "type": "bytes32",
          "internalType": "bytes32"
        }
      ],
      "outputs": [
        {
          "name": "",
          "type": "address[]",
          "internalType": "address[]"
        }
      ],
      "stateMutability": "view"
    },
    {
      "type": "function",
      "name": "grantRole",
      "inputs": [
        {
          "name": "role",
          "type": "bytes32",
          "internalType": "bytes32"
        },
        {
          "name": "account",
          "type": "address",
          "internalType": "address"
        }
      ],
      "outputs": [],
      "stateMutability": "nonpayable"
    },
    {
      "type": "function",
      "name": "hasRole",
      "inputs": [
        {
          "name": "role",
          "type": "bytes32",
          "internalType": "bytes32"
        },
        {
          "name": "account",
          "type": "address",
          "internalType": "address"
        }
      ],
      "outputs": [
        {
          "name": "",
          "type": "bool",
          "internalType": "bool"
        }
      ],
      "stateMutability": "view"
    },
    {
      "type": "function",
      "name": "pause",
      "inputs": [],
      "outputs": [],
      "stateMutability": "nonpayable"
    },
    {
      "type": "function",
      "name": "paused",
      "inputs": [],
      "outputs": [
        {
          "name": "",
          "type": "bool",
          "internalType": "bool"
        }
      ],
      "stateMutability": "view"
    },
    {
      "type": "function",
      "name": "projectFundingSource",
      "inputs": [
        {
          "name": "",
          "type": "uint256",
          "internalType": "uint256"
        }
      ],
      "outputs": [
        {
          "name": "",
          "type": "address",
          "internalType": "address"
        }
      ],
      "stateMutability": "view"
    },
    {
      "type": "function",
      "name": "projectPoolId",
      "inputs": [
        {
          "name": "",
          "type": "uint256",
          "internalType": "uint256"
        }
      ],
      "outputs": [
        {
          "name": "",
          "type": "uint256",
          "internalType": "uint256"
        }
      ],
      "stateMutability": "view"
    },
    {
      "type": "function",
      "name": "renounceRole",
      "inputs": [
        {
          "name": "role",
          "type": "bytes32",
          "internalType": "bytes32"
        },
        {
          "name": "callerConfirmation",
          "type": "address",
          "internalType": "address"
        }
      ],
      "outputs": [],
      "stateMutability": "nonpayable"
    },
    {
      "type": "function",
      "name": "repay",
      "inputs": [
        {
          "name": "projectId",
          "type": "uint256",
          "internalType": "uint256"
        },
        {
          "name": "amount",
          "type": "uint256",
          "internalType": "uint256"
        }
      ],
      "outputs": [],
      "stateMutability": "nonpayable"
    },
    {
      "type": "function",
      "name": "revokeRole",
      "inputs": [
        {
          "name": "role",
          "type": "bytes32",
          "internalType": "bytes32"
        },
        {
          "name": "account",
          "type": "address",
          "internalType": "address"
        }
      ],
      "outputs": [],
      "stateMutability": "nonpayable"
    },
    {
      "type": "function",
      "name": "setFundingSource",
      "inputs": [
        {
          "name": "projectId",
          "type": "uint256",
          "internalType": "uint256"
        },
        {
          "name": "fundingSource",
          "type": "address",
          "internalType": "address"
        },
        {
          "name": "poolId",
          "type": "uint256",
          "internalType": "uint256"
        }
      ],
      "outputs": [],
      "stateMutability": "nonpayable"
    },
    {
      "type": "function",
      "name": "supportsInterface",
      "inputs": [
        {
          "name": "interfaceId",
          "type": "bytes4",
          "internalType": "bytes4"
        }
      ],
      "outputs": [
        {
          "name": "",
          "type": "bool",
          "internalType": "bool"
        }
      ],
      "stateMutability": "view"
    },
    {
      "type": "function",
      "name": "unpause",
      "inputs": [],
      "outputs": [],
      "stateMutability": "nonpayable"
    },
    {
      "type": "function",
      "name": "usdcToken",
      "inputs": [],
      "outputs": [
        {
          "name": "",
          "type": "address",
          "internalType": "contract IERC20"
        }
      ],
      "stateMutability": "view"
    },
    {
      "type": "event",
      "name": "FundingSourceSet",
      "inputs": [
        {
          "name": "projectId",
          "type": "uint256",
          "indexed": true,
          "internalType": "uint256"
        },
        {
          "name": "fundingSource",
          "type": "address",
          "indexed": true,
          "internalType": "address"
        },
        {
          "name": "poolId",
          "type": "uint256",
          "indexed": false,
          "internalType": "uint256"
        },
        {
          "name": "setter",
          "type": "address",
          "indexed": true,
          "internalType": "address"
        }
      ],
      "anonymous": false
    },
    {
      "type": "event",
      "name": "Paused",
      "inputs": [
        {
          "name": "account",
          "type": "address",
          "indexed": false,
          "internalType": "address"
        }
      ],
      "anonymous": false
    },
    {
      "type": "event",
      "name": "RepaymentRouted",
      "inputs": [
        {
          "name": "projectId",
          "type": "uint256",
          "indexed": true,
          "internalType": "uint256"
        },
        {
          "name": "payer",
          "type": "address",
          "indexed": true,
          "internalType": "address"
        },
        {
          "name": "totalAmountRepaid",
          "type": "uint256",
          "indexed": false,
          "internalType": "uint256"
        },
        {
          "name": "feeAmount",
          "type": "uint256",
          "indexed": false,
          "internalType": "uint256"
        },
        {
          "name": "principalAmount",
          "type": "uint256",
          "indexed": false,
          "internalType": "uint256"
        },
        {
          "name": "interestAmount",
          "type": "uint256",
          "indexed": false,
          "internalType": "uint256"
        },
        {
          "name": "fundingSource",
          "type": "address",
          "indexed": true,
          "internalType": "address"
        }
      ],
      "anonymous": false
    },
    {
      "type": "event",
      "name": "RoleAdminChanged",
      "inputs": [
        {
          "name": "role",
          "type": "bytes32",
          "indexed": true,
          "internalType": "bytes32"
        },
        {
          "name": "previousAdminRole",
          "type": "bytes32",
          "indexed": true,
          "internalType": "bytes32"
        },
        {
          "name": "newAdminRole",
          "type": "bytes32",
          "indexed": true,
          "internalType": "bytes32"
        }
      ],
      "anonymous": false
    },
    {
      "type": "event",
      "name": "RoleGranted",
      "inputs": [
        {
          "name": "role",
          "type": "bytes32",
          "indexed": true,
          "internalType": "bytes32"
        },
        {
          "name": "account",
          "type": "address",
          "indexed": true,
          "internalType": "address"
        },
        {
          "name": "sender",
          "type": "address",
          "indexed": true,
          "internalType": "address"
        }
      ],
      "anonymous": false
    },
    {
      "type": "event",
      "name": "RoleRevoked",
      "inputs": [
        {
          "name": "role",
          "type": "bytes32",
          "indexed": true,
          "internalType": "bytes32"
        },
        {
          "name": "account",
          "type": "address",
          "indexed": true,
          "internalType": "address"
        },
        {
          "name": "sender",
          "type": "address",
          "indexed": true,
          "internalType": "address"
        }
      ],
      "anonymous": false
    },
    {
      "type": "event",
      "name": "Unpaused",
      "inputs": [
        {
          "name": "account",
          "type": "address",
          "indexed": false,
          "internalType": "address"
        }
      ],
      "anonymous": false
    },
    {
      "type": "error",
      "name": "AccessControlBadConfirmation",
      "inputs": []
    },
    {
      "type": "error",
      "name": "AccessControlUnauthorizedAccount",
      "inputs": [
        {
          "name": "account",
          "type": "address",
          "internalType": "address"
        },
        {
          "name": "neededRole",
          "type": "bytes32",
          "internalType": "bytes32"
        }
      ]
    },
    {
      "type": "error",
      "name": "AmountCannotBeZero",
      "inputs": []
    },
    {
      "type": "error",
      "name": "EnforcedPause",
      "inputs": []
    },
    {
      "type": "error",
      "name": "ExpectedPause",
      "inputs": []
    },
    {
      "type": "error",
      "name": "InvalidValue",
      "inputs": [
        {
          "name": "reason",
          "type": "string",
          "internalType": "string"
        }
      ]
    },
    {
      "type": "error",
      "name": "ReentrancyGuardReentrantCall",
      "inputs": []
    },
    {
      "type": "error",
      "name": "SafeERC20FailedOperation",
      "inputs": [
        {
          "name": "token",
          "type": "address",
          "internalType": "address"
        }
      ]
    },
    {
      "type": "error",
      "name": "ZeroAddressNotAllowed",
      "inputs": []
    }
  ],
  "bytecode": {
    "object": "0x60c060405234801561000f575f80fd5b5060405161217338038061217383398101604081905261002e9161021d565b60016003556001600160a01b038316158061005057506001600160a01b038216155b8061006257506001600160a01b038116155b15610080576040516342bcdf7f60e11b815260040160405180910390fd5b6001600160a01b03808316608052811660a05261009d5f846100d1565b506100c87f65d7a28e3265b37a6474929f336521b332c1681b933f6cb9f3376673440d862a846100d1565b5050505061025d565b5f806100dd8484610107565b905080156100fe575f8481526001602052604090206100fc90846101ae565b505b90505b92915050565b5f828152602081815260408083206001600160a01b038516845290915281205460ff166101a7575f838152602081815260408083206001600160a01b03861684529091529020805460ff1916600117905561015f3390565b6001600160a01b0316826001600160a01b0316847f2f8788117e7eff1d82e926ec794901d17c78024a50270940304540a733656f0d60405160405180910390a4506001610101565b505f610101565b5f6100fe836001600160a01b0384165f8181526001830160205260408120546101a757508154600181810184555f848152602080822090930184905584548482528286019093526040902091909155610101565b80516001600160a01b0381168114610218575f80fd5b919050565b5f805f6060848603121561022f575f80fd5b61023884610202565b925061024660208501610202565b915061025460408501610202565b90509250925092565b60805160a051611ea86102cb5f395f81816103cf015281816108ea01528181610a4e01528181610b1f01528181610b7301528181610c0c01528181610d5101528181610da50152610e3e01525f818161019f0152818161089101528181610afd0152610d2f0152611ea85ff3fe608060405234801561000f575f80fd5b506004361061016e575f3560e01c806391d14854116100d2578063ca15c87311610088578063d8aed14511610063578063d8aed14514610398578063e7ef0fdc146103ab578063f29ebf61146103ca575f80fd5b8063ca15c8731461033d578063d5449fbe14610350578063d547741f14610385575f80fd5b8063a3246ad3116100b8578063a3246ad3146102eb578063aaed1b7f1461030b578063bcfaa30e1461031e575f80fd5b806391d14854146102a1578063a217fddf146102e4575f80fd5b80633f4ba83a11610127578063771212b91161010d578063771212b9146102515780638456cb59146102865780639010d07c1461028e575f80fd5b80633f4ba83a1461023e5780635c975abb14610246575f80fd5b8063248a9ca311610157578063248a9ca3146101e65780632f2ff15d1461021657806336568abe1461022b575f80fd5b806301ffc9a71461017257806311eac8551461019a575b5f80fd5b610185610180366004611a06565b6103f1565b60405190151581526020015b60405180910390f35b6101c17f000000000000000000000000000000000000000000000000000000000000000081565b60405173ffffffffffffffffffffffffffffffffffffffff9091168152602001610191565b6102086101f4366004611a45565b5f9081526020819052604090206001015490565b604051908152602001610191565b610229610224366004611a84565b6104bb565b005b610229610239366004611a84565b6104e5565b610229610543565b60025460ff16610185565b6101c161025f366004611a45565b5f9081526004602052604090205473ffffffffffffffffffffffffffffffffffffffff1690565b610229610578565b6101c161029c366004611aae565b6105aa565b6101856102af366004611a84565b5f9182526020828152604080842073ffffffffffffffffffffffffffffffffffffffff93909316845291905290205460ff1690565b6102085f81565b6102fe6102f9366004611a45565b6105ca565b6040516101919190611ace565b610229610319366004611b26565b6105e3565b61020861032c366004611a45565b60056020525f908152604090205481565b61020861034b366004611a45565b61073c565b6101c161035e366004611a45565b60046020525f908152604090205473ffffffffffffffffffffffffffffffffffffffff1681565b610229610393366004611a84565b610752565b6102296103a6366004611aae565b610776565b6102086103b9366004611a45565b5f9081526005602052604090205490565b6101c17f000000000000000000000000000000000000000000000000000000000000000081565b5f7f8456cb591a934d53f6ccc6332123a165a1f3562907bf11330d847a29ca49eb897f3f4ba83af89dc9793996d9e56b8abe6dc88cd97c9c2bb23027806e9c1ffd54dc7fbb1d6363e20e842acf5a1fd64aa91f08697f8f559b94a3032a0414b5d5b4bf557f44e29c9d000000000000000000000000000000000000000000000000000000007fffffffff000000000000000000000000000000000000000000000000000000008616016104a957506001949350505050565b6104b285611170565b95945050505050565b5f828152602081905260409020600101546104d5816111c5565b6104df83836111cf565b50505050565b73ffffffffffffffffffffffffffffffffffffffff81163314610534576040517f6697b23200000000000000000000000000000000000000000000000000000000815260040160405180910390fd5b61053e8282611202565b505050565b7f65d7a28e3265b37a6474929f336521b332c1681b933f6cb9f3376673440d862a61056d816111c5565b61057561122d565b50565b7f65d7a28e3265b37a6474929f336521b332c1681b933f6cb9f3376673440d862a6105a2816111c5565b6105756112aa565b5f8281526001602052604081206105c19083611305565b90505b92915050565b5f8181526001602052604090206060906105c490611310565b7f42847befda217a8205614b97eeba0062d90a739902cf3467520ceec14471153961060d816111c5565b73ffffffffffffffffffffffffffffffffffffffff831661065a576040517f8579befe00000000000000000000000000000000000000000000000000000000815260040160405180910390fd5b5f84815260046020526040902080547fffffffffffffffffffffffff00000000000000000000000000000000000000001673ffffffffffffffffffffffffffffffffffffffff851617905581156106c0575f8481526005602052604090208290556106cf565b5f848152600560205260408120555b3373ffffffffffffffffffffffffffffffffffffffff168373ffffffffffffffffffffffffffffffffffffffff16857ee8dab5729ebe0339cee67446518f213eecf9fac7081abbcdc1d63a868b75c28560405161072e91815260200190565b60405180910390a450505050565b5f8181526001602052604081206105c490611323565b5f8281526020819052604090206001015461076c816111c5565b6104df8383611202565b61077e61132c565b61078661136f565b805f036107bf576040517fd11b25af00000000000000000000000000000000000000000000000000000000815260040160405180910390fd5b5f8281526004602052604090205473ffffffffffffffffffffffffffffffffffffffff1680610875576040517f432f5b4a00000000000000000000000000000000000000000000000000000000815260206004820152602260248201527f46756e64696e6720736f75726365206e6f742073657420666f722070726f6a6560448201527f637400000000000000000000000000000000000000000000000000000000000060648201526084015b60405180910390fd5b80336108b973ffffffffffffffffffffffffffffffffffffffff7f0000000000000000000000000000000000000000000000000000000000000000168230876113ae565b6040517fd223521d000000000000000000000000000000000000000000000000000000008152600481018590525f907f000000000000000000000000000000000000000000000000000000000000000073ffffffffffffffffffffffffffffffffffffffff169063d223521d90602401602060405180830381865afa158015610944573d5f803e3d5ffd5b505050506040513d601f19601f820116820180604052508101906109689190611b59565b5f878152600560205260408082205490517f2d6af4d50000000000000000000000000000000000000000000000000000000081526004810191909152602481018990529192509073ffffffffffffffffffffffffffffffffffffffff851690632d6af4d590604401602060405180830381865afa1580156109eb573d5f803e3d5ffd5b505050506040513d601f19601f82011682018060405250810190610a0f9190611b59565b90505f8115610acf576040517f835e9eb400000000000000000000000000000000000000000000000000000000815260048101899052602481018390527f000000000000000000000000000000000000000000000000000000000000000073ffffffffffffffffffffffffffffffffffffffff169063835e9eb490604401602060405180830381865afa158015610aa8573d5f803e3d5ffd5b505050506040513d601f19601f82011682018060405250810190610acc9190611b59565b90505b5f610ada8285611b9d565b9050878110610d0857610b4473ffffffffffffffffffffffffffffffffffffffff7f0000000000000000000000000000000000000000000000000000000000000000167f00000000000000000000000000000000000000000000000000000000000000008a611437565b6040517f767d279b000000000000000000000000000000000000000000000000000000008152600481018990527f000000000000000000000000000000000000000000000000000000000000000073ffffffffffffffffffffffffffffffffffffffff169063767d279b906024015f604051808303815f87803b158015610bc9575f80fd5b505af1158015610bdb573d5f803e3d5ffd5b50506040517f32f7a37f000000000000000000000000000000000000000000000000000000008152600481018c90527f000000000000000000000000000000000000000000000000000000000000000073ffffffffffffffffffffffffffffffffffffffff1692506332f7a37f91506024015f604051808303815f87803b158015610c64575f80fd5b505af1158015610c76573d5f803e3d5ffd5b505050508673ffffffffffffffffffffffffffffffffffffffff168573ffffffffffffffffffffffffffffffffffffffff168a7fc4c2537307ee2181469ea3e2b6811cb4df9e4ae60864bd5fab335bca539c58cc8b8c5f80604051610cf4949392919093845260208401929092526040830152606082015260800190565b60405180910390a450505050505050611162565b5f610d13828a611bb0565b9050610d7673ffffffffffffffffffffffffffffffffffffffff7f0000000000000000000000000000000000000000000000000000000000000000167f000000000000000000000000000000000000000000000000000000000000000084611437565b6040517f767d279b000000000000000000000000000000000000000000000000000000008152600481018390527f000000000000000000000000000000000000000000000000000000000000000073ffffffffffffffffffffffffffffffffffffffff169063767d279b906024015f604051808303815f87803b158015610dfb575f80fd5b505af1158015610e0d573d5f803e3d5ffd5b50506040517f32f7a37f000000000000000000000000000000000000000000000000000000008152600481018d90527f000000000000000000000000000000000000000000000000000000000000000073ffffffffffffffffffffffffffffffffffffffff1692506332f7a37f91506024015f604051808303815f87803b158015610e96575f80fd5b505af1158015610ea8573d5f803e3d5ffd5b5050505f8b8152600560205260408082205490517f496179ac00000000000000000000000000000000000000000000000000000000815260048101829052602481018e905260448101859052919250829173ffffffffffffffffffffffffffffffffffffffff8b169063496179ac9060640160408051808303815f875af1925050508015610f71575060408051601f3d9081017fffffffffffffffffffffffffffffffffffffffffffffffffffffffffffffffe0168201909252610f6e91810190611bc3565b60015b61104d57610f7d611be5565b806308c379a00361100b5750610f91611c6e565b80610f9c575061100d565b80604051602001610fad9190611d3d565b604080517fffffffffffffffffffffffffffffffffffffffffffffffffffffffffffffffe0818403018152908290527f08c379a000000000000000000000000000000000000000000000000000000000825261086c91600401611d6e565b505b3d808015611036576040519150601f19603f3d011682016040523d82523d5f602084013e61103b565b606091505b5080604051602001610fad9190611dc1565b909350915082828561105f8284611b9d565b11156110ed576040517f432f5b4a00000000000000000000000000000000000000000000000000000000815260206004820152603260248201527f54617267657420636f6e74726163742072657061796d656e742073706c69742060448201527f65786365656473206e657420616d6f756e740000000000000000000000000000606482015260840161086c565b5050604080518d8152602081018790529081018490526060810183905273ffffffffffffffffffffffffffffffffffffffff808d1691908b16908f907fc4c2537307ee2181469ea3e2b6811cb4df9e4ae60864bd5fab335bca539c58cc9060800160405180910390a450505050505050505050505b61116c6001600355565b5050565b5f7fffffffff0000000000000000000000000000000000000000000000000000000082167f5a05180f0000000000000000000000000000000000000000000000000000000014806105c457506105c482611475565b610575813361150b565b5f806111db8484611590565b905080156105c1575f8481526001602052604090206111fa9084611689565b509392505050565b5f8061120e84846116aa565b905080156105c1575f8481526001602052604090206111fa9084611763565b611235611784565b600280547fffffffffffffffffffffffffffffffffffffffffffffffffffffffffffffff001690557f5db9ee0a495bf2e6ff9c91a7834c1ba4fdd244a5e8aa4e537bd38aeae4b073aa335b60405173ffffffffffffffffffffffffffffffffffffffff909116815260200160405180910390a1565b6112b261136f565b600280547fffffffffffffffffffffffffffffffffffffffffffffffffffffffffffffff001660011790557f62e78cea01bee320cd4e420270b5ea74000d11b0c9f74754ebdbfc544b05a2586112803390565b5f6105c183836117c0565b60605f61131c836117e6565b9392505050565b5f6105c4825490565b600260035403611368576040517f3ee5aeb500000000000000000000000000000000000000000000000000000000815260040160405180910390fd5b6002600355565b60025460ff16156113ac576040517fd93c066500000000000000000000000000000000000000000000000000000000815260040160405180910390fd5b565b60405173ffffffffffffffffffffffffffffffffffffffff84811660248301528381166044830152606482018390526104df9186918216906323b872dd906084015b604051602081830303815290604052915060e01b6020820180517bffffffffffffffffffffffffffffffffffffffffffffffffffffffff838183161783525050505061183f565b60405173ffffffffffffffffffffffffffffffffffffffff83811660248301526044820183905261053e91859182169063a9059cbb906064016113f0565b5f7fffffffff0000000000000000000000000000000000000000000000000000000082167f7965db0b0000000000000000000000000000000000000000000000000000000014806105c457507f01ffc9a7000000000000000000000000000000000000000000000000000000007fffffffff000000000000000000000000000000000000000000000000000000008316146105c4565b5f8281526020818152604080832073ffffffffffffffffffffffffffffffffffffffff8516845290915290205460ff1661116c576040517fe2517d3f00000000000000000000000000000000000000000000000000000000815273ffffffffffffffffffffffffffffffffffffffff821660048201526024810183905260440161086c565b5f8281526020818152604080832073ffffffffffffffffffffffffffffffffffffffff8516845290915281205460ff16611682575f8381526020818152604080832073ffffffffffffffffffffffffffffffffffffffff86168452909152902080547fffffffffffffffffffffffffffffffffffffffffffffffffffffffffffffff001660011790556116203390565b73ffffffffffffffffffffffffffffffffffffffff168273ffffffffffffffffffffffffffffffffffffffff16847f2f8788117e7eff1d82e926ec794901d17c78024a50270940304540a733656f0d60405160405180910390a45060016105c4565b505f6105c4565b5f6105c18373ffffffffffffffffffffffffffffffffffffffff84166118de565b5f8281526020818152604080832073ffffffffffffffffffffffffffffffffffffffff8516845290915281205460ff1615611682575f8381526020818152604080832073ffffffffffffffffffffffffffffffffffffffff8616808552925280832080547fffffffffffffffffffffffffffffffffffffffffffffffffffffffffffffff0016905551339286917ff6391f5c32d9c69d2a47ea670b442974b53935d1edc7fd64eb21e047a839171b9190a45060016105c4565b5f6105c18373ffffffffffffffffffffffffffffffffffffffff8416611923565b60025460ff166113ac576040517f8dfc202b00000000000000000000000000000000000000000000000000000000815260040160405180910390fd5b5f825f0182815481106117d5576117d5611e18565b905f5260205f200154905092915050565b6060815f0180548060200260200160405190810160405280929190818152602001828054801561183357602002820191905f5260205f20905b81548152602001906001019080831161181f575b50505050509050919050565b5f8060205f8451602086015f885af18061185e576040513d5f823e3d81fd5b50505f513d9150811561187557806001141561188f565b73ffffffffffffffffffffffffffffffffffffffff84163b155b156104df576040517f5274afe700000000000000000000000000000000000000000000000000000000815273ffffffffffffffffffffffffffffffffffffffff8516600482015260240161086c565b5f81815260018301602052604081205461168257508154600181810184555f8481526020808220909301849055845484825282860190935260409020919091556105c4565b5f81815260018301602052604081205480156119fd575f611945600183611bb0565b85549091505f9061195890600190611bb0565b90508082146119b7575f865f01828154811061197657611976611e18565b905f5260205f200154905080875f01848154811061199657611996611e18565b5f918252602080832090910192909255918252600188019052604090208390555b85548690806119c8576119c8611e45565b600190038181905f5260205f20015f90559055856001015f8681526020019081526020015f205f9055600193505050506105c4565b5f9150506105c4565b5f60208284031215611a16575f80fd5b81357fffffffff00000000000000000000000000000000000000000000000000000000811681146105c1575f80fd5b5f60208284031215611a55575f80fd5b5035919050565b803573ffffffffffffffffffffffffffffffffffffffff81168114611a7f575f80fd5b919050565b5f8060408385031215611a95575f80fd5b82359150611aa560208401611a5c565b90509250929050565b5f8060408385031215611abf575f80fd5b50508035926020909101359150565b602080825282518282018190525f918401906040840190835b81811015611b1b57835173ffffffffffffffffffffffffffffffffffffffff16835260209384019390920191600101611ae7565b509095945050505050565b5f805f60608486031215611b38575f80fd5b83359250611b4860208501611a5c565b929592945050506040919091013590565b5f60208284031215611b69575f80fd5b5051919050565b7f4e487b71000000000000000000000000000000000000000000000000000000005f52601160045260245ffd5b808201808211156105c4576105c4611b70565b818103818111156105c4576105c4611b70565b5f8060408385031215611bd4575f80fd5b505080516020909101519092909150565b5f60033d1115611bfb5760045f803e505f5160e01c5b90565b7fffffffffffffffffffffffffffffffffffffffffffffffffffffffffffffffe0601f830116810181811067ffffffffffffffff82111715611c67577f4e487b71000000000000000000000000000000000000000000000000000000005f52604160045260245ffd5b6040525050565b5f60443d1015611c7b5790565b6040517ffffffffffffffffffffffffffffffffffffffffffffffffffffffffffffffffc3d016004823e80513d602482011167ffffffffffffffff82111715611cc357505090565b808201805167ffffffffffffffff811115611cdf575050505090565b7ffffffffffffffffffffffffffffffffffffffffffffffffffffffffffffffffc3d8501016020828401011115611d17575050505090565b6111fa60208285010185611bfe565b5f81518060208401855e5f93019283525090919050565b7f5461726765742068616e646c6552657061796d656e74206661696c65643a200081525f6105c1601f830184611d26565b602081525f82518060208401528060208501604085015e5f6040828501015260407fffffffffffffffffffffffffffffffffffffffffffffffffffffffffffffffe0601f83011684010191505092915050565b7f5461726765742068616e646c6552657061796d656e74206661696c656420286c81527f6f77206c6576656c293a2000000000000000000000000000000000000000000060208201525f6105c1602b830184611d26565b7f4e487b71000000000000000000000000000000000000000000000000000000005f52603260045260245ffd5b7f4e487b71000000000000000000000000000000000000000000000000000000005f52603160045260245ffdfea2646970667358221220d79890485e94ffcbbf3313da604af2ae7d14b0c6c85c459c9768fb1f44e4570e64736f6c634300081a0033",
    "linkReferences": {}
  },
  "methodIdentifiers": {
    "DEFAULT_ADMIN_ROLE()": "a217fddf",
    "feeRouter()": "f29ebf61",
    "getFundingSource(uint256)": "771212b9",
    "getPoolId(uint256)": "e7ef0fdc",
    "getRoleAdmin(bytes32)": "248a9ca3",
    "getRoleMember(bytes32,uint256)": "9010d07c",
    "getRoleMemberCount(bytes32)": "ca15c873",
    "getRoleMembers(bytes32)": "a3246ad3",
    "grantRole(bytes32,address)": "2f2ff15d",
    "hasRole(bytes32,address)": "91d14854",
    "pause()": "8456cb59",
    "paused()": "5c975abb",
    "projectFundingSource(uint256)": "d5449fbe",
    "projectPoolId(uint256)": "bcfaa30e",
    "renounceRole(bytes32,address)": "36568abe",
    "repay(uint256,uint256)": "d8aed145",
    "revokeRole(bytes32,address)": "d547741f",
    "setFundingSource(uint256,address,uint256)": "aaed1b7f",
    "supportsInterface(bytes4)": "01ffc9a7",
    "unpause()": "3f4ba83a",
    "usdcToken()": "11eac855"
  },
  "id": 93
}