{
  "abi": [
    {
      "type": "constructor",
      "inputs": [
        {
          "name": "_admin",
          "type": "address",
          "internalType": "address"
        },
        {
          "name": "_usdcToken",
          "type": "address",
          "internalType": "address"
        },
        {
          "name": "_feeRouter",
          "type": "address",
          "internalType": "address"
        }
      ],
      "stateMutability": "nonpayable"
    },
    {
      "type": "function",
      "name": "DEFAULT_ADMIN_ROLE",
      "inputs": [],
      "outputs": [
        {
          "name": "",
          "type": "bytes32",
          "internalType": "bytes32"
        }
      ],
      "stateMutability": "view"
    },
    {
      "type": "function",
      "name": "feeRouter",
      "inputs": [],
      "outputs": [
        {
          "name": "",
          "type": "address",
          "internalType": "contract IFeeRouter"
        }
      ],
      "stateMutability": "view"
    },
    {
      "type": "function",
      "name": "getFundingSource",
      "inputs": [
        {
          "name": "projectId",
          "type": "uint256",
          "internalType": "uint256"
        }
      ],
      "outputs": [
        {
          "name": "",
          "type": "address",
          "internalType": "address"
        }
      ],
      "stateMutability": "view"
    },
    {
      "type": "function",
      "name": "getPoolId",
      "inputs": [
        {
          "name": "projectId",
          "type": "uint256",
          "internalType": "uint256"
        }
      ],
      "outputs": [
        {
          "name": "",
          "type": "uint256",
          "internalType": "uint256"
        }
      ],
      "stateMutability": "view"
    },
    {
      "type": "function",
      "name": "getProjectPaymentSummary",
      "inputs": [
        {
          "name": "projectId",
          "type": "uint256",
          "internalType": "uint256"
        }
      ],
      "outputs": [
        {
          "name": "totalRepaid",
          "type": "uint256",
          "internalType": "uint256"
        },
        {
          "name": "lastPayment",
          "type": "uint256",
          "internalType": "uint256"
        },
        {
          "name": "paymentCount",
          "type": "uint256",
          "internalType": "uint256"
        }
      ],
      "stateMutability": "view"
    },
    {
      "type": "function",
      "name": "getRoleAdmin",
      "inputs": [
        {
          "name": "role",
          "type": "bytes32",
          "internalType": "bytes32"
        }
      ],
      "outputs": [
        {
          "name": "",
          "type": "bytes32",
          "internalType": "bytes32"
        }
      ],
      "stateMutability": "view"
    },
    {
      "type": "function",
      "name": "getRoleMember",
      "inputs": [
        {
          "name": "role",
          "type": "bytes32",
          "internalType": "bytes32"
        },
        {
          "name": "index",
          "type": "uint256",
          "internalType": "uint256"
        }
      ],
      "outputs": [
        {
          "name": "",
          "type": "address",
          "internalType": "address"
        }
      ],
      "stateMutability": "view"
    },
    {
      "type": "function",
      "name": "getRoleMemberCount",
      "inputs": [
        {
          "name": "role",
          "type": "bytes32",
          "internalType": "bytes32"
        }
      ],
      "outputs": [
        {
          "name": "",
          "type": "uint256",
          "internalType": "uint256"
        }
      ],
      "stateMutability": "view"
    },
    {
      "type": "function",
      "name": "getRoleMembers",
      "inputs": [
        {
          "name": "role",
          "type": "bytes32",
          "internalType": "bytes32"
        }
      ],
      "outputs": [
        {
          "name": "",
          "type": "address[]",
          "internalType": "address[]"
        }
      ],
      "stateMutability": "view"
    },
    {
      "type": "function",
      "name": "grantRole",
      "inputs": [
        {
          "name": "role",
          "type": "bytes32",
          "internalType": "bytes32"
        },
        {
          "name": "account",
          "type": "address",
          "internalType": "address"
        }
      ],
      "outputs": [],
      "stateMutability": "nonpayable"
    },
    {
      "type": "function",
      "name": "hasRole",
      "inputs": [
        {
          "name": "role",
          "type": "bytes32",
          "internalType": "bytes32"
        },
        {
          "name": "account",
          "type": "address",
          "internalType": "address"
        }
      ],
      "outputs": [
        {
          "name": "",
          "type": "bool",
          "internalType": "bool"
        }
      ],
      "stateMutability": "view"
    },
    {
      "type": "function",
      "name": "lastPaymentTimestamp",
      "inputs": [
        {
          "name": "",
          "type": "uint256",
          "internalType": "uint256"
        }
      ],
      "outputs": [
        {
          "name": "",
          "type": "uint256",
          "internalType": "uint256"
        }
      ],
      "stateMutability": "view"
    },
    {
      "type": "function",
      "name": "pause",
      "inputs": [],
      "outputs": [],
      "stateMutability": "nonpayable"
    },
    {
      "type": "function",
      "name": "paused",
      "inputs": [],
      "outputs": [
        {
          "name": "",
          "type": "bool",
          "internalType": "bool"
        }
      ],
      "stateMutability": "view"
    },
    {
      "type": "function",
      "name": "projectFundingSource",
      "inputs": [
        {
          "name": "",
          "type": "uint256",
          "internalType": "uint256"
        }
      ],
      "outputs": [
        {
          "name": "",
          "type": "address",
          "internalType": "address"
        }
      ],
      "stateMutability": "view"
    },
    {
      "type": "function",
      "name": "projectPaymentHistory",
      "inputs": [
        {
          "name": "",
          "type": "uint256",
          "internalType": "uint256"
        },
        {
          "name": "",
          "type": "uint256",
          "internalType": "uint256"
        }
      ],
      "outputs": [
        {
          "name": "",
          "type": "uint256",
          "internalType": "uint256"
        }
      ],
      "stateMutability": "view"
    },
    {
      "type": "function",
      "name": "projectPoolId",
      "inputs": [
        {
          "name": "",
          "type": "uint256",
          "internalType": "uint256"
        }
      ],
      "outputs": [
        {
          "name": "",
          "type": "uint256",
          "internalType": "uint256"
        }
      ],
      "stateMutability": "view"
    },
    {
      "type": "function",
      "name": "renounceRole",
      "inputs": [
        {
          "name": "role",
          "type": "bytes32",
          "internalType": "bytes32"
        },
        {
          "name": "callerConfirmation",
          "type": "address",
          "internalType": "address"
        }
      ],
      "outputs": [],
      "stateMutability": "nonpayable"
    },
    {
      "type": "function",
      "name": "repay",
      "inputs": [
        {
          "name": "projectId",
          "type": "uint256",
          "internalType": "uint256"
        },
        {
          "name": "amount",
          "type": "uint256",
          "internalType": "uint256"
        }
      ],
      "outputs": [],
      "stateMutability": "nonpayable"
    },
    {
      "type": "function",
      "name": "revokeRole",
      "inputs": [
        {
          "name": "role",
          "type": "bytes32",
          "internalType": "bytes32"
        },
        {
          "name": "account",
          "type": "address",
          "internalType": "address"
        }
      ],
      "outputs": [],
      "stateMutability": "nonpayable"
    },
    {
      "type": "function",
      "name": "setFundingSource",
      "inputs": [
        {
          "name": "projectId",
          "type": "uint256",
          "internalType": "uint256"
        },
        {
          "name": "fundingSource",
          "type": "address",
          "internalType": "address"
        },
        {
          "name": "poolId",
          "type": "uint256",
          "internalType": "uint256"
        }
      ],
      "outputs": [],
      "stateMutability": "nonpayable"
    },
    {
      "type": "function",
      "name": "supportsInterface",
      "inputs": [
        {
          "name": "interfaceId",
          "type": "bytes4",
          "internalType": "bytes4"
        }
      ],
      "outputs": [
        {
          "name": "",
          "type": "bool",
          "internalType": "bool"
        }
      ],
      "stateMutability": "view"
    },
    {
      "type": "function",
      "name": "totalRepaidByProject",
      "inputs": [
        {
          "name": "",
          "type": "uint256",
          "internalType": "uint256"
        }
      ],
      "outputs": [
        {
          "name": "",
          "type": "uint256",
          "internalType": "uint256"
        }
      ],
      "stateMutability": "view"
    },
    {
      "type": "function",
      "name": "unpause",
      "inputs": [],
      "outputs": [],
      "stateMutability": "nonpayable"
    },
    {
      "type": "function",
      "name": "usdcToken",
      "inputs": [],
      "outputs": [
        {
          "name": "",
          "type": "address",
          "internalType": "contract IERC20"
        }
      ],
      "stateMutability": "view"
    },
    {
      "type": "event",
      "name": "FundingSourceSet",
      "inputs": [
        {
          "name": "projectId",
          "type": "uint256",
          "indexed": true,
          "internalType": "uint256"
        },
        {
          "name": "fundingSource",
          "type": "address",
          "indexed": true,
          "internalType": "address"
        },
        {
          "name": "poolId",
          "type": "uint256",
          "indexed": false,
          "internalType": "uint256"
        },
        {
          "name": "setter",
          "type": "address",
          "indexed": true,
          "internalType": "address"
        }
      ],
      "anonymous": false
    },
    {
      "type": "event",
      "name": "Paused",
      "inputs": [
        {
          "name": "account",
          "type": "address",
          "indexed": false,
          "internalType": "address"
        }
      ],
      "anonymous": false
    },
    {
      "type": "event",
      "name": "RepaymentRouted",
      "inputs": [
        {
          "name": "projectId",
          "type": "uint256",
          "indexed": true,
          "internalType": "uint256"
        },
        {
          "name": "payer",
          "type": "address",
          "indexed": true,
          "internalType": "address"
        },
        {
          "name": "totalAmountRepaid",
          "type": "uint256",
          "indexed": false,
          "internalType": "uint256"
        },
        {
          "name": "feeAmount",
          "type": "uint256",
          "indexed": false,
          "internalType": "uint256"
        },
        {
          "name": "principalAmount",
          "type": "uint256",
          "indexed": false,
          "internalType": "uint256"
        },
        {
          "name": "interestAmount",
          "type": "uint256",
          "indexed": false,
          "internalType": "uint256"
        },
        {
          "name": "fundingSource",
          "type": "address",
          "indexed": true,
          "internalType": "address"
        }
      ],
      "anonymous": false
    },
    {
      "type": "event",
      "name": "RoleAdminChanged",
      "inputs": [
        {
          "name": "role",
          "type": "bytes32",
          "indexed": true,
          "internalType": "bytes32"
        },
        {
          "name": "previousAdminRole",
          "type": "bytes32",
          "indexed": true,
          "internalType": "bytes32"
        },
        {
          "name": "newAdminRole",
          "type": "bytes32",
          "indexed": true,
          "internalType": "bytes32"
        }
      ],
      "anonymous": false
    },
    {
      "type": "event",
      "name": "RoleGranted",
      "inputs": [
        {
          "name": "role",
          "type": "bytes32",
          "indexed": true,
          "internalType": "bytes32"
        },
        {
          "name": "account",
          "type": "address",
          "indexed": true,
          "internalType": "address"
        },
        {
          "name": "sender",
          "type": "address",
          "indexed": true,
          "internalType": "address"
        }
      ],
      "anonymous": false
    },
    {
      "type": "event",
      "name": "RoleRevoked",
      "inputs": [
        {
          "name": "role",
          "type": "bytes32",
          "indexed": true,
          "internalType": "bytes32"
        },
        {
          "name": "account",
          "type": "address",
          "indexed": true,
          "internalType": "address"
        },
        {
          "name": "sender",
          "type": "address",
          "indexed": true,
          "internalType": "address"
        }
      ],
      "anonymous": false
    },
    {
      "type": "event",
      "name": "Unpaused",
      "inputs": [
        {
          "name": "account",
          "type": "address",
          "indexed": false,
          "internalType": "address"
        }
      ],
      "anonymous": false
    },
    {
      "type": "error",
      "name": "AccessControlBadConfirmation",
      "inputs": []
    },
    {
      "type": "error",
      "name": "AccessControlUnauthorizedAccount",
      "inputs": [
        {
          "name": "account",
          "type": "address",
          "internalType": "address"
        },
        {
          "name": "neededRole",
          "type": "bytes32",
          "internalType": "bytes32"
        }
      ]
    },
    {
      "type": "error",
      "name": "AmountCannotBeZero",
      "inputs": []
    },
    {
      "type": "error",
      "name": "EnforcedPause",
      "inputs": []
    },
    {
      "type": "error",
      "name": "ExpectedPause",
      "inputs": []
    },
    {
      "type": "error",
      "name": "InvalidValue",
      "inputs": [
        {
          "name": "reason",
          "type": "string",
          "internalType": "string"
        }
      ]
    },
    {
      "type": "error",
      "name": "ReentrancyGuardReentrantCall",
      "inputs": []
    },
    {
      "type": "error",
      "name": "SafeERC20FailedOperation",
      "inputs": [
        {
          "name": "token",
          "type": "address",
          "internalType": "address"
        }
      ]
    },
    {
      "type": "error",
      "name": "ZeroAddressNotAllowed",
      "inputs": []
    }
  ],
  "bytecode": {
    "object": "0x60c060405234801561000f575f80fd5b5060405161229e38038061229e83398101604081905261002e9161021d565b60016003556001600160a01b038316158061005057506001600160a01b038216155b8061006257506001600160a01b038116155b15610080576040516342bcdf7f60e11b815260040160405180910390fd5b6001600160a01b03808316608052811660a05261009d5f846100d1565b506100c87f65d7a28e3265b37a6474929f336521b332c1681b933f6cb9f3376673440d862a846100d1565b5050505061025d565b5f806100dd8484610107565b905080156100fe575f8481526001602052604090206100fc90846101ae565b505b90505b92915050565b5f828152602081815260408083206001600160a01b038516845290915281205460ff166101a7575f838152602081815260408083206001600160a01b03861684529091529020805460ff1916600117905561015f3390565b6001600160a01b0316826001600160a01b0316847f2f8788117e7eff1d82e926ec794901d17c78024a50270940304540a733656f0d60405160405180910390a4506001610101565b505f610101565b5f6100fe836001600160a01b0384165f8181526001830160205260408120546101a757508154600181810184555f848152602080822090930184905584548482528286019093526040902091909155610101565b80516001600160a01b0381168114610218575f80fd5b919050565b5f805f6060848603121561022f575f80fd5b61023884610202565b925061024660208501610202565b915061025460408501610202565b90509250925092565b60805160a051611fd36102cb5f395f818161049d015281816109e301528181610b4701528181610c1801528181610c6c01528181610d0501528181610e7c01528181610ed00152610f6901525f818161021c0152818161098a01528181610bf60152610e5a0152611fd35ff3fe608060405234801561000f575f80fd5b506004361061019a575f3560e01c80639010d07c116100e8578063bcfaa30e11610093578063d547741f1161006e578063d547741f14610453578063d8aed14514610466578063e7ef0fdc14610479578063f29ebf6114610498575f80fd5b8063bcfaa30e146103ec578063ca15c8731461040b578063d5449fbe1461041e575f80fd5b8063a217fddf116100c3578063a217fddf146103b2578063a3246ad3146103b9578063aaed1b7f146103d9575f80fd5b80639010d07c1461033d57806391d14854146103505780639871955d14610393575f80fd5b80633f4ba83a11610148578063771212b911610123578063771212b9146102e15780637eb0f6fa146103165780638456cb5914610335575f80fd5b80633f4ba83a146102bb5780634158fa51146102c35780635c975abb146102d6575f80fd5b8063248a9ca311610178578063248a9ca3146102635780632f2ff15d1461029357806336568abe146102a8575f80fd5b8063011ebfa01461019e57806301ffc9a7146101f457806311eac85514610217575b5f80fd5b6101d46101ac366004611b31565b5f90815260066020908152604080832054600783528184205460089093529220549192909190565b604080519384526020840192909252908201526060015b60405180910390f35b610207610202366004611b48565b6104bf565b60405190151581526020016101eb565b61023e7f000000000000000000000000000000000000000000000000000000000000000081565b60405173ffffffffffffffffffffffffffffffffffffffff90911681526020016101eb565b610285610271366004611b31565b5f9081526020819052604090206001015490565b6040519081526020016101eb565b6102a66102a1366004611baf565b610589565b005b6102a66102b6366004611baf565b6105b3565b6102a6610611565b6102856102d1366004611bd9565b610646565b60025460ff16610207565b61023e6102ef366004611b31565b5f9081526004602052604090205473ffffffffffffffffffffffffffffffffffffffff1690565b610285610324366004611b31565b60076020525f908152604090205481565b6102a6610671565b61023e61034b366004611bd9565b6106a3565b61020761035e366004611baf565b5f9182526020828152604080842073ffffffffffffffffffffffffffffffffffffffff93909316845291905290205460ff1690565b6102856103a1366004611b31565b60066020525f908152604090205481565b6102855f81565b6103cc6103c7366004611b31565b6106c3565b6040516101eb9190611bf9565b6102a66103e7366004611c51565b6106dc565b6102856103fa366004611b31565b60056020525f908152604090205481565b610285610419366004611b31565b610835565b61023e61042c366004611b31565b60046020525f908152604090205473ffffffffffffffffffffffffffffffffffffffff1681565b6102a6610461366004611baf565b61084b565b6102a6610474366004611bd9565b61086f565b610285610487366004611b31565b5f9081526005602052604090205490565b61023e7f000000000000000000000000000000000000000000000000000000000000000081565b5f7f8456cb591a934d53f6ccc6332123a165a1f3562907bf11330d847a29ca49eb897f3f4ba83af89dc9793996d9e56b8abe6dc88cd97c9c2bb23027806e9c1ffd54dc7fbb1d6363e20e842acf5a1fd64aa91f08697f8f559b94a3032a0414b5d5b4bf557f44e29c9d000000000000000000000000000000000000000000000000000000007fffffffff0000000000000000000000000000000000000000000000000000000086160161057757506001949350505050565b6105808561129b565b95945050505050565b5f828152602081905260409020600101546105a3816112f0565b6105ad83836112fa565b50505050565b73ffffffffffffffffffffffffffffffffffffffff81163314610602576040517f6697b23200000000000000000000000000000000000000000000000000000000815260040160405180910390fd5b61060c828261132d565b505050565b7f65d7a28e3265b37a6474929f336521b332c1681b933f6cb9f3376673440d862a61063b816112f0565b610643611358565b50565b6008602052815f5260405f20818154811061065f575f80fd5b905f5260205f20015f91509150505481565b7f65d7a28e3265b37a6474929f336521b332c1681b933f6cb9f3376673440d862a61069b816112f0565b6106436113d5565b5f8281526001602052604081206106ba9083611430565b90505b92915050565b5f8181526001602052604090206060906106bd9061143b565b7f42847befda217a8205614b97eeba0062d90a739902cf3467520ceec144711539610706816112f0565b73ffffffffffffffffffffffffffffffffffffffff8316610753576040517f8579befe00000000000000000000000000000000000000000000000000000000815260040160405180910390fd5b5f84815260046020526040902080547fffffffffffffffffffffffff00000000000000000000000000000000000000001673ffffffffffffffffffffffffffffffffffffffff851617905581156107b9575f8481526005602052604090208290556107c8565b5f848152600560205260408120555b3373ffffffffffffffffffffffffffffffffffffffff168373ffffffffffffffffffffffffffffffffffffffff16857ee8dab5729ebe0339cee67446518f213eecf9fac7081abbcdc1d63a868b75c28560405161082791815260200190565b60405180910390a450505050565b5f8181526001602052604081206106bd9061144e565b5f82815260208190526040902060010154610865816112f0565b6105ad838361132d565b610877611457565b61087f61149a565b805f036108b8576040517fd11b25af00000000000000000000000000000000000000000000000000000000815260040160405180910390fd5b5f8281526004602052604090205473ffffffffffffffffffffffffffffffffffffffff168061096e576040517f432f5b4a00000000000000000000000000000000000000000000000000000000815260206004820152602260248201527f46756e64696e6720736f75726365206e6f742073657420666f722070726f6a6560448201527f637400000000000000000000000000000000000000000000000000000000000060648201526084015b60405180910390fd5b80336109b273ffffffffffffffffffffffffffffffffffffffff7f0000000000000000000000000000000000000000000000000000000000000000168230876114d9565b6040517fd223521d000000000000000000000000000000000000000000000000000000008152600481018590525f907f000000000000000000000000000000000000000000000000000000000000000073ffffffffffffffffffffffffffffffffffffffff169063d223521d90602401602060405180830381865afa158015610a3d573d5f803e3d5ffd5b505050506040513d601f19601f82011682018060405250810190610a619190611c84565b5f878152600560205260408082205490517f2d6af4d50000000000000000000000000000000000000000000000000000000081526004810191909152602481018990529192509073ffffffffffffffffffffffffffffffffffffffff851690632d6af4d590604401602060405180830381865afa158015610ae4573d5f803e3d5ffd5b505050506040513d601f19601f82011682018060405250810190610b089190611c84565b90505f8115610bc8576040517f835e9eb400000000000000000000000000000000000000000000000000000000815260048101899052602481018390527f000000000000000000000000000000000000000000000000000000000000000073ffffffffffffffffffffffffffffffffffffffff169063835e9eb490604401602060405180830381865afa158015610ba1573d5f803e3d5ffd5b505050506040513d601f19601f82011682018060405250810190610bc59190611c84565b90505b5f610bd38285611cc8565b9050878110610e3357610c3d73ffffffffffffffffffffffffffffffffffffffff7f0000000000000000000000000000000000000000000000000000000000000000167f00000000000000000000000000000000000000000000000000000000000000008a611562565b6040517f767d279b000000000000000000000000000000000000000000000000000000008152600481018990527f000000000000000000000000000000000000000000000000000000000000000073ffffffffffffffffffffffffffffffffffffffff169063767d279b906024015f604051808303815f87803b158015610cc2575f80fd5b505af1158015610cd4573d5f803e3d5ffd5b50506040517f32f7a37f000000000000000000000000000000000000000000000000000000008152600481018c90527f000000000000000000000000000000000000000000000000000000000000000073ffffffffffffffffffffffffffffffffffffffff1692506332f7a37f91506024015f604051808303815f87803b158015610d5d575f80fd5b505af1158015610d6f573d5f803e3d5ffd5b5050505f8a815260066020526040812080548b9350909190610d92908490611cc8565b90915550505f898152600760209081526040808320429055600882528083208054600181018255908452828420018b905580518b81529182018b90528101829052606081019190915273ffffffffffffffffffffffffffffffffffffffff88811691908716908b907fc4c2537307ee2181469ea3e2b6811cb4df9e4ae60864bd5fab335bca539c58cc9060800160405180910390a45050505050505061128d565b5f610e3e828a611cdb565b9050610ea173ffffffffffffffffffffffffffffffffffffffff7f0000000000000000000000000000000000000000000000000000000000000000167f000000000000000000000000000000000000000000000000000000000000000084611562565b6040517f767d279b000000000000000000000000000000000000000000000000000000008152600481018390527f000000000000000000000000000000000000000000000000000000000000000073ffffffffffffffffffffffffffffffffffffffff169063767d279b906024015f604051808303815f87803b158015610f26575f80fd5b505af1158015610f38573d5f803e3d5ffd5b50506040517f32f7a37f000000000000000000000000000000000000000000000000000000008152600481018d90527f000000000000000000000000000000000000000000000000000000000000000073ffffffffffffffffffffffffffffffffffffffff1692506332f7a37f91506024015f604051808303815f87803b158015610fc1575f80fd5b505af1158015610fd3573d5f803e3d5ffd5b5050505f8b8152600560205260408082205490517f496179ac00000000000000000000000000000000000000000000000000000000815260048101829052602481018e905260448101859052919250829173ffffffffffffffffffffffffffffffffffffffff8b169063496179ac9060640160408051808303815f875af192505050801561109c575060408051601f3d9081017fffffffffffffffffffffffffffffffffffffffffffffffffffffffffffffffe016820190925261109991810190611cee565b60015b611178576110a8611d10565b806308c379a00361113657506110bc611d99565b806110c75750611138565b806040516020016110d89190611e68565b604080517fffffffffffffffffffffffffffffffffffffffffffffffffffffffffffffffe0818403018152908290527f08c379a000000000000000000000000000000000000000000000000000000000825261096591600401611e99565b505b3d808015611161576040519150601f19603f3d011682016040523d82523d5f602084013e611166565b606091505b50806040516020016110d89190611eec565b909350915082828561118a8284611cc8565b1115611218576040517f432f5b4a00000000000000000000000000000000000000000000000000000000815260206004820152603260248201527f54617267657420636f6e74726163742072657061796d656e742073706c69742060448201527f65786365656473206e657420616d6f756e7400000000000000000000000000006064820152608401610965565b5050604080518d8152602081018790529081018490526060810183905273ffffffffffffffffffffffffffffffffffffffff808d1691908b16908f907fc4c2537307ee2181469ea3e2b6811cb4df9e4ae60864bd5fab335bca539c58cc9060800160405180910390a450505050505050505050505b6112976001600355565b5050565b5f7fffffffff0000000000000000000000000000000000000000000000000000000082167f5a05180f0000000000000000000000000000000000000000000000000000000014806106bd57506106bd826115a0565b6106438133611636565b5f8061130684846116bb565b905080156106ba575f84815260016020526040902061132590846117b4565b509392505050565b5f8061133984846117d5565b905080156106ba575f848152600160205260409020611325908461188e565b6113606118af565b600280547fffffffffffffffffffffffffffffffffffffffffffffffffffffffffffffff001690557f5db9ee0a495bf2e6ff9c91a7834c1ba4fdd244a5e8aa4e537bd38aeae4b073aa335b60405173ffffffffffffffffffffffffffffffffffffffff909116815260200160405180910390a1565b6113dd61149a565b600280547fffffffffffffffffffffffffffffffffffffffffffffffffffffffffffffff001660011790557f62e78cea01bee320cd4e420270b5ea74000d11b0c9f74754ebdbfc544b05a2586113ab3390565b5f6106ba83836118eb565b60605f61144783611911565b9392505050565b5f6106bd825490565b600260035403611493576040517f3ee5aeb500000000000000000000000000000000000000000000000000000000815260040160405180910390fd5b6002600355565b60025460ff16156114d7576040517fd93c066500000000000000000000000000000000000000000000000000000000815260040160405180910390fd5b565b60405173ffffffffffffffffffffffffffffffffffffffff84811660248301528381166044830152606482018390526105ad9186918216906323b872dd906084015b604051602081830303815290604052915060e01b6020820180517bffffffffffffffffffffffffffffffffffffffffffffffffffffffff838183161783525050505061196a565b60405173ffffffffffffffffffffffffffffffffffffffff83811660248301526044820183905261060c91859182169063a9059cbb9060640161151b565b5f7fffffffff0000000000000000000000000000000000000000000000000000000082167f7965db0b0000000000000000000000000000000000000000000000000000000014806106bd57507f01ffc9a7000000000000000000000000000000000000000000000000000000007fffffffff000000000000000000000000000000000000000000000000000000008316146106bd565b5f8281526020818152604080832073ffffffffffffffffffffffffffffffffffffffff8516845290915290205460ff16611297576040517fe2517d3f00000000000000000000000000000000000000000000000000000000815273ffffffffffffffffffffffffffffffffffffffff8216600482015260248101839052604401610965565b5f8281526020818152604080832073ffffffffffffffffffffffffffffffffffffffff8516845290915281205460ff166117ad575f8381526020818152604080832073ffffffffffffffffffffffffffffffffffffffff86168452909152902080547fffffffffffffffffffffffffffffffffffffffffffffffffffffffffffffff0016600117905561174b3390565b73ffffffffffffffffffffffffffffffffffffffff168273ffffffffffffffffffffffffffffffffffffffff16847f2f8788117e7eff1d82e926ec794901d17c78024a50270940304540a733656f0d60405160405180910390a45060016106bd565b505f6106bd565b5f6106ba8373ffffffffffffffffffffffffffffffffffffffff8416611a09565b5f8281526020818152604080832073ffffffffffffffffffffffffffffffffffffffff8516845290915281205460ff16156117ad575f8381526020818152604080832073ffffffffffffffffffffffffffffffffffffffff8616808552925280832080547fffffffffffffffffffffffffffffffffffffffffffffffffffffffffffffff0016905551339286917ff6391f5c32d9c69d2a47ea670b442974b53935d1edc7fd64eb21e047a839171b9190a45060016106bd565b5f6106ba8373ffffffffffffffffffffffffffffffffffffffff8416611a4e565b60025460ff166114d7576040517f8dfc202b00000000000000000000000000000000000000000000000000000000815260040160405180910390fd5b5f825f01828154811061190057611900611f43565b905f5260205f200154905092915050565b6060815f0180548060200260200160405190810160405280929190818152602001828054801561195e57602002820191905f5260205f20905b81548152602001906001019080831161194a575b50505050509050919050565b5f8060205f8451602086015f885af180611989576040513d5f823e3d81fd5b50505f513d915081156119a05780600114156119ba565b73ffffffffffffffffffffffffffffffffffffffff84163b155b156105ad576040517f5274afe700000000000000000000000000000000000000000000000000000000815273ffffffffffffffffffffffffffffffffffffffff85166004820152602401610965565b5f8181526001830160205260408120546117ad57508154600181810184555f8481526020808220909301849055845484825282860190935260409020919091556106bd565b5f8181526001830160205260408120548015611b28575f611a70600183611cdb565b85549091505f90611a8390600190611cdb565b9050808214611ae2575f865f018281548110611aa157611aa1611f43565b905f5260205f200154905080875f018481548110611ac157611ac1611f43565b5f918252602080832090910192909255918252600188019052604090208390555b8554869080611af357611af3611f70565b600190038181905f5260205f20015f90559055856001015f8681526020019081526020015f205f9055600193505050506106bd565b5f9150506106bd565b5f60208284031215611b41575f80fd5b5035919050565b5f60208284031215611b58575f80fd5b81357fffffffff00000000000000000000000000000000000000000000000000000000811681146106ba575f80fd5b803573ffffffffffffffffffffffffffffffffffffffff81168114611baa575f80fd5b919050565b5f8060408385031215611bc0575f80fd5b82359150611bd060208401611b87565b90509250929050565b5f8060408385031215611bea575f80fd5b50508035926020909101359150565b602080825282518282018190525f918401906040840190835b81811015611c4657835173ffffffffffffffffffffffffffffffffffffffff16835260209384019390920191600101611c12565b509095945050505050565b5f805f60608486031215611c63575f80fd5b83359250611c7360208501611b87565b929592945050506040919091013590565b5f60208284031215611c94575f80fd5b5051919050565b7f4e487b71000000000000000000000000000000000000000000000000000000005f52601160045260245ffd5b808201808211156106bd576106bd611c9b565b818103818111156106bd576106bd611c9b565b5f8060408385031215611cff575f80fd5b505080516020909101519092909150565b5f60033d1115611d265760045f803e505f5160e01c5b90565b7fffffffffffffffffffffffffffffffffffffffffffffffffffffffffffffffe0601f830116810181811067ffffffffffffffff82111715611d92577f4e487b71000000000000000000000000000000000000000000000000000000005f52604160045260245ffd5b6040525050565b5f60443d1015611da65790565b6040517ffffffffffffffffffffffffffffffffffffffffffffffffffffffffffffffffc3d016004823e80513d602482011167ffffffffffffffff82111715611dee57505090565b808201805167ffffffffffffffff811115611e0a575050505090565b7ffffffffffffffffffffffffffffffffffffffffffffffffffffffffffffffffc3d8501016020828401011115611e42575050505090565b61132560208285010185611d29565b5f81518060208401855e5f93019283525090919050565b7f5461726765742068616e646c6552657061796d656e74206661696c65643a200081525f6106ba601f830184611e51565b602081525f82518060208401528060208501604085015e5f6040828501015260407fffffffffffffffffffffffffffffffffffffffffffffffffffffffffffffffe0601f83011684010191505092915050565b7f5461726765742068616e646c6552657061796d656e74206661696c656420286c81527f6f77206c6576656c293a2000000000000000000000000000000000000000000060208201525f6106ba602b830184611e51565b7f4e487b71000000000000000000000000000000000000000000000000000000005f52603260045260245ffd5b7f4e487b71000000000000000000000000000000000000000000000000000000005f52603160045260245ffdfea2646970667358221220d3d40ce8ee61e2587e846d5460762c5c3c84ffb188c1f5c7a8b072c0dea2795464736f6c634300081a0033",
    "linkReferences": {}
  },
  "methodIdentifiers": {
    "DEFAULT_ADMIN_ROLE()": "a217fddf",
    "feeRouter()": "f29ebf61",
    "getFundingSource(uint256)": "771212b9",
    "getPoolId(uint256)": "e7ef0fdc",
    "getProjectPaymentSummary(uint256)": "011ebfa0",
    "getRoleAdmin(bytes32)": "248a9ca3",
    "getRoleMember(bytes32,uint256)": "9010d07c",
    "getRoleMemberCount(bytes32)": "ca15c873",
    "getRoleMembers(bytes32)": "a3246ad3",
    "grantRole(bytes32,address)": "2f2ff15d",
    "hasRole(bytes32,address)": "91d14854",
    "lastPaymentTimestamp(uint256)": "7eb0f6fa",
    "pause()": "8456cb59",
    "paused()": "5c975abb",
    "projectFundingSource(uint256)": "d5449fbe",
    "projectPaymentHistory(uint256,uint256)": "4158fa51",
    "projectPoolId(uint256)": "bcfaa30e",
    "renounceRole(bytes32,address)": "36568abe",
    "repay(uint256,uint256)": "d8aed145",
    "revokeRole(bytes32,address)": "d547741f",
    "setFundingSource(uint256,address,uint256)": "aaed1b7f",
    "supportsInterface(bytes4)": "01ffc9a7",
    "totalRepaidByProject(uint256)": "9871955d",
    "unpause()": "3f4ba83a",
    "usdcToken()": "11eac855"
  },
  "id": 93
}