{
  "abi": [
    {
      "type": "constructor",
      "inputs": [
        {
          "name": "_rewardToken",
          "type": "address",
          "internalType": "address"
        },
        {
          "name": "_initialAdmin",
          "type": "address",
          "internalType": "address"
        }
      ],
      "stateMutability": "nonpayable"
    },
    {
      "type": "function",
      "name": "DEFAULT_ADMIN_ROLE",
      "inputs": [],
      "outputs": [
        {
          "name": "",
          "type": "bytes32",
          "internalType": "bytes32"
        }
      ],
      "stateMutability": "view"
    },
    {
      "type": "function",
      "name": "METRIC_UPDATER_ROLE",
      "inputs": [],
      "outputs": [
        {
          "name": "",
          "type": "bytes32",
          "internalType": "bytes32"
        }
      ],
      "stateMutability": "view"
    },
    {
      "type": "function",
      "name": "PAUSER_ROLE",
      "inputs": [],
      "outputs": [
        {
          "name": "",
          "type": "bytes32",
          "internalType": "bytes32"
        }
      ],
      "stateMutability": "view"
    },
    {
      "type": "function",
      "name": "REWARD_DEPOSITOR_ROLE",
      "inputs": [],
      "outputs": [
        {
          "name": "",
          "type": "bytes32",
          "internalType": "bytes32"
        }
      ],
      "stateMutability": "view"
    },
    {
      "type": "function",
      "name": "UPGRADER_ROLE",
      "inputs": [],
      "outputs": [
        {
          "name": "",
          "type": "bytes32",
          "internalType": "bytes32"
        }
      ],
      "stateMutability": "view"
    },
    {
      "type": "function",
      "name": "UPGRADE_INTERFACE_VERSION",
      "inputs": [],
      "outputs": [
        {
          "name": "",
          "type": "string",
          "internalType": "string"
        }
      ],
      "stateMutability": "view"
    },
    {
      "type": "function",
      "name": "accumulatedRewardsPerScoreUnit",
      "inputs": [],
      "outputs": [
        {
          "name": "",
          "type": "uint256",
          "internalType": "uint256"
        }
      ],
      "stateMutability": "view"
    },
    {
      "type": "function",
      "name": "claimRewards",
      "inputs": [],
      "outputs": [],
      "stateMutability": "nonpayable"
    },
    {
      "type": "function",
      "name": "claimableRewards",
      "inputs": [
        {
          "name": "operator",
          "type": "address",
          "internalType": "address"
        }
      ],
      "outputs": [
        {
          "name": "",
          "type": "uint256",
          "internalType": "uint256"
        }
      ],
      "stateMutability": "view"
    },
    {
      "type": "function",
      "name": "currentRewardRate",
      "inputs": [],
      "outputs": [
        {
          "name": "",
          "type": "uint256",
          "internalType": "uint256"
        }
      ],
      "stateMutability": "view"
    },
    {
      "type": "function",
      "name": "depositRewards",
      "inputs": [
        {
          "name": "amount",
          "type": "uint256",
          "internalType": "uint256"
        }
      ],
      "outputs": [],
      "stateMutability": "nonpayable"
    },
    {
      "type": "function",
      "name": "getRoleAdmin",
      "inputs": [
        {
          "name": "role",
          "type": "bytes32",
          "internalType": "bytes32"
        }
      ],
      "outputs": [
        {
          "name": "",
          "type": "bytes32",
          "internalType": "bytes32"
        }
      ],
      "stateMutability": "view"
    },
    {
      "type": "function",
      "name": "grantRole",
      "inputs": [
        {
          "name": "role",
          "type": "bytes32",
          "internalType": "bytes32"
        },
        {
          "name": "account",
          "type": "address",
          "internalType": "address"
        }
      ],
      "outputs": [],
      "stateMutability": "nonpayable"
    },
    {
      "type": "function",
      "name": "hasRole",
      "inputs": [
        {
          "name": "role",
          "type": "bytes32",
          "internalType": "bytes32"
        },
        {
          "name": "account",
          "type": "address",
          "internalType": "address"
        }
      ],
      "outputs": [
        {
          "name": "",
          "type": "bool",
          "internalType": "bool"
        }
      ],
      "stateMutability": "view"
    },
    {
      "type": "function",
      "name": "lastGlobalUpdateTime",
      "inputs": [],
      "outputs": [
        {
          "name": "",
          "type": "uint48",
          "internalType": "uint48"
        }
      ],
      "stateMutability": "view"
    },
    {
      "type": "function",
      "name": "nodeInfo",
      "inputs": [
        {
          "name": "",
          "type": "address",
          "internalType": "address"
        }
      ],
      "outputs": [
        {
          "name": "contributionScore",
          "type": "uint256",
          "internalType": "uint256"
        },
        {
          "name": "rewardDebt",
          "type": "uint256",
          "internalType": "uint256"
        }
      ],
      "stateMutability": "view"
    },
    {
      "type": "function",
      "name": "pause",
      "inputs": [],
      "outputs": [],
      "stateMutability": "nonpayable"
    },
    {
      "type": "function",
      "name": "paused",
      "inputs": [],
      "outputs": [
        {
          "name": "",
          "type": "bool",
          "internalType": "bool"
        }
      ],
      "stateMutability": "view"
    },
    {
      "type": "function",
      "name": "proxiableUUID",
      "inputs": [],
      "outputs": [
        {
          "name": "",
          "type": "bytes32",
          "internalType": "bytes32"
        }
      ],
      "stateMutability": "view"
    },
    {
      "type": "function",
      "name": "renounceRole",
      "inputs": [
        {
          "name": "role",
          "type": "bytes32",
          "internalType": "bytes32"
        },
        {
          "name": "callerConfirmation",
          "type": "address",
          "internalType": "address"
        }
      ],
      "outputs": [],
      "stateMutability": "nonpayable"
    },
    {
      "type": "function",
      "name": "revokeRole",
      "inputs": [
        {
          "name": "role",
          "type": "bytes32",
          "internalType": "bytes32"
        },
        {
          "name": "account",
          "type": "address",
          "internalType": "address"
        }
      ],
      "outputs": [],
      "stateMutability": "nonpayable"
    },
    {
      "type": "function",
      "name": "rewardToken",
      "inputs": [],
      "outputs": [
        {
          "name": "",
          "type": "address",
          "internalType": "contract IERC20"
        }
      ],
      "stateMutability": "view"
    },
    {
      "type": "function",
      "name": "setRewardRate",
      "inputs": [
        {
          "name": "_rate",
          "type": "uint256",
          "internalType": "uint256"
        }
      ],
      "outputs": [],
      "stateMutability": "nonpayable"
    },
    {
      "type": "function",
      "name": "supportsInterface",
      "inputs": [
        {
          "name": "interfaceId",
          "type": "bytes4",
          "internalType": "bytes4"
        }
      ],
      "outputs": [
        {
          "name": "",
          "type": "bool",
          "internalType": "bool"
        }
      ],
      "stateMutability": "view"
    },
    {
      "type": "function",
      "name": "totalContributionScore",
      "inputs": [],
      "outputs": [
        {
          "name": "",
          "type": "uint256",
          "internalType": "uint256"
        }
      ],
      "stateMutability": "view"
    },
    {
      "type": "function",
      "name": "unpause",
      "inputs": [],
      "outputs": [],
      "stateMutability": "nonpayable"
    },
    {
      "type": "function",
      "name": "updateNodeContribution",
      "inputs": [
        {
          "name": "operator",
          "type": "address",
          "internalType": "address"
        },
        {
          "name": "contributionDelta",
          "type": "uint256",
          "internalType": "uint256"
        },
        {
          "name": "timestamp",
          "type": "uint64",
          "internalType": "uint64"
        }
      ],
      "outputs": [],
      "stateMutability": "nonpayable"
    },
    {
      "type": "function",
      "name": "upgradeToAndCall",
      "inputs": [
        {
          "name": "newImplementation",
          "type": "address",
          "internalType": "address"
        },
        {
          "name": "data",
          "type": "bytes",
          "internalType": "bytes"
        }
      ],
      "outputs": [],
      "stateMutability": "payable"
    },
    {
      "type": "event",
      "name": "NodeContributionUpdated",
      "inputs": [
        {
          "name": "operator",
          "type": "address",
          "indexed": true,
          "internalType": "address"
        },
        {
          "name": "newScore",
          "type": "uint256",
          "indexed": false,
          "internalType": "uint256"
        },
        {
          "name": "timestamp",
          "type": "uint64",
          "indexed": false,
          "internalType": "uint64"
        }
      ],
      "anonymous": false
    },
    {
      "type": "event",
      "name": "Paused",
      "inputs": [
        {
          "name": "account",
          "type": "address",
          "indexed": false,
          "internalType": "address"
        }
      ],
      "anonymous": false
    },
    {
      "type": "event",
      "name": "RewardRateSet",
      "inputs": [
        {
          "name": "newRate",
          "type": "uint256",
          "indexed": false,
          "internalType": "uint256"
        }
      ],
      "anonymous": false
    },
    {
      "type": "event",
      "name": "RewardsClaimed",
      "inputs": [
        {
          "name": "operator",
          "type": "address",
          "indexed": true,
          "internalType": "address"
        },
        {
          "name": "amount",
          "type": "uint256",
          "indexed": false,
          "internalType": "uint256"
        }
      ],
      "anonymous": false
    },
    {
      "type": "event",
      "name": "RewardsDeposited",
      "inputs": [
        {
          "name": "depositor",
          "type": "address",
          "indexed": true,
          "internalType": "address"
        },
        {
          "name": "amount",
          "type": "uint256",
          "indexed": false,
          "internalType": "uint256"
        }
      ],
      "anonymous": false
    },
    {
      "type": "event",
      "name": "RoleAdminChanged",
      "inputs": [
        {
          "name": "role",
          "type": "bytes32",
          "indexed": true,
          "internalType": "bytes32"
        },
        {
          "name": "previousAdminRole",
          "type": "bytes32",
          "indexed": true,
          "internalType": "bytes32"
        },
        {
          "name": "newAdminRole",
          "type": "bytes32",
          "indexed": true,
          "internalType": "bytes32"
        }
      ],
      "anonymous": false
    },
    {
      "type": "event",
      "name": "RoleGranted",
      "inputs": [
        {
          "name": "role",
          "type": "bytes32",
          "indexed": true,
          "internalType": "bytes32"
        },
        {
          "name": "account",
          "type": "address",
          "indexed": true,
          "internalType": "address"
        },
        {
          "name": "sender",
          "type": "address",
          "indexed": true,
          "internalType": "address"
        }
      ],
      "anonymous": false
    },
    {
      "type": "event",
      "name": "RoleRevoked",
      "inputs": [
        {
          "name": "role",
          "type": "bytes32",
          "indexed": true,
          "internalType": "bytes32"
        },
        {
          "name": "account",
          "type": "address",
          "indexed": true,
          "internalType": "address"
        },
        {
          "name": "sender",
          "type": "address",
          "indexed": true,
          "internalType": "address"
        }
      ],
      "anonymous": false
    },
    {
      "type": "event",
      "name": "Unpaused",
      "inputs": [
        {
          "name": "account",
          "type": "address",
          "indexed": false,
          "internalType": "address"
        }
      ],
      "anonymous": false
    },
    {
      "type": "event",
      "name": "Upgraded",
      "inputs": [
        {
          "name": "implementation",
          "type": "address",
          "indexed": true,
          "internalType": "address"
        }
      ],
      "anonymous": false
    },
    {
      "type": "error",
      "name": "AccessControlBadConfirmation",
      "inputs": []
    },
    {
      "type": "error",
      "name": "AccessControlUnauthorizedAccount",
      "inputs": [
        {
          "name": "account",
          "type": "address",
          "internalType": "address"
        },
        {
          "name": "neededRole",
          "type": "bytes32",
          "internalType": "bytes32"
        }
      ]
    },
    {
      "type": "error",
      "name": "AddressEmptyCode",
      "inputs": [
        {
          "name": "target",
          "type": "address",
          "internalType": "address"
        }
      ]
    },
    {
      "type": "error",
      "name": "CallerNotMetricUpdater",
      "inputs": []
    },
    {
      "type": "error",
      "name": "ERC1967InvalidImplementation",
      "inputs": [
        {
          "name": "implementation",
          "type": "address",
          "internalType": "address"
        }
      ]
    },
    {
      "type": "error",
      "name": "ERC1967NonPayable",
      "inputs": []
    },
    {
      "type": "error",
      "name": "EnforcedPause",
      "inputs": []
    },
    {
      "type": "error",
      "name": "ExpectedPause",
      "inputs": []
    },
    {
      "type": "error",
      "name": "FailedCall",
      "inputs": []
    },
    {
      "type": "error",
      "name": "InsufficientFundsForRewards",
      "inputs": []
    },
    {
      "type": "error",
      "name": "InvalidAmount",
      "inputs": [
        {
          "name": "amount",
          "type": "uint256",
          "internalType": "uint256"
        }
      ]
    },
    {
      "type": "error",
      "name": "NoRewardsClaimable",
      "inputs": []
    },
    {
      "type": "error",
      "name": "ReentrancyGuardReentrantCall",
      "inputs": []
    },
    {
      "type": "error",
      "name": "SafeERC20FailedOperation",
      "inputs": [
        {
          "name": "token",
          "type": "address",
          "internalType": "address"
        }
      ]
    },
    {
      "type": "error",
      "name": "UUPSUnauthorizedCallContext",
      "inputs": []
    },
    {
      "type": "error",
      "name": "UUPSUnsupportedProxiableUUID",
      "inputs": [
        {
          "name": "slot",
          "type": "bytes32",
          "internalType": "bytes32"
        }
      ]
    },
    {
      "type": "error",
      "name": "ZeroAddress",
      "inputs": []
    }
  ],
  "bytecode": {
    "object": "0x60c060405230608052348015610013575f80fd5b50604051611f6d380380611f6d833981016040819052610032916101da565b60015f556001600160a01b03821661005d5760405163d92e233d60e01b815260040160405180910390fd5b6001600160a01b0381166100845760405163d92e233d60e01b815260040160405180910390fd5b6001600160a01b03821660a05261009b5f82610112565b506100c67f65d7a28e3265b37a6474929f336521b332c1681b933f6cb9f3376673440d862a82610112565b506100f17f189ab7a9244df0848122154315af71fe140f3db0fe014031783b0946b8c9d2e382610112565b50506006805465ffffffffffff19164265ffffffffffff161790555061020b565b5f8281526002602090815260408083206001600160a01b038516845290915281205460ff166101b6575f8381526002602090815260408083206001600160a01b03861684529091529020805460ff1916600117905561016e3390565b6001600160a01b0316826001600160a01b0316847f2f8788117e7eff1d82e926ec794901d17c78024a50270940304540a733656f0d60405160405180910390a45060016101b9565b505f5b92915050565b80516001600160a01b03811681146101d5575f80fd5b919050565b5f80604083850312156101eb575f80fd5b6101f4836101bf565b9150610202602084016101bf565b90509250929050565b60805160a051611d1e61024f5f395f81816105c90152818161082e015281816108ef0152610c0201525f818161112f0152818161115801526113960152611d1e5ff3fe6080604052600436106101af575f3560e01c80638bdf67f2116100e7578063d547741f11610087578063f51ace7011610062578063f51ace701461053d578063f58a860714610552578063f72c0d8b14610585578063f7c618c1146105b8575f80fd5b8063d547741f146104cc578063dc01f60d146104eb578063e63ab1e91461050a575f80fd5b80639e447fc6116100c25780639e447fc614610430578063a217fddf1461044f578063ab305d2014610462578063ad3cb1cc14610477575f80fd5b80638bdf67f21461038d5780638d77ca57146103ac57806391d14854146103df575f80fd5b80633f4ba83a1161015257806352d1902d1161012d57806352d1902d146103195780635c975abb1461032d578063803b31a9146103445780638456cb5914610379575f80fd5b80633f4ba83a146102d35780634e06f353146102e75780634f1ef28614610306575f80fd5b8063248a9ca31161018d578063248a9ca3146102515780632f2ff15d1461027f57806336568abe146102a0578063372500ab146102bf575f80fd5b806301ffc9a7146101b3578063136f08c2146101e757806323c2e2bc1461020a575b5f80fd5b3480156101be575f80fd5b506101d26101cd36600461198e565b610610565b60405190151581526020015b60405180910390f35b3480156101f2575f80fd5b506101fc60055481565b6040519081526020016101de565b348015610215575f80fd5b5061023c6102243660046119f5565b60036020525f90815260409020805460019091015482565b604080519283526020830191909152016101de565b34801561025c575f80fd5b506101fc61026b366004611a0e565b5f9081526002602052604090206001015490565b34801561028a575f80fd5b5061029e610299366004611a25565b6106a8565b005b3480156102ab575f80fd5b5061029e6102ba366004611a25565b6106d2565b3480156102ca575f80fd5b5061029e610730565b3480156102de575f80fd5b5061029e610974565b3480156102f2575f80fd5b5061029e610301366004611a4f565b6109a9565b61029e610314366004611ac5565b610b03565b348015610324575f80fd5b506101fc610b22565b348015610338575f80fd5b5060015460ff166101d2565b34801561034f575f80fd5b506006546103629065ffffffffffff1681565b60405165ffffffffffff90911681526020016101de565b348015610384575f80fd5b5061029e610b50565b348015610398575f80fd5b5061029e6103a7366004611a0e565b610b82565b3480156103b7575f80fd5b506101fc7f2b3b34d8f2cbfb9866f3463c0bc43f6d821c949e95f5ca06701a7756b45ebc8e81565b3480156103ea575f80fd5b506101d26103f9366004611a25565b5f91825260026020908152604080842073ffffffffffffffffffffffffffffffffffffffff93909316845291905290205460ff1690565b34801561043b575f80fd5b5061029e61044a366004611a0e565b610c7e565b34801561045a575f80fd5b506101fc5f81565b34801561046d575f80fd5b506101fc60075481565b348015610482575f80fd5b506104bf6040518060400160405280600581526020017f352e302e3000000000000000000000000000000000000000000000000000000081525081565b6040516101de9190611bc6565b3480156104d7575f80fd5b5061029e6104e6366004611a25565b610ccc565b3480156104f6575f80fd5b506101fc6105053660046119f5565b610cf0565b348015610515575f80fd5b506101fc7f65d7a28e3265b37a6474929f336521b332c1681b933f6cb9f3376673440d862a81565b348015610548575f80fd5b506101fc60045481565b34801561055d575f80fd5b506101fc7f32e2871f61ddc79b070eebfaed80c8f55027023b24db38fa6a5c980e039ec39881565b348015610590575f80fd5b506101fc7f189ab7a9244df0848122154315af71fe140f3db0fe014031783b0946b8c9d2e381565b3480156105c3575f80fd5b506105eb7f000000000000000000000000000000000000000000000000000000000000000081565b60405173ffffffffffffffffffffffffffffffffffffffff90911681526020016101de565b5f7fffffffff0000000000000000000000000000000000000000000000000000000082167f7965db0b0000000000000000000000000000000000000000000000000000000014806106a257507f01ffc9a7000000000000000000000000000000000000000000000000000000007fffffffff000000000000000000000000000000000000000000000000000000008316145b92915050565b5f828152600260205260409020600101546106c281610dcf565b6106cc8383610dd9565b50505050565b73ffffffffffffffffffffffffffffffffffffffff81163314610721576040517f6697b23200000000000000000000000000000000000000000000000000000000815260040160405180910390fd5b61072b8282610ed6565b505050565b610738610f93565b610740610fd4565b3361074a81611011565b5f61075482610cf0565b9050805f0361078f576040517f5d113c7500000000000000000000000000000000000000000000000000000000815260040160405180910390fd5b60075473ffffffffffffffffffffffffffffffffffffffff83165f90815260036020526040902054670de0b6b3a7640000916107ca91611c46565b6107d49190611c5d565b73ffffffffffffffffffffffffffffffffffffffff8381165f908152600360205260408082206001019390935591517f70a082310000000000000000000000000000000000000000000000000000000081523060048201527f0000000000000000000000000000000000000000000000000000000000000000909116906370a0823190602401602060405180830381865afa158015610875573d5f803e3d5ffd5b505050506040513d601f19601f820116820180604052508101906108999190611c95565b9050808211156108d5576040517f65203d1800000000000000000000000000000000000000000000000000000000815260040160405180910390fd5b61091673ffffffffffffffffffffffffffffffffffffffff7f0000000000000000000000000000000000000000000000000000000000000000168484611019565b8273ffffffffffffffffffffffffffffffffffffffff167ffc30cddea38e2bf4d6ea7d3f9ed3b6ad7f176419f4963bd81318067a4aee73fe8360405161095e91815260200190565b60405180910390a250505061097260015f55565b565b7f65d7a28e3265b37a6474929f336521b332c1681b933f6cb9f3376673440d862a61099e81610dcf565b6109a661109a565b50565b335f9081527f766175085c1d5c348c548db0cac64e27fb4b2409c6c12f98c62df0a5f4d3e076602052604090205460ff16610a10576040517ffb63a47600000000000000000000000000000000000000000000000000000000815260040160405180910390fd5b610a1983611011565b73ffffffffffffffffffffffffffffffffffffffff83165f90815260036020526040812080549091849003610a4f575050505050565b5f610a5a8583611cac565b90508082600554610a6b9190611cbf565b610a759190611cac565b600555808355600754670de0b6b3a764000090610a929083611c46565b610a9c9190611c5d565b60018401556040805182815267ffffffffffffffff8616602082015273ffffffffffffffffffffffffffffffffffffffff8816917f79a059279b48fa426829d9e62f7e6d3dcff2136e7ce4d0bc446e87f72a997810910160405180910390a2505050505050565b610b0b611117565b610b148261121b565b610b1e8282611245565b5050565b5f610b2b61137e565b507f360894a13ba1a3210667c828492db98dca3e2076cc3735a920a3ca505d382bbc90565b7f65d7a28e3265b37a6474929f336521b332c1681b933f6cb9f3376673440d862a610b7a81610dcf565b6109a66113ed565b610b8a610f93565b610b92610fd4565b7f2b3b34d8f2cbfb9866f3463c0bc43f6d821c949e95f5ca06701a7756b45ebc8e610bbc81610dcf565b815f03610bfd576040517f3728b83d000000000000000000000000000000000000000000000000000000008152600481018390526024015b60405180910390fd5b610c3f7f000000000000000000000000000000000000000000000000000000000000000073ffffffffffffffffffffffffffffffffffffffff16333085611446565b60405182815233907fb8b27d0db504fa5d914f1fd330347096e88d5ff94b6c612d32797e7c12a8f66f9060200160405180910390a2506109a660015f55565b5f610c8881610dcf565b610c9061148c565b60048290556040518281527f8cbfafc8e0d9c5c81401c4b9c6e7d201198adc7eb8f8f1556c195ecd4c0a0e7b9060200160405180910390a15050565b5f82815260026020526040902060010154610ce681610dcf565b6106cc8383610ed6565b73ffffffffffffffffffffffffffffffffffffffff81165f90815260036020526040812060075460055415801590610d31575060065465ffffffffffff1642115b15610d8f576006545f90610d4d9065ffffffffffff1642611cbf565b90505f60045482610d5e9190611c46565b600554909150610d76670de0b6b3a764000083611c46565b610d809190611c5d565b610d8a9084611cac565b925050505b5f670de0b6b3a764000082845f0154610da89190611c46565b610db29190611c5d565b90505f836001015482610dc59190611cbf565b9695505050505050565b6109a68133611571565b5f82815260026020908152604080832073ffffffffffffffffffffffffffffffffffffffff8516845290915281205460ff16610ecf575f83815260026020908152604080832073ffffffffffffffffffffffffffffffffffffffff86168452909152902080547fffffffffffffffffffffffffffffffffffffffffffffffffffffffffffffff00166001179055610e6d3390565b73ffffffffffffffffffffffffffffffffffffffff168273ffffffffffffffffffffffffffffffffffffffff16847f2f8788117e7eff1d82e926ec794901d17c78024a50270940304540a733656f0d60405160405180910390a45060016106a2565b505f6106a2565b5f82815260026020908152604080832073ffffffffffffffffffffffffffffffffffffffff8516845290915281205460ff1615610ecf575f83815260026020908152604080832073ffffffffffffffffffffffffffffffffffffffff8616808552925280832080547fffffffffffffffffffffffffffffffffffffffffffffffffffffffffffffff0016905551339286917ff6391f5c32d9c69d2a47ea670b442974b53935d1edc7fd64eb21e047a839171b9190a45060016106a2565b60025f5403610fce576040517f3ee5aeb500000000000000000000000000000000000000000000000000000000815260040160405180910390fd5b60025f55565b60015460ff1615610972576040517fd93c066500000000000000000000000000000000000000000000000000000000815260040160405180910390fd5b6109a661148c565b60405173ffffffffffffffffffffffffffffffffffffffff83811660248301526044820183905261072b91859182169063a9059cbb906064015b604051602081830303815290604052915060e01b6020820180517bffffffffffffffffffffffffffffffffffffffffffffffffffffffff83818316178352505050506115f8565b6110a2611697565b600180547fffffffffffffffffffffffffffffffffffffffffffffffffffffffffffffff001690557f5db9ee0a495bf2e6ff9c91a7834c1ba4fdd244a5e8aa4e537bd38aeae4b073aa335b60405173ffffffffffffffffffffffffffffffffffffffff909116815260200160405180910390a1565b3073ffffffffffffffffffffffffffffffffffffffff7f00000000000000000000000000000000000000000000000000000000000000001614806111e457507f000000000000000000000000000000000000000000000000000000000000000073ffffffffffffffffffffffffffffffffffffffff166111cb7f360894a13ba1a3210667c828492db98dca3e2076cc3735a920a3ca505d382bbc5473ffffffffffffffffffffffffffffffffffffffff1690565b73ffffffffffffffffffffffffffffffffffffffff1614155b15610972576040517fe07c8dba00000000000000000000000000000000000000000000000000000000815260040160405180910390fd5b7f189ab7a9244df0848122154315af71fe140f3db0fe014031783b0946b8c9d2e3610b1e81610dcf565b8173ffffffffffffffffffffffffffffffffffffffff166352d1902d6040518163ffffffff1660e01b8152600401602060405180830381865afa9250505080156112ca575060408051601f3d9081017fffffffffffffffffffffffffffffffffffffffffffffffffffffffffffffffe01682019092526112c791810190611c95565b60015b611318576040517f4c9c8ce300000000000000000000000000000000000000000000000000000000815273ffffffffffffffffffffffffffffffffffffffff83166004820152602401610bf4565b7f360894a13ba1a3210667c828492db98dca3e2076cc3735a920a3ca505d382bbc8114611374576040517faa1d49a400000000000000000000000000000000000000000000000000000000815260048101829052602401610bf4565b61072b83836116d3565b3073ffffffffffffffffffffffffffffffffffffffff7f00000000000000000000000000000000000000000000000000000000000000001614610972576040517fe07c8dba00000000000000000000000000000000000000000000000000000000815260040160405180910390fd5b6113f5610fd4565b600180547fffffffffffffffffffffffffffffffffffffffffffffffffffffffffffffff0016811790557f62e78cea01bee320cd4e420270b5ea74000d11b0c9f74754ebdbfc544b05a258336110ed565b60405173ffffffffffffffffffffffffffffffffffffffff84811660248301528381166044830152606482018390526106cc9186918216906323b872dd90608401611053565b60065465ffffffffffff16421161149f57565b6005545f036114dc57600680547fffffffffffffffffffffffffffffffffffffffffffffffffffff000000000000164265ffffffffffff16179055565b6006545f906114f39065ffffffffffff1642611cbf565b90505f600454826115049190611c46565b60055490915061151c670de0b6b3a764000083611c46565b6115269190611c5d565b60075f8282546115369190611cac565b9091555050600680547fffffffffffffffffffffffffffffffffffffffffffffffffffff000000000000164265ffffffffffff161790555050565b5f82815260026020908152604080832073ffffffffffffffffffffffffffffffffffffffff8516845290915290205460ff16610b1e576040517fe2517d3f00000000000000000000000000000000000000000000000000000000815273ffffffffffffffffffffffffffffffffffffffff8216600482015260248101839052604401610bf4565b5f8060205f8451602086015f885af180611617576040513d5f823e3d81fd5b50505f513d9150811561162e578060011415611648565b73ffffffffffffffffffffffffffffffffffffffff84163b155b156106cc576040517f5274afe700000000000000000000000000000000000000000000000000000000815273ffffffffffffffffffffffffffffffffffffffff85166004820152602401610bf4565b60015460ff16610972576040517f8dfc202b00000000000000000000000000000000000000000000000000000000815260040160405180910390fd5b6116dc82611735565b60405173ffffffffffffffffffffffffffffffffffffffff8316907fbc7cd75a20ee27fd9adebab32041f755214dbc6bffa90cc0225b39da2e5c2d3b905f90a280511561172d5761072b8282611803565b610b1e611882565b8073ffffffffffffffffffffffffffffffffffffffff163b5f0361179d576040517f4c9c8ce300000000000000000000000000000000000000000000000000000000815273ffffffffffffffffffffffffffffffffffffffff82166004820152602401610bf4565b7f360894a13ba1a3210667c828492db98dca3e2076cc3735a920a3ca505d382bbc80547fffffffffffffffffffffffff00000000000000000000000000000000000000001673ffffffffffffffffffffffffffffffffffffffff92909216919091179055565b60605f808473ffffffffffffffffffffffffffffffffffffffff168460405161182c9190611cd2565b5f60405180830381855af49150503d805f8114611864576040519150601f19603f3d011682016040523d82523d5f602084013e611869565b606091505b50915091506118798583836118ba565b95945050505050565b3415610972576040517fb398979f00000000000000000000000000000000000000000000000000000000815260040160405180910390fd5b6060826118cf576118ca8261194c565b611945565b81511580156118f3575073ffffffffffffffffffffffffffffffffffffffff84163b155b15611942576040517f9996b31500000000000000000000000000000000000000000000000000000000815273ffffffffffffffffffffffffffffffffffffffff85166004820152602401610bf4565b50805b9392505050565b80511561195c5780518082602001fd5b6040517fd6bda27500000000000000000000000000000000000000000000000000000000815260040160405180910390fd5b5f6020828403121561199e575f80fd5b81357fffffffff0000000000000000000000000000000000000000000000000000000081168114611945575f80fd5b803573ffffffffffffffffffffffffffffffffffffffff811681146119f0575f80fd5b919050565b5f60208284031215611a05575f80fd5b611945826119cd565b5f60208284031215611a1e575f80fd5b5035919050565b5f8060408385031215611a36575f80fd5b82359150611a46602084016119cd565b90509250929050565b5f805f60608486031215611a61575f80fd5b611a6a846119cd565b925060208401359150604084013567ffffffffffffffff81168114611a8d575f80fd5b809150509250925092565b7f4e487b71000000000000000000000000000000000000000000000000000000005f52604160045260245ffd5b5f8060408385031215611ad6575f80fd5b611adf836119cd565b9150602083013567ffffffffffffffff811115611afa575f80fd5b8301601f81018513611b0a575f80fd5b803567ffffffffffffffff811115611b2457611b24611a98565b6040517fffffffffffffffffffffffffffffffffffffffffffffffffffffffffffffffe0603f7fffffffffffffffffffffffffffffffffffffffffffffffffffffffffffffffe0601f8501160116810181811067ffffffffffffffff82111715611b9057611b90611a98565b604052818152828201602001871015611ba7575f80fd5b816020840160208301375f602083830101528093505050509250929050565b602081525f82518060208401528060208501604085015e5f6040828501015260407fffffffffffffffffffffffffffffffffffffffffffffffffffffffffffffffe0601f83011684010191505092915050565b7f4e487b71000000000000000000000000000000000000000000000000000000005f52601160045260245ffd5b80820281158282048414176106a2576106a2611c19565b5f82611c90577f4e487b71000000000000000000000000000000000000000000000000000000005f52601260045260245ffd5b500490565b5f60208284031215611ca5575f80fd5b5051919050565b808201808211156106a2576106a2611c19565b818103818111156106a2576106a2611c19565b5f82518060208501845e5f92019182525091905056fea26469706673582212203a4c718d3164f44e5a695a0a495c5ce107e2cde2ab6f91ee8188c13ca56b0fb564736f6c634300081a0033",
    "linkReferences": {}
  },
  "methodIdentifiers": {
    "DEFAULT_ADMIN_ROLE()": "a217fddf",
    "METRIC_UPDATER_ROLE()": "f58a8607",
    "PAUSER_ROLE()": "e63ab1e9",
    "REWARD_DEPOSITOR_ROLE()": "8d77ca57",
    "UPGRADER_ROLE()": "f72c0d8b",
    "UPGRADE_INTERFACE_VERSION()": "ad3cb1cc",
    "accumulatedRewardsPerScoreUnit()": "ab305d20",
    "claimRewards()": "372500ab",
    "claimableRewards(address)": "dc01f60d",
    "currentRewardRate()": "f51ace70",
    "depositRewards(uint256)": "8bdf67f2",
    "getRoleAdmin(bytes32)": "248a9ca3",
    "grantRole(bytes32,address)": "2f2ff15d",
    "hasRole(bytes32,address)": "91d14854",
    "lastGlobalUpdateTime()": "803b31a9",
    "nodeInfo(address)": "23c2e2bc",
    "pause()": "8456cb59",
    "paused()": "5c975abb",
    "proxiableUUID()": "52d1902d",
    "renounceRole(bytes32,address)": "36568abe",
    "revokeRole(bytes32,address)": "d547741f",
    "rewardToken()": "f7c618c1",
    "setRewardRate(uint256)": "9e447fc6",
    "supportsInterface(bytes4)": "01ffc9a7",
    "totalContributionScore()": "136f08c2",
    "unpause()": "3f4ba83a",
    "updateNodeContribution(address,uint256,uint64)": "4e06f353",
    "upgradeToAndCall(address,bytes)": "4f1ef286"
  },
  "id": 51
}