{
  "abi": [
    {
      "type": "function",
      "name": "DEFAULT_ADMIN_ROLE",
      "inputs": [],
      "outputs": [
        {
          "name": "",
          "type": "bytes32",
          "internalType": "bytes32"
        }
      ],
      "stateMutability": "view"
    },
    {
      "type": "function",
      "name": "UPGRADE_INTERFACE_VERSION",
      "inputs": [],
      "outputs": [
        {
          "name": "",
          "type": "string",
          "internalType": "string"
        }
      ],
      "stateMutability": "view"
    },
    {
      "type": "function",
      "name": "assessmentInterval",
      "inputs": [],
      "outputs": [
        {
          "name": "",
          "type": "uint256",
          "internalType": "uint256"
        }
      ],
      "stateMutability": "view"
    },
    {
      "type": "function",
      "name": "getPoolId",
      "inputs": [
        {
          "name": "projectId",
          "type": "uint256",
          "internalType": "uint256"
        }
      ],
      "outputs": [
        {
          "name": "",
          "type": "uint256",
          "internalType": "uint256"
        }
      ],
      "stateMutability": "view"
    },
    {
      "type": "function",
      "name": "getProjectRiskLevel",
      "inputs": [
        {
          "name": "projectId",
          "type": "uint256",
          "internalType": "uint256"
        }
      ],
      "outputs": [
        {
          "name": "",
          "type": "uint16",
          "internalType": "uint16"
        }
      ],
      "stateMutability": "view"
    },
    {
      "type": "function",
      "name": "getRoleAdmin",
      "inputs": [
        {
          "name": "role",
          "type": "bytes32",
          "internalType": "bytes32"
        }
      ],
      "outputs": [
        {
          "name": "",
          "type": "bytes32",
          "internalType": "bytes32"
        }
      ],
      "stateMutability": "view"
    },
    {
      "type": "function",
      "name": "getRoleMember",
      "inputs": [
        {
          "name": "role",
          "type": "bytes32",
          "internalType": "bytes32"
        },
        {
          "name": "index",
          "type": "uint256",
          "internalType": "uint256"
        }
      ],
      "outputs": [
        {
          "name": "",
          "type": "address",
          "internalType": "address"
        }
      ],
      "stateMutability": "view"
    },
    {
      "type": "function",
      "name": "getRoleMemberCount",
      "inputs": [
        {
          "name": "role",
          "type": "bytes32",
          "internalType": "bytes32"
        }
      ],
      "outputs": [
        {
          "name": "",
          "type": "uint256",
          "internalType": "uint256"
        }
      ],
      "stateMutability": "view"
    },
    {
      "type": "function",
      "name": "getRoleMembers",
      "inputs": [
        {
          "name": "role",
          "type": "bytes32",
          "internalType": "bytes32"
        }
      ],
      "outputs": [
        {
          "name": "",
          "type": "address[]",
          "internalType": "address[]"
        }
      ],
      "stateMutability": "view"
    },
    {
      "type": "function",
      "name": "getTargetContract",
      "inputs": [
        {
          "name": "projectId",
          "type": "uint256",
          "internalType": "uint256"
        }
      ],
      "outputs": [
        {
          "name": "",
          "type": "address",
          "internalType": "address"
        }
      ],
      "stateMutability": "view"
    },
    {
      "type": "function",
      "name": "grantRole",
      "inputs": [
        {
          "name": "role",
          "type": "bytes32",
          "internalType": "bytes32"
        },
        {
          "name": "account",
          "type": "address",
          "internalType": "address"
        }
      ],
      "outputs": [],
      "stateMutability": "nonpayable"
    },
    {
      "type": "function",
      "name": "hasRole",
      "inputs": [
        {
          "name": "role",
          "type": "bytes32",
          "internalType": "bytes32"
        },
        {
          "name": "account",
          "type": "address",
          "internalType": "address"
        }
      ],
      "outputs": [
        {
          "name": "",
          "type": "bool",
          "internalType": "bool"
        }
      ],
      "stateMutability": "view"
    },
    {
      "type": "function",
      "name": "initialize",
      "inputs": [
        {
          "name": "_admin",
          "type": "address",
          "internalType": "address"
        }
      ],
      "outputs": [],
      "stateMutability": "nonpayable"
    },
    {
      "type": "function",
      "name": "lastAssessmentTimestamp",
      "inputs": [
        {
          "name": "",
          "type": "uint256",
          "internalType": "uint256"
        }
      ],
      "outputs": [
        {
          "name": "",
          "type": "uint256",
          "internalType": "uint256"
        }
      ],
      "stateMutability": "view"
    },
    {
      "type": "function",
      "name": "projectPoolId",
      "inputs": [
        {
          "name": "",
          "type": "uint256",
          "internalType": "uint256"
        }
      ],
      "outputs": [
        {
          "name": "",
          "type": "uint256",
          "internalType": "uint256"
        }
      ],
      "stateMutability": "view"
    },
    {
      "type": "function",
      "name": "projectRiskLevels",
      "inputs": [
        {
          "name": "",
          "type": "uint256",
          "internalType": "uint256"
        }
      ],
      "outputs": [
        {
          "name": "",
          "type": "uint16",
          "internalType": "uint16"
        }
      ],
      "stateMutability": "view"
    },
    {
      "type": "function",
      "name": "projectTargetContract",
      "inputs": [
        {
          "name": "",
          "type": "uint256",
          "internalType": "uint256"
        }
      ],
      "outputs": [
        {
          "name": "",
          "type": "address",
          "internalType": "address"
        }
      ],
      "stateMutability": "view"
    },
    {
      "type": "function",
      "name": "proxiableUUID",
      "inputs": [],
      "outputs": [
        {
          "name": "",
          "type": "bytes32",
          "internalType": "bytes32"
        }
      ],
      "stateMutability": "view"
    },
    {
      "type": "function",
      "name": "pushRiskParams",
      "inputs": [
        {
          "name": "projectId",
          "type": "uint256",
          "internalType": "uint256"
        },
        {
          "name": "aprBps",
          "type": "uint16",
          "internalType": "uint16"
        },
        {
          "name": "tenor",
          "type": "uint48",
          "internalType": "uint48"
        }
      ],
      "outputs": [],
      "stateMutability": "nonpayable"
    },
    {
      "type": "function",
      "name": "renounceRole",
      "inputs": [
        {
          "name": "role",
          "type": "bytes32",
          "internalType": "bytes32"
        },
        {
          "name": "callerConfirmation",
          "type": "address",
          "internalType": "address"
        }
      ],
      "outputs": [],
      "stateMutability": "nonpayable"
    },
    {
      "type": "function",
      "name": "requestPeriodicAssessment",
      "inputs": [
        {
          "name": "projectId",
          "type": "uint256",
          "internalType": "uint256"
        }
      ],
      "outputs": [],
      "stateMutability": "nonpayable"
    },
    {
      "type": "function",
      "name": "revokeRole",
      "inputs": [
        {
          "name": "role",
          "type": "bytes32",
          "internalType": "bytes32"
        },
        {
          "name": "account",
          "type": "address",
          "internalType": "address"
        }
      ],
      "outputs": [],
      "stateMutability": "nonpayable"
    },
    {
      "type": "function",
      "name": "setAssessmentInterval",
      "inputs": [
        {
          "name": "newInterval",
          "type": "uint256",
          "internalType": "uint256"
        }
      ],
      "outputs": [],
      "stateMutability": "nonpayable"
    },
    {
      "type": "function",
      "name": "setProjectRiskLevel",
      "inputs": [
        {
          "name": "projectId",
          "type": "uint256",
          "internalType": "uint256"
        },
        {
          "name": "riskLevel",
          "type": "uint16",
          "internalType": "uint16"
        }
      ],
      "outputs": [],
      "stateMutability": "nonpayable"
    },
    {
      "type": "function",
      "name": "setTargetContract",
      "inputs": [
        {
          "name": "projectId",
          "type": "uint256",
          "internalType": "uint256"
        },
        {
          "name": "targetContract",
          "type": "address",
          "internalType": "address"
        },
        {
          "name": "poolId",
          "type": "uint256",
          "internalType": "uint256"
        }
      ],
      "outputs": [],
      "stateMutability": "nonpayable"
    },
    {
      "type": "function",
      "name": "supportsInterface",
      "inputs": [
        {
          "name": "interfaceId",
          "type": "bytes4",
          "internalType": "bytes4"
        }
      ],
      "outputs": [
        {
          "name": "",
          "type": "bool",
          "internalType": "bool"
        }
      ],
      "stateMutability": "view"
    },
    {
      "type": "function",
      "name": "triggerBatchRiskAssessment",
      "inputs": [],
      "outputs": [],
      "stateMutability": "nonpayable"
    },
    {
      "type": "function",
      "name": "upgradeToAndCall",
      "inputs": [
        {
          "name": "newImplementation",
          "type": "address",
          "internalType": "address"
        },
        {
          "name": "data",
          "type": "bytes",
          "internalType": "bytes"
        }
      ],
      "outputs": [],
      "stateMutability": "payable"
    },
    {
      "type": "event",
      "name": "AssessmentIntervalUpdated",
      "inputs": [
        {
          "name": "oldInterval",
          "type": "uint256",
          "indexed": false,
          "internalType": "uint256"
        },
        {
          "name": "newInterval",
          "type": "uint256",
          "indexed": false,
          "internalType": "uint256"
        }
      ],
      "anonymous": false
    },
    {
      "type": "event",
      "name": "BatchRiskAssessmentTriggered",
      "inputs": [
        {
          "name": "timestamp",
          "type": "uint256",
          "indexed": false,
          "internalType": "uint256"
        }
      ],
      "anonymous": false
    },
    {
      "type": "event",
      "name": "Initialized",
      "inputs": [
        {
          "name": "version",
          "type": "uint64",
          "indexed": false,
          "internalType": "uint64"
        }
      ],
      "anonymous": false
    },
    {
      "type": "event",
      "name": "PeriodicAssessmentRequested",
      "inputs": [
        {
          "name": "projectId",
          "type": "uint256",
          "indexed": true,
          "internalType": "uint256"
        },
        {
          "name": "timestamp",
          "type": "uint256",
          "indexed": false,
          "internalType": "uint256"
        },
        {
          "name": "targetContract",
          "type": "address",
          "indexed": false,
          "internalType": "address"
        },
        {
          "name": "poolId",
          "type": "uint256",
          "indexed": false,
          "internalType": "uint256"
        }
      ],
      "anonymous": false
    },
    {
      "type": "event",
      "name": "ProjectRiskLevelSet",
      "inputs": [
        {
          "name": "projectId",
          "type": "uint256",
          "indexed": true,
          "internalType": "uint256"
        },
        {
          "name": "riskLevel",
          "type": "uint16",
          "indexed": false,
          "internalType": "uint16"
        }
      ],
      "anonymous": false
    },
    {
      "type": "event",
      "name": "RiskParamsPushed",
      "inputs": [
        {
          "name": "projectId",
          "type": "uint256",
          "indexed": true,
          "internalType": "uint256"
        },
        {
          "name": "targetContract",
          "type": "address",
          "indexed": true,
          "internalType": "address"
        },
        {
          "name": "oracle",
          "type": "address",
          "indexed": true,
          "internalType": "address"
        },
        {
          "name": "aprBps",
          "type": "uint16",
          "indexed": false,
          "internalType": "uint16"
        },
        {
          "name": "tenor",
          "type": "uint48",
          "indexed": false,
          "internalType": "uint48"
        }
      ],
      "anonymous": false
    },
    {
      "type": "event",
      "name": "RoleAdminChanged",
      "inputs": [
        {
          "name": "role",
          "type": "bytes32",
          "indexed": true,
          "internalType": "bytes32"
        },
        {
          "name": "previousAdminRole",
          "type": "bytes32",
          "indexed": true,
          "internalType": "bytes32"
        },
        {
          "name": "newAdminRole",
          "type": "bytes32",
          "indexed": true,
          "internalType": "bytes32"
        }
      ],
      "anonymous": false
    },
    {
      "type": "event",
      "name": "RoleGranted",
      "inputs": [
        {
          "name": "role",
          "type": "bytes32",
          "indexed": true,
          "internalType": "bytes32"
        },
        {
          "name": "account",
          "type": "address",
          "indexed": true,
          "internalType": "address"
        },
        {
          "name": "sender",
          "type": "address",
          "indexed": true,
          "internalType": "address"
        }
      ],
      "anonymous": false
    },
    {
      "type": "event",
      "name": "RoleRevoked",
      "inputs": [
        {
          "name": "role",
          "type": "bytes32",
          "indexed": true,
          "internalType": "bytes32"
        },
        {
          "name": "account",
          "type": "address",
          "indexed": true,
          "internalType": "address"
        },
        {
          "name": "sender",
          "type": "address",
          "indexed": true,
          "internalType": "address"
        }
      ],
      "anonymous": false
    },
    {
      "type": "event",
      "name": "TargetContractSet",
      "inputs": [
        {
          "name": "projectId",
          "type": "uint256",
          "indexed": true,
          "internalType": "uint256"
        },
        {
          "name": "targetContract",
          "type": "address",
          "indexed": true,
          "internalType": "address"
        },
        {
          "name": "setter",
          "type": "address",
          "indexed": true,
          "internalType": "address"
        }
      ],
      "anonymous": false
    },
    {
      "type": "event",
      "name": "Upgraded",
      "inputs": [
        {
          "name": "implementation",
          "type": "address",
          "indexed": true,
          "internalType": "address"
        }
      ],
      "anonymous": false
    },
    {
      "type": "error",
      "name": "AccessControlBadConfirmation",
      "inputs": []
    },
    {
      "type": "error",
      "name": "AccessControlUnauthorizedAccount",
      "inputs": [
        {
          "name": "account",
          "type": "address",
          "internalType": "address"
        },
        {
          "name": "neededRole",
          "type": "bytes32",
          "internalType": "bytes32"
        }
      ]
    },
    {
      "type": "error",
      "name": "AddressEmptyCode",
      "inputs": [
        {
          "name": "target",
          "type": "address",
          "internalType": "address"
        }
      ]
    },
    {
      "type": "error",
      "name": "ERC1967InvalidImplementation",
      "inputs": [
        {
          "name": "implementation",
          "type": "address",
          "internalType": "address"
        }
      ]
    },
    {
      "type": "error",
      "name": "ERC1967NonPayable",
      "inputs": []
    },
    {
      "type": "error",
      "name": "FailedCall",
      "inputs": []
    },
    {
      "type": "error",
      "name": "InvalidInitialization",
      "inputs": []
    },
    {
      "type": "error",
      "name": "InvalidOracleData",
      "inputs": [
        {
          "name": "reason",
          "type": "string",
          "internalType": "string"
        }
      ]
    },
    {
      "type": "error",
      "name": "InvalidValue",
      "inputs": [
        {
          "name": "reason",
          "type": "string",
          "internalType": "string"
        }
      ]
    },
    {
      "type": "error",
      "name": "NotInitializing",
      "inputs": []
    },
    {
      "type": "error",
      "name": "TargetContractNotSet",
      "inputs": [
        {
          "name": "projectId",
          "type": "uint256",
          "internalType": "uint256"
        }
      ]
    },
    {
      "type": "error",
      "name": "UUPSUnauthorizedCallContext",
      "inputs": []
    },
    {
      "type": "error",
      "name": "UUPSUnsupportedProxiableUUID",
      "inputs": [
        {
          "name": "slot",
          "type": "bytes32",
          "internalType": "bytes32"
        }
      ]
    },
    {
      "type": "error",
      "name": "ZeroAddressNotAllowed",
      "inputs": []
    }
  ],
  "bytecode": {
    "object": "0x60a06040523060805262093a806005553480156019575f80fd5b506080516125786100405f395f81816114250152818161144e01526116db01526125785ff3fe6080604052600436106101af575f3560e01c8063a217fddf116100e7578063c4d66de811610087578063d8d98d0b11610062578063d8d98d0b146105ac578063e7ef0fdc146105d7578063ebd1544814610602578063f322b0ae14610621575f80fd5b8063c4d66de81461054f578063ca15c8731461056e578063d547741f1461058d575f80fd5b8063ad3cb1cc116100c2578063ad3cb1cc1461046f578063b6ec0db3146104c4578063bccd5eee146104e3578063bcfaa30e14610524575f80fd5b8063a217fddf14610401578063a3246ad314610414578063a884fac214610440575f80fd5b806352d1902d1161015257806375cef6c81161012d57806375cef6c81461030e57806389a413c7146103745780639010d07c1461039357806391d14854146103b2575f80fd5b806352d1902d146102c75780636c4d71c3146102db5780636df8683f146102ef575f80fd5b8063248a9ca31161018d578063248a9ca31461023a5780632f2ff15d1461027657806336568abe146102955780634f1ef286146102b4575f80fd5b806301ffc9a7146101b35780630630bcd7146101e75780630802010414610219575b5f80fd5b3480156101be575f80fd5b506101d26101cd366004611edf565b610636565b60405190151581526020015b60405180910390f35b3480156101f2575f80fd5b50610206610201366004611f1e565b610700565b60405161ffff90911681526020016101de565b348015610224575f80fd5b50610238610233366004611f4b565b610786565b005b348015610245575f80fd5b50610268610254366004611f1e565b5f9081526020819052604090206001015490565b6040519081526020016101de565b348015610281575f80fd5b50610238610290366004611f98565b6108a6565b3480156102a0575f80fd5b506102386102af366004611f98565b6108d0565b6102386102c2366004612031565b61092e565b3480156102d2575f80fd5b5061026861094d565b3480156102e6575f80fd5b5061023861097c565b3480156102fa575f80fd5b506102386103093660046120f8565b6109db565b348015610319575f80fd5b5061034f610328366004611f1e565b5f9081526002602052604090205473ffffffffffffffffffffffffffffffffffffffff1690565b60405173ffffffffffffffffffffffffffffffffffffffff90911681526020016101de565b34801561037f575f80fd5b5061023861038e366004611f1e565b610dd5565b34801561039e575f80fd5b5061034f6103ad36600461213f565b610e92565b3480156103bd575f80fd5b506101d26103cc366004611f98565b5f9182526020828152604080842073ffffffffffffffffffffffffffffffffffffffff93909316845291905290205460ff1690565b34801561040c575f80fd5b506102685f81565b34801561041f575f80fd5b5061043361042e366004611f1e565b610eb0565b6040516101de919061215f565b34801561044b575f80fd5b5061020661045a366004611f1e565b60066020525f908152604090205461ffff1681565b34801561047a575f80fd5b506104b76040518060400160405280600581526020017f352e302e3000000000000000000000000000000000000000000000000000000081525081565b6040516101de91906121b7565b3480156104cf575f80fd5b506102386104de36600461220a565b610ec9565b3480156104ee575f80fd5b5061034f6104fd366004611f1e565b60026020525f908152604090205473ffffffffffffffffffffffffffffffffffffffff1681565b34801561052f575f80fd5b5061026861053e366004611f1e565b60036020525f908152604090205481565b34801561055a575f80fd5b5061023861056936600461223d565b610fec565b348015610579575f80fd5b50610268610588366004611f1e565b6111fa565b348015610598575f80fd5b506102386105a7366004611f98565b611210565b3480156105b7575f80fd5b506102686105c6366004611f1e565b60046020525f908152604090205481565b3480156105e2575f80fd5b506102686105f1366004611f1e565b5f9081526003602052604090205490565b34801561060d575f80fd5b5061023861061c366004611f1e565b611234565b34801561062c575f80fd5b5061026860055481565b5f7f8456cb591a934d53f6ccc6332123a165a1f3562907bf11330d847a29ca49eb897f3f4ba83af89dc9793996d9e56b8abe6dc88cd97c9c2bb23027806e9c1ffd54dc7fbb1d6363e20e842acf5a1fd64aa91f08697f8f559b94a3032a0414b5d5b4bf557f44e29c9d000000000000000000000000000000000000000000000000000000007fffffffff000000000000000000000000000000000000000000000000000000008616016106ee57506001949350505050565b6106f78561134d565b95945050505050565b5f8181526006602052604081205461ffff16808203610780576040517f2ce0c3cc00000000000000000000000000000000000000000000000000000000815260206004820152601260248201527f5269736b206c6576656c206e6f7420736574000000000000000000000000000060448201526064015b60405180910390fd5b92915050565b7f02509c39826ef4d4fc9a6478dd388f892df655e831b495ea37e26344d4c48aca6107b0816113a2565b60018261ffff1610806107c7575060038261ffff16115b1561082e576040517f432f5b4a00000000000000000000000000000000000000000000000000000000815260206004820152601660248201527f5269736b206c6576656c206d75737420626520312d33000000000000000000006044820152606401610777565b5f8381526006602090815260409182902080547fffffffffffffffffffffffffffffffffffffffffffffffffffffffffffff00001661ffff8616908117909155915191825284917fe55bcf3cfceceb262801aac3279813f2aec4eb9b94ee1708c8d491ccde6fe09e91015b60405180910390a2505050565b5f828152602081905260409020600101546108c0816113a2565b6108ca83836113af565b50505050565b73ffffffffffffffffffffffffffffffffffffffff8116331461091f576040517f6697b23200000000000000000000000000000000000000000000000000000000815260040160405180910390fd5b61092982826113e2565b505050565b61093661140d565b61093f82611513565b610949828261158a565b5050565b5f6109566116c3565b507f360894a13ba1a3210667c828492db98dca3e2076cc3735a920a3ca505d382bbc5b90565b7f02509c39826ef4d4fc9a6478dd388f892df655e831b495ea37e26344d4c48aca6109a6816113a2565b6040514281527e6a76cff23a87e5d05452703cf1f9e30f22e4860d9e5cfd8ffaa4a45082eb3f9060200160405180910390a150565b7f02509c39826ef4d4fc9a6478dd388f892df655e831b495ea37e26344d4c48aca610a05816113a2565b5f8481526002602052604090205473ffffffffffffffffffffffffffffffffffffffff1680610a63576040517fbf15cfed00000000000000000000000000000000000000000000000000000000815260048101869052602401610777565b5f8581526003602052604081205490818103610bd6576040517f1940fe3100000000000000000000000000000000000000000000000000000000815261ffff8716600482015273ffffffffffffffffffffffffffffffffffffffff841690631940fe31906024015f604051808303815f87803b158015610ae1575f80fd5b505af1925050508015610af2575060015b610bce57610afe612256565b806308c379a003610b8c5750610b1261226e565b80610b1d5750610b8e565b80604051602001610b2e919061233d565b604080517fffffffffffffffffffffffffffffffffffffffffffffffffffffffffffffffe0818403018152908290527f08c379a0000000000000000000000000000000000000000000000000000000008252610777916004016121b7565b505b3d808015610bb7576040519150601f19603f3d011682016040523d82523d5f602084013e610bbc565b606091505b5080604051602001610b2e919061236e565b506001610cdf565b6040517f12d06cf2000000000000000000000000000000000000000000000000000000008152600481018390526024810188905261ffff8716604482015273ffffffffffffffffffffffffffffffffffffffff8416906312d06cf2906064015f604051808303815f87803b158015610c4c575f80fd5b505af1925050508015610c5d575060015b610cdb57610c69612256565b806308c379a003610c995750610c7d61226e565b80610c885750610c9b565b80604051602001610b2e91906123c5565b505b3d808015610cc4576040519150601f19603f3d011682016040523d82523d5f602084013e610cc9565b606091505b5080604051602001610b2e919061241c565b5060015b80610d6c576040517f2ce0c3cc00000000000000000000000000000000000000000000000000000000815260206004820152603260248201527f4661696c656420746f2063616c6c207570646174655269736b506172616d732060448201527f6f6e2074617267657420636f6e747261637400000000000000000000000000006064820152608401610777565b6040805161ffff8816815265ffffffffffff87166020820152339173ffffffffffffffffffffffffffffffffffffffff8616918a917f05354e87a68aa5cb6999aa5ac964ce3abdfcdcd93133bf8b146f36fa0a8cd05e910160405180910390a450505050505050565b5f610ddf816113a2565b62015180821015610e4c576040517f432f5b4a00000000000000000000000000000000000000000000000000000000815260206004820152601260248201527f496e74657276616c20746f6f2073686f727400000000000000000000000000006044820152606401610777565b600580549083905560408051828152602081018590527fa94a2e20bf04427921927a71afc87f5d4db15af2aa853cd909781260a4d70157910160405180910390a1505050565b5f828152600160205260408120610ea99083611732565b9392505050565b5f8181526001602052604090206060906107809061173d565b7f42847befda217a8205614b97eeba0062d90a739902cf3467520ceec144711539610ef3816113a2565b73ffffffffffffffffffffffffffffffffffffffff8316610f40576040517f8579befe00000000000000000000000000000000000000000000000000000000815260040160405180910390fd5b5f84815260026020526040902080547fffffffffffffffffffffffff00000000000000000000000000000000000000001673ffffffffffffffffffffffffffffffffffffffff85161790558115610fa2575f8481526003602052604090208290555b604051339073ffffffffffffffffffffffffffffffffffffffff85169086907f449aa4a50afa84d7de8a6dc2c62b582a6d6ad1b49073604bccb3e16fbda47fe0905f90a450505050565b5f610ff5611749565b805490915060ff68010000000000000000820416159067ffffffffffffffff165f811580156110215750825b90505f8267ffffffffffffffff16600114801561103d5750303b155b90508115801561104b575080155b15611082576040517ff92ee8a900000000000000000000000000000000000000000000000000000000815260040160405180910390fd5b84547fffffffffffffffffffffffffffffffffffffffffffffffff000000000000000016600117855583156110e35784547fffffffffffffffffffffffffffffffffffffffffffffff00ffffffffffffffff16680100000000000000001785555b73ffffffffffffffffffffffffffffffffffffffff8616611130576040517f8579befe00000000000000000000000000000000000000000000000000000000815260040160405180910390fd5b61113a5f876113af565b506111657f189ab7a9244df0848122154315af71fe140f3db0fe014031783b0946b8c9d2e3876113af565b506111907f02509c39826ef4d4fc9a6478dd388f892df655e831b495ea37e26344d4c48aca876113af565b5083156111f25784547fffffffffffffffffffffffffffffffffffffffffffffff00ffffffffffffffff168555604051600181527fc7f505b2f371ae2175ee4913f4499e1f2633a7b5936321eed1cdaeb6115181d29060200160405180910390a15b505050505050565b5f81815260016020526040812061078090611771565b5f8281526020819052604090206001015461122a816113a2565b6108ca83836113e2565b7f02509c39826ef4d4fc9a6478dd388f892df655e831b495ea37e26344d4c48aca61125e816113a2565b5f8281526002602052604090205473ffffffffffffffffffffffffffffffffffffffff16806112bc576040517fbf15cfed00000000000000000000000000000000000000000000000000000000815260048101849052602401610777565b6005545f848152600460205260409020546112d791906124a0565b4210610929575f8381526004602090815260408083204290819055600383529281902054815193845273ffffffffffffffffffffffffffffffffffffffff85169284019290925282015283907f67dda5cc354a8a1ec0acdd2309ad8a99e81aecf5593fa9d6b1ecc071c2c7044d90606001610899565b5f7fffffffff0000000000000000000000000000000000000000000000000000000082167f5a05180f00000000000000000000000000000000000000000000000000000000148061078057506107808261177a565b6113ac8133611810565b50565b5f806113bb8484611895565b90508015610ea9575f8481526001602052604090206113da908461198e565b509392505050565b5f806113ee84846119af565b90508015610ea9575f8481526001602052604090206113da9084611a68565b3073ffffffffffffffffffffffffffffffffffffffff7f00000000000000000000000000000000000000000000000000000000000000001614806114da57507f000000000000000000000000000000000000000000000000000000000000000073ffffffffffffffffffffffffffffffffffffffff166114c17f360894a13ba1a3210667c828492db98dca3e2076cc3735a920a3ca505d382bbc5473ffffffffffffffffffffffffffffffffffffffff1690565b73ffffffffffffffffffffffffffffffffffffffff1614155b15611511576040517fe07c8dba00000000000000000000000000000000000000000000000000000000815260040160405180910390fd5b565b7f189ab7a9244df0848122154315af71fe140f3db0fe014031783b0946b8c9d2e361153d816113a2565b73ffffffffffffffffffffffffffffffffffffffff8216610949576040517f8579befe00000000000000000000000000000000000000000000000000000000815260040160405180910390fd5b8173ffffffffffffffffffffffffffffffffffffffff166352d1902d6040518163ffffffff1660e01b8152600401602060405180830381865afa92505050801561160f575060408051601f3d9081017fffffffffffffffffffffffffffffffffffffffffffffffffffffffffffffffe016820190925261160c918101906124b3565b60015b61165d576040517f4c9c8ce300000000000000000000000000000000000000000000000000000000815273ffffffffffffffffffffffffffffffffffffffff83166004820152602401610777565b7f360894a13ba1a3210667c828492db98dca3e2076cc3735a920a3ca505d382bbc81146116b9576040517faa1d49a400000000000000000000000000000000000000000000000000000000815260048101829052602401610777565b6109298383611a89565b3073ffffffffffffffffffffffffffffffffffffffff7f00000000000000000000000000000000000000000000000000000000000000001614611511576040517fe07c8dba00000000000000000000000000000000000000000000000000000000815260040160405180910390fd5b5f610ea98383611aeb565b60605f610ea983611b11565b5f807ff0c57e16840df040f15088dc2f81fe391c3923bec73e23a9662efc9c229c6a00610780565b5f610780825490565b5f7fffffffff0000000000000000000000000000000000000000000000000000000082167f7965db0b00000000000000000000000000000000000000000000000000000000148061078057507f01ffc9a7000000000000000000000000000000000000000000000000000000007fffffffff00000000000000000000000000000000000000000000000000000000831614610780565b5f8281526020818152604080832073ffffffffffffffffffffffffffffffffffffffff8516845290915290205460ff16610949576040517fe2517d3f00000000000000000000000000000000000000000000000000000000815273ffffffffffffffffffffffffffffffffffffffff8216600482015260248101839052604401610777565b5f8281526020818152604080832073ffffffffffffffffffffffffffffffffffffffff8516845290915281205460ff16611987575f8381526020818152604080832073ffffffffffffffffffffffffffffffffffffffff86168452909152902080547fffffffffffffffffffffffffffffffffffffffffffffffffffffffffffffff001660011790556119253390565b73ffffffffffffffffffffffffffffffffffffffff168273ffffffffffffffffffffffffffffffffffffffff16847f2f8788117e7eff1d82e926ec794901d17c78024a50270940304540a733656f0d60405160405180910390a4506001610780565b505f610780565b5f610ea98373ffffffffffffffffffffffffffffffffffffffff8416611b6a565b5f8281526020818152604080832073ffffffffffffffffffffffffffffffffffffffff8516845290915281205460ff1615611987575f8381526020818152604080832073ffffffffffffffffffffffffffffffffffffffff8616808552925280832080547fffffffffffffffffffffffffffffffffffffffffffffffffffffffffffffff0016905551339286917ff6391f5c32d9c69d2a47ea670b442974b53935d1edc7fd64eb21e047a839171b9190a4506001610780565b5f610ea98373ffffffffffffffffffffffffffffffffffffffff8416611baf565b611a9282611c92565b60405173ffffffffffffffffffffffffffffffffffffffff8316907fbc7cd75a20ee27fd9adebab32041f755214dbc6bffa90cc0225b39da2e5c2d3b905f90a2805115611ae3576109298282611d60565b610949611dd6565b5f825f018281548110611b0057611b006124ca565b905f5260205f200154905092915050565b6060815f01805480602002602001604051908101604052809291908181526020018280548015611b5e57602002820191905f5260205f20905b815481526020019060010190808311611b4a575b50505050509050919050565b5f81815260018301602052604081205461198757508154600181810184555f848152602080822090930184905584548482528286019093526040902091909155610780565b5f8181526001830160205260408120548015611c89575f611bd16001836124f7565b85549091505f90611be4906001906124f7565b9050808214611c43575f865f018281548110611c0257611c026124ca565b905f5260205f200154905080875f018481548110611c2257611c226124ca565b5f918252602080832090910192909255918252600188019052604090208390555b8554869080611c5457611c5461250a565b600190038181905f5260205f20015f90559055856001015f8681526020019081526020015f205f905560019350505050610780565b5f915050610780565b8073ffffffffffffffffffffffffffffffffffffffff163b5f03611cfa576040517f4c9c8ce300000000000000000000000000000000000000000000000000000000815273ffffffffffffffffffffffffffffffffffffffff82166004820152602401610777565b7f360894a13ba1a3210667c828492db98dca3e2076cc3735a920a3ca505d382bbc80547fffffffffffffffffffffffff00000000000000000000000000000000000000001673ffffffffffffffffffffffffffffffffffffffff92909216919091179055565b60605f808473ffffffffffffffffffffffffffffffffffffffff1684604051611d899190612537565b5f60405180830381855af49150503d805f8114611dc1576040519150601f19603f3d011682016040523d82523d5f602084013e611dc6565b606091505b50915091506106f7858383611e0e565b3415611511576040517fb398979f00000000000000000000000000000000000000000000000000000000815260040160405180910390fd5b606082611e2357611e1e82611e9d565b610ea9565b8151158015611e47575073ffffffffffffffffffffffffffffffffffffffff84163b155b15611e96576040517f9996b31500000000000000000000000000000000000000000000000000000000815273ffffffffffffffffffffffffffffffffffffffff85166004820152602401610777565b5092915050565b805115611ead5780518082602001fd5b6040517fd6bda27500000000000000000000000000000000000000000000000000000000815260040160405180910390fd5b5f60208284031215611eef575f80fd5b81357fffffffff0000000000000000000000000000000000000000000000000000000081168114610ea9575f80fd5b5f60208284031215611f2e575f80fd5b5035919050565b803561ffff81168114611f46575f80fd5b919050565b5f8060408385031215611f5c575f80fd5b82359150611f6c60208401611f35565b90509250929050565b803573ffffffffffffffffffffffffffffffffffffffff81168114611f46575f80fd5b5f8060408385031215611fa9575f80fd5b82359150611f6c60208401611f75565b7f4e487b71000000000000000000000000000000000000000000000000000000005f52604160045260245ffd5b7fffffffffffffffffffffffffffffffffffffffffffffffffffffffffffffffe0601f830116810181811067ffffffffffffffff8211171561202a5761202a611fb9565b6040525050565b5f8060408385031215612042575f80fd5b61204b83611f75565b9150602083013567ffffffffffffffff811115612066575f80fd5b8301601f81018513612076575f80fd5b803567ffffffffffffffff81111561209057612090611fb9565b6040516120c560207fffffffffffffffffffffffffffffffffffffffffffffffffffffffffffffffe0601f8501160182611fe6565b8181528660208385010111156120d9575f80fd5b816020840160208301375f602083830101528093505050509250929050565b5f805f6060848603121561210a575f80fd5b8335925061211a60208501611f35565b9150604084013565ffffffffffff81168114612134575f80fd5b809150509250925092565b5f8060408385031215612150575f80fd5b50508035926020909101359150565b602080825282518282018190525f918401906040840190835b818110156121ac57835173ffffffffffffffffffffffffffffffffffffffff16835260209384019390920191600101612178565b509095945050505050565b602081525f82518060208401528060208501604085015e5f6040828501015260407fffffffffffffffffffffffffffffffffffffffffffffffffffffffffffffffe0601f83011684010191505092915050565b5f805f6060848603121561221c575f80fd5b8335925061222c60208501611f75565b929592945050506040919091013590565b5f6020828403121561224d575f80fd5b610ea982611f75565b5f60033d11156109795760045f803e505f5160e01c90565b5f60443d101561227b5790565b6040517ffffffffffffffffffffffffffffffffffffffffffffffffffffffffffffffffc3d016004823e80513d602482011167ffffffffffffffff821117156122c357505090565b808201805167ffffffffffffffff8111156122df575050505090565b7ffffffffffffffffffffffffffffffffffffffffffffffffffffffffffffffffc3d8501016020828401011115612317575050505090565b6113da60208285010185611fe6565b5f81518060208401855e5f93019283525090919050565b7f5661756c74207570646174655269736b506172616d73206661696c65643a200081525f610ea9601f830184612326565b7f5661756c74207570646174655269736b506172616d73206661696c656420286c81527f6f77206c6576656c293a2000000000000000000000000000000000000000000060208201525f610ea9602b830184612326565b7f506f6f6c4d616e61676572207570646174655269736b506172616d732066616981527f6c65643a2000000000000000000000000000000000000000000000000000000060208201525f610ea96025830184612326565b7f506f6f6c4d616e61676572207570646174655269736b506172616d732066616981527f6c656420286c6f77206c6576656c293a2000000000000000000000000000000060208201525f610ea96031830184612326565b7f4e487b71000000000000000000000000000000000000000000000000000000005f52601160045260245ffd5b8082018082111561078057610780612473565b5f602082840312156124c3575f80fd5b5051919050565b7f4e487b71000000000000000000000000000000000000000000000000000000005f52603260045260245ffd5b8181038181111561078057610780612473565b7f4e487b71000000000000000000000000000000000000000000000000000000005f52603160045260245ffd5b5f610ea9828461232656fea2646970667358221220c8d58d7307c34173c73c70bde5008dbbb8ae6103f66c5e82722e32b22a188cad64736f6c634300081a0033",
    "linkReferences": {}
  },
  "methodIdentifiers": {
    "DEFAULT_ADMIN_ROLE()": "a217fddf",
    "UPGRADE_INTERFACE_VERSION()": "ad3cb1cc",
    "assessmentInterval()": "f322b0ae",
    "getPoolId(uint256)": "e7ef0fdc",
    "getProjectRiskLevel(uint256)": "0630bcd7",
    "getRoleAdmin(bytes32)": "248a9ca3",
    "getRoleMember(bytes32,uint256)": "9010d07c",
    "getRoleMemberCount(bytes32)": "ca15c873",
    "getRoleMembers(bytes32)": "a3246ad3",
    "getTargetContract(uint256)": "75cef6c8",
    "grantRole(bytes32,address)": "2f2ff15d",
    "hasRole(bytes32,address)": "91d14854",
    "initialize(address)": "c4d66de8",
    "lastAssessmentTimestamp(uint256)": "d8d98d0b",
    "projectPoolId(uint256)": "bcfaa30e",
    "projectRiskLevels(uint256)": "a884fac2",
    "projectTargetContract(uint256)": "bccd5eee",
    "proxiableUUID()": "52d1902d",
    "pushRiskParams(uint256,uint16,uint48)": "6df8683f",
    "renounceRole(bytes32,address)": "36568abe",
    "requestPeriodicAssessment(uint256)": "ebd15448",
    "revokeRole(bytes32,address)": "d547741f",
    "setAssessmentInterval(uint256)": "89a413c7",
    "setProjectRiskLevel(uint256,uint16)": "08020104",
    "setTargetContract(uint256,address,uint256)": "b6ec0db3",
    "supportsInterface(bytes4)": "01ffc9a7",
    "triggerBatchRiskAssessment()": "6c4d71c3",
    "upgradeToAndCall(address,bytes)": "4f1ef286"
  },
  "id": 90
}